:020000022000DC
:1060000000000420B5620200DD620200DF620200CF
:10601000E1620200E3620200E562020000000000AB
:10602000000000000000000000000000E762020025
:10603000E962020000000000EB620200ED62020073
:10604000718B0200EF62020051950200EF620200C4
:10605000EF620200EF620200E98F0200EF620200CD
:10606000EF620200EF620200EF620200EF620200E4
:10607000EF620200EF620200EF620200EF620200D4
:10608000EF620200BD720200EF620200EF620200E6
:106090005D730200EF620200B5B50200EF6202001C
:1060A000EF620200EF620200EF620200EF620200A4
:1060B000EF620200EF62020000000000000000003A
:1060C000EF620200EF620200EF620200EF62020084
:1060D000EF620200EF620200EF620200EF62020074
:1060E000EF620200EF620200EF62020000000000B7
:1060F00000000000EF62020000000000EF620200FA
:10610000000000000000000000000000000000008F
:10611000000000000000000000000000000000007F
:10612000000000000000000000000000000000006F
:10613000000000000000000000000000000000005F
:10614000000000000000000000000000000000004F
:10615000000000000000000000000000000000003F
:10616000000000000000000000000000000000002F
:10617000000000000000000000000000000000001F
:10618000000000000000000000000000000000000F
:1061900000000000000000000000000000000000FF
:1061A00000000000000000000000000000000000EF
:1061B00000000000000000000000000000000000DF
:1061C00000000000000000000000000000000000CF
:1061D00000000000000000000000000000000000BF
:1061E00000000000000000000000000000000000AF
:1061F000000000000000000000000000000000009F
:1062000010B5054C237833B9044B13B10448AFF3F0
:1062100000800123237010BDF8240020000000003E
:1062200050C6020008B5034B1BB103490348AFF346
:10623000008008BD00000000FC24002050C60200C1
:10624000154B002B08BF134B9D46A3F5803A002148
:106250008B460F461348144A121A05F088FB0F4B61
:10626000002B00D098470E4B002B00D09847002001
:10627000002104000D000D48002802D00C48AFF3A7
:10628000008005F025FB2000290003F0CFFF05F07A
:106290000BFB00BF0000080000000420000000000D
:1062A00000000000F8240020A42E002000000000C0
:1062B000000000000649074A074B9B1A03DD043B18
:1062C000C858D050FBDC02F0B5F9FFF7B9FF000069
:1062D00030C70200E0220020F8240020FEE7FEE79D
:1062E000FEE7FEE7FEE7FEE7FEE7FEE7FEE7FEE786
:1062F000F0B595B0002415460F4608461E4602F03C
:1063000071F8384623460895082205A91A9D099672
:106310000D950A948DF82C400C9402F0BDF89DF870
:1063200014308DF81140DDE9061003F00302012A54
:10633000CDE9020127D0022A04D0384602F056F8EF
:1063400015B0F0BDBDF81650C3F3C2038DF8103080
:10635000AD090826082D2C4628BF082433462246BE
:106360000EA9384602F098F82D1B214608AB02AA68
:106370000EA8264400F03EFD002DEBD1384602F079
:1063800035F815B0F0BDBDF81460059DC6F3831651
:10639000C3F3C204B2000EA9384608238DF810409A
:1063A000C5F3952502F078F808AB324628460EA9C9
:1063B000009302AB00F078FC384602F017F815B0F5
:1063C000F0BD00BF014B01221A7070475825002014
:1063D000704700BF00B583B0044B0093044A4023CC
:1063E000FFF786FF03B05DF804FB00BFF563020012
:1063F0001825002038B50E480E4D03780E4CEB5C86
:106400000025D2B2257053B90C3003F027FB58B9E0
:106410000A4B1B7813B12378002BFCD038BD043015
:1064200003F094FD0028F3D000F000FFF0E700BF78
:10643000E0220020A02E0020582500201425002056
:1064400070B51348134A0378D35C88B0DBB90C30BD
:1064500003F086FA104D0FCD6C460FC495E80F007F
:1064600008AD1F2645F8206D84E80F00294600225C
:10647000074802F00DFB08B100F0D8FE074B0022E0
:106480001A7008B070BD043003F0E0FCE2E700BF12
:10649000E0220020A02E0020C4B902001425002014
:1064A00070B50D4D0FCD88B06C460FC495E80F0048
:1064B00008AD1F2645F8206D84E80F002946074ADD
:1064C000074802F0E5FA08B100F0B0FE054B0122E2
:1064D0001A7008B070BD00BFC4B90200C5630200E5
:1064E000E02200201425002008B5FFF7D9FF042181
:1064F000034800F08FFB034B01225A7108BD00BF17
:1065000018C70200F4220020F0B5324C85B004F523
:10651000836001F079FA04F2144001F075FAD4E9CD
:10652000013703EA0702D01C04EB800114F82000B5
:1065300010F0040044D003F1020C0E7806F00306BC
:10654000012E654635D0022E02F1030621D004EB60
:1065500086010028F1D104EB82020133D268019256
:106560003B4004EB830302F00302012ADE6829D0DA
:10657000022A23D1BDF806309B090333360C05EB04
:106580009305154801F04CFA00B16560304605B03E
:10659000F0BD4B880CEB931307EA0302D11C03F107
:1065A000020C14F82100654604EB810100F00400A0
:1065B000CFE70B88C3F383136344EDE70026E0E7DE
:1065C0009D1CC8E7BDF80430C3F38313360C1D448B
:1065D000D7E700BF2C260020402A00200B4B0C4898
:1065E00010B50022FF21C3F818249960C3E90022E6
:1065F000C3F8142483F8202401F0B0FE044610B937
:10660000044801F0BDFF204610BD00BF2C2600202D
:10661000A4C6020004BA020021B9124B03EBC00069
:1066200000687047104A0F49521AD20815D030B48A
:106630000E4D2B88834212D0002303E035F823400F
:10664000844205D001339A42F8D1002030BC704713
:1066500001EBC300006830BC704710467047084625
:10666000F8E700BFB8C6020018C70200F4240020F3
:10667000094B013903EBC00003290BD8DFE801F017
:10668000020806040220704740797047007970477D
:106690000420704700207047B8C602002DE9F0437F
:1066A00083B002AB002203F8012DDFF8DC9007462F
:1066B00018468846D9F8084001F010F9D9E90132A6
:1066C000D9F80060134401339B1B012B58D809F201
:1066D0001C450121284601F07FF9FFF715FF01460F
:1066E000284601F079F9D9E90132D9F800101344AC
:1066F00001335B1A012BECD90A4003320523023126
:106700009DF8070049F82230C9F8001001F00CF993
:1067100000211C4801F03EF980F31000731C234057
:1067200009EB830300043440033440EA1740D86087
:1067300019F8243067F3C50309F8243039F82430F8
:106740006FF3891329F8243059F8242068F39F2225
:106750001346012161F301036FF3820349F82420FA
:1067600009F8243099F820341BB906E000F00EF83F
:1067700018B1D9E900329A42F8D103B0BDE8F083EC
:106780003146B9E7482A00202C2600202DE9F047A1
:10679000934C002384B0C4F81834BFF34F8FD4E96E
:1067A000015605EA0602D31C04EB830114F82330DA
:1067B000580719D527680B7803F00303012B43D042
:1067C000022B03D14B88023505EB931506EA05022F
:1067D000D4F81804D31C04EB830128B9AF4239D98B
:1067E00014F823305B07E6D404EB82026B1CD268FA
:1067F0000192334004EB830302F00302DB6802934F
:10680000022A05F1020700F08D80012A26D0D4F873
:1068100010543DB12B6828469B689847EB681D686B
:10682000002DF7D16F48704B7049C01AC0080004A2
:1068300040F00200FFF732FFD4E90030C01A18BF61
:10684000012004B0BDE8F0870B880235C3F3831341
:106850001D44BBE7676004B0BDE8F087BDF80420C5
:106860006348C2F38313062B28BF062363F3891200
:1068700002339900ADF8042001F072FD8046002833
:10688000C5D001F0AFFD0023082201A9404601F068
:10689000CFFDBDF8043013F4707F00F09F806FF0DF
:1068A000010AAAEB050A082506EA070103312B466F
:1068B000042204EB8101404601F0BAFDBDF804302A
:1068C00007F101090AEB0902C3F3831393424F4610
:1068D00005F10405E8D8D4F81834002B68D1D4F8B1
:1068E000105465B1EB685A7928464146002A5BD0BE
:1068F0002B681B689847EB681D68002DF2D1404655
:1069000001F074FD04A8002300F80D3D00F0E6FF3F
:10691000D4F818340BB9C4F804909DF8030001F0C2
:1069200003F889E7BDF8063031484FEA93194D4620
:10693000502D28BF502565F38F1305F10801ADF8E0
:10694000063001F00DFD804600283FF460AF26EAD6
:10695000070A0AF1010A01F045FD4FEA8A0A0023FD
:10696000082201A9404601F063FD55452BD9EBB241
:10697000BAF1000F20D006EA0701A3EB0A030331A6
:1069800004EB8101DDB252460823404601F050FD80
:106990002A460AF108031749404601F049FD09F16A
:1069A000030907EB990996E71D68002D9AD1A6E720
:1069B000404601F01BFD3FE72A4608230D494046AB
:1069C00001F036FDEBE706EA0701033104EB810134
:1069D0002A460823404601F02BFDE0E7B9467AE756
:1069E0002C260020E0C60200B8C6020010BA020041
:1069F000A4C60200382600202DE9F04782B002AB81
:106A0000002403F8014DDFF8ECA007461846914634
:106A10008846DAF8084000F061FFDAE90132DAF876
:106A20000060134401339B1B022B5ED80AF21C4505
:106A30000121284600F0D0FFFFF766FD01462846F9
:106A400000F0CAFFDAE90132DAF80010134401332A
:106A50005B1A022BECD90A400332033145239DF81F
:106A600007004AF82230CAF8001000F05DFFB31C9E
:106A700023400AEB830300211D48C3F80C9000F06B
:106A800089FF80F31000731C23400AEB830300048A
:106A90003440033440EA1740D8601AF8243067F3D2
:106AA000C5030AF824303AF82430012161F3891330
:106AB0002AF824305AF8242068F39F22134661F301
:106AC00001036FF382034AF824200AF824309AF86D
:106AD00020341BB906E0FFF759FE18B1DAE900329D
:106AE0009A42F8D102B0BDE8F0873146B3E700BF63
:106AF000482A00202C2600202DE9F04F83B002AD5B
:106B0000002405F8014D3B4C8046284693469A46A2
:106B10008946A56800F0E2FED4E9013227681344F3
:106B20000133DB1B032B63D804F21C4601213046E2
:106B300000F052FFFFF7E8FC0146304600F04CFF42
:106B4000D4E901322168134401335B1A032BEDD9D8
:106B50000A400332852344F8223004319DF80700AF
:106B6000216000F0E1FEBA1CFB1C2A402B4004EB24
:106B7000820204EB830300211F48C2F80CB0C3F863
:106B80000CA000F007FF80F310007B1C2B4004EBEF
:106B9000830300043D40033540EA1840D86014F8F0
:106BA000253068F3C50304F8253034F82530022277
:106BB00062F3891324F8253054F8252069F39F22C5
:106BC0001346012161F301036FF3820344F825208A
:106BD00004F8253094F820341BB906E0FFF7D6FD01
:106BE00018B1D4E900329A42F8D103B0BDE8F08F71
:106BF0003946ADE72C260020482A0020044BD3E973
:106C000000239A4201D0FFF7C1BD0020704700BFAA
:106C10002C26002030B4184DD5F8104400215CB16A
:106C2000E3681A798A4204D116E0DB681A798A424D
:106C300012D01B68002BF8D1C3681971D5F8103435
:106C400093B1DA68C36812681A60D5F81034DB684B
:106C5000186030BC0846704701310A29DFD14FF077
:106C6000FF31084630BC7047C5F81004C268136095
:106C7000084630BC704700BF2C26002038B5094BB1
:106C8000D3F81044012583F820544CB1E3685D71BA
:106C9000236820465B689847E3681C68002CF5D1A0
:106CA00038BD00BF2C2600202DE9F04784B01D46DA
:106CB0000C9C002394F80C802373EB8881460E46CD
:106CC0001746002B40D1297A05290ED06B7AA88867
:106CD00073BB404B53F821A00021FFF79DFC5246A7
:106CE00003463D49204600F013FF062F09D8DFE890
:106CF00007F0046A4249525D33004946204600F0DD
:106D000007FF2B7A052B05D06B7A5BB933492046F8
:106D100000F0FEFE204600F0EFFE84F80C8004B088
:106D2000BDE8F0872E4A2F49204600F0F1FEEDE73E
:106D3000FFF79EFC2C4B2B4953F82020204600F0F7
:106D4000E7FE297AA888C4E7254A00922749284AFD
:106D5000204600F0DDFEB6E7D6E90410D6E90023B0
:106D60000390D6E902070291CDE900074946204683
:106D700000F0CEFEC5E74946D6E90023204600F0E4
:106D8000C7FEBEE7B168D6E9002320460091494618
:106D900000F0BEFEB5E7D6E90201D6E90023019175
:106DA00000904946204600F0B3FEAAE7D6E90371F9
:106DB000B068D6E900230291CDE900074946204694
:106DC00000F0A6FE9DE732684946204600F0A0FE8E
:106DD00097E700BF9CBA02008CBA020098BA020082
:106DE00080BA020088BA020028BA020068BA02001B
:106DF00060BA0200082900D970472DE9F04F1D46FE
:106E0000904600232A7B2B7385B0B8F80630039296
:106E100007460E46002B7BD198F80810052911D0A3
:106E200098F80930B8F80400002B63D13C4B53F8B4
:106E300021400021FFF7F0FB22460346394928464E
:106E400000F066FEDFF8FCB0DFF8FC90002405E0FF
:106E50003A5D013400F05CFE082C09D0A642494698
:106E60002846F5D85946013400F052FE082CF5D1D9
:106E70002D49DFF8D8B0DFF8D890284600F048FE5A
:106E800000240CE017F804A0BAF17E0F23D92E22BB
:106E900049462846013400F03BFE082C08D0A642A3
:106EA000F0D859462846013400F032FE082CF6D1BD
:106EB00098F80830052B02D098F80930A3B91B497F
:106EC000284600F025FE284600F016FE039B2B7393
:106ED00005B0BDE8F08F04F01FFD504452464378E2
:106EE00013F0970FD3D0D3E7114A1249284600F088
:106EF0000FFEE4E7FFF7BCFB0F4B0E4953F82020D1
:106F0000284600F005FE98F80810B8F804008DE750
:106F1000074A009209490A4A284600F0F9FD7BE732
:106F20009CBA02008CBA020058BA020098BA020059
:106F300080BA020088BA020028BA020068BA0200C9
:106F400060BA020054BA02004CBA020094BA0200BD
:106F50005CBA0200434B1978002900F081802DE9CA
:106F6000F04F002487B001258E4603E00134E4B2DF
:106F7000744560D23C4B27B21E6816F837C0ACF19E
:106F8000200205FA02F9394ACCF12003D2E90001C6
:106F900025FA03F349EA030905FA0CF800EA0802A6
:106FA00001EA0903134306EBC70BDFD021EA09030B
:106FB0002E4920EA08026046C1E9002302F004F8E5
:106FC00016F837C0ACF1200205FA02F201920199DD
:106FD000CCF12003C6B225FA03F3ACF12002194329
:106FE00006FA02F30393224B0191D3E90023CDE982
:106FF000042305FA0CF30093CCF12001039B26FA3D
:1070000001F10B43039306FA0CF30293DDE90467E5
:10701000DDE9002316401F4032463B46DDE90267AA
:10702000BB4208BFB24209D00E4B013493F800E0D6
:10703000E4B274459ED307B0BDE8F08F9BF8011011
:10704000DBF80430A1F10101B1FA81F14909091A13
:10705000B1FA81F14909002BE6D060469847E3E791
:10706000704700BFE82A0020202B0020182B0020AA
:10707000102B00202DE9F84F0646244800F0F4FBC1
:10708000D8B9234F0123A6F1200103FA01FBC6F171
:107090002002D7E9000123FA02F24BEA020B03FABD
:1070A00006FA00EA0A0201EA0B03134307D020EABA
:1070B0000A0421EA0B05C7E90045BDE8F88F304610
:1070C00001F082FF134ED6E90089C8B148EA0A03ED
:1070D00049EA0B049846A146D7E900234BEA030589
:1070E0000D4B0A4819684AEA02044B464246C6E973
:1070F0000023C7E900450022BDE8F84F00F05EBB61
:1071000028EA0A0829EA0B09E6E700BFF02A00206E
:10711000182B0020102B0020EC2A0020042A36D93E
:107120002DE9F04182B00E460546144601F09CFD63
:10713000002836D01D491E4A1E4B0D601E481F49AF
:107140001C60167000230022741EC0E90023C1E9F0
:107150000023E4B2EEB105EBC404194F083D4FF033
:107160000008032601E0AC4213D0A37820788DF804
:1071700006803A4601A98DF804608DF8053001F0CB
:107180007DFD083C0028EED002B0BDE8F08107206C
:1071900070470C4A0C48002100F0FEFA02B0BDE82E
:1071A000F08101F017FD0028C4D0EDE7202B00206E
:1071B000E82A0020EC2A0020102B0020182B0020A9
:1071C00075700200556F020008BB020070B5084DD3
:1071D0002B785BB1074E00243368012113F834008B
:1071E00001F03CFE2B780134A342F5D8002070BD9D
:1071F000E82A0020202B002070B5094D2B7853B1D0
:10720000084E0024336813F8340001F0A3FE2B78F5
:107210000134A342F6D80448BDE8704000F024BB16
:10722000E82A0020202B0020F02A002000B585B09D
:1072300000230390194601AA44F20100CDE901336D
:1072400000F004F805B05DF804FB00BF10B572B69D
:10725000FFF714FDFFF7D2FC0028FBD1104B114CB7
:107260001149E41AE408240444F00100FFF716FA77
:107270000E4B1B68DB0700D500BE44F002000C4932
:10728000FFF70CFABFF34F8F0A490B4BCA6802F4A1
:10729000E0621343CB60BFF34F8F00BFFDE700BF39
:1072A000B8C60200E0C602000CBB0200F0ED00E030
:1072B00018BB020000ED00E00400FA05F8B5204A12
:1072C000204B0024C2F84041C2F84441C2F8484172
:1072D000C2F84C41C2F80041C2F804411B6833B304
:1072E0001949D2F804550A68AD1A1A6825F07F4585
:1072F000AA4227460DD8197CDE69AD1A144419B18B
:107300001F74D3E9052090471EB133461A68AA427C
:10731000F1D90E490E4A0B7812789A4208D00D49DD
:107320000D4A41F823404FF48013C2F80031F8BDF4
:10733000531CDBB2022B08BF00230B70EFE700BF2A
:1073400000100140442C0020402C00203D2C002047
:107350003C2C0020342C002000E100E02DE9F04F0F
:107360008C4A8D4913780978DFF85082994285B0AC
:10737000D8F800A000F07B810133DBB2022B08BFFC
:10738000002386481370864A076852F823107B183A
:1073900023F07F4300240360534626462046A4463C
:1073A000ABB11A688A4200F26581DC68C3F800C09C
:1073B000891A1044DA6934B13D1825F07F45C3E9D4
:1073C0000154DE611E4613460124002BE9D1002C36
:1073D00040F07C8101230093724B734FDFF8E09102
:1073E00043F00103019355464FF0000B46B3D6E935
:1073F00001C13446F669694B6C481A68ACEB02036C
:1074000023F07F43834248D80B44236000220121AC
:10741000C4E90122E2612174002D5DD02A689A42FC
:107420004DD2284603E00A689A424FD20846C16905
:107430009B1A0029F7D12360E161C461002ED6D1E7
:1074400078783978884264D00B4603EB43034C1CB0
:10745000BA7807EBC303E1B28A421A79397004BFE4
:1074600000213970022A9C6844D0032A38D0012AAE
:10747000E8D1227C002AE5D1D3F80CC0C4F804C0BE
:107480001969A1605869E06099F800009B69A361DF
:107490000028B0D062609446ADE7A2EB0C0222F067
:1074A0007F428A4202D28B1A2360AFE70023012277
:1074B000C4E90033A360E36122746DB12A68C8F89F
:1074C0000040D31A2B60E56125468FE7D21A0A6087
:1074D0002360E161C461B1E7C8F80040254685E753
:1074E000002DAFD000232B74ED69002DFBD1C8F81F
:1074F0000050A5E74DB1AC422B4603D1E4E09442E5
:107500002FD01346DA69002AF9D100232374884268
:107510009AD1BBF1000F01D1554553D0002D56D162
:10752000234E244A1F4C4FF480334FF4003101277F
:10753000C2F880103C43C6F848334FF43C60C6F8AC
:1075400008337760A047154BB7604FF43C601D606F
:10755000A047194B1D70002389F8003005B0BDE825
:10756000F08FA34200F09180E0692168D861002883
:1075700000F086802A4603680B440360AA424FF05D
:1075800000033978787823741CBF15464FF0010B3F
:10759000BDE700BF3C2C00203D2C0020402C0020EB
:1075A000342C002030BB0200242B0020FEFF7F0083
:1075B0000010014000E100E0312C0020442C0020AC
:1075C000302C0020009B002BC5D0002DA8D0434BB1
:1075D000434A1C68D2F80465424FD5F800A03978B8
:1075E000331B23F07F43DD1CB9B93F493F4B4FF4B8
:1075F0008030C2F844034FF00108C2F804034FF48E
:107600000030C1F8800143F001030860C2F8008037
:107610004FF43C60984787F80080AA452CBF04EBE4
:107620000A0363192E4923F07F43C1F84035D1F88E
:107630000425921B9B1B22F07F4223F07F430332E1
:107640009A4288D9294BD1F80425C1F8402543F046
:1076500001034FF43C609847234B4FF40032C3F8CA
:107660000021002389F8003005B0BDE8F08F002626
:107670000096B1E674BB521A1A6001230093ABE680
:10768000002339787878237441E71946EA69C8F805
:10769000002092B9CDE90231114BDFF840C0012042
:1076A0009860019B89F80000CCF800204FF43C6002
:1076B0009847DDE90231D8F80020C8690968D86127
:1076C00000287FF458AF59E72946DFE7C8F80030B3
:1076D0009A467FE6C8F800309A46CCE7402C002056
:1076E00000100140312C002000E100E030BB02001E
:1076F0002DE9F8431F4D204E204FDFF898804FF4BE
:1077000080334FF400324FF001090024C6F8802086
:1077100047EA0907C5F848334FF43C60C5F8083319
:10772000C5F80490B847C5F808904FF43C60C8F815
:107730000040B847124A134B13491C601470134B96
:10774000134A0C700B2114701C8099704FF4801236
:10775000C023C6F8802186F814333260C5F8084586
:1077600086F81133D5F80435C8F800302046BDE856
:10777000F88300BF0010014000E100E030BB0200D0
:10778000312C0020442C00203C2C0020242B0020F5
:107790003D2C0020402C0020074B9B784BB132B190
:1077A00028B10368187C20B959745A6170470720C2
:1077B00070470820704700BF242B00202DE9F047B8
:1077C000264CA37882B0002B3CD000283AD0042964
:1077D0003CD94369002B35D0814602A899F8113075
:1077E0000026012B00F8016D0CBF8846B0461746F5
:1077F0008A4600F073F86378A17822789DF8070034
:107800005D1CEDB2A94208BF3546AA4222D003EB67
:10781000430304EBC3030121114AC3F80890197113
:10782000D2F804256570C3E9032AC3E9058700F08F
:107830007BF80C4B4FF480123046C3F8002102B0A5
:10784000BDE8F087082002B0BDE8F087072002B04D
:10785000BDE8F08700F068F80420F0E7242B002052
:107860000010014000E100E0F0B51A4CA37883B0AD
:1078700043B338B343692BB3064602A8002500F88A
:10788000015D357400F02AF86278A77821789DF8B8
:107890000700531CDBB29F4208BF2B46994214D00D
:1078A00002EB420204EBC202022196601171637086
:1078B00000F03AF8084B4FF480122846C3F8002134
:1078C00003B0F0BD082003B0F0BD00F02DF8042097
:1078D000F9E700BF242B002000E100E070B4EFF3D3
:1078E000108472B60D4B9A68AAB90D490D4E012548
:1078F0009D60D1F8805035401D60C1F88060D1F89E
:1079000084505D604FF0FF33C1F88430027004B9D9
:1079100062B670BC704701230370F8E7942E002014
:1079200000E100E0FC06FFBD094B9A687AB170B92E
:1079300010B4EFF3108172B6064A1C6814605C68DC
:107940005460986001B962B65DF8044B70477047A7
:10795000942E002000E100E001F01F024B090121FC
:1079600000EB8300914000F01FB800BF01F01F0240
:1079700001234909934000EB8100D94300F020B86E
:107980004B0901F01F0150F82300C84000F001002E
:10799000704700BF50E8002F0B4640E8003C9CF0C9
:1079A000000FF7D11046704750E8003F43EA01024C
:1079B00040E8002C9CF0000FF6D11046704700BF45
:1079C00050E8003F03EA010240E8002C9CF0000F61
:1079D000F6D11046704700BF50E8003F03EB0102AC
:1079E00040E8002C9CF0000FF6D11046704700BF15
:1079F00050E8003FA3EB010240E8002C9CF0000F90
:107A0000F6D11046704700BF012350E8002F42EA2C
:107A1000030C40E800C191F0000FF6D160467047BA
:107A2000002350E800CF0CEA030240E8002191F067
:107A3000000FF6D160467047B8B130B4D0E90112FA
:107A4000521A0468D2B2531E2160DBB242B10168FF
:107A50000A685C1E551C0D601370E3B2FF2BF6D153
:107A600003680020187130BC70470E20704700BFBB
:107A7000F0B583B002AB002503F8015D044618465B
:107A8000FFF72CFFD4E900311A688A4210D9511E41
:107A900019602168A3680F6812F8015C0A79268AC8
:107AA000E068DB1BDBB29A4206FB050538BF0B71B1
:107AB0009DF80700FFF738FF284603B0F0BD00BF70
:107AC00030B583B002AB002203F8012D05461846FD
:107AD0000C46FFF703FF2A681368591C1160E96818
:107AE0002A8A641AB4FBF2F41C709DF80700FFF7B1
:107AF0001BFF03B030BD00BF826842B110B5044621
:107B000043690168006998470023A36010BD70476E
:107B10000EB400B582B0039929B102AA04AB42F8B1
:107B2000043D00F0A9F802B05DF804EB03B0704723
:107B30002DE9F04F924683B051450F4605461E464B
:107B4000DDE90CB2C0F092800B464FF00108B3FBA8
:107B5000FAF39A4508F10108F9D9B04538BFB046A3
:107B600012F00109A96802D1BBF1000F54D1012420
:107B700002E0013E0AFB04F4012EFAD8B7FBF4F050
:107B80008245F7D93B4E02E0A968B7FBF4F0335CBD
:107B90002A680A2B04FB107702EB010E01F10100A9
:107BA00029D0A8608EF80030D5E90131994202D37E
:107BB0002846FFF7A1FFB4FBFAF4002CE4D1B9F199
:107BC000000F15D0BBF1000F12D0C34510D92024EF
:107BD000AB682A68591CA960D454D5E901329A428D
:107BE0000BF1FF3B14D2BBF1000F01D0C345EFD125
:107BF00003B0BDE8F08FA8604FF00D005054D5E9F8
:107C0000011088421DD2296801EB000E0130C8E73F
:107C10002846FFF771FFE6E7930722D42024C345E7
:107C2000A5D92B684A1CAA605C54D5E90131994258
:107C30000BF1FF3B10D2BBF1000F98D0C345F0D140
:107C400095E728460193FFF757FFAA682968019B2B
:107C5000501C01EB020EA4E72846FFF74DFFA96870
:107C6000E9E7002E0CBF30242024D8E74FF00108AC
:107C700073E700BF38BB0200002900F0B9822DE98C
:107C8000F04F054687B091460C460E78DFF8C8A63F
:107C90004FF00D0B13E0AB6828680A2E03F10102C8
:107CA00000EB030100F04B82AA600E70D5E90132AF
:107CB0009A4280F01B812678002E00F01E8101344C
:107CC000002E00F01A81252EE5D12346002713F857
:107CD000012B2D2A00F0E380302A00F0E4802B2ACB
:107CE00000F0D4802A2A00F00D81A2F13006F1B212
:107CF000092903D97DE2A1F130060346184606EBB7
:107D0000860110F8012BA2F13004092C02EB41018D
:107D1000F1D92E2A00F002814FF00008013301E072
:107D200013F8012B02F0FB0168291C46F8D0253A14
:107D3000532AC0D801A353F822F000BF27810200C4
:107D4000B77C0200B77C0200B77C0200B77C02005F
:107D5000B77C0200B77C0200B77C0200B77C02004F
:107D6000B77C0200B77C0200B77C0200B77C02003F
:107D7000B77C0200B77C0200B77C0200B77C02002F
:107D8000B77C0200B77C0200B77C0200B77C02001F
:107D9000B77C0200B77C0200B77C0200B77C02000F
:107DA000B77C0200B77C0200B77C0200B77C0200FF
:107DB000B77C0200B77C0200B77C0200B77C0200EF
:107DC000B77C0200B77C0200B77C0200B77C0200DF
:107DD000B77C0200B77C0200B77C0200B77C0200CF
:107DE000B77C0200B77C0200B77C0200B77C0200BF
:107DF000B77C0200B77C0200B77C0200B77C0200AF
:107E0000B77C0200B77C02000B810200B77C020045
:107E1000B77C0200B77C0200B77C0200B77C02008E
:107E2000B77C0200B77C0200B77C0200B77C02007E
:107E3000B77C0200AF7E020091800200B77C020096
:107E4000B77C0200B77C0200B77C02009180020080
:107E5000B77C0200B77C0200B77C0200B77C02004E
:107E6000B77C0200B77C0200F97F0200B77C0200F9
:107E7000B77C0200717F0200B77C0200557F0200D0
:107E8000B77C0200B77C02000B81020047F00407B8
:107E90001C46234613F8012B2D2A7FF41DAF47F013
:107EA00001071C46F5E747F002071C46F1E7D9F841
:107EB00000301A1DC9F800201E78AB680A2E0CD1BC
:107EC0002A68591CA96002F803B0D5E9012393423E
:107ED00003D32846FFF710FEAB682A68591CA96037
:107EE000D654D5E901329A42FFF4E5AE2846FFF7B1
:107EF00003FE2678002E7FF4E2AE2B7B23BB07B077
:107F0000BDE8F08FD9F80020111DC9F800101668DF
:107F100062782E2A04F102007FF4FEAE5A78A2F1B4
:107F20003003092B00F2BD814FF0000808EB8808F0
:107F300002EB480810F8012FA2F13003092BA8F139
:107F40003008F3D90346E9E6284607B0BDE8F04F0C
:107F5000FFF7D2BDD9F800301A1DC9F80020196802
:107F60000197434600960A222846FFF7E1FDA2E664
:107F7000D9F800301A1DC9F80020D3F80080FB079B
:107F800000F1E880B8F1000F00F0A181404603F055
:107F9000F6FC0746BE4215D9A6B1202100E08EB1FD
:107FA000AA682B68501CA8609954D5E901329A42FE
:107FB00006F1FF3604D328460391FFF79DFD039990
:107FC000BE42ECD108F1FF3818F8016F002E3FF4E3
:107FD00072AEAB6828680A2E03F1010200EB0301C0
:107FE00000F09081AA600E70D5E901329A42EBD37D
:107FF0002846FFF781FDE7E7D9F80020131DC9F8EF
:108000000030AB6829681768581C3022A860CA5431
:10801000D5E90123934280F0E6802A68581C782134
:10802000A860D154D5E90123934280F0D7800F2F67
:1080300003D93A4612090F2AFCD84FF080560DE0BA
:10804000AA6081F80080D5E901329A4202D328461D
:10805000FFF752FD36093FF42EAEAB68B7FBF6F2E0
:108060001AF802802868B8F10A0F06FB127700EBB5
:10807000030103F10102E3D1AA6000F803B0D5E9DE
:1080800001329A4280F049812B6899180132D7E772
:10809000D9F800301A1DC9F80020196881EAE17387
:1080A000A3EBE173092B40F30E81AA480122A0FB48
:1080B00003C3DB08092B02F10102F8DC4245134639
:1080C00038BF4346039307F00203002E40F095802B
:1080D000002B00F0B780B8F1000F00F0F680F80731
:1080E00040F1B0800029C0F2FF807A0700F1C8801B
:1080F00007F00303022B00F0A780CDE90067434699
:108100000A222846FFF714FDD5E5D9F800301A1DDC
:10811000C9F80020196801974346009610222846A6
:10812000FFF706FDC7E5AB682A68581C2521A86043
:10813000D154D5E901329A42FFF4BDADD6E6AA602A
:1081400000F803B0D5E901329A423FD229681144C0
:108150000132A9E54146A1EB080311F8017BD7B133
:10816000AB68D5F800C00A2F03F101020CEB030045
:1081700000F0AF80AA600770D5E901329A42EAD3D5
:1081800028460391FFF7B8FC0399A1EB080311F807
:10819000017B002FE4D19E427FF68DAD202702E0C7
:1081A000002E3FF488ADA9682A68481CA86057547F
:1081B000D5E90121914206F1FF3604D32846039305
:1081C000FFF79AFC039BB342EAD174E52846FFF718
:1081D00093FCAB6829685A1C194465E52846FFF7EB
:1081E0008BFCAB6823E72846FFF786FCAB6814E7F7
:1081F00070471846002623468BE5002920DB7A07C6
:108200001ED41BB1B8F1000F3FF46CAFF8073FF577
:1082100069AFBEB1039BB342BFF464AF2023AA6829
:10822000501CA86028688354D5E90102824206F1F7
:10823000FF3640D236B1039AB242F0D1164651E72A
:10824000013EDEE700264DE7B8F1000F7FF455AFA1
:10825000002E6AD0039BB342BFF44FAF3023AA680D
:10826000501CA86028688354D5E90102824206F1B7
:10827000FF3618D2002E58D0039AB242EFD13CE715
:10828000AA68531CAB602B682B209854D5E90132A7
:108290009A42FFF42DAF28460491FFF72DFC049974
:1082A00026E7034638E52846CDE90413FFF724FC0A
:1082B000DDE90413DEE72846CDE90413FFF71CFCD3
:1082C000DDE90413B6E70122F8E646460AE7474629
:1082D00060E6AA600CF803B0D5E901329A4226D2D2
:1082E0002B689818013245E7AA68531CAB602B68CD
:1082F0002D209854D5E901329A42C1F10001FFF4D2
:10830000F7AEC8E7AA6000F803B0D5E901329A4297
:1083100017D229681144013264E62846FFF7ECFBC6
:10832000A9682B684A1C19448AE60026E5E6284617
:108330000391FFF7E1FBA8682B680399421C1844DE
:1083400018E72846FFF7D8FBAB6829685A1C194480
:1083500048E600BFCDCCCCCC38BB0200FFF76CBBED
:108360002DE9F041058ACE1C043D2E440746B6FB9C
:10837000F5F6FFF77DFB78B3F6B24FF48073013E5C
:108380000446C5800760838027D08046002509E029
:108390006379AE4203F101036371C8F8000007601E
:1083A00080461AD03846FFF763FB01350028EFD12D
:1083B0006679721E14D02346013082421B68FBD1BD
:1083C0001F684EB1002523682146013538461C46FA
:1083D000FFF776FBAE42F6D100242046BDE8F081DF
:1083E0002768EFE704300121FFF7F6BAF8B501215D
:1083F00004460430FFF7FCFAC0B200B1F8BD66795C
:10840000721E12D02346013082421B68FBD11F68C6
:10841000002EF3D0002523682146013538461C463E
:10842000FFF74EFBAE42F6D1F8BD2768F2E700BF7A
:108430002DE9F843C788467907FB06F6043E02EBB0
:10844000030C0446664503F1040015468846B0FB5C
:10845000F7F238BFF51A07FB120012B1013A24688F
:10846000FCD13E1AAE4228BF2E469DB14FF0000906
:108470000430AD1B2044324608EB090103F06CFACE
:10848000AF42B14424683E464FF0000028BF2E465C
:10849000002DEDD1BDE8F8832DE9F843C788467972
:1084A000154607FB06F6043E05EB030C1A1D664550
:1084B00004468846B2FBF7F038BFF51A07FB1021D7
:1084C00010B101382468FCD17E1AAE4228BF2E4676
:1084D0009DB14FF0000904312144AD1B324608EB39
:1084E000090003F039FAAF42B14424683E464FF028
:1084F000000128BF2E46002DEDD1BDE8F88300BF56
:1085000041DF7047064A074B10B5002414701C6009
:10851000BFF35F8F0449054800F040F8204610BDC6
:10852000502C0020542C002048BB0200482C002076
:1085300000B583B002A8002300F8013DFFF7CEF993
:10854000F1EE103A23F09F03E1EE103ABFF35F8F94
:108550000A4B4022C3F884219DF80700FFF7E4F995
:1085600003F022F828B920BF40BF20BF03B05DF858
:1085700004FBFFF7C5FF03B05DF804FB00E100E07A
:108580008268002393608268136182685361826805
:10859000D3608268536082681360704701600B6823
:1085A00043604A68934204BF00234360704700BFA2
:1085B000436843B1026891680B4443605268934238
:1085C00004BF00234360704730B4184DA5F5947282
:1085D000AB1ADB1003EBD3735B1002EBC30152F851
:1085E0003330984228BF0C4605D311E052F833309F
:1085F00098420CD221468B1ADB1003EBD3735B102D
:108600008A4202EBC304F1D3094830BC70470D46DF
:10861000984204D904F10802AA42D9D3F4E7606869
:10862000034B002808BF1846EFE700BF9CBC0200C0
:1086300060BB020010B44FF080414FF08052002028
:10864000C1F80C015E4BC1F81001C1F83805D2F831
:108650000414C3F82015D2F80814C3F82415D2F86E
:108660000C14C3F82815D2F81014C3F82C15D2F83E
:108670001414C3F83015D2F81814C3F83415D2F80E
:108680001C14C3F84015D2F82014C3F84415D2F8CE
:108690002414C3F84815D2F82814C3F84C15D2F89E
:1086A0002C14C3F85015D2F83014C3F85415D2F86E
:1086B0003414C3F86015D2F83814C3F86415D2F82E
:1086C0003C04C3F86805D2F840043E49C3F86C0581
:1086D0000968D2F84424C3F87025082924D04FF043
:1086E0008043D3F80024D20744BF6FF00102C3F8DF
:1086F0000024354AD2F8883043F47003C2F8883039
:10870000BFF34F8FBFF36F8F4FF01023D3F80022CA
:10871000002A23DBD3F80432002B1FDB2B4B2C4A1F
:108720001A605DF8044B70472A4B1B68002BD6D1AA
:1087300029482A4A2A4C04602A492B4BFB20C2F8BC
:1087400018050A681B68294822F00F0203F00F037E
:1087500013434FF400720B600260C0E7244B012208
:10876000C3F80425D3F80024002AFBD04FF01023CF
:1087700012221F49C3F80022D1F80034002BFBD08D
:108780004FF0102212211A4BC2F80412D3F8002421
:10879000002AFBD000221649C3F80425D1F8003482
:1087A000002BFBD0BFF34F8F0749124BCA6802F46E
:1087B000E0621343CB60BFF34F8F00BFFDE700BF04
:1087C00000C000403001001000ED00E0FC2200205D
:1087D0000090D003340100108C56004000F000409F
:1087E00048810300E40E0040580200104096024009
:1087F00000E001400400FA05074B1B5C1F2B86BFFD
:1088000003F01F0305494FF0A041012202FA03F3D0
:10881000C1F80C35704700BF88C00200000300504B
:10882000074B1B5C1F2B86BF03F01F0305494FF04E
:10883000A041012202FA03F3C1F80835704700BFD6
:1088400088C0020000030050C30706D4830742BF5C
:108850002E4B0C22C3F81827704770B44FF080439A
:10886000D3F84036DA0722D44FF0A0432749032239
:1088700040264FF480754FF40074C3F81827C3F8EE
:108880002027C1F82427C3F83027C3F808654FF420
:108890008052C3F80855C1F808458107C3F8082578
:1088A00003D51A4B0C22C3F8182770BC70474FF041
:1088B0001023D3F8043303F00703072BD4D1144B50
:1088C0000122C3F80425D3F80024002AFBD04FF07E
:1088D00010210020D1F804230D4C22F0070242F0B1
:1088E0000402C1F80423C3F80405D4F80034002BB3
:1088F000FBD0BFF34F8F0749074BCA6802F4E06211
:108900001343CB60BFF34F8F00BFFDE70003005060
:1089100000E0014000ED00E00400FA0510B570B180
:1089200001280BD10D4C2369A0703BB1D3E9002382
:108930000120226198472369002BF7D110BD074C15
:10894000A36801226270002BF8D0D3E90023002035
:10895000A2609847A368002BF7D1EFE7582C0020BE
:1089600070B910B5074CA368012262703BB1D3E91E
:1089700000230020A2609847A368002BF7D110BD08
:10898000704700BF582C002030B5012883B01CD0A0
:1089900015D3032811D100F0CDF802A800231F4CF5
:1089A00000F8013DFEF79AFFE368013BE360E568EC
:1089B00065B39DF80700FEF7B7FF03B030BD184B55
:1089C0000122C3F8802003B030BD02A80023134C5D
:1089D00000F8013DFEF782FF237853B1E3689DF86C
:1089E000070001330122E360A270FEF79DFF03B090
:1089F00030BD0C486360A3602361E36000F08CF835
:108A000002F0D2FD30B101232370E7E700F0A4F8B3
:108A1000A570CEE700F08EF8F5E700BF582C0020D7
:108A200000E100E01D89020030B585B0047845689A
:108A30008DF80040D0E90240064A074B039053F8F6
:108A4000213001958DF8084052F82110684698476A
:108A500005B030BD6C2C0020742C002030B585B0E2
:108A6000047845688DF80040D0E90240064A074B7B
:108A7000039053F8213001958DF8084052F82110E9
:108A80006846984705B030BD6C2C0020742C00203F
:108A90002DE9F043DFF8748006784B7F08F8063044
:108AA0000D46074696460FCD89B06C460FC495E833
:108AB0000F003D78DFF85890DFF858C018F80550DF
:108AC00049F826E084E80F004CF82600049665B1CA
:108AD000BEF1000F0B4A694607F1040008BF0022EF
:108AE00001F0B0F809B0BDE8F083BEF1000F064A0E
:108AF000694607F10C0008BF002200F03FFE09B0F4
:108B0000BDE8F083298A02005D8A0200A02E0020C1
:108B1000742C00206C2C0020054A13792BB90121FC
:108B2000106053711846117170478520704700BF5F
:108B30007C2C0020074B1A68D20704D4C0210122E4
:108B400083F800131A604FF080430122C3F8182500
:108B5000704700BF00E100E0044B01221A604FF0B3
:108B60008042D2F81834DB03FBD470470C0000407D
:108B700010B5154B1A6882B07AB10021134A1960FA
:108B80001B68507900934FF080410123009CC1F88D
:108B9000083310B91168537188470D4B1A6882B1B8
:108BA00000221A601B6801934FF080420221074B9C
:108BB0000198C2F808131B68012002B0BDE81040FC
:108BC000184702B010BD00BF000100407C2C0020FF
:108BD0000401004030B5204C94F86A5083B0002D59
:108BE00036D14FF0FF332946062204F16400C4E970
:108BF0000033C4E90233C4E90433C4E90633C4E9E9
:108C00000833C4E90A33C4E90C33C4E90E33C4E9B8
:108C10001033C4E91233C4E91433C4E916332366AC
:108C200002F0A5FE0D4A0E4B0E491D60C02082F8D1
:108C30000603402010601B68019301984FF0004329
:108C40000122284684F86A20C1F8043303B030BDFD
:108C5000082003B030BD00BF842C002000E100E0FC
:108C60007C61004000600040034B93F86A000030D4
:108C700018BF0120704700BF842C0020F0B5744B52
:108C80001C1894F93050002D6ADA8E78C6F340062D
:108C90009646002E5ED11D6A013500F0C48009247D
:108CA0000C2553F8247001375DD004F1010C53F802
:108CB0002C70013700F0C280A71CAF4248D253F895
:108CC0002720013200F0BC8004F1030CAC453FD2F8
:108CD00053F82C70013700F0B18004F1040CAC455E
:108CE00036D253F82C70013700F0A88004F1050C3F
:108CF000AC452DD253F82C70013700F09F8004F161
:108D0000060CAC4524D253F82C70013700F0968045
:108D100004F1070CAC451BD253F82C70013700F05E
:108D20008D8004F1080CAC4512D253F82C70013739
:108D300000F0848004F1090CAC4509D253F82C7082
:108D400001377BD00A34AC4202D2DC6A013409D04C
:108D50000420F0BD1D68013574D001240825A0E76A
:108D60000820F0BD0B241F1865B243F824E087F8F3
:108D70003050002E5ED08A7854071AD4D60741D4DA
:108D80001F284A7887BF334E00F01F0404464FF077
:108D9000A04604F5E074920046F824202E4EC40844
:108DA00000F0070C375D012202FA0CF23A4332550B
:108DB0008A780C7812F0020209D1083D2B44104643
:108DC00093F8602042EA841483F86040F0BDAB0061
:108DD00003F1804303F5C0430202D3F8101521F4D8
:108DE0004F3121F44071C3F810152404D3F8101545
:108DF00004F4403402F47C5222430A43C3F81025A1
:108E00000020F0BD1F2887BF124A00F01F0404464F
:108E10004FF0A04202EB8402D2F8004724F0020493
:108E2000C2F80047BAE7082684F83060C3F820E0AB
:108E3000354634461C4484F858009CE7644692E763
:108E40003C4690E700251A6084F8305093E700BF55
:108E5000842C002000030050E82C002070B43A4D10
:108E60002E1883B096F93030072B20DD2B4493F871
:108E700058309B09032B45D0012B14BF4FF44031D0
:108E80004FF400311F284DD900F01F002F4B03EB8A
:108E90008000D0F8002722F44032C0F80027D0F834
:108EA00000370B43C0F8003703B070BC7047DAB22C
:108EB000072AF9D8980000F1804000F5C04003F17E
:108EC0004002D0F81045920092B244F0010402F141
:108ED0008042C0F8104502F5C04200200190019C7C
:108EE00010600029E0D096F9302055F82220002AA1
:108EF000DAD00122164902FA03F3C1F8043303B0B1
:108F000070BC70471F2810D9104BD3F8103500F0F3
:108F10001F00C34013F0010F0CBF4FF400314FF49A
:108F20004031B3E74FF0A043B1E74FF0A042134602
:108F3000D2F81025C24012F0010F14BF4FF4403197
:108F40004FF40031A3E700BF842C00200003005041
:108F500000600040194B034493F93030072B13DDB8
:108F60001F288ABF164B4FF0A04300F01F0003EBF1
:108F70008000D0F8003723F44033C0F80037D0F831
:108F80000037C0F800377047DAB2072A14D810B497
:108F90009A0002F1804202F5C0420A4CD2F8100554
:108FA000012120F0010001FA03F3C2F81005C4F812
:108FB00008335DF8044B7047704700BF842C0020D5
:108FC00000030050006000401F288ABF054B4FF08F
:108FD000A04300F01F00D3F8103523FA00F000F092
:108FE00001007047000300502DE9F047002388B0CE
:108FF000CDE90233CE4A1668012E00F03B821E46B0
:10900000CC4B1A68012A00F02782CB4B1A68012A40
:1090100000F01482C94B1A68012A00F00182C84B83
:109020001A68012A00F0EE81C64B1A68012A00F086
:10903000DB81C54B1A68012A00F0C881C34B1A684E
:10904000012A00F0B581C24B1A68012A0FD1002213
:109050001A601B6801934FF0A042019BD2F81025C3
:10906000BC4B0292D3F81035039346F0004616F03D
:10907000FF0F1AD0B84F00240125A30003F180434D
:109080002E4203F5C0434FEA45050BD0D3F8100537
:1090900057F82420D3F81015C0F30520C1F301417F
:1090A00002B190470134082CE7D1002E02DB08B052
:1090B000BDE8F087A84CA74F4FF0FF33CDE906334A
:1090C00094F960300DF1100800225D1CC8F80420EE
:1090D00004924FF0010600F0F4805FFA83FC2CF05C
:1090E000C00008AB4FEAD00903EB090E0CF00703F0
:1090F0001EF8082C06FA03F312EA030521D0221801
:109100004FEA9C1192F9302054F82220002A00F0F6
:109110002981032900F028811F2800F2F9800546E3
:109120004FF0A04C0CEB850C1EF8185CDCF800E747
:109130001D40CEF3014E40F0DF80BEF1030F00F082
:10914000BF8194F96130581C32D0DBB223F0C000EB
:1091500008AA4FEAD00E02EB0E0C03F007011CF830
:10916000082C06FA01F912EA090F21D022189909F0
:1091700092F9302054F82220002A00F0FB800329C5
:1091800000F0FB801F2800F2E98003464FF0A04E5C
:109190000EEB83031CF818ECD3F800C71EEA090F86
:1091A000CCF3014C40F0B880BCF1030F00F0AE816D
:1091B00094F96230591C30D0DBB223F0C00008AA09
:1091C0004FEAD00E02EB0E0C03F007011CF8082C3E
:1091D00006FA01F912EA090F1FD02218990992F92B
:1091E000302054F82220002A00F0D880032900F013
:1091F000D8801F287CD803464FF0A04E0EEB830387
:109200001CF818ECD3F800C71EEA090FCCF3014C88
:1092100064D1BCF1030F00F0658194F963305A1CEE
:1092200034D0DBB223F0C00008AA4FEAD00E02EB24
:109230000E0C03F007021CF8081C06FA02F2114299
:1092400024D004EB0009990999F9309054F8299039
:10925000B9F1000F00F09880032900F098801F28D2
:109260008BBFBE464FF0A04E03F01F0303460EEB2C
:1092700083031CF818ECD3F800C71EEA020FCCF3E6
:10928000014C20D1BCF1030F00F00181002D3FF40F
:109290000EAF4FF0A0430299D3F81035D7F8102540
:1092A000994203D1039991423FF401AFDDE90401F2
:1092B000CDE9023294F960305D1CCDE906017FF4FE
:1092C0000CAF00253DE7BCF1020FDFD1032900F010
:1092D0003481B9F1000F40F0F180D7E7BCF1020F03
:1092E0009BD1032900F02681002A96D0904794E76D
:1092F00003F01F03BE4681E7BEF1020FE1D103294F
:1093000000F021810025002A3FF41BAF904718E7A9
:109310000CF01F05BC4605E7BCF1020F7FF448AF17
:10932000032900F00D81002A3FF442AF90473FE748
:109330000061004004610040086100400C61004091
:109340001061004014610040186100401C61004041
:109350007C61004000030050842C002003F01F03B8
:10936000BE4615E70329ACD118F809501D4308F88B
:109370000950D1E603297FF41BAF18F80EA04AEA82
:10938000090A08F80EA0FDE603297FF47FAF18F85C
:109390000EA04AEA020A08F80EA060E703297FF44B
:1093A0003CAF18F80EA04AEA090A08F80EA020E718
:1093B000664AD2F8042317067FF545AE00221A60EC
:1093C0001B680093009B46F080063CE65F4AD2F89B
:1093D000042352067FF532AE00221A601B68009308
:1093E000009B46F0400629E6584AD2F8042391062D
:1093F0007FF51FAE00221A601B680093009B46F0A9
:10940000200616E6514AD2F80423D0067FF50CAEAA
:1094100000221A601B680093009B46F0100603E6CA
:109420004A4AD2F8042314077FF5F9AD00221A60E6
:109430001B680093009B46F00806F0E5434AD2F80B
:10944000042355077FF5E6AD00221A601B680093E0
:10945000009B46F00406DDE53C4AD2F8042397075A
:109460007FF5D3AD00221A601B680093009B46F085
:109470000206CAE53549D1F8041311F0010104D000
:10948000136013680093009BBAE50E46B8E5032904
:109490007FF41FAF4FF4003CD3F8002722F4403292
:1094A000C3F80027D3F80027013542EA0C02EDB2D9
:1094B000C3F80027B9F1000F3FF4EBAEC847E5E66B
:1094C00003297FF420AF4FF40035DCF8003723F494
:1094D0004033CCF80037DCF800372B43CCF80037AA
:1094E000012510E703297FF4FFAE4FF4003ED3F8C7
:1094F00000C72CF4403CC3F800C7D3F800C70135BF
:109500004EEA0C0CEDB2C3F800C7EDE603297FF478
:109510000AAF4FF4003ED3F800C72CF4403CC3F828
:1095200000C7D3F800C701354EEA0C0CEDB2C3F802
:1095300000C7F8E64FF4403ED9E74FF4403CABE7B4
:109540004FF4403EE7E74FF44035BEE7006000408F
:10955000014B1B68184700BFF02C0020104B9842AD
:1095600001D00020704730B583B002A8002300F876
:10957000013D0D46FEF7B2F90A4B1C7934B19DF856
:109580000700FEF7D1F9112003B030BD01229DF88C
:1095900007001D601A71FEF7C7F92046F4E700BF07
:1095A00000200040F02C0020034B984203D1034BD5
:1095B00000221A601A71704700200040F02C002031
:1095C00030B56C4AD2F8043399058BB066D5D2F821
:1095D0002431002B62D00023C2F82431D2F8243188
:1095E00003934FF40171644B0398C2F8081393F886
:1095F000291009B9012151605E4902228DF8182015
:10960000D1F88024C1F880249869D9680992002291
:10961000CDE90710C3E90622D3E9001406A8A04744
:10962000544AD2F81C31BBB1534B186A596988426D
:1096300069D350480022C0F81C21D0F81C010190C9
:10964000019849B198688DF8182008915A610790DF
:10965000D3E9001206A89047464AD2F84431DBB15C
:109660000021454BC2F84411D2F8440193F8291067
:109670000090009809B1012111609A6962B100223D
:10968000586AD9689A610122CDE907108DF818202F
:1096900006A8D3E9001290470BB030BD354AD2F886
:1096A00004335B07BCD5D2F80831002BB8D0324B5D
:1096B000996900293CD00021C2F80811D2F808119C
:1096C00004910499D868596AD2F8182542545A6A04
:1096D000996901325A625A6A8A42A1D1DA691968D3
:1096E000002A2ED0D8685D6A1C699A610790002212
:1096F0000120DC60DA615A628DF8180008955B6819
:1097000006A898478CE793F8280000F0FF0400288B
:109710008FD1C2F81C41D2F81C11029102999C68A9
:10972000186A196A205C01311962C2F81C0593E7B6
:10973000C2F80811D2F8080105900598D2F818254A
:10974000C9E793F8292012B90A4A01205060094A52
:109750004FF40170C2F80803586ADA6808900024D0
:10976000012007928DF818005A689C6106A890475E
:1097700056E700BF00200040F82C00202DE9F04102
:10978000714F06792C2505FB067582B095F82A30B5
:10979000002B40F09A800D4604466C4900689046C4
:1097A000FFF7DCFE002840F08C802B68591C19D094
:1097B0001F2B4FF001028ABF65494FF0A04103F013
:1097C0001F0302FA03F3C1F808352B681F2B86BF6D
:1097D00003F01F035E4A4FF0A04203F5E07303213C
:1097E00042F823106B685A1C0BD01F2B86BF03F066
:1097F0001F03574A4FF0A04203F5E073002142F8DF
:1098000023102368AA69C3F82425297D6B7D22686B
:109810000B43C2F86C35D5E900122368C3F8142550
:10982000C3F80C152B7D012B53D02C2303FB06F31F
:10983000FA18C2F804802A69FA50B8F1000F2DD046
:1098400022682B7F434D0021C2F81C11D2F81C2145
:1098500000922268DDF800C0C2F84411D2F8441129
:10986000226801910199C2F804532168090B4AB298
:109870005B01002ADBB261DB02F1604202F561426A
:1098800082F800332368344D1B0B5AB2520903F09F
:109890001F03012101FA03F345F822302C23246829
:1098A00003FB0673002204250121C4F8005583F848
:1098B0002A10C3E9062283F829205A6102B0BDE8C4
:1098C000F081112002B0BDE8F081082002B0BDE8AF
:1098D000F081AB68591C0BD01F2B86BF03F01F0310
:1098E0001B4A4FF0A04203F5E073002142F8231019
:1098F000EB685A1C1BD01F2B4FF001028ABF144982
:109900004FF0A04103F01F0302FA03F3C1F808353A
:10991000EB681F2B88BF03F01F0303F5E0738CBFB8
:109920000B4A4FF0A042032142F82310EB68226853
:10993000A968C2F80835C2F8101576E7074A01F0A1
:109940000F010A4413769DE7F82C0020C195020010
:10995000000300508000020000E100E0FCEC00E0A9
:10996000F8B53A4F047902682C2303FB04730021F5
:109970005B68C2F8001583B10368354AC3F8082351
:109980000368344D1B0B5AB25209203203F01F03F7
:10999000012101FA03F345F8223003684FF0FF3C40
:1099A000D3F80C65D3F81455D3F80825D3F810155F
:1099B000C3F814C5C3F80CC503686645C3F808C5E9
:1099C000C3F810C50CD01F2E86BF06F01F06224B11
:1099D0004FF0A04306F5E0764FF0020C43F826C0A6
:1099E0006E1C0BD01F2D86BF05F01F051A4B4FF0C4
:1099F000A04305F5E075022643F825604D1C0BD009
:109A00001F2986BF01F01F01134B4FF0A04301F542
:109A1000E071022543F82150531C0BD01F2A86BF4A
:109A200002F01F020C494FF0A04102F5E072022340
:109A300041F822300068FFF7B7FD2C2303FB0474C4
:109A4000002384F82A306360F8BD00BFF82C0020A2
:109A50008402020000E100E000030050F0B5314E46
:109A600005792C2303FB056385B05C69002C53D179
:109A70001C62996083F828405A610268C2F81C4150
:109A8000D2F81C11026802910121029F91600268C4
:109A9000D3F808C0C2F81C41D2F81C1101910199F9
:109AA000D3F820E0196A5F681CF80EE001311962F2
:109AB000C2F81CE517B1204605B0F0BD1A6A5C6912
:109AC0000168944203D819E093F828203ABBD1F8F2
:109AD0001C21002AF8D0C1F81C71D1F81C21039276
:109AE000039AD3F820E01A6A1CF80EE001321A62D9
:109AF000C1F81CE51A6AA242E9D30168D1F81C3109
:109B0000002BFBD00123CB6000202C2303FB056539
:109B100000236B6105B0F0BD112005B0F0BD0F2032
:109B2000F3E700BFF82C0020F0B5444BD3F8242114
:109B300089B0002A52D00021C3F82411D3F824217F
:109B4000029202228DF81020029AD3F880043C4A37
:109B5000C3F880040790D3F83C05D3680690C2E9A7
:109B6000061105931168536804A89847334BD3F83E
:109B70004421BAB10021324AC3F84411D3F8444118
:109B800090690194019C68B1D3F83C35D068069384
:109B90000123C2E9061105908DF8103004A8D2E91E
:109BA00000139847254BD3F82021AAB10021C3F810
:109BB0002011D3F82001224A00900098506958B132
:109BC000D3F84C05936806908DF8101051610593F9
:109BD00004A8D2E90013984709B0F0BDD3F81011DA
:109BE0000029C3D0C3F81021D3F8101114480391F1
:109BF00003998169D3F83C458C42B7D1C569C768E0
:109C0000D0E900168DB1D3F800C285612CF0200593
:109C1000C261C3F800520369C3600122CDE9057433
:109C20008DF8102004A8B047A0E701238561CDE995
:109C300005748DF8103004A8B04797E70020004065
:109C4000242D00202DE9F04307797A4E4FEAC7080A
:109C500008EB070306EB830385B093F82030002B55
:109C600040F0A8800D460446734900689146FFF70E
:109C700075FC002840F09A802B68591C19D01F2BC6
:109C80004FF001028ABF6D494FF0A04103F01F035E
:109C900002FA03F3C1F808352B681F2B86BF03F0C7
:109CA0001F03664A4FF0A04203F5E073032142F818
:109CB00023106B685A1C0BD01F2B86BF03F01F03A9
:109CC0005E4A4FF0A04203F5E073002142F82310F2
:109CD0002368AA69C3F82425297D6A7D23680A437D
:109CE000C3F86C25D5E900312268C2F80C35C2F8FA
:109CF00014152B7D012B61D008EB07029200B318DD
:109D0000C3F804902B69B350B9F1000F3DD021681E
:109D10002B7F4B4D0022C1F81021D1F8101100917A
:109D20002168DDF800C0C1F82021D1F8201101918F
:109D30002168DDF804C0C1F82421D1F82411029172
:109D40002168DDF808C0C1F84421D1F84411226827
:109D500003910399C2F804532168090B4AB25B01CD
:109D6000002ADBB25FDB02F1604202F5614282F859
:109D700000332368334D1B0B5AB2520903F01F0303
:109D8000012101FA03F345F822304744226806EB2B
:109D90008706002301240821C2F8001586F8204018
:109DA000C6E90633736105B0BDE8F083112005B044
:109DB000BDE8F083082005B0BDE8F083AB68591C0E
:109DC0000BD01F2B86BF03F01F031C4A4FF0A0428D
:109DD00003F5E073002142F82310EB685A1C1BD0F6
:109DE0001F2B4FF001028ABF14494FF0A04103F02E
:109DF0001F0302FA03F3C1F80835EB681F2B88BF75
:109E000003F01F0303F5E0738CBF0C4A4FF0A04230
:109E1000032142F82310EB682268A968C2F80835CC
:109E2000C2F8101568E7084A01F00F010A441376DA
:109E30009FE700BF242D0020299B02000003005053
:109E40001003020000E100E0FCEC00E0F8B5077947
:109E50003A4C0268FE00F31904EB830300215B68AF
:109E6000C2F8001583B10368354AC3F808230368B4
:109E7000344D1B0B5AB25209203203F01F0301214B
:109E800001FA03F345F8223003684FF0FF3ED3F8A0
:109E90000CC5D3F81455D3F80825D3F81015C3F81A
:109EA0000CE5C3F814E50368F445C3F808E5C3F806
:109EB00010E50DD0BCF11F0F86BF0CF01F0C224B1C
:109EC0004FF0A0430CF5E07C4FF0020E43F82CE07D
:109ED0006B1C0CD01F2D86BF05F01F051A4B4FF0D1
:109EE000A04305F5E0754FF0020C43F825C04D1C6A
:109EF0000BD01F2986BF01F01F01134B4FF0A04369
:109F000001F5E071022543F82150531C0BD01F2AA4
:109F100086BF02F01F020C494FF0A04102F5E0722B
:109F2000022341F822303E4404EB86040068FFF728
:109F30003BFB002384F820306360F8BD242D002013
:109F40001003020000E100E00003005001F0604354
:109F5000B3F1005F2CD1F0B40579244EEF007C19E9
:109F600006EB840482B0636923BB6261A16002686E
:109F7000C2F82031D2F820C10268CDF804C0DDF863
:109F800004C0C2F85831D2F8582100920268DDF8B6
:109F900000C0D4F814C0C2F84415C2F848C502681D
:109FA0000121916062684AB1184602B0F0BC704766
:109FB00010207047112002B0F0BC7047036800E029
:109FC0008AB9D3F82011D3F858210029F8D0002AF3
:109FD00014BF0F2000207B1906EB830300225A6177
:109FE00002B0F0BC70470F20F5E700BF242D002021
:109FF00072DF704773DF704776DF70477ADF704734
:10A000007CDF70477FDF70478FDF7047B1DF7047BD
:10A01000FDF70CB908B5037803B108BD054B3B212A
:10A020001888FFF7E9FF0028F7D0BDE80840FDF7E2
:10A03000FDB800BF1A230020262820D1114B12485A
:10A04000C01AC008000410B540F003000C460F49C8
:10A05000FCF724FB0E4B0F491888224601F0F8F953
:10A0600030F008020DD043F20202904209D043F2D0
:10A070000142904205D0BDE81040FDF7D7B8FDF78A
:10A08000D5B810BDB8C60200E0C60200D4C00200B8
:10A090001A2300209C2D002010B50C4B0C4CE41A08
:10A0A000E408240444F0030402203AB9FEF7B8FBA4
:10A0B00020460849BDE81040FCF7F0BAFEF79CFBCB
:10A0C00020460549BDE81040FCF7E8BAB8C60200D2
:10A0D000E0C6020004C10200F0C00200FDF7A6B80D
:10A0E00010B50388103B82B00446462B46D8DFE803
:10A0F00003F065244581454545454545454545456C
:10A1000045454551454545454545454545454545F3
:10A1100045454545454545454545454545474545ED
:10A1200045454545454545454545454545454545DF
:10A13000454545455B4545454700354B354836491E
:10A14000C01AC008000440F00300FCF7A7FA012081
:10A15000FEF766FB314B4FF6FF721A80FDF74CF8A5
:10A1600008B1FDF763F82E4B01211878FFF742FF85
:10A1700008B1FDF75BF80020FEF73EFB02B010BD12
:10A1800080881321FFF738FF0028F7D0FDF74EF83D
:10A1900002B010BD02A9002321F8043D8088FFF71A
:10A1A00033FF0028EAD0F1E71C4A00231088194643
:10A1B0001A46FFF72BFF0028E0D0E7E7144B1548BD
:10A1C0001849C01AC008000440F00300FCF766FA02
:10A1D0000120FEF711FB0020FEF722FB0F4BA188A8
:10A1E0001148198001F02CF870B9FCF7EFFF002836
:10A1F000C4D0CBE7094A0023108885211A46FFF70F
:10A2000001FF0028BAD0C1E7FDF710F8EDE700BF65
:10A21000B8C60200E0C60200C4C002001A23002033
:10A2200018230020B8C00200B42D002080B54FF4E0
:10A230000041A6B00020FCF7D1F908B1FCF7F6FF09
:10A24000FCF752F90120FEF7FFFAFDF751FA08B1C9
:10A25000FCF7ECFF40F2666201217048FCF75EFFFC
:10A2600008B1FCF7E3FFFEF74DF908B1FCF7DEFF9C
:10A2700001F010F908B1FCF7D9FF26AC002344F82F
:10A280003C3D0120214601F0DDF908B1FCF7CEFF8D
:10A29000204601F093FA08B1FCF7C8FF26AD112360
:10A2A00005F8783D5E4801F06AFB5D4982B22846B8
:10A2B000FFF7A6FE08B1FCF7B9FF082200212046EF
:10A2C00001F055FB574B179320464FF0C873189376
:10A2D000FFF794FE08B1FCF7A9FF0021524800F0F7
:10A2E00063FE08B1FCF7A2FF0022504B50480892D1
:10A2F0002146179300F092FF08B1FCF797FF4D4BF2
:10A300004D480893294601F041F808B1FCF78EFF4B
:10A31000494B4A4E9B7C8DF806303C2241F2235338
:10A3200000212846ADF8043001F021FB022106236C
:10A3300001273C228DF82010204600218DF8233083
:10A340008DF8227001F013FB324601AB284652F81B
:10A35000041BADF86C701C9300F0E2F808B1FCF738
:10A3600065FFB168364A204600F0DAF808B1FCF71C
:10A370005DFF1822002102A801F0F9FA0120002354
:10A380004FF4807640258DF8080002AA2B492D480D
:10A39000ADF814300393ADF81C600495FFF728FE68
:10A3A00008B1FCF743FF1C220021204601F0DFFA30
:10A3B0000023254A1793ADF86A308DF86C30234B93
:10A3C00020464FF420254FF420340321CDE91854C2
:10A3D0008DF86810CDE91C2300F0D2FB08B1FCF722
:10A3E00025FF1B4B1B481C49C01AC008000440F045
:10A3F0000300FCF753F9134B01211878FFF7FAFD1E
:10A4000008B1FCF713FF0020FEF7F6F9FCF7F6FBA6
:10A410000028FBD1FEF78CF8F8E700BF00230020EE
:10A4200018C102005000A000882D002011A00200D9
:10A43000B42D002099A002009C2D002008230020AC
:10A44000142300201823002015A00200DDA0020024
:10A45000B8C60200E0C6020028C102006DDF7047E6
:10A4600079DF70477DDF704764DF70472DE9F04F7B
:10A4700083B004880C9EBDF83490B6F800A0002C80
:10A4800039D09846002317468B4605461C4603E004
:10A490002A880134A24224DD6A6852F8240001901F
:10A4A00000220DF1030101A8FFF7DEFF20BB9DF89C
:10A4B0000320BA42ECD13288B91803B389452BDBAB
:10A4C00042440DF1030101A80123FFF7CDFF98B924
:10A4D00031889DF803200A4432802A880134A24240
:10A4E000DADC43B13388013BA3EB0A039BB2FF2BB9
:10A4F00012D808F80A30002003B0BDE8F08F02310E
:10A500000132894592B207DB328008F802B0328806
:10A51000013292B23280D3E70C2003B0BDE8F08F55
:10A520002DE9F04700231788138090F82D3086B06E
:10A53000144605460E46002B40F0FB80AA78002A00
:10A5400040F0FD80EA78A2B1D91CB94200F2F38054
:10A550000221F154238801339BB201212380F1545D
:10A5600023880B449BB22380F25423880B449BB274
:10A5700023806A68AAB1D91CB94200F2DC800221AA
:10A5800092F90020F154238801339BB20A212380E1
:10A59000F154238801339BB22380F2542388013382
:10A5A00023802B89002B40F01B812B8A002B40F04D
:10A5B0002F812B8B002B40F043812B6A002B44D042
:10A5C0002288911DB94200F2B6801988052940F20F
:10A5D00003816FF4486801EB080080B24FF27D3CC4
:10A5E000604540F2F9805888052840F2F5806FF404
:10A5F000486E86441FFA8EFEE64540F2ED804FF627
:10A60000FF7C614504D0604502D0814200F2E480C5
:10A610000521B1542288013292B212212280B15414
:10A620002288013292B222801988B1543244090A38
:10A6300051702288023292B222805B88B354324435
:10A640001B0A53702388023323806B6A002B2FD0A0
:10A650009988B4F800C0881C0CF102020244BA4286
:10A6600069D8FE2867D8033106F80C102288013219
:10A6700092B2FF212280B1542288013292B222800C
:10A680001988B1543244090A51702088023080B2CE
:10A6900020809A8862B199680393002900F09C8019
:10A6A000304401F059F9039B9A882388134423808E
:10A6B00095F82C30002B40F08A80287800283BD079
:10A6C0002B88012B00F08880228802F1020CBC4507
:10A6D00031D8012804D16B78023313449F422AD326
:10A6E000BB1E9B1A06A99BB221F8083D06EB0C0085
:10A6F000FFF7B8FE00BB2978BDF81020022900F052
:10A70000048168789042C0F0FB809342C0F0F880EA
:10A710000921FE2A0FD82388501CF05423880133C6
:10A720009BB22380F154238801331A4422800020F5
:10A7300002E0082F23D80C2006B0BDE8F0870433D0
:10A74000BB42F8D804A8FFF78BFE0028F4D1238879
:10A75000BDF810200321F154238801339BB2192145
:10A760002380F154238801339BB2F1182380F254E3
:10A77000120A4A70238802339BB22380E2E604A8BF
:10A78000FFF76CFE0028D7D113880822CA5423880B
:10A7900001339BB21B222380CA542088013080B22F
:10A7A0002080062208440DF1110101F0D5F823881C
:10A7B0009DF8102006339BB212F0FE0218BF012252
:10A7C0002380F254238801339BB22380B6E6D5F868
:10A7D0002880B8F1000F4CD1072006B0BDE8F08703
:10A7E00005F108080222CDE90047404611463346EC
:10A7F000FFF73CFE00289FD1CDE900474046334695
:10A8000010220621FFF732FE00283FF4CEAE93E778
:10A8100005F11008CDE900474046334602220321E6
:10A82000FFF724FE002887D1CDE900474046334694
:10A8300010220721FFF71AFE00283FF4BAAE7BE78B
:10A8400005F11808CDE9004740463346022214219D
:10A85000FFF70CFE00287FF46FAFCDE900474046BC
:10A86000334610221521FFF701FE00283FF4A5AE64
:10A8700062E7B8F804200232FE2A3FF65CAF238874
:10A880004FF000094FF0160A0132F25423880133C9
:10A890009BB2238006F803A0238801339BB2238058
:10A8A000B8F80020F2543344120A5A702388023355
:10A8B0009BB22380B8F80410F0180A4661B1D8F8AA
:10A8C00008301946002B87D001F046F8B8F804206C
:10A8D000238813449BB2238009F1010995F82C20A9
:10A8E0005FFA89F94A4509EB49087FF6E6AEAA6A9C
:10A8F00002EB8808B8F804200232FE2AC4D91AE70D
:10A90000012906D01A46082103E79342BFF400AF9D
:10A91000F8E78342F6D302460821FAE675DF70476E
:10A9200076DF70477ADF70477BDF704730B51D4BAD
:10A930001A8884B2A24283B001D003B030BD1A4D50
:10A94000187A297B88420FD32A7C00211972E2B938
:10A950006B69002BF1D00022ADF806408DF8042081
:10A9600001A8984703B030BD104603F10A01FFF774
:10A97000D5FF28B11128E0D0AB69002BF1D1DCE77D
:10A980001A7A01321A7203B030BD3B212046FFF71C
:10A99000C7FF30F00803DBD0AB69002BD8D0984755
:10A9A000D6E700BFDC2D0020C02D0020F0B50288C6
:10A9B000112A83B0034649D036D9122A08D0502A2A
:10A9C00004D16C4DC188EA89914251D003B0F0BDE9
:10A9D000694C828821889142F8D1E1896589B1F575
:10A9E000FA7F24BF6FF4F9700E18588938BF00261B
:10A9F00085424FD8A58985424CD39B89B34249D320
:10AA000001F2F311994245D35A4B5B694FF48071BF
:10AA10002181002BDAD00121ADF806208DF8041039
:10AA200001A8984703B0F0BD102ACFD1C27B012AFC
:10AA3000CCD1514C21884FF6FF7291423CD04D4B06
:10AA40009B69002BC2D004209847BFE74A4C8288FC
:10AA500023889A42BAD16068FCF706FF18B1454BCB
:10AA60009B6903B198474FF6FF73238003B0F0BD95
:10AA7000028A022AAAD1404C86882788B742A5D1EB
:10AA8000123000F04FF9002856D16068FCF7ECFE58
:10AA900070B99BE7374D267A6068D5E90131002E01
:10AAA00008BF194600236372FCF788FE00288DD08A
:10AAB000AB69002BB5D189E7304D8288228003CD68
:10AAC000C4F80E10E689C4F80A00B6F5FA7F28BF6C
:10AAD0006FF4F9754FF00001588AB4F80AC021727A
:10AAE00028BF7119234D8445EF8919D8B4F80CC0DB
:10AAF000844515D39B8A8B4212D306F2F3169E42ED
:10AB00000ED301216172002F7FF460AF6B69002BBF
:10AB10003FF45CAF8DF80410ADF8062001A880E783
:10AB200000236372002F7FF451AF60686968FCF7FF
:10AB300045FE0028BCD149E7637A63B9D5E9013104
:10AB4000267A60683A46002E08BF1946FCF736FEA2
:10AB50000028ADD13AE76B6900222272002B3FF446
:10AB600035AF0122ADF806608DF8042001A89847A2
:10AB70002CE700BFC02D0020DC2D0020F02D002090
:10AB800000282FD0F8B5054606460FCD164F3C4697
:10AB90000FC4844695E80700144B3B6084E8070027
:10ABA000BCF1000F18D06046FFF7BCFE98B93268C0
:10ABB0001068516803C30E4B0E490F4A18464FF6F2
:10ABC000FF7440F8041F1C800021FCF7E5FD0028FD
:10ABD00014BF03200020F8BD1846FFF7A5FE00288B
:10ABE000E9D0F8BD0E207047C02D0020F02D0020C8
:10ABF000DC2D0020F82D00202DA902002DE9F047C2
:10AC00000388B0F80490112B98B059D01A2B8046C5
:10AC100047D0102B02D018B0BDE8F087394A9368AE
:10AC200018A8DB4340F8603D5168FCF7C9FE009B63
:10AC30000193019B63B300273C46214601A8FCF722
:10AC40009FFE28B118AB03EB4703013723F8284CCC
:10AC50000134142CF1D10D970DAE0FCE02AC0FC400
:10AC60000FCE0FC496E8070084E8070087B10DF106
:10AC70000A0A254E0AEB47073AF8025F234C2046A2
:10AC800029460434FCF772FEA642F8D1BA45F3D146
:10AC9000B9F1130F1BD90420FCF7C8FA18B0BDE8AE
:10ACA000F087047A1A482409012C494620D9FCF778
:10ACB00053FE022C494617481ED0FCF74DFEAAE76A
:10ACC00049461548FCF752FE18B0BDE8F0874946E2
:10ACD0001148FCF741FE49460C48FCF73DFE98F848
:10ACE0000F30012B97D049460C48FCF735FE92E710
:10ACF000FCF73CFE07484946FCF738FE18B0BDE8B3
:10AD0000F08700BF182E0020902E00201C2E00205F
:10AD1000282E00202C2E0020202E0020242E002063
:10AD2000AADF7047007800F001007047F0B58B781B
:10AD300091B0002B0C460988ADF80C1008BF012318
:10AD4000054616466846032200218DF80E3000F0B5
:10AD50000EFE637C0022013B8DF80020042B09D8F5
:10AD6000DFE813F00500D300D700DB00CF0011238C
:10AD70008DF80030A37C0022013B8DF80120042BCC
:10AD800009D8DFE813F00500D200D600BA00CE00E3
:10AD900011238DF801309DF80230E77B227D207C65
:10ADA000217B67F3C303002A60F3041314BF02225C
:10ADB000012261F3000362F3420309A81C2200216F
:10ADC0008DF8023000F0D3FD637B13F0300F73D1A8
:10ADD000627BA37B8DF824200021142204A88DF827
:10ADE000253000F0C4FDA368A288CDF814D003A9D3
:10ADF0000491ADF81C201BB1E2880893ADF818202F
:10AE0000A369002B36D001AF03220021384600F0A1
:10AE1000AEFDA2691388ADF82C305388ADF82E3002
:10AE200051680D97137B0A91013B00218DF80410A6
:10AE3000042B2DD8DFE803F0299D8D919900112373
:10AE40008DF80530917A9DF8063061F3C3038DF8D3
:10AE50000630D17A61F304138DF80630117A927BB3
:10AE6000002A61F3000314BF0222012262F34203AD
:10AE70008DF80630E36903B10C93334604AA09A99F
:10AE80002846FFF74DFF11B0F0BD11238DF80430B7
:10AE9000537B0021013B8DF80510042BD2D801A172
:10AEA00051F823F03FAE020043AF02004BAF020067
:10AEB0003BAF020063AF0200032202A8002100F0B2
:10AEC00056FDE37C0022013B8DF80920042B07D8B6
:10AED000DFE803F0035F5B57530011238DF809305F
:10AEE0009DF80A3002AA0E92012262F34203112257
:10AEF0008DF80A308DF808206AE712238DF80130AA
:10AF000049E722238DF8003034E721238DF8003003
:10AF100030E731238DF800302CE712238DF8003014
:10AF200028E722238DF8013035E721238DF8013001
:10AF300031E731238DF801302DE712238DF80530EC
:10AF400080E721238DF805307CE731238DF805302B
:10AF500078E731238DF804309AE712238DF8043016
:10AF600096E722238DF805306CE722238DF8043014
:10AF70008EE721238DF804308AE722238DF80930EB
:10AF8000AEE712238DF80930AAE731238DF8093096
:10AF9000A6E721238DF80930A2E700BF90DF7047B4
:10AFA000A5DF7047B5DF704708B90E20704730B491
:10AFB00003464FF0171200201B2541F61B34196180
:10AFC0001A60C3F806201D719872D8729C8130BC3B
:10AFD000704700BF70B5858884B01DBB0388232BE4
:10AFE0000C4621D06FD93A2B54D0552B00F0B180AC
:10AFF000242B00F09C80A37AA3B1E1880020FFF706
:10B00000CFFF00286DD011280CD0FDF7DDFA7A4A69
:10B010007A4B7B499B1ADB081B04024643F0010074
:10B02000FBF7EAFC04B070BD037A0A7B03959342F8
:10B0300028BF134602A96A4628460095ADF8083095
:10B04000ADF80A30ADF80450FFF7A8FF0028D2D0C1
:10B05000694B6A4EF61AF608FDF7B6FA360446F062
:10B06000010603462A4630466649FBF745FDBDF812
:10B070000020BDF8023002B91BB163493046FBF72E
:10B080003BFDBDF80420002AB5D030465F49FBF7F0
:10B09000B3FCB0E74389C98822698B4228BF0B46BD
:10B0A000172B38BF172323814AB1E17A39B140F613
:10B0B00077210291ADF80C3002A920469047002379
:10B0C000E372A372AEE7102B0FD0112B93D14FF088
:10B0D000171241F61B338D72CD72C1F806208B8199
:10B0E000A0E70122A072E2729CE70B790B73C27B8E
:10B0F000012A52D0022A4DD0C98822898A425DD3C2
:10B10000627B9A42BFF477AF00259BB228466A461D
:10B1100002A9ADF80830ADF80A3003950095ADF8F6
:10B120000450FFF73BFF00283FF465AF90E70B6941
:10B13000027A4A73002B3FF45EAF4DF67A21ADF8E8
:10B140000C5002918DF80C2002A920469847A37A52
:10B1500052E7C388C988A572172B38BF17238B42C3
:10B1600028BF0B4628462381FFF71CFFC0B9E37AAE
:10B17000002B7FF440AF2369002B3FF43CAF40F637
:10B18000772122890291ADF80C2002A92046984728
:10B19000A37A31E74988E180AFE70988E180ACE72D
:10B1A000FDF712FA144A154B19499B1ADB081B04C8
:10B1B000024643F00100FBF71FFCD8E70020FFF731
:10B1C000EFFE18B90123E372237B99E7112803D11D
:10B1D0000123A372237B93E7FDF7F6F9064A074B99
:10B1E00007499B1ADB081B04024643F00100FBF7EA
:10B1F00003FC237B84E700BFB8C60200F0C6020050
:10B2000024C2020040C102008CC10200CCC1020075
:10B2100058C20200B0DF704766DF704760B159B1B5
:10B220000378DE2B0AD00B684360DE224FF6FF73F3
:10B2300002704380002070470E207047082070473E
:10B2400038B10378DE2B02D14180002070470820FE
:10B2500070470E20704700BF19B110B10B78DE2B7C
:10B2600000D0704730B505464B888088984285B03D
:10B270000C4606D02A88012A0DD0512A20D005B0CC
:10B2800030BD0B7A002B35D12B88112B48D0512B98
:10B290004DD0012BF3D12B7A012BF0D16288824261
:10B2A000EDD123720021FFF7B7FF00284ED01128FF
:10B2B00008BF2372E3D063689847E0E76388A888F3
:10B2C0008342DCD1AA79022AD9D1A97B01F0FD0001
:10B2D00004282ED00529D2D100206946C1E90200F8
:10B2E000009048608DF800201846FFF793FF002873
:10B2F000E1D1C4E70021FFF78FFF0346A8B1112871
:10B3000012D0636898472B88112B05D0512BD5D0CC
:10B31000012BB4D1A888BEE7AA8863889A42AED12F
:10B320004FF6FF736380AAE701232372EBE703461E
:10B33000C6E7694600204FF4C07548600090C1E937
:10B3400002008DF80020ADF80450CDE7207296E79A
:10B35000A8DF7047AEDF704762DF70470388502B6D
:10B3600012D110B44B88C4889C4202D05DF8044BC3
:10B370007047038A012BF9D14B69002BF6D0827CF0
:10B380005DF8044B80881847704700BFF0B52F4B1D
:10B390000E6805460FCB8FB002AC84E80F006E61DB
:10B3A000204605F11201FFF7D7FF08B10FB0F0BD3D
:10B3B0000EA941F2235321F8343D2A46AB7C8DF887
:10B3C00006300120FFF7C4FF0028EFD101462022FC
:10B3D00006A800F0CCFA9DF82530AA7C8DF81A203A
:10B3E000012443F0120341F224574FF0011628883C
:10B3F0008DF8253006A905F10A02ADF818700796F8
:10B400008DF829408DF82B40FFF790FC0028CDD116
:10B410000146202206A800F0AAFA9DF82530AF7C4C
:10B42000079643F00A0341F2255628888DF82940F3
:10B4300006A9AA1C8DF82A408DF82530ADF81860B1
:10B440008DF81A70FFF772FCB0E700BF98C20200D7
:10B4500070B588B00E4605468DF80720012404A873
:10B4600010220021ADF80E4000F081FA7389ADF88A
:10B4700010300DF107020DF10E0304A928468DF8D6
:10B480001240CDE90632FFF765FF08B070BD00BF7E
:10B4900010DF704770B53B4D2B7884B0002B63D123
:10B4A000394E3A49012302A83370FDF777F8039B20
:10B4B000002B4FD1364902A8FDF770F8039B4BB122
:10B4C000D3E900210020904702A8FDF771F8039B03
:10B4D000002BF5D12F4A002312688DF8083002A8FE
:10B4E0000192FCF7FBF92C4901A8FFF7D1FFB0FA54
:10B4F00080F304465B099DF808002B70FCF714FAF2
:10B50000002C2ED1254B26491C70347091F816233F
:10B51000EC2352091341DB072FD5224B9A683ABB23
:10B520004FF480030B601A4902A8FDF737F8039B1C
:10B53000BBB1D3E900210120904702A8FDF738F8FC
:10B54000039B002BF5D10CE002A8FDF731F8039B1B
:10B55000002BAFD0D3E90021002090470028F3D181
:10B560000446204604B070BD0824204604B070BDD7
:10B570001A6842F480021A60D5E742F20200FBF733
:10B5800055FED0E7912E0020902E0020ACC2020084
:10B59000C4C20200A8C202004D720200922E002016
:10B5A00000E100E0942E0020014B1878704700BFA6
:10B5B000912E002000B583B068460849FCF7EEFFE5
:10B5C000019B43B1D3E9002090476846FCF7F0FFA8
:10B5D000019B002BF6D103B05DF804FBB8C202005A
:10B5E00060DF704769DF704761DF7047134B1B787E
:10B5F0001BB330B5124D91B034240DF1020103A8F4
:10B60000ADF80240FFF7F0FF88B9294601A8FCF722
:10B61000C5FF029B002BF0D0D3E9002103A890477F
:10B6200001A8FCF7C5FF029B002BF5D1E5E7052833
:10B6300001D0FBF7FBFD11B030BD7047932E002009
:10B6400010C50200002900F0A68070B5534B0B60B6
:10B6500084B00C4605460C22002101A800F087F9B1
:10B660000126062301A922688DF8045020208DF8B8
:10B670000660ADF80830FFF7B5FF00287DD10C2239
:10B68000002101A800F073F9012100238DF80510B5
:10B6900022688DF8063001A940208DF80730FFF7A9
:10B6A000A1FF00285BD10C22002101A800F05FF966
:10B6B0000A2322688DF8043001A90120FFF792FFC8
:10B6C00000283ED10C22002101A800F050F94FF4CF
:10B6D000B0632268019301A9A120FFF783FF10BB8B
:10B6E0000C22002101A800F042F99DF804302268E4
:10B6F0006FF3000301A9A0208DF80430FFF772FF5B
:10B7000008B904B070BDFCF75FFF254A254B2649F8
:10B710009B1ADB081B04024643F00100FBF76CF99F
:10B72000002004B070BDFCF74FFF1D4A1D4B1F49A0
:10B730009B1ADB081B04024643F00100FBF75CF98F
:10B74000CEE7FCF741FF164A164B19499B1ADB0856
:10B750001B04024643F00100FBF74EF9B2E7FCF789
:10B7600033FF0F4A0F4B13499B1ADB081B04024699
:10B7700043F00100FBF740F995E7FCF725FF084A85
:10B78000084B0D499B1ADB081B04024643EA0600DE
:10B79000FBF732F973E70E20704700BFE02200206C
:10B7A000B8C6020000C702000CC40200B8C3020001
:10B7B0006CC3020020C30200D8C20200F8B50646DE
:10B7C0000768FFF70DFF3368BB42054605D825BB68
:10B7D0001A4B01221A702846F8BD194B194C1A4908
:10B7E000E41AE408240444F002042046FAF756FF61
:10B7F0003A46204633681549FBF77EF94FF08053EF
:10B800003268D3F80C3112499B0203F100532046F1
:10B810009A1AFBF7F1F8002DDAD02846FCF7D4FE8F
:10B82000074A084B0B499B1ADB081B04024643F0EE
:10B830000100FBF7E1F82846F8BD00BF932E002079
:10B84000B8C6020000C7020060C4020090C4020033
:10B85000C4C40200F0C402004BDF704710B5114CA5
:10B8600084B001A8FFF7F8FFA8B9214602A8FCF7A9
:10B8700095FE039B002BF4D0D3E90021019890475B
:10B8800002A8FCF795FE039B002BF5D101A8FFF75A
:10B89000E3FF0028E9D0052801D0FBF7C7FC04B07E
:10B8A00010BD00BF28C5020008B5074B044613B100
:10B8B0000021AFF30080054B1868836A03B19847F5
:10B8C000204600F071F800BF0000000040C50200F3
:10B8D00070B50D4E0D4CA41BA4100025A54209D136
:10B8E0000B4E0C4C00F062F8A41BA4100025A542DE
:10B8F00005D170BD56F8253098470135EEE756F86A
:10B90000253098470135F2E7EC240020EC24002094
:10B91000EC240020F0240020044B054A1B681B6A1D
:10B92000002B08BF1346D3F8EC0070471C230020FF
:10B930008023002082B001B901A942B14BB1137834
:10B940000B601278101C18BF012002B0704710461F
:10B95000FBE76FF00100F8E710B5431E0A4491427F
:10B9600000D110BD11F8014B03F8014FF7E7024475
:10B970000346934200D1704703F8011BF9E70346E1
:10B9800013F8012B002AFBD1181A0138704749B16E
:10B99000FF2A85BF8A2303600A704FF0FF3098BFEB
:10B9A0000120704708467047FEE700BFF8B500BFAA
:10B9B000F8BC08BC9E467047F8B500BFF8BC08BC90
:10B9C0009E467047FFFFFFFFFFFFFFFFFFFFFFFFE8
:10B9D000FFFFFFFF00000000000000000000D60194
:10B9E00006010000D563020041640200D163020039
:10B9F000756172745F6C6F675F6261636B656E64C3
:10BA000000000000502A00207F000000D02A002003
:10BA10004261636B656E647320666C757368656400
:10BA2000000000006170700080BA0200B0BA02002D
:10BA300060BA0200B8BA0200C0BA0200C8BA020076
:10BA4000D0BA0200D8BA0200E0BA02002025303293
:10BA500078000000202020007C000000256300000A
:10BA60001B5B313B33316D0025734C6F6773206472
:10BA7000726F70706564202825642925730D0A0093
:10BA80001B5B306D00000000257300003C25733EF9
:10BA90002025733A200000000D0A0000000000007D
:10BAA000E8BA0200F0BA0200F8BA020000BB0200D5
:10BAB0001B5B313B33306D001B5B313B33326D0020
:10BAC0001B5B313B33336D001B5B313B33346D000B
:10BAD0001B5B313B33356D001B5B313B33366D00F7
