:020000022000DC
:1060000000000420B5620200DD620200DF620200CF
:10601000E1620200E3620200E562020000000000AB
:10602000000000000000000000000000E762020025
:10603000E962020000000000EB620200ED62020073
:10604000EF620200EF620200EF620200EF62020004
:10605000EF620200EF620200EF620200EF620200F4
:10606000EF620200EF620200EF620200EF620200E4
:10607000EF620200EF620200EF620200EF620200D4
:10608000EF620200EF620200EF620200EF620200C4
:10609000EF620200EF620200EF620200EF620200B4
:1060A000EF620200EF620200EF620200EF620200A4
:1060B000EF620200EF62020000000000000000003A
:1060C000EF620200EF620200EF620200EF62020084
:1060D000EF620200EF620200EF620200EF62020074
:1060E000EF620200EF620200EF62020000000000B7
:1060F00000000000EF62020000000000EF620200FA
:10610000000000000000000000000000000000008F
:10611000000000000000000000000000000000007F
:10612000000000000000000000000000000000006F
:10613000000000000000000000000000000000005F
:10614000000000000000000000000000000000004F
:10615000000000000000000000000000000000003F
:10616000000000000000000000000000000000002F
:10617000000000000000000000000000000000001F
:10618000000000000000000000000000000000000F
:1061900000000000000000000000000000000000FF
:1061A00000000000000000000000000000000000EF
:1061B00000000000000000000000000000000000DF
:1061C00000000000000000000000000000000000CF
:1061D00000000000000000000000000000000000BF
:1061E00000000000000000000000000000000000AF
:1061F000000000000000000000000000000000009F
:1062000010B5054C237833B9044B13B10448AFF3F0
:1062100000800123237010BD4C23002000000000EB
:106220004C67020008B5034B1BB103490348AFF3A9
:10623000008008BD00000000502300204C670200D1
:10624000154B002B08BF134B9D46A3F5803A002148
:106250008B460F461348144A121A00F051FA0F4B9E
:10626000002B00D098470E4B002B00D09847002001
:10627000002104000D000D48002802D00C48AFF3A7
:10628000008000F019FA2000290000F0E3F800F087
:10629000FFF900BF0000080000000420000000001B
:1062A000000000004C2300203824002000000000E3
:1062B000000000000649074A074B9B1A03DD043B18
:1062C000C858D050FBDC00F001F9FFF7B9FF00001F
:1062D00074670200E02200204C230020FEE7FEE766
:1062E000FEE7FEE7FEE7FEE7FEE7FEE7FEE7FEE786
:1062F0000A4B195C1F298ABF09484FF0A04001F0E2
:106300001F01D0F8043501228A4022EA030113401C
:10631000C0F80815C0F80C35704700BF30670200A0
:1063200000030050C30706D4830742BF2E4B0C2244
:10633000C3F81827704770B44FF08043D3F8403645
:10634000DA0722D44FF0A0432749032240264FF416
:1063500080754FF40074C3F81827C3F82027C1F8DC
:106360002427C3F83027C3F808654FF48052C3F8D8
:106370000855C1F808458107C3F8082503D51A4B0D
:106380000C22C3F8182770BC70474FF01023D3F8C5
:10639000043303F00703072BD4D1144B0122C3F8B5
:1063A0000425D3F80024002AFBD04FF01021002050
:1063B000D1F804230D4C22F0070242F00402C1F888
:1063C0000423C3F80405D4F80034002BFBD0BFF33A
:1063D0004F8F0749074BCA6802F4E0621343CB6052
:1063E000BFF34F8F00BFFDE70003005000E0014006
:1063F00000ED00E00400FA05134B0122C3F8042568
:10640000D3F80024002AFBD04FF010210020D1F84F
:1064100004230D4C22F0070242F00402C1F80423C9
:10642000C3F80405D4F80034002BFBD0BFF34F8F22
:106430000649074BCA6802F4E0621343CB60BFF31E
:106440004F8F00BFFDE700BF00E0014000ED00E01E
:106450000400FA052DE9F0410120FFF763FF4FF03A
:106460008043D3F84036DB0707D54FF01023D3F82D
:10647000043303F00703072B23D04FF0A048124D3D
:106480000323C8F8583745F0010500264FF480076C
:106490003046FFF72DFF4FF4FA744FF47A40A847C7
:1064A000013CFAD1C8F80C754FF4FA744FF47A40F5
:1064B000A847013CFAD10136042EC8F80875E7D187
:1064C000E3E7FFF799FF00BF4067020010B44FF009
:1064D00080414FF080520020C1F80C015E4BC1F8A2
:1064E0001001C1F83805D2F80414C3F82015D2F809
:1064F0000814C3F82415D2F80C14C3F82815D2F8E0
:106500001014C3F82C15D2F81414C3F83015D2F8AF
:106510001814C3F83415D2F81C14C3F84015D2F877
:106520002014C3F84415D2F82414C3F84815D2F83F
:106530002814C3F84C15D2F82C14C3F85015D2F80F
:106540003014C3F85415D2F83414C3F86015D2F8D7
:106550003814C3F86415D2F83C04C3F86805D2F8BF
:1065600040043E49C3F86C050968D2F84424C3F8D6
:106570007025082924D04FF08043D3F80024D20797
:1065800044BF6FF00102C3F80024354AD2F88830C6
:1065900043F47003C2F88830BFF34F8FBFF36F8F9F
:1065A0004FF01023D3F80022002A23DBD3F8043263
:1065B000002B1FDB2B4B2C4A1A605DF8044B7047F5
:1065C0002A4B1B68002BD6D129482A4A2A4C046042
:1065D0002A492B4BFB20C2F818050A681B6829487A
:1065E00022F00F0203F00F0313434FF400720B600D
:1065F0000260C0E7244B0122C3F80425D3F800242D
:10660000002AFBD04FF0102312221F49C3F80022AA
:10661000D1F80034002BFBD04FF0102212211A4B7E
:10662000C2F80412D3F80024002AFBD00022164935
:10663000C3F80425D1F80034002BFBD0BFF34F8FF3
:106640000749124BCA6802F4E0621343CB60BFF300
:106650004F8F00BFFDE700BF00C0004030010010B9
:1066600000ED00E0E02200200090D0033401001093
:106670008C56004000F0004048810300E40E0040CA
:10668000580200104096024000E001400400FA0564
:1066900008B5074B044613B10021AFF30080054B4A
:1066A0001868836A03B19847204600F031F800BFAC
:1066B000000000004867020070B50D4E0D4CA41B91
:1066C000A4100025A54209D10B4E0C4C00F022F875
:1066D000A41BA4100025A54205D170BD56F8253095
:1066E00098470135EEE756F8253098470135F2E72F
:1066F000442300204423002044230020482300207A
:1067000002440346934200D1704703F8011BF9E7A6
:10671000FEE700BFF8B500BFF8BC08BC9E46704756
:10672000F8B500BFF8BC08BC9E46704761707000A9
:106730000608290C00000000000000000000000016
:106740000338FDD870470000E4220020000000005C
:086750002C67020000000303A6
:1067580068230020302400203824002070230020E3
:046768001800000015
:08676C00D4FAFF7F01000000D8
:106774000090D003000000000000000000000000B2
:106784000000000000000000000000000000000005
:1067940000000000000000000000000000000000F5
:1067A40000000000000000000000000000000000E5
:1067B40000000000000000000000000000000000D5
:1067C40000000000000000000000000000000000C5
:0C67D400000000002562020001620200CB
:04000003200062B5C2
:00000001FF
