:020000022000DC
:1060000000000420B5620200DD620200DF620200CF
:10601000E1620200E3620200E562020000000000AB
:106020000000000000000000000000000565020004
:10603000E96202000000000025650200ED62020036
:106040004D7F0200EF620200EF620200EF62020089
:10605000EF620200EF620200EF620200EF620200F4
:10606000EF620200EF620200EF620200EF620200E4
:10607000EF620200EF620200EF620200EF620200D4
:10608000EF6202002D660200EF620200EF62020082
:10609000EF620200EF620200EF620200EF620200B4
:1060A000EF620200EF620200EF620200EF620200A4
:1060B000EF620200EF62020000000000000000003A
:1060C000EF620200EF620200EF620200EF62020084
:1060D000EF620200EF620200EF620200EF62020074
:1060E000EF620200EF620200EF62020000000000B7
:1060F00000000000EF62020000000000EF620200FA
:10610000000000000000000000000000000000008F
:10611000000000000000000000000000000000007F
:10612000000000000000000000000000000000006F
:10613000000000000000000000000000000000005F
:10614000000000000000000000000000000000004F
:10615000000000000000000000000000000000003F
:10616000000000000000000000000000000000002F
:10617000000000000000000000000000000000001F
:10618000000000000000000000000000000000000F
:1061900000000000000000000000000000000000FF
:1061A00000000000000000000000000000000000EF
:1061B00000000000000000000000000000000000DF
:1061C00000000000000000000000000000000000CF
:1061D00000000000000000000000000000000000BF
:1061E00000000000000000000000000000000000AF
:1061F000000000000000000000000000000000009F
:1062000010B5054C237833B9044B13B10448AFF3F0
:1062100000800123237010BD5023002000000000E7
:10622000EC92020008B5034B1BB103490348AFF3DE
:10623000008008BD0000000054230020EC92020002
:10624000154B002B08BF134B9D46A3F5803A002148
:106250008B460F461348144A121A02F03EF80F4BB1
:10626000002B00D098470E4B002B00D09847002001
:10627000002104000D000D48002802D00C48AFF3A7
:10628000008001F0FBFF2000290001F091FE01F0E9
:10629000E1FF00BF00000800000004200000000033
:1062A0000000000050230020C8A4002000000000CF
:1062B000000000000649074A074B9B1A03DD043B18
:1062C000C858D050FBDC01F0E3FEFFF7B9FF000037
:1062D000D8930200E022002050230020FEE7FEE7D2
:1062E000FEE7FEE7FEE7FEE7FEE7FEE7FEE7FEE786
:1062F0000A4B195C1F298ABF09484FF0A04001F0E2
:106300001F01D0F8043501228A4022EA030113401C
:10631000C0F80815C0F80C35704700BFCC920200D9
:1063200000030050C30706D4830742BF2E4B0C2244
:10633000C3F81827704770B44FF08043D3F8403645
:10634000DA0722D44FF0A0432749032240264FF416
:1063500080754FF40074C3F81827C3F82027C1F8DC
:106360002427C3F83027C3F808654FF48052C3F8D8
:106370000855C1F808458107C3F8082503D51A4B0D
:106380000C22C3F8182770BC70474FF01023D3F8C5
:10639000043303F00703072BD4D1144B0122C3F8B5
:1063A0000425D3F80024002AFBD04FF01021002050
:1063B000D1F804230D4C22F0070242F00402C1F888
:1063C0000423C3F80405D4F80034002BFBD0BFF33A
:1063D0004F8F0749074BCA6802F4E0621343CB6052
:1063E000BFF34F8F00BFFDE70003005000E0014006
:1063F00000ED00E00400FA0538B5430704461CBF71
:1064000020F00704083400F0CBFF0E4A136873B184
:106410000D4A156847F6F6712C448C420CD8A542FB
:106420000AD21D44146001F061F8284638BD074BBC
:1064300023F007031360EBE7002501F057F8284627
:1064400038BD00BF6C23002070A3002078230020FB
:10645000704700BF00F108034FF0FF310022816058
:1064600002604360C0E90333704700BF002303614B
:10647000704700BF43684B609A688A609A685160B1
:1064800099600861036801330360704730B40D6898
:106490006B1C11D000F1080200E01A4653681C681A
:1064A000AC42FAD94B6099608A6051600861036818
:1064B0000133036030BC704702695368F2E700BFE4
:1064C000D0E9012103699160D0E9011251605A6855
:1064D000824204BF82685A60002202611A68013A4F
:1064E0001A601868704700BF0548006880F3088884
:1064F00062B661B6BFF34F8FBFF36F8F00DF00BF8F
:1065000000600200064B19680868B0E8F04F80F39D
:106510000988BFF36F8F4FF0000080F31188704738
:1065200078A30020EFF30980BFF36F8F144B1A6834
:106530001EF0100F08BF20ED108A20E9F04F106008
:106540004DF8043D4FF0400080F31188BFF34F8FAA
:10655000BFF36F8F01F024F94FF0000080F3118832
:1065600008BC19680868B0E8F04F1EF0100F08BFAB
:10657000B0EC108A80F30988BFF36F8F704700BFBB
:1065800078A30020402383F31188FEE730B46FF036
:1065900002034FF08075074C40F8081C40F8202C8F
:1065A00040F8045C40F80C4C40F8243C30BC4438C3
:1065B000704700BF856502000F4C08B5E02384F8E2
:1065C000223000F073F80D4B0D4A00211960D4F809
:1065D000883043F47003C4F88830536843F0404374
:1065E0005360236943F010032361FFF77DFF4023CD
:1065F00083F31188FEE700BF00ED00E074A30020E4
:1066000030EF00E0402383F31188024A136801331E
:106610001360704774A30020034A1368013B1360A2
:106620000BB983F31188704774A3002070B51B4B1E
:1066300000251D6082B01B680193019BEFF311865A
:10664000402383F31188164A164BD2F804451D6087
:106650001B680093009B00F0ABFE241A24F07F44DB
:10666000012C0DD844B100F0B1FE054625B10E4B0A
:106670004FF080525A6040BF86F3118802B070BD5F
:1066800001F00AFA0228EED1013C00F09FFE013C25
:10669000631C45EA0005F8D1E8E700BF401101405E
:1066A000001001400011014000ED00E038B500206D
:1066B00001F006FC0A4B0B480B4901221F24C3F8CA
:1066C00008450225C3F80423E02402604FF400309B
:1066D0001A60C3F8445381F81143086038BD00BF05
:1066E000001001400810014000E100E0F0B507464D
:1066F00085B072B6284CD4F8046501F0B3F90028CF
:1067000042D0264D264BBD4228BF3D46721901217D
:10671000C4F8081322F07F420021C4F84025196014
:106720001B6801934FF48033019AC4F80433BFF31C
:106730004F8F47B11B4A20BFD2F80041D2F8041155
:1067400054EA0103F7D0144A1548174B4FF480312F
:10675000C2F80813002101600068039003981960D3
:106760001B68029301230299C2F80433D2F804355E
:106770000C4A9B1B23F07F40A8424FF4003328BFF4
:106780002846C2F8803110B962B605B0F0BD00F0FD
:1067900015FE62B605B0F0BD00100140FDFFFF0020
:1067A0004011014000E100E00011014070B50646D3
:1067B0000D4651B100FB01F04830FFF71DFE0446C5
:1067C00058B300F14803036005E04820FFF714FECA
:1067D000044610B32460C4E90F65FFF713FFD4E942
:1067E0000F132268A26001FB03F1CB1A13440020AF
:1067F0000A44FF21A063E36084F84410626084F8D7
:10680000451004F11000FFF725FE04F12400FFF706
:1068100021FEFFF701FF204670BD0024204670BD19
:106820002DE9F04F044685B01D4601928846FFF7DA
:10683000E9FEA26BE36BA84F4FF000099A424E4667
:10684000C0F08B80022D00F006810198002800F036
:106850003081B9F1000F00F09580FFF7DDFE00F008
:106860009FFDFFF7CFFE94F84430FF2B08BF84F85C
:10687000446094F84530FF2B08BF84F84560FFF76B
:10688000CBFE01A902A801F0AFF8002840F0188162
:10689000FFF7B8FEA26BE36B9A4277D0FFF7BCFE1E
:1068A000FFF7B0FE94F845304FFA83FABAF1000FC3
:1068B0001ADD636AC3B104F1240907E00AF1FF336A
:1068C000DBB24FFA83FA7BB1636A6BB1484601F0E1
:1068D00031F80028F2D001F0BFF80AF1FF33DBB243
:1068E0004FFA83FA002BEFD1FF2384F84530FFF7EE
:1068F00093FEFFF787FE94F844304FFA83FABAF11B
:10690000000F1ADD2369C3B104F1100907E00AF191
:10691000FF33DBB24FFA83FA7BB123696BB1484690
:1069200001F008F80028F2D001F096F80AF1FF33E0
:10693000DBB24FFA83FA002BEFD1FF2384F8443007
:10694000FFF76AFE00F0D2FDFFF75CFEA26BE36B7F
:106950009A424FF00109BFF475AF226CA66B002A72
:1069600040F0FC8025680136002D00F01881A663F8
:10697000636A002B40F08C80FFF74EFE012005B0CB
:10698000BDE8F08F02A801F023F866E704F11009D2
:10699000FFF742FE4846019900F02EFFFFF732FE56
:1069A00094F845A04FFA8AFABAF1000F1CDD636A29
:1069B000D3B104F1240B08E00AF1FF3A5FFA8AF33D
:1069C0004FFA83FA83B1636A73B1584600F0B2FF9D
:1069D0000028F1D00AF1FF3A01F03EF85FFA8AF39D
:1069E0004FFA83FA002BEED1FF2384F84530FFF7EE
:1069F00013FEFFF707FE94F844304FFA83FABAF11A
:106A0000000F06DC15E00AF1FF33DBB24FFA83FA20
:106A10007BB123696BB1484600F08CFF0028F2D0AF
:106A200001F01AF80AF1FF33DBB24FFA83FA002BB8
:106A3000EFD1FF2384F84430FFF7EEFD00F056FD60
:106A4000002881D14FF080537B6040BFBFF34F8F50
:106A5000BFF36F8F78E7226CA66B002A82D0414685
:106A6000E06801F02FFC236CE26821685B421A4465
:106A70008A42E26080F0898062681344E360022DFC
:106A800000F083800136A663636A002B3FF474AF85
:106A900004F1240000F04EFF00283FF46DAF0E4BD0
:106AA0004FF080525A6040BFBFF34F8FBFF36F8FDC
:106AB00062E70090FFF7B0FD009805B0BDE8F08FE9
:106AC000FFF7A0FD94F845506DB2002D18DD636A04
:106AD000B3B104F1240607E000ED00E0013DEBB2A4
:106AE0005DB26BB1636A5BB1304600F023FF0028F2
:106AF000F4D0013D00F0B0FFEBB25DB2002BF1D15C
:106B0000FF2384F84530FFF787FDFFF77BFD94F8FE
:106B100044506DB2002D16DD2369A3B104F11006B7
:106B200005E0013DEBB25DB26BB123695BB130466C
:106B300000F000FF0028F4D0013D00F08DFFEBB223
:106B40005DB2002BF1D1FF2384F84430FFF764FDE0
:106B500000F0CCFC002005B0BDE8F08F41465DBBE5
:106B6000A06801F0AFFBA368216C62680B449342FC
:106B700006F10106A360FFF4FAAEA663636A226819
:106B8000A260002B3FF4F8AE82E7002E7FF4EFAE58
:106B90000123A363636A002B3FF4EEAE78E76068DD
:106BA00000F08AFFA663636A6560002B7FF470AF14
:106BB00000287FF474AFDFE6E06801F083FB236C0C
:106BC000E26821685B421A448A42E260BFF457AF30
:106BD00052E700BF2DE9F047044684B08846019291
:106BE000FFF710FDD4F83890B9F1000F40F0938012
:106BF000019B002B00F00A8102A800F0E9FEB34FD0
:106C00004E4604F12405FFF707FD00F0C9FBFFF72E
:106C1000F9FC94F84430FF2B08BF84F8446094F8E2
:106C20004530FF2B08BF84F84560FFF7F5FC01A94C
:106C300002A800F0D9FE002840F08780FFF7E2FCB0
:106C4000A36B002B40F0E880FFF7E6FC0199284693
:106C500000F0D2FDFFF7D6FC94F845304FFA83F9E7
:106C6000B9F1000F06DC15E009F1FF33DBB24FFA92
:106C700083F97BB1636A6BB1284600F05BFE0028A4
:106C8000F2D000F0E9FE09F1FF33DBB24FFA83F9ED
:106C9000002BEFD1FF2384F84530FFF7BDFCFFF751
:106CA000B1FC94F844304FFA83FABAF1000F1ADDC0
:106CB0002369C3B104F1100907E00AF1FF33DBB225
:106CC0004FFA83FA7BB123696BB1484600F032FE7C
:106CD0000028F2D000F0C0FE0AF1FF33DBB24FFA19
:106CE00083FA002BEFD1FF2384F84430FFF794FCA4
:106CF00000F0FCFB00287ED14FF080537B6040BF4A
:106D0000BFF34F8FBFF36F8FFFF77CFCD4F8389041
:106D1000B9F1000F76D0226C52B1E168636811447A
:106D20009942E16024BF2168E160404601F0CAFA5F
:106D300009F1FF33A3632369002B40F0C980FFF7FB
:106D40006BFC012004B0BDE8F087FFF75BFC94F812
:106D500045304FFA83F9B9F1000F06DC15E009F16F
:106D6000FF33DBB24FFA83F97BB1636A6BB128461C
:106D700000F0E0FD0028F2D000F06EFE09F1FF33D4
:106D8000DBB24FFA83F9002BEFD1FF2384F84530B3
:106D9000FFF742FCFFF736FC94F844304FFA83FAD1
:106DA000BAF1000F1ADD2369C3B104F1100907E03D
:106DB0000AF1FF33DBB24FFA83FA7BB123696BB17F
:106DC000484600F0B7FD0028F2D000F045FE0AF179
:106DD000FF33DBB24FFA83FA002BEFD1FF2384F8A5
:106DE0004430FFF719FC00F081FBFFF70BFCA36BAD
:106DF00063B1FFF711FCFFF705FCD4F83890B9F147
:106E0000000F88D1019B002B7FF4FDAEFFF704FC3F
:106E1000002004B0BDE8F087FFF7FEFBFFF7F2FBB0
:106E200094F845304FFA83F9B9F1000F06DC15E00C
:106E300009F1FF33DBB24FFA83F97BB1636A6BB1BF
:106E4000284600F077FD0028F2D000F005FE09F199
:106E5000FF33DBB24FFA83F9002BEFD1FF2384F825
:106E60004530FFF7D9FBFFF7CDFB94F844304FFADC
:106E700083FABAF1000F1ADD2369C3B104F11009D6
:106E800007E00AF1FF33DBB24FFA83FA7BB12369E3
:106E90006BB1484600F04EFD0028F2D000F0DCFD5A
:106EA0000AF1FF33DBB24FFA83FA002BEFD1FF2355
:106EB00084F84430FFF7B0FB00F018FBFFF7A2FBAB
:106EC000D4F83890B9F1000F9CD024E700ED00E031
:106ED00004F1100000F02EFD00283FF430AF054B08
:106EE0004FF080525A6040BFBFF34F8FBFF36F8F98
:106EF00025E700BF00ED00E0074B1A681AB19A6859
:106F000002B17047012210B403EBC20443F83210FF
:106F100060605DF8044B7047B4A4002070B505466E
:106F20000C461646FFF76EFB95F84430FF2B04BF66
:106F3000002385F8443095F84530FF2B04BF00232B
:106F400085F84530FFF768FBAB6B2BB9324621461D
:106F500005F1240000F098FCFFF754FB95F845403C
:106F600064B2002C16DD6B6AA3B105F1240605E0BE
:106F7000013CE3B25CB26BB16B6A5BB1304600F0CE
:106F8000D9FC0028F4D0013C00F066FDE3B25CB20D
:106F9000002BF1D1FF2385F84530FFF73DFBFFF7CC
:106FA00031FB95F8444064B2002C16DD2B69A3B187
:106FB00005F1100605E0013CE3B25CB26BB12B6950
:106FC0005BB1304600F0B6FC0028F4D0013C00F084
:106FD00043FDE3B25CB2002BF1D1FF2385F84430CE
:106FE000BDE87040FFF718BB2DE9F84F96008046CA
:106FF00030460D4699460B9FFFF7FEF9002800F03A
:10700000C38082464820FFF7F7F90446002800F0C5
:1070100092803246C0F830A0A521504601F05DF9BB
:107020002A78236B84F83420043E2A781E4426F004
:10703000070662B16B7884F835306B783BB1AB787A
:1070400084F83630AB7813B1EB7884F837300A9D8A
:10705000022D28BF02254FF0000B04F1040AE5625F
:10706000A563504684F837B0C4F83CB0FFF7FEF98A
:10707000C5F1030504F11800FFF7F8F9C4F840B0B2
:10708000A561246184F844B064624A4641463046B2
:10709000FFF77CFA206007B13C60FFF7B3FA3C4A87
:1070A0003C4F1368013313603B68002B3BD0DFF883
:1070B0001881E36AD8F800207AB3374ADFF80CC1A8
:1070C0001668DCF800E0354801252E44166005FA04
:1070D00003F203EB830342EA0E0200EB8300514606
:1070E000CCF80020FFF7C6F9FFF796FAD8F8003081
:1070F00083B13A68E36AD26A9A420BD2284B4FF0C6
:1071000080525A6040BFBFF34F8FBFF36F8F284646
:10711000BDE8F88F2846BDE8F88F3A68D26A9A42EF
:1071200098BF3C60C9E73C601368012B0AD0E36A52
:10713000DFF89480C1E75046FFF78AF94FF0FF303F
:10714000BDE8F88F1548174E174DDFF87C80FFF724
:1071500081F91648FFF77EF91548FFF77BF93046AD
:10716000FFF778F92846FFF775F91248FFF772F92B
:107170001148FFF76FF91148FFF76CF9104B114AEE
:1071800016601D60E36A98E74FF0FF30C3E700BF69
:10719000C0A3002078A30020D0A3002084A3002057
:1071A00000ED00E0D8A30020ECA3002098A300206D
:1071B000ACA300200CA4002038A4002024A40020AC
:1071C00080A300207CA3002020A40020D4A30020C2
:1071D0002DE9F843F020FFF70FF900286CD00546A1
:1071E0004820FFF709F90446002800F08580F022C6
:1071F000A5210563284601F070F8206B534B6363AB
:107200000025271D00F1EC06E5623846C4E90E555D
:10721000FFF72CF904F11800FFF728F926F007060C
:1072200003232A4630462564A3614949246184F832
:1072300044506462FFF7AAF9464B20601C60FFF7D8
:10724000E1F9454A454E1368013313603368002B5A
:107250004AD0DFF84081E36AD8F8002072B3404A90
:10726000DFF834C11568DCF800E03E4801351560F0
:1072700001229A4003EB830342EA0E0200EB8300F3
:107280003946CCF80020FFF7F5F8FFF7C5F9D8F834
:1072900000306BB13268E36AD26A9A4208D2324B4C
:1072A0004FF080525A6040BFBFF34F8FBFF36F8FD4
:1072B00000F0B2FD012807D0BDE8F8833268D26A39
:1072C0009A4298BF3460CAE7402383F31188274B62
:1072D00027494FF0FF3400220C60C8F800001A6004
:1072E000BDE8F843FFF768B934601368012B08D094
:1072F000E36ADFF8A080B2E72846BDE8F843FFF76D
:10730000A7B81848DFF894901A4DDFF88880FFF787
:10731000A1F81948FFF79EF81848FFF79BF8484670
:10732000FFF798F82846FFF795F81548FFF792F809
:107330001448FFF78FF81448FFF78CF8134B144AE2
:10734000C2F800901D60E36A89E700BF49444C0021
:10735000A176020000A40020C0A3002078A3002092
:10736000D0A3002084A3002000ED00E04CA4002066
:1073700004A40020ECA3002098A30020ACA30020CC
:107380000CA4002038A4002024A4002080A3002006
:107390007CA3002020A40020D4A30020D8A3002098
:1073A000024A136801331360704700BFCCA300206A
:1073B000014B1868704700BF4CA40020024A1368B4
:1073C00018441060704700BF4CA400202DE9F04F16
:1073D0003B4B1B6883B0002B43D13A4B1F680137EE
:1073E0001F60002F4BD0384B01931B68BB423CD829
:1073F000364EDFF8EC80DFF8ECA0DFF8EC900025EB
:1074000026E03368DB68DC68636804F1040B9F42A4
:10741000584652D3FFF754F8A36A04F118000BB191
:10742000FFF74EF8E06AD8F800200123834000EB14
:107430008000134359460AEB8000C8F80030FFF77C
:1074400019F8D9F80030E26ADB6A9A4228BF0125B0
:1074500033681B68002BD4D1019A4FF0FF331360BF
:1074600004E01B4A1368013313600025194B1B68A5
:10747000002B0CBF2846012003B0BDE8F08F134E4F
:10748000154B3168154A186830601960136801336C
:10749000136033681B683BB90B4B01931A464FF0DE
:1074A000FF3313601346A0E73368074ADB68019295
:1074B000DB685B681360134697E7019A1360D5E7B2
:1074C000CCA300204CA4002004A400207CA3002016
:1074D000C8A3002050A4002080A3002008A40020FE
:1074E000D4A3002084A3002078A300202DE9F84F26
:1074F000FFF788F8384B1A68013A1A601C68002CAC
:107500005CD1364B1B68002B58D0DFF8E8A0DFF8C1
:10751000E8B0334FDFF8E490DFF8E480DBF80030C8
:10752000012623B3DBF80C30DC68251D04F11800BC
:10753000FEF7C6FF2846FEF7C3FFE06A3A6806FA80
:1075400000F300EB80001343294609EB80003B6009
:10755000FEF790FFD8F80030E26ADB6A9A42DDD38A
:10756000CAF80060DBF800300126002BDAD13CB10C
:107570001C4B1A6812683ABB1B4B4FF0FF321A6063
:107580001A4D2C6844B10126FFF720FF08B1CAF854
:107590000060013CF8D12C60DAF8003073B1144B74
:1075A0004FF080525A6040BFBFF34F8FBFF36F8FD1
:1075B0000124FFF731F82046BDE8F88F0024FFF7DB
:1075C0002BF82046BDE8F88F1A68074BD268D268BE
:1075D00052681A60D4E700BFCCA30020C0A30020EB
:1075E000D4A300207CA3002004A40020C8A3002072
:1075F00000ED00E050A400200CA4002084A3002093
:1076000078A3002070B548B91D4B4FF080525A60E6
:1076100040BFBFF34F8FBFF36F8F70BD194A1A4938
:1076200013681A4D0133136004460E68286804304D
:10763000FEF746FF40B92B681549D86A0B6801224E
:10764000824023EA02030B602B68A4195C600FD20E
:10765000104B186829680431FEF718FF0E4B1A68A2
:10766000944238BF1C60FFF741FF0028CCD070BDAA
:107670000A4B186829680431FEF708FFF3E700BFDA
:1076800000ED00E0CCA300204CA4002078A3002053
:10769000D4A300207CA3002004A4002080A3002009
:1076A0002DE9F84F344C354E354DDFF8E890DFF8D2
:1076B000E880DFF8E8B04FF0805A14E0FEF7A2FF50
:1076C000F368DF68381DFEF7FBFE2B68013B2B607B
:1076D0002368013B2360FEF79FFF386BFEF7B8FE7F
:1076E0003846FEF7B5FE2368002BE7D1254B1B6813
:1076F000012B06D9CBF804A040BFBFF34F8FBFF3D7
:107700006F8FD9F80030012BD8F80030DB6A04D92C
:10771000002BE8D11B4B1B68E5E7002BE3D1194B8D
:107720001B68012BDFD8184B184A1B6812689B1A7C
:10773000012BD8D9164A136801331360D9F80030E9
:10774000012BD8F80030DB6A05D90BB90D4B1B684B
:10775000FFF7CCFEC7E7002BFAD10A4B1B68012BC1
:10776000F6D8094B1868094B1B68C01A0128EFD9D5
:10777000FEF7BCFFECE700BFC4A3002038A4002044
:10778000C0A3002084A3002004A400204CA4002057
:10779000CCA30020D4A3002078A3002000ED00E0BB
:1077A000104B1B68CBB91049104A0B601368104A84
:1077B000B3FA83F3C3F11F0303EB83039B00D018D9
:1077C00008334168496841601344994204BF4968DD
:1077D0004160084BCA681A607047034B01221A6067
:1077E000704700BFCCA3002050A40020D4A30020E9
:1077F00084A3002078A3002070B51C4D2B680C4694
:1078000003F11801FEF742FE194B1E682868043088
:10781000FEF756FE40B92B681649D86A0B6801225C
:10782000824023EA02030B60631C17D02B68A41963
:107830005C600BD2104B186829680431FEF726FEF5
:107840000E4B1A68944238BF1C6070BD0C4B186810
:107850002968BDE870400431FEF718BE2968094860
:107860000431BDE87040FEF705BE00BF78A30020DC
:107870004CA40020D4A300207CA3002004A400205A
:1078800080A3002024A40020F8B5234D2B680C46CB
:1078900003F118011746FEF7EDFD204B1E6828681E
:1078A000043047B3FEF70CFEF0B94FF0FF342B68FD
:1078B0001B49D86A0B680122824023EA02030B604D
:1078C000631C0FD02B6834195C601CD2154B1868F0
:1078D00029680431FEF7DAFD134B1A68944200D28E
:1078E0001C60F8BD002FEDD0296810480431BDE8B8
:1078F000F840FEF7BFBDFEF7E3FD0028D7D02B68A8
:1079000034195C60E2D30A4B18682968BDE8F84076
:107910000431FEF7BBBD00BF78A300204CA40020BB
:10792000D4A300207CA3002004A4002024A40020D1
:1079300080A30020F8B5C368DC6804F11805284668
:10794000FEF7BEFD1A4B1B6833BB261D194D304692
:10795000FEF7B6FDE26A2F6817480123934002EB59
:1079600082023B43314600EB82002B60FEF782FD32
:10797000124BE26A1B68DB6A9A4282BF104B0120FD
:107980001860104B1A68126898BF00204AB90E4B55
:107990004FF0FF321A60F8BD29460C48FEF76AFD29
:1079A000E6E71A68084BD268D26852681A60F8BDD8
:1079B000CCA30020D4A3002084A3002078A300201F
:1079C00050A400207CA3002004A400200CA40020CC
:1079D000034A044B12681B68C0E90023704700BFCC
:1079E00008A400204CA40020F8B50D460446FEF77C
:1079F00009FE2B681649581C0A6813D0DFF854C0DA
:107A0000D4E90060DCF80070BE4201D090421AD97F
:107A1000121A93420BD800232B600125FEF7FCFDC0
:107A20002846F8BD0025FEF7F7FD2846F8BDDCF82E
:107A300000009B1A0A682B60C4E900020025FEF7CB
:107A4000EBFD2846F8BD0125FEF7E6FD2846F8BD0A
:107A50004CA4002008A40020014B01221A607047AA
:107A600050A40020084B186860B9084B1B6853B934
:107A7000074A084B10681B68013B984214BF01205D
:107A800002207047002070470CA4002050A4002062
:107A900024A40020C0A30020054B1B6833B1054B74
:107AA0001B68002B0CBF022000207047012070478C
:107AB00020A40020CCA3002050B1F8B5C36BC16A4C
:107AC000826B013B9142C36300D01BB10020F8BD23
:107AD00000207047071D04463846FEF7F1FCC0B190
:107AE0001448154EA36BD6F800E0E3620125C3F1FC
:107AF000030C05FA03F203EB830342EA0E0200EBE8
:107B000083003946C4F818C03260FEF7B3FC28463B
:107B1000F8BDE26A0748084E02EB82039B00C35897
:107B2000002BDFD13368012101FA02F223EA0202BD
:107B30003260D7E784A30020D4A300202DE9F04FC2
:107B4000AF4EDFF8CC82AF4D89B033681C68002C93
:107B500000F08C80DB681C68FFF722FCFFF728FC34
:107B6000D8F80030834207465BD88442C8F800004A
:107B700040F2C4800022E11B2868FFF7CFF9FFF72D
:107B8000B5FC88B9A04B4FF080525A6040BFBFF39C
:107B90004F8FBFF36F8F07E0019B039920469847F3
:107BA000009B002B80F23681286800226946FFF78F
:107BB00011F80028C9D0009B029C002BECDB636904
:107BC00013B1201DFEF77CFCFFF7F2FBD8F8003064
:107BD0009842814641D3009BC8F80090092BE3D816
:107BE000012202FA03F313F4047F40F0D38013F070
:107BF000C70F40F0A5809B06D6D52046FEF728FC8F
:107C00002868D2E7DB68DC68D3F800A004F1040937
:107C10004846FEF755FC636A20469847E369012B06
:107C200036D033681A68002AECD17849C8F8007059
:107C30000A6832600B60FFF759FCB5E7DB68DF6864
:107C4000D3F800B007F1040A5046FEF739FC7B6A0E
:107C500038469847FB69012B25D033681A68002AFB
:107C6000ECD16A490A6832600B60B4E7FFF798FB11
:107C7000FFF79EFBD8F8003098420746D1D3634BFC
:107C8000C8F800701B681A68B2FA82F2520972E7EB
:107C9000A36953449A45494610D263602461306811
:107CA000FEF7F4FBBDE7BB695B449B45514615D22B
:107CB0007B603F613068FEF7E9FBCEE72B68002B65
:107CC000AFD00023CDE9043A0694FFF7E5FE002388
:107CD0001A4604A92868FEF7A3FDA2E72B68002B2B
:107CE000BBD00023CDE9043B0697FFF7D5FE002368
:107CF0001A4604A92868FEF793FDAEE7FFF7F6FBE6
:107D00003368DB68D3F80C9009F1040A5046FEF79B
:107D1000D7FBD9F81C30012B04D0D9F824304846C1
:107D2000984741E7D9F81830C9F81090E218BA42DC
:107D3000C9F804204AD951463068FEF7A7FBECE7A2
:107D4000019BA269246199182CBF0120002049459C
:107D5000616031D8A9EB03039A4226D8636A2046B2
:107D60009847E369012B7FF41FAF019BA269286844
:107D7000134400283FF419AF0022CDE904230694F0
:107D8000FFF78AFE00231A4604A92868FEF748FD7B
:107D900028680AE7019B246103EB09024A45A361B5
:107DA00062600DD8002B3FF4FFAE184B211D186800
:107DB000FEF76CFB2868F8E64B4501D90028CDD0CA
:107DC0003068211DFEF762FB2868EEE63F1BBB42D0
:107DD00010D82B68002BA0D00023CDE90434CDF8B7
:107DE0001890FFF759FE00231A4604A92868FEF7E9
:107DF00017FD92E7054B51461868FEF747FB8CE7E5
:107E000054A4002088A4002000ED00E058A4002025
:107E100084A40020029CD2E6F0B5174C83B0FEF794
:107E2000F1FB25687DB1FEF7F7FB206848B1134BE5
:107E30000193022300935022002311491148FFF7B8
:107E4000D3F803B0F0BD104F104E3846FEF702FBDA
:107E50003046FEF7FFFA0E4A0E4B176010212A46F5
:107E600020201E60FEF7A2FC20600028DBD00A491B
:107E7000FFF742F8D7E700BF88A400208CA40020B9
:107E8000D89202003D7B02005CA4002070A4002078
:107E900054A4002058A40020D092020072B6024AD6
:107EA000136801331360704790A40020034A1368DD
:107EB000013B136003B962B6704700BF90A4002075
:107EC00038B5154CA378054673B110B1436801204D
:107ED00098470020FFF7E2FFE3680133E3600020EA
:107EE000BDE83840FFF7E2BF03F0FF00FFF7D6FF21
:107EF00065B1226942B1954208D0134601E09D4226
:107F000004D01B68002BFAD12A602561E368002B9E
:107F1000E2D100F003F8DFE794A4002010B4094B8D
:107F2000094A0021196083B01B680193019C4FF03E
:107F3000804102200123C1F80403136003B05DF8FF
:107F4000044B7047040100400800004010B5154B79
:107F50001A6882B07AB10021134A19601B685079FF
:107F600000934FF080410123009CC1F8083310B901
:107F70001168537188470D4B1A6882B100221A604C
:107F80001B6801934FF080420221074B0198C2F811
:107F900008131B68012002B0BDE81040184702B06A
:107FA00010BD00BF00010040A8A400200401004053
:107FB00010B50120FEF7B6F94FF08043D3F84036F4
:107FC000DB0709D400F04CF81B4A136943F00403A3
:107FD0001361FFF7FDF8FEE74FF01023D3F80433E9
:107FE00003F00703072BEDD1144B0122C3F804253E
:107FF000D3F80024002AFBD04FF010210020D1F844
:1080000004230E4C22F0070242F00402C1F80423BC
:10801000C3F80405D4F80034002BFBD0BFF34F8F16
:108020000549074BCA6802F4E0621343CB60BFF313
:108030004F8F00BFFDE700BF00ED00E000E0014012
:108040000400FA0510B5002303F003005C1CFEF7E2
:108050004FF94FF4FA60FFF7D5FA2346F4E700BF73
:1080600000B583B0074B0193022300934FF4827253
:10807000002305490548FEF7B7FF002003B05DF86F
:1080800004FB00BFB0A40020E09202004580020083
:1080900010B44FF080414FF080520020C1F80C0125
:1080A0005E4BC1F81001C1F83805D2F80414C3F8CA
:1080B0002015D2F80814C3F82415D2F80C14C3F80C
:1080C0002815D2F81014C3F82C15D2F81414C3F8DC
:1080D0003015D2F81814C3F83415D2F81C14C3F8AC
:1080E0004015D2F82014C3F84415D2F82414C3F86C
:1080F0004815D2F82814C3F84C15D2F82C14C3F83C
:108100005015D2F83014C3F85415D2F83414C3F80B
:108110006015D2F83814C3F86415D2F83C04C3F8DB
:108120006805D2F840043E49C3F86C050968D2F8E6
:108130004424C3F87025082924D04FF08043D3F895
:108140000024D20744BF6FF00102C3F80024354A6F
:10815000D2F8883043F47003C2F88830BFF34F8FF1
:10816000BFF36F8F4FF01023D3F80022002A23DBD8
:10817000D3F80432002B1FDB2B4B2C4A1A605DF81E
:10818000044B70472A4B1B68002BD6D129482A4A3A
:108190002A4C04602A492B4BFB20C2F818050A68B8
:1081A0001B68294822F00F0203F00F0313434FF41A
:1081B00000720B600260C0E7244B0122C3F8042563
:1081C000D3F80024002AFBD04FF0102312221F49BD
:1081D000C3F80022D1F80034002BFBD04FF010225E
:1081E00012211A4BC2F80412D3F80024002AFBD043
:1081F00000221649C3F80425D1F80034002BFBD027
:10820000BFF34F8F0749124BCA6802F4E062134371
:10821000CB60BFF34F8F00BFFDE700BF00C0004041
:108220003001001000ED00E0E02200200090D003BB
:10823000340100108C56004000F0004048810300DB
:10824000E40E0040580200104096024000E0014059
:108250000400FA0508B5074B044613B10021AFF33B
:108260000080054B1868836A03B19847204600F0E8
:108270003DF800BF00000000E892020070B50D4E0E
:108280000D4CA41BA4100025A54209D10B4E0C4C8B
:1082900001F010F8A41BA4100025A54205D170BD63
:1082A00056F8253098470135EEE756F825309847BF
:1082B0000135F2E74823002048230020482300200E
:1082C0004C23002010B5431E0A44914200D110BD3A
:1082D00011F8014B03F8014FF7E7024403469342BC
:1082E00000D1704703F8011BF9E70000FEE700BF6B
:1082F00003685A004CBF43F0004323F00043184486
:10830000704700BF61B32DE9F84F01F1FF3A904685
:108310000646D146002707EB090404EBD474641029
:10832000E50071190846FFF7E3FFA245834605F112
:108330000800304409D0FFF7DBFFC34500F1FF30F0
:1083400005D8404509D2671CE5E7C34505D9A742D2
:1083500002D004F1FF39DEE700210846BDE8F88FBE
:1083600008467047012807D0022807D0044B002890
:108370000CBF1846002070470248704702487047FB
:10838000518A0200558A0200598A020030B5254BF5
:1083900083B004468D1E4BB301A92846AFF300807D
:1083A000F0B101992A46FFF7ADFF0146C0B1FFF7D2
:1083B0009FFF4B68A064012B2ED0002B01F104001D
:1083C00026DBFFF795FF0023C4E913030368002BA6
:1083D00012DBFFF78DFF00232061184603B030BD8C
:1083E000002323610923184603B030BD0E490F480E
:1083F000091AC9100191D5E7C3F30360FFF7B2FF73
:10840000002814BF002309232061184603B030BDA3
:108410000123C4E91303D9E7002323610523184688
:1084200003B030BD00000000D893020008930200A2
:108430000368DA0710B5044606D49B0700F148002C
:1084400009D500F05FFC2368590709D51A070ED536
:10845000DB0613D510BD00F04DFC23685907F5D499
:1084600004F1D00000F056FC23681A07F0D404F59C
:10847000A87000F057FC2368DB06EBD404F5E87025
:10848000BDE8104000F092BC036803B103441846F5
:10849000704700BF09207047704700BF70B50446A1
:1084A0000D4608E02B6C63612A46236921460120B2
:1084B0009847082808D1296C2046FFF767FF064631
:1084C0000028EFD000F09AFE0728FBD13046296C37
:1084D000FFF7E2FF281D00F001FC00BF2DE9F04787
:1084E0000C1D054617460FCCADF5727D03AE0FC6C9
:1084F0000FCC0FC60FCC0FC694E80F0002ACD5F816
:108500000C80D5F8189086E80F000023236021E046
:10851000236C6B614FF4F07221467AA8FFF7D2FE0C
:108520002B697AAA294630469847889BCDE90049AD
:108530008246636431462B462A460120C0470746DF
:10854000F8B94FF4F0727AA92046FFF7BBFEBAF1F2
:10855000080F1CD1216C2846FFF718FF002F08BF19
:108560000926074618BF0A260028D1D0A36B46F07B
:108570001001CDE900492A46636401202B46C0471B
:1085800000B1092738460DF5727DBDE8F087BAF1D4
:10859000070FF6D13846216CFFF77EFF03A800F0E5
:1085A0009DFB00BF406C7047F0B5CB6B0B640D1D9D
:1085B0000F4606460FCDF9B001AC0FC40FCD0FC466
:1085C0000FCD0FC495E80F004FF0FF3584E80F0082
:1085D000009506E033696A46314698470828044604
:1085E00008D110993046FFF7D1FE0028F2D00920BB
:1085F00079B0F0BD6846FFF71BFF062CF7D139466E
:108600003046FFF74BFF00BF30B4DD6BC1608261C5
:1086100019461D64002230BC60E700BF70B5C66813
:1086200043690B64BEB903690A4604460D46014618
:1086300002209847072807D0082803D1294620465A
:10864000FFF72CFF00F0DAFD3046296CFFF724FF1E
:10865000281D00F043FB0122FFF740FF00F0CEFD94
:10866000C2681AB1CA6B0A64002237E79CE700BFF0
:10867000704700BF836813B1014601201847704757
:10868000042907D8DFE801F00308060808000BB941
:108690000F2A03D9022070470120704700EB8202A5
:1086A00018465368009A1360704700BF10B584B035
:1086B000002303AC0A4600941946FFF7E1FF039834
:1086C00004B010BD042907D8DFE801F0030806084C
:1086D00008000BB90F2A03D9022070470120704708
:1086E00000EB8200009A126842601846704700BF93
:1086F00010B584B004AC002344F8042D0A4600945D
:108700001946FFF7DFFF04B010BD00BFF0B5D36B13
:108710001364151D07460E460FCDADF50F7D17AC42
:108720000FC40FCD0FC40FCD0FC495E80F004FF04D
:10873000FF3584E80F00169510E016A8FFF7D8FF64
:10874000314616A8B84716AA694678B9049B08208E
:108750009847052804460AD0092807D02699684674
:10876000FFF714FE6A460C210028E6D0092416A85B
:10877000FFF75EFE20460DF50F7DF0BD2DE9F04FB1
:108780000D46C96C89B00C1D164600F0030B0A6833
:1087900006941F46002B68D0130CD9B212048DF832
:1087A0001D30022304EB810405928DF81C302B6DE3
:1087B000BBF1020F08BFAC6B13F0010346D101936C
:1087C00000F008030093D4F80090B9F1000F00F016
:1087D000F380022F45D0B4F80090B4F8028004343E
:1087E000AB6C28F0010A0F2130469A44FFF75EFF78
:1087F000824534D829F001035344834294BF0020BA
:1088000001204FEA480808F0020809F0010948EA87
:108810000908B8F1010F3AD031D3B8F1020F1AD1DB
:10882000236823F0004ABBF1000F66D130B1009AF3
:10883000002A6CD0BAF1000F00F09080002B00DA13
:1088400004340AF1010304EB8304BCE7304605A9B4
:1088500000F046FB78B1092009B0BDE8F08F002098
:10886000CFE7D4F804800834BAE712020323059254
:10887000ADF81C309BE7082009B0BDE8F08FBBF1D4
:10888000000F02D0002840F0B48004349BE7BBF115
:10889000000F18D1A8B1D4E90023991C4FEAD27275
:1088A000D9D005F158010133049100F0B580201DA5
:1088B000FFF7EAFD04AB01462846AFF3008000282D
:1088C00067D108347FE70D213046D5F82080FFF7C7
:1088D000EDFE8045F5D1AB6A9C42F2D12046FFF710
:1088E00007FD0F2102463046FFF702FF30462A46B9
:1088F0000021FFF7FDFE0720AEE70D213046D5F839
:108900002080FFF7D3FE804532D0236896E7BAF186
:10891000000F23D005F1580304F10408CDF808B086
:10892000DDF800900397A3461C4602E05745B94680
:1089300040D040460494FFF7A7FD04AB0146002257
:108940002846AFF3008009F1010708F10408002868
:10895000ECD0D1455C46DDE902B7D6D130460D21D9
:10896000FFF7A4FE049B2862C5E90934062073E7DB
:10897000AB6A9C42C9D104224FF00008A318C5E994
:108980000AA8C5E90C23236843454DDB0123019365
:1089900057E780460D213046FFF788FEB8F1020FF9
:1089A00028623ED12B46049A43F82C2F6B62AC62AE
:1089B000062051E75C46D1E705A9304600F090FA61
:1089C00000287FF448AF019B002B3FF454AF0F21E8
:1089D0003046FFF76BFE0E2102463046FFF788FE59
:1089E00030461A4A0F21FFF783FE072009B0BDE881
:1089F000F08F2046FFF77CFC04340746AC63284622
:108A0000AFF3008000283FF426AF30463A460F21EE
:108A1000FFF76EFE07201FE730460D21FFF746FEE9
:108A20002862049B6B62C2E70AF1010004EB80003C
:108A3000FFF75EFC0F2102463046FFF759FE304635
:108A40002A464146FFF754FE072005E700000000D4
:108A5000002393E6012391E602238FE62DE9F041FE
:108A60000546C4B0042906D8DFE801F04D2B050304
:108A70000900032B5FD0022044B0BDE8F081002B39
:108A8000F9D1102AF7D82B68DC0600F1F48022AC6B
:108A90002046019200F094F9A86B019A0023012668
:108AA00006FA03F1114203D0016844F823100430A0
:108AB0000133042BF4D1A863204600F077F900209D
:108AC000DAE7012B4FEA124697B252D0052BD2D1EA
:108AD00006EB0708B8F1200FCDD80F2E40F2998091
:108AE000B846002F40F0DB80AA6BAA630F2E40F23D
:108AF000BE80B8F1000F02D002A800F00BF90020F0
:108B000044B0BDE8F081002BB5D1AC6B97B2281D05
:108B1000012606FA03F1394203F1010302D021686C
:108B200001600434102B00F10400F2D112F4005063
:108B3000E5D1AC63A0E7160C97B2F319102B9AD8C5
:108B40002B681A075DD422AC204600F00DF904EB27
:108B5000C601AB6B3FB103EBC702186841F8040BC9
:108B600004339342F9D12046AB6300F0DBF80020D8
:108B700082E7F219102A3FF67EAF0F2E3FF67BAF49
:108B80002A68D10708D5284622F0030240F8482B6E
:108B9000019300F0B3F8019B019322AC204600F052
:108BA000ADF8A96B019B002F00F095807F0004EBCE
:108BB000C6044FF00008043C01EB870251F8040B97
:108BC00044F8040F9142F9D1B8F1000F0FD002AC74
:108BD000102E314638BF102104EBC101843902EB5D
:108BE000C80452F8040B41F8040F9442F9D1012B48
:108BF0007FF47BAF22AC0432AA63204600F07AF8FF
:108C00007DE723F008032B6005F5A87000F0ACF8B1
:108C100099E7B8F1100F2A6843D9D007A8F11008D6
:108C20000BD5284622F0010242F0020240F8482B00
:108C3000019300F06BF82A68019B510725D40F2E91
:108C400004D822A8019300F061F8019B019302ACC3
:108C5000204600F063F8C6F110010029AA6B019BC1
:108C6000B6DD22AC4F0004EBC6041146A3E722A8F0
:108C700000F048F83DE723F010032B6005F5E8709D
:108C8000019200F09DF8019A01E7284622F00402C3
:108C900040F8D02B019300F041F8019BCFE72A6800
:108CA000CBE7D0070AD5284622F0010242F00202A3
:108CB00040F8482B019300F029F8019B019322AC66
:108CC000204600F023F8B846A96B019B002F7FF4E3
:108CD0006DAF0A4609E70A468DE700BF00F134018F
:108CE00091E838009C46A6464CF8045D90E8FF0FDA
:108CF000E54600BD90EC210B704700BF80EC210BD6
:108D0000704700BF90EC200B704700BF80EC200B39
:108D1000704700BFD0EC200B704700BFC0EC200BA9
:108D2000704700BFF0EC0201F0EC0211F0EC022100
:108D3000F0EC0231F0EC0241F0EC0251F0EC026197
:108D4000F0EC0271F0EC0281F0EC0291F0EC02A187
:108D5000F0EC02B1F0EC02C1F0EC02D1F0EC02E177
:108D6000F0EC02F1704700BFE0EC0201E0EC021110
:108D7000E0EC0221E0EC0231E0EC0241E0EC0251D7
:108D8000E0EC0261E0EC0271E0EC0281E0EC0291C7
:108D9000E0EC02A1E0EC02B1E0EC02C1E0EC02D1B7
:108DA000E0EC02E1E0EC02F1704700BFB0FC0181B1
:108DB000B0FC0191B0FC01A1B0FC01B1704700BF53
:108DC000A0FC0181A0FC0191A0FC01A1A0FC01B1CB
:108DD000704700BFEC4600B52DE900502DE9FF1F9C
:108DE0004FF000032DE90C0001A9FFF7DDFBDDF8D2
:108DF00040E012B0704700BFEC4600B52DE90050CE
:108E00002DE9FF1F4FF000032DE90C0001A9FFF72A
:108E100005FCDDF840E012B0704700BFEC4600B53D
:108E20002DE900502DE9FF1F4FF000032DE90C0044
:108E300001A9FFF715FCDDF840E012B0704700BF54
:108E4000EC4600B52DE900502DE9FF1F4FF000035F
:108E50002DE90C0001ABFFF7D7FBDDF840E012B0C5
:108E6000704700BFEC4600B52DE900502DE9FF1F0B
:108E70004FF000032DE90C0001AAFFF747FCDDF8D5
:108E800040E012B0704700BF027A82B9437AABB1BA
:108E90004268013B10B4437213680321141D017230
:108EA0001A02446002605DF8044B180E70470368B4
:108EB000013A02721A020260180E7047B020704721
:108EC00000B585B003AA0023009219460C22FFF7D3
:108ED000D7FB039805B05DF804FB00BFF0E700BFC7
:108EE0002DE9F043054685B00E464FF000083046A8
:108EF000FFF7CAFFB028044600F0B180070620D56E
:108F000000F0F003802B65D0902B36D0A02B78D0CA
:108F1000B02B47D0C02B00F08A8000F0F803D02B94
:108F20000BD100F00702013242F400220523012197
:108F30002846FFF793FD0028D9D0092005B0BDE8E9
:108F4000F0830DF10C09002319468700CDF800903D
:108F50000D222846FFF794FBFFB2039BCDF800904B
:108F6000043760064CBFDF1BFF18002319460D2293
:108F700028460397FFF7A6FBB9E700F00D030D2B7A
:108F8000DBD003AF002300F00F02194600972846FC
:108F9000FFF776FB0023009719460D222846FFF7BE
:108FA00091FBA4E7B1285FD0B22800F0CC80B328B1
:108FB0007ED000F0FC03B42BBFD000F007020132DA
:108FC000012342F4002219462846FFF747FD0028F6
:108FD0008DD0B2E73046FFF757FF24020443B4F5C3
:108FE000004FAAD024010023A2B219462846FFF759
:108FF00035FD0028A1D114F4004F18BF4FF001082F
:1090000075E7C24302F007034FF47F621A4101077C
:1090100002F47F624FF0000348BF42F480421946D9
:109020002846FFF71BFD00283FF461AF85E7C628FF
:1090300051D0C7285AD000F0F803C02B69D0C828F7
:1090400075D0C9287FF479AF3046FFF71DFF0203C2
:1090500000F00F0002F470220130024366E7B8F11D
:10906000000F14D0002069E73046FFF70DFF0028FD
:109070003FF463AF10F0F0037FF45FAF0246194690
:109080002846FFF7EBFC00283FF431AF55E703AC6F
:1090900043460E22414600942846FFF7F1FA009419
:1090A000284643460F224146FFF70CFB404645E762
:1090B0003046FFF7E9FE010300F00F0001F47021D4
:1090C000421C01230A4328461946FFF7C7FC002823
:1090D0003FF40DAF31E73046FFF7D6FE010300F055
:1090E0000F0001F47021421C0323EBE73046FFF729
:1090F000CBFE024600283FF420AF10F0F0037FF4CF
:109100001CAF04212846FFF7A9FC00283FF4EFAE6E
:1091100013E700F00F020132032342F42022194624
:109120002846FFF79BFC00283FF4E1AE05E73046F8
:10913000FFF7AAFE00F0F00200F00F031032013337
:1091400043EA0232F2E600230DF10C090D22194622
:10915000CDF800902846FFF793FA3046FFF794FECB
:1091600002064FF002070CD5039B00F07F00B840C9
:10917000034430460393FFF787FE030607F1070712
:10918000F2D4039BCDF8009000F07F0403F5017248
:10919000BC400023144419460D2228460394FFF7CF
:1091A00091FAA4E610B5C36C84B05A6803208DF818
:1091B0000C00DC798DF80D4012020833084601A935
:1091C00001920293FFF78CFE04B010BD08B5FFF7C3
:1091D00085FE806C08BD00BF08B5FFF77FFEC06C40
:1091E000C37900EB8300083008BD00BF08B500F06C
:1091F00005F800BF08B5FFF7F9FF00BF08B5062066
:1092000000F02CF80120FFF771F81F2938B504464B
:109210000D4604D9162303604FF0FF3038BD426C71
:1092200012B152F821304BB9204600F031F82A46ED
:1092300001462046BDE8384000F018B8012B0AD09E
:10924000591C03D1162303600120E7E7002442F8EC
:109250002540284698470020E0E70000024B0146E1
:109260001868FFF7D2BF00BFE422002038B5074CD2
:109270000023054608461146236000F013F8431CFE
:1092800002D1236803B12B6038BD00BFC4A4002005
:1092900000F000B8024B58221A604FF0FF307047C0
:1092A000C4A40020024B58221A604FF0FF307047D0
:1092B000C4A40020F8B500BFF8BC08BC9E467047A7
:1092C000F8B500BFF8BC08BC9E4670470608290CDC
:1092D000546D725100000000546D7220537663008B
:1092E0004C45443000000000E8220020000000004F
:1092F00008B10181B0B000840000000008B1018114
:08930000B0B000840000000081
:1093080038CFFF7F01000000A0ECFF7FB0B0A8803D
:1093180048EDFF7F0084028070EDFF7F01000000B0
:1093280064F0FF7FB0A9028000F1FF7FB0B0A88091
:1093380050F1FF7F010000005CF1FF7FB0B0AA8010
:1093480094F1FF7FAE71B28054F2FF7F01000000FC
:1093580050F2FF7FAB3F3880A8F2FF7F010000008A
:10936800B4F2FF7FB0B0AA80F0F2FF7F01000000E6
:1093780094F3FF7FAB0EB280FCF3FF7FB0AF0880A1
:10938800C8F6FF7F01000000CCF6FF7FAC3F0380EA
:1093980044F9FF7F0100000020FBFF7F0084048068
:1093A80034FBFF7F0100000030FBFF7FB0AD04807D
:1093B800ECFDFF7FB0A803800CFEFF7F2CFFFF7F32
:1093C80010FEFF7F30FFFF7F1CFEFF7F01000000C3
:1093D8000090D003E82200200000000000000000F8
:1093E8000000000000000000000000000000000075
:1093F8000000000000000000000000000000000065
:109408000000000000000000000000000000000054
:109418000000000000000000000000000000000044
:109428000000000000000000000000000000000034
:109438000000000000000000256202000162020036
:04000003200062B5C2
:00000001FF
