:020000022000DC
:1060000000000420B5620200DD620200DF620200CF
:10601000E1620200E3620200E562020000000000AB
:106020000000000000000000000000006DED020014
:10603000E9620200000000008DED0200ED62020046
:10604000F19A0200EF620200BDA00200890B03007A
:10605000EF620200EF620200559B0200EF62020055
:10606000EF620200EF620200EF620200EF620200E4
:10607000EF620200EF620200EF620200EF620200D4
:10608000EF62020099EE0200EF620200EF6202008E
:10609000EF620200EF62020089EA0200EF62020092
:1060A000EF620200EF620200EF620200EF620200A4
:1060B000EF620200EF62020000000000000000003A
:1060C000EF620200EF620200EF620200EF62020084
:1060D000EF620200EF620200EF620200EF62020074
:1060E000EF620200EF620200EF62020000000000B7
:1060F00000000000EF62020000000000EF620200FA
:10610000000000000000000000000000000000008F
:10611000000000000000000000000000000000007F
:10612000000000000000000000000000000000006F
:10613000000000000000000000000000000000005F
:10614000000000000000000000000000000000004F
:10615000000000000000000000000000000000003F
:10616000000000000000000000000000000000002F
:10617000000000000000000000000000000000001F
:10618000000000000000000000000000000000000F
:1061900000000000000000000000000000000000FF
:1061A00000000000000000000000000000000000EF
:1061B00000000000000000000000000000000000DF
:1061C00000000000000000000000000000000000CF
:1061D00000000000000000000000000000000000BF
:1061E00000000000000000000000000000000000AF
:1061F000000000000000000000000000000000009F
:1062000010B5054C237833B9044B13B10448AFF3F0
:1062100000800123237010BDFC240020000000003A
:106220006436030008B5034B1BB103490348AFF3C1
:10623000008008BD00000000002500206436030037
:10624000154B002B08BF134B9D46A3F5803A002148
:106250008B460F461348144A121A0AF033FE0F4BAE
:10626000002B00D098470E4B002B00D09847002001
:10627000002104000D000D48002802D00C48AFF3A7
:1062800000800AF0C1FD200029000AF039FD0AF063
:10629000A7FD00BF0000080000000420000000006F
:1062A00000000000FC240020E4B0002000000000FA
:1062B000000000000649074A074B9B1A03DD043B18
:1062C000C858D050FBDC03F075FAFFF7B9FF0000A7
:1062D0009C380300E0220020FC240020FEE7FEE7BB
:1062E000FEE7FEE7FEE7FEE7FEE7FEE7FEE7FEE786
:1062F000704700BF00B583B0044B0093044A4023AD
:1063000000F034F803B05DF804FB00BF1563020031
:106310001C25002002B32DE9F843114B114E88468D
:10632000144643F0010903270025224608EB050126
:10633000002004F087FC03461D444FF47A40E41A21
:1063400023B9337833B1C847013F06D001233370F6
:10635000002CEAD1BDE8F88370473770BDE8F883B8
:10636000E01E030018250020704700BFF0B595B06F
:10637000002415460F4608461E4603F041F93846EC
:1063800023460895082205A91A9D09960D950A9499
:106390008DF82C400C9403F08DF99DF814308DF895
:1063A0001140DDE9061003F00302012ACDE90201E4
:1063B00027D0022A04D0384603F026F915B0F0BDE4
:1063C000BDF81650C3F3C2038DF81030AD0908268E
:1063D000082D2C4628BF0824334622460EA93846ED
:1063E00003F068F92D1B214608AB02AA0EA826442B
:1063F00000F03AFD002DEBD1384603F005F915B059
:10640000F0BDBDF81460059DC6F38316C3F3C20446
:10641000B2000EA9384608238DF81040C5F3952523
:1064200003F048F908AB324628460EA9009302ABA8
:1064300000F074FC384603F0E7F815B0F0BD00BF7B
:10644000704700BF00B583B0044B0093044A40235B
:10645000FFF78CFF03B05DF804FB00BF656402002A
:106460006025002038B50E480E4D03780E4CEB5CCD
:106470000025D2B2257053B90C3004F0A5F858B9F4
:106480000A4B1B7813B12378002BFCD038BD0430A5
:1064900004F012FB0028F3D000F096FDF0E700BFF7
:1064A000E022002054B00020A02500205C25002020
:1064B00070B51348134A0378D35C88B0DBB90C304D
:1064C00004F004F8104D0FCD6C460FC495E80F0092
:1064D00008AD062645F8206D84E80F002946002205
:1064E000074803F07DFA08B100F06EFD074B00226B
:1064F0001A7008B070BD043004F05EFAE2E700BF25
:10650000E022002054B00020F41E03005C2500208F
:10651000F0B5324C85B004F5836001F0BBFF04F2A6
:10652000144001F0B7FFD4E9013703EA0702D01C99
:1065300004EB800114F8200010F0040044D003F1B3
:10654000020C0E7806F00306012E654635D0022EA9
:1065500002F1030621D004EB86010028F1D104EBFF
:1065600082020133D26801923B4004EB830302F0C4
:106570000302012ADE6829D0022A23D1BDF80630A1
:106580009B090333360C05EB9305154801F08EFF8C
:1065900000B16560304605B0F0BD4B880CEB93133D
:1065A00007EA0302D11C03F1020C14F8210065462E
:1065B00004EB810100F00400CFE70B88C3F38313E1
:1065C0006344EDE70026E0E79D1CC8E7BDF8043012
:1065D000C3F38313360C1D44D7E700BF7426002095
:1065E000882A002021B9124B03EBC00000687047D5
:1065F000104A0F49521AD20815D030B40E4D2B88CC
:10660000834212D0002303E035F82340844205D0B2
:1066100001339A42F8D1002030BC704701EBC3002F
:10662000006830BC7047104670470846F8E700BF66
:10663000D436030094370300FC240020094B0139B1
:1066400003EBC00003290BD8DFE801F002080604C1
:1066500002207047407970470079704704207047E6
:1066600000207047D43603002DE9F04383B002AB1D
:10667000002203F8012DDFF8DC9007461846884613
:10668000D9F8084000F052FDD9E90132D9F800608C
:10669000134401339B1B012B58D809F21C450121DF
:1066A000284601F0DFFEFFF733FF0146284601F0E0
:1066B000D9FED9E90132D9F80010134401335B1A2D
:1066C000012BECD90A400332052302319DF8070063
:1066D00049F82230C9F8001000F04EFD00211C4896
:1066E00001F086FE80F31000731C234009EB830346
:1066F00000043440033440EA1740D86019F82430CD
:1067000067F3C50309F8243039F824306FF389138F
:1067100029F8243059F8242068F39F2213460121D8
:1067200061F301036FF3820349F8242009F8243050
:1067300099F820341BB906E000F00EF818B1D9E939
:1067400000329A42F8D103B0BDE8F0833146B9E790
:10675000902A0020742600202DE9F047934C002356
:1067600084B0C4F81834BFF34F8FD4E9015605EA5A
:106770000602D31C04EB830114F82330580719D503
:1067800027680B7803F00303012B43D0022B03D1BE
:106790004B88023505EB931506EA0502D4F8180478
:1067A000D31C04EB830128B9AF4239D914F8233044
:1067B0005B07E6D404EB82026B1CD2680192334083
:1067C00004EB830302F00302DB680293022A05F163
:1067D000020700F08D80012A26D0D4F810543DB174
:1067E0002B6828469B689847EB681D68002DF7D1F9
:1067F0006F48704B7049C01AC008000440F0020096
:10680000FFF732FFD4E90030C01A18BF012004B0EE
:10681000BDE8F0870B880235C3F383131D44BBE743
:10682000676004B0BDE8F087BDF804206348C2F398
:106830008313062B28BF062363F3891202339900C2
:10684000ADF8042002F09AFE80460028C5D002F080
:10685000D7FE0023082201A9404602F0F7FEBDF84A
:10686000043013F4707F00F09F806FF0010AAAEBF0
:10687000050A082506EA070103312B46042204EB2A
:106880008101404602F0E2FEBDF8043007F1010943
:106890000AEB0902C3F3831393424F4605F1040543
:1068A000E8D8D4F81834002B68D1D4F8105465B166
:1068B000EB685A7928464146002A5BD02B681B6852
:1068C0009847EB681D68002DF2D1404602F09CFE0F
:1068D00004A8002300F80D3D00F028FCD4F818347B
:1068E0000BB9C4F804909DF8030000F045FC89E75B
:1068F000BDF8063031484FEA93194D46502D28BF58
:10690000502565F38F1305F10801ADF8063002F04C
:1069100035FE804600283FF460AF26EA070A0AF1F8
:10692000010A02F06DFE4FEA8A0A0023082201A93B
:10693000404602F08BFE55452BD9EBB2BAF1000F61
:1069400020D006EA0701A3EB0A03033104EB81011F
:10695000DDB252460823404602F078FE2A460AF18C
:1069600008031749404602F071FE09F1030907EBDD
:10697000990996E71D68002D9AD1A6E7404602F0D6
:1069800043FE3FE72A4608230D49404602F05EFEDB
:10699000EBE706EA0701033104EB81012A460823ED
:1069A000404602F053FEE0E7B9467AE7742600203D
:1069B00004370300D4360300441F0300C03603002D
:1069C000802600202DE9F04782B002AB002403F8B6
:1069D000014DDFF8ECA00746184691468846DAF8E4
:1069E000084000F0A3FBDAE90132DAF80060134452
:1069F00001339B1B022B5ED80AF21C45012128465D
:106A000001F030FDFFF784FD0146284601F02AFD24
:106A1000DAE90132DAF80010134401335B1A022B71
:106A2000ECD90A400332033145239DF807004AF8A8
:106A30002230CAF8001000F09FFBB31C23400AEB81
:106A4000830300211D48C3F80C9001F0D1FC80F3B2
:106A50001000731C23400AEB83030004344003340A
:106A600040EA1740D8601AF8243067F3C5030AF8E3
:106A700024303AF82430012161F389132AF82430B4
:106A80005AF8242068F39F22134661F301036FF341
:106A900082034AF824200AF824309AF820341BB9DB
:106AA00006E0FFF759FE18B1DAE900329A42F8D150
:106AB00002B0BDE8F0873146B3E700BF902A00205E
:106AC000742600202DE9F04F83B002AD002405F8B4
:106AD000014D3B4C8046284693469A468946A56818
:106AE00000F024FBD4E90132276813440133DB1B97
:106AF000032B63D804F21C460121304601F0B2FC9E
:106B0000FFF706FD0146304601F0ACFCD4E9013246
:106B10002168134401335B1A032BEDD90A40033279
:106B2000852344F8223004319DF80700216000F0ED
:106B300023FBBA1CFB1C2A402B4004EB820204EB13
:106B4000830300211F48C2F80CB0C3F80CA001F069
:106B50004FFC80F310007B1C2B4004EB83030004EC
:106B60003D40033540EA1840D86014F8253068F3FA
:106B7000C50304F8253034F82530022262F3891366
:106B800024F8253054F8252069F39F22134601216B
:106B900061F301036FF3820344F8252004F82530E4
:106BA00094F820341BB906E0FFF7D6FD18B1D4E9FC
:106BB00000329A42F8D103B0BDE8F08F3946ADE714
:106BC00074260020902A00202DE9F04F83B002AEF9
:106BD000002406F8014D3E4C8046304693469A46C6
:106BE000A568894600F0A2FAD4E901322768134467
:106BF0000133DB1B042B69D804F21C46012130460B
:106C000001F030FCFFF784FC0146304601F02AFC1D
:106C1000D4E901322168134401335B1A042BEDD906
:106C20000A400332C52344F8223005319DF807009D
:106C3000216000F0A1FAB81CFA1C28402A403B1D34
:106C40002B4004EB800004EB820204EB8303C0F8CA
:106C50000CB00021C2F80CA01E480C9ADA6001F0BA
:106C6000C7FB80F310007B1C2B4004EB8303000464
:106C70003D40033540EA1840D86014F8253068F3E9
:106C8000C50304F8253034F82530032262F3891354
:106C900024F8253054F8252069F39F22134601215A
:106CA00061F301036FF3820344F8252004F82530D3
:106CB00094F820341BB906E0FFF74EFD18B1D4E973
:106CC00000329A42F8D103B0BDE8F08F3946A7E709
:106CD00074260020902A0020044BD3E900239A4216
:106CE00001D0FFF739BD0020704700BF7426002097
:106CF00038B5094BD3F81044012583F820544CB122
:106D0000E3685D71236820465B689847E3681C6808
:106D1000002CF5D138BD00BF742600202DE9F047C6
:106D200084B01D460C9C002394F80C802373EB88E0
:106D300081460E461746002B40D1297A05290ED0F0
:106D40006B7AA88873BB404B53F821A00021FFF752
:106D500049FC524603463D49204601F003FC062FFC
:106D600009D8DFE807F0046A4249525D330049461A
:106D7000204601F0F7FB2B7A052B05D06B7A5BB927
:106D80003349204601F0EEFB204601F0DFFB84F89A
:106D90000C8004B0BDE8F0872E4A2F49204601F050
:106DA000E1FBEDE7FFF74AFC2C4B2B4953F8202081
:106DB000204601F0D7FB297AA888C4E7254A00922B
:106DC0002749284A204601F0CDFBB6E7D6E9041052
:106DD000D6E900230390D6E902070291CDE9000726
:106DE0004946204601F0BEFBC5E74946D6E90023E7
:106DF000204601F0B7FBBEE7B168D6E90023204684
:106E00000091494601F0AEFBB5E7D6E90201D6E9AB
:106E10000023019100904946204601F0A3FBAAE718
:106E2000D6E90371B068D6E900230291CDE90007E5
:106E30004946204601F096FB9DE7326849462046C8
:106E400001F090FB97E700BFD01F0300C01F0300B5
:106E5000CC1F0300B41F0300BC1F03005C1F030012
:106E60009C1F0300941F0300082900D970472DE9D7
:106E7000F04F1D46904600232A7B2B7385B0B8F84F
:106E80000630039207460E46002B7BD198F8081077
:106E9000052911D098F80930B8F80400002B63D107
:106EA0003C4B53F821400021FFF79CFB2246034650
:106EB0003949284601F056FBDFF8FCB0DFF8FC90BA
:106EC000002405E03A5D013401F04CFB082C09D0A8
:106ED000A64249462846F5D85946013401F042FBFE
:106EE000082CF5D12D49DFF8D8B0DFF8D890284626
:106EF00001F038FB00240CE017F804A0BAF17E0F73
:106F000023D92E2249462846013401F02BFB082CB8
:106F100008D0A642F0D859462846013401F022FB99
:106F2000082CF6D198F80830052B02D098F80930D3
:106F3000A3B91B49284601F015FB284601F006FBC2
:106F4000039B2B7305B0BDE8F08F09F081FF50441F
:106F50005246437813F0970FD3D0D3E7114A124922
:106F6000284601F0FFFAE4E7FFF768FB0F4B0E49F4
:106F700053F82020284601F0F5FA98F80810B8F8E0
:106F800004008DE7074A009209490A4A284601F0A1
:106F9000E9FA7BE7D01F0300C01F03008C1F03002A
:106FA000CC1F0300B41F0300BC1F03005C1F0300C1
:106FB0009C1F0300941F0300881F0300801F030011
:106FC000C81F0300901F030000B585B00023039085
:106FD000194601AA44F20100CDE9013300F004F89A
:106FE00005B05DF804FB00BF10B572B6FFF780FE78
:106FF000FFF772FE0028FBD1104B114C1149E41A27
:10700000E408240444F00100FFF72EFB0E4B1B683C
:10701000DB0700D500BE44F002000C49FFF724FB5B
:10702000BFF34F8F0A490B4BCA6802F4E062134367
:10703000CB60BFF34F8F00BFFDE700BFD436030026
:10704000043703003C200300F0ED00E0482003007B
:1070500000ED00E00400FA052DE9F0472D4F3B88D4
:107060008B4282B03CD3054602A84FF0000800F8DE
:10707000018D16460C4600F059F8274B274A284840
:1070800019781378B0F800C09DF80700DBB26345AB
:1070900038BF0133C9B238BF5FFA83F8414523D006
:1070A00092F800801378DFF88090DBB29C4586BFB1
:1070B0000133DBB200235FFA88F8137000F05CF84C
:1070C000D9F800300FFA88F24FEAC20A43F832606A
:1070D000534405B174B90020988002B0BDE8F08730
:1070E000092002B0BDE8F08700F046F8042002B0A5
:1070F000BDE8F0870B4B38881B68294608FB003039
:10710000224609F0D4FED9F800309A440020AAF8AB
:107110000440E2E7A42A0020A82A0020982A0020A0
:10712000A62A00209C2A0020A02A002070B4EFF399
:10713000108472B60D4B9A68AAB90D490D4E0125FF
:107140009D60D1F8805035401D60C1F88060D1F855
:1071500084505D604FF0FF33C1F88430027004B991
:1071600062B670BC704701230370F8E748B0002096
:1071700000E100E0FC06FFBD094B9A687AB170B9E6
:1071800010B4EFF3108172B6064A1C6814605C6894
:107190005460986001B962B65DF8044B704770475F
:1071A00048B0002000E100E0F0B443681BB1384A69
:1071B000D468A34246D20023364F0B807A684FF042
:1071C000010C02F580544FF6FF76083294420ED837
:1071D000BCF1020FA1F800C007F1140754D07A687F
:1071E00002F58054083294424FF0020CF0D9136833
:1071F0000133EDD05388033302EB83039C42E7D382
:107200009588B5420AD0158845B1956803689D42B6
:1072100011D05388033302EB8302D7E79C42D7D9BE
:107220001A6801321A46D3D05D88033503EB850313
:107230009C42E5D2CCE7184B42601B8903810120B8
:10724000F0BC704712699342B5D813F00305B2D170
:10725000114A048912899442ADD104689A68944213
:10726000A9D10C484268934203D902F58052934257
:1072700007D38269934207D902F58052934203D221
:1072800001250D800120DBE70020F0BC704700BF26
:10729000E8240020EC2A0020D02A0020F0B5334C4E
:1072A000334DB4F802C062684FEA8C0606EB0C035B
:1072B00005EB830383B0596801F58050002A52D052
:1072C0005388033302EB8302904213D8664405EBE4
:1072D0008605EB68002B3DD0264B27481968022213
:1072E0009A80052500230122257003B0BDE8F040F7
:1072F00001F0FCBD13680133E8D05388033302EB7F
:1073000083038342E2D84FF6FF7E9788774514D0F7
:10731000178897B162605388164D1748AE88296860
:10732000033300259BB200959B0001EB86010325EA
:10733000257001F03DFD03B0F0BD9842C6D91A6832
:1073400001321A46C2D05F88033703EB87039842A5
:10735000DBD2BBE7084804250122257003B0BDE855
:10736000F04001F0C3BD01F10802ADE7D02A0020D2
:10737000EC2A0020282B0020E82400202DE9F04FE3
:10738000AC4E89B004464FF6FF773568002D00F00B
:10739000D9802A78531E052B67D8DFE803F05931CE
:1073A000311D1D03002C40F0C380DFF8B0C29CF8F3
:1073B0000C209CF80030002A00F05281013B8CF830
:1073C0000C40062B51D8DFE813F0E703F802030264
:1073D000D8015000FB02C802002C40F0A9802B7994
:1073E000012B00F04A81C0F0DE800DF10C08022B69
:1073F0000394C8E90244C8F810403ED120463DE05D
:10740000B5F81490AB7D002C00F0A380022BEA8825
:1074100040F2C4804FEA8904DFF8388204EB0901A6
:1074200008EB8101D31C0A8913440B81EA884C4480
:1074300008EB84040DF10C086389033B9B1A0022BE
:107440006381C8F808200392C8E90322012015E0EF
:10745000002C40F097802B79032B00F2DF80DFE8CF
:1074600013F080013D015501600100230DF10C086E
:10747000C8E90333C8F8083003930F2004902B7831
:10748000023B042B0AD8DFE803F0472F2303430015
:1074900004238DF80C30EB88ADF81830664C04F1FD
:1074A000100554F8043B404603B19847A542F8D173
:1074B000624963480024346000F018FF01216148EC
:1074C00000F0DCFF00287FF460AF09B0BDE8F08F6A
:1074D00003238DF80C30EB88ADF818302B89ADF80C
:1074E0001A30EB680593D9E702238DF80C302B890D
:1074F000ADF81830AB88ADF81A30EB680593AB7D6A
:10750000A3F10603B3FA83F35B098DF81C30C5E7DA
:1075100005238DF80C30C1E701238DF80C302B8941
:10752000ADF81830AB88ADF81A30EB680593B5E7C5
:107530000DF10C080023C8F808300393C8E90333A1
:1075400001209BE73D493E4800F0A2FE0546306021
:107550001FE74FEA8904DFF8FC8004EB090108EB20
:107560008101B1F808A0496801EB8A0A062B00F2F4
:10757000B682DFE813F0CC019301A501B801410107
:107580006C0186010DF10C082F4A00235360039310
:10759000C8E90233C8F8103001206FE7DFF8B48083
:1075A0004FEA890443E702232B71CDE904440DF12E
:1075B0000C08EB68039340460DF10A01FFF7F4FD58
:1075C000002800F0C1810499204A8B88EB800B8849
:1075D0002B811F4800940423BDF80A4001F0E8FB0A
:1075E000002840F0DE821B4B04EB840403EB840490
:1075F0000123237469E701239A001A4408EB8203EC
:10760000002059680090082308F82200124A104808
:1076100001F0CEFB00283FF458AF35680A4A0DF15F
:107620000C08002353600393C8E90233C8F81030F4
:107630000E2023E7E82A0020B82A0020E02A0020B4
:10764000142B0020242B0020C82A002058200300DF
:10765000E8240020EC2A00205C200300D02A00202F
:10766000072B00F28382DFE813F0FA018102810226
:107670009D01E60178017801C001BF4B1B78002B0A
:1076800000F05381DFF8F4E2BEF80490B9F1010F85
:1076900015D8DFF80C8309EB890208EB820204326B
:1076A00012F8043C002B00F0088209F1010399B2A2
:1076B00001299946AEF8043002F11402F0D90DF117
:1076C0000C0808220021AD4809F0FCFB0020C8F896
:1076D00008000390C8E903003568CFE6DFF8C082F0
:1076E00098F80030022B00F0688298F81430022BD2
:1076F00081D0A14B0DF10C08002001221A700390DB
:107700005860C8E90200C8F81000B7E69C4A9D48D6
:107710001168002302242B719480012201F0E6FB02
:1077200078E7974C984A21689648DFF874824FF0C2
:10773000000985F804900823CDF8009001F038FB8B
:10774000924B25685B88A18803EB830308EB8302D7
:1077500008F8239053682360022355601181A380A9
:1077600058E7874B8A4A1968864801232B71002302
:107770000093082301F01CFB4CE7BCF80230DFF853
:10778000208203EB830308EB8308D8F80C30002B2E
:1077900000F0DC817A4B7B48196802229A8005222E
:1077A0008CF800200023012201F0A0FB00283FF408
:1077B0008CAE0DF10C08002341F61D523568C8F857
:1077C00008300393C8E90333904208BF184655E6D2
:1077D000DCF804206A48538884880168694801EB12
:1077E00084010333002400949BB203249B008CF893
:1077F000004001F0DDFAD9E7664BAA6966491A60D4
:107800004FF0000B1846C3F804B0FFF7CDFC00287A
:1078100000F0CA810223AB7504235146CDF800B0B5
:10782000EA18584801F0C4FA00283FF44EAEAB7D88
:10783000EA88022B4FF00E0026D84C4408EB84084F
:10784000B8F80A30033B9B1AA8F80A30B1E7524B4C
:10785000504AB3F800A051684A48504A00234FF0FC
:10786000060C85F816C00093042301F0A1FA002845
:10787000DDD10AEB8A0A08EB8A08012388F8103068
:1078800023E6EA8841F61D5004EB090108EB81016B
:10789000D31C0A8913440B81EA88CEE7032A0CBF64
:1078A000052306230022AB750AF10401009204238C
:1078B00005F10802334801F07BFA0028B7D104E64D
:1078C0002B693048002B14BF032301230022AB7522
:1078D0000AF108010092042305F10C0201F068FA94
:1078E0000028A4D1F1E5EB882A6926484FF0010C65
:1078F00085F816C04FF0000C0AF10C019B00CDF882
:1079000000C001F055FA00283FF4DFAD8FE70223F5
:107910000022AB75042300925146EA18194801F081
:1079200047FA00283FF4D1AD81E70DF10C08082299
:107930002146124809F0C6FA0394C8E90244C8F87F
:1079400010403568022099E50A200023C8E9003379
:10795000C8E90233C8F8103090E5094B0C4A1968A1
:10796000084800230093CCF8043007238CF800303B
:10797000082301F01DFA19E7C82A0020342B002043
:10798000282B0020E82400205C200300D02A0020BF
:1079900064200300AC2A0020302B00205820030074
:1079A000EC2A0020884ADCF80410938849880333C5
:1079B0000B44022193808CF80010FFF76FFCF5E672
:1079C000BCF80220DFF810829300134408EB830810
:1079D00006200023D8F804107C4A00938CF800009D
:1079E00008237B4801F0E4F9E0E601238CF800303D
:1079F0009CF80A304BB1DFF8E081D8F80C30002257
:107A00008CF80A20002B00F0AB809CF80B30002B88
:107A100043D0DFF8C481D8F8203000228CF80B2046
:107A2000002B3AD198F82430BBB30123ACF80230D4
:107A3000FFF734FCBAE6BCF80220DFF89C81624C08
:107A40009300991808EB810120684D68B4F804E0B0
:107A5000486002202560A1F808E0A080B5E7DFF8C3
:107A60007881BCF8081098F8142098F80030B2FA21
:107A700082F252090131B3FA83F35B098CF80B20CF
:107A8000ACF80810002201218CF80A30ACF8022072
:107A90008CF80C208CF80010ACE70DF10C080020DD
:107AA000C8F808008CF80000ACF80200CCF804001C
:107AB0000390C8E903003568E0E41368DEF80010BD
:107AC00003F5805C03F1080A002968D04B88033372
:107AD00001EB83018C4505D8CEF80040E5E5EA8846
:107AE0000F20D1E60B680133F6D04B88033301EB4E
:107AF00083039C45F0D38888B8421AD0B1F800B00F
:107B0000BBF1000F15D0EB88CEF800108342DBD11B
:107B1000002300932F4A2E48042301F049F900283E
:107B20004DD109EB890908EB8908012388F8103049
:107B3000CBE49C45D0D9196801311946CCD058887E
:107B4000033003EB80039C45D5D2C5E704228CF8B3
:107B50000020D8F804101E48012201F0C7F925E6DC
:107B600098F81020002A3FF450AF5FE7013B062B46
:107B70003FF67BAC01A252F823F000BF997B0200D4
:107B8000BB790200D17702007B7702006B740200A0
:107B9000C17902005B7902009CF80A302AE751465D
:107BA00098E735680E20D0E60DF10C080390C8E97F
:107BB0000200C8F810000A2060E400231CE53568C4
:107BC0000E200DF10C08C0E6282B00205C200300DD
:107BD000E824002058200300EC2A00204068FFF72A
:107BE000CDBB00BF08B301B370B582B00C460DF138
:107BF00006010546FFF7D8FAA0B1BDF806000C4B08
:107C00006E6800EB800003EB800001210C3000F077
:107C100029FC26606B6801220C3300206360AA7285
:107C200002B070BD0A2002B070BD0520704700BFD1
:107C3000EC2A0020E8B110B582B00DF1060104462F
:107C4000FFF7B2FA90B1BDF806300C4A03EB83039C
:107C500002EB8303DA6872B1A27A62B1DA680021BA
:107C6000013A0846DA60A17202B010BD0A2002B0E3
:107C700010BD05207047062002B010BDEC2A002080
:107C8000484B1B78002B32D0002934D00A884FF69D
:107C9000FF739A4229D04B883BB34B689B072CD18A
:107CA0002DE9F043B1F8088008F103039BB240F2DC
:107CB000FD32934283B01CD83B4A17783FB95689AE
:107CC000148934441C44A4B2B4F5806F17D3147DD6
:107CD0003CB9D68B948B34441C44A4B2B4F5806F69
:107CE0005DD3072003B0BDE8F08304207047022075
:107CF00070470920F6E70520704703207047BC460F
:107D00004FEA8C09E14402EB890933440C460546ED
:107D100001A92648A9F80A3000F07EFA1C2206467E
:107D2000002109F0CFF85EB302234FF00009B782BB
:107D3000337086F816906368336101211C4800F0A7
:107D400091FBF060238833816388B38001A9A6F892
:107D50000A90A6F80680154800F08AFA45B1C5F8E1
:107D60000490F268134B2A601B8985F80A902B81D6
:107D70000121114800F06AFB044660B10020B1E720
:107D8000B9F80A30C8F57F4808F1FD089844A9F809
:107D90000A800820A6E7FFF7F1FA2046A2E70127AC
:107DA000BC46ADE7C82A0020EC2A0020142B002096
:107DB000E42A0020D02A0020242B0020002836D0DE
:107DC000484B1B78002B30D0002930D00A884FF662
:107DD000FF739A422FD04B886BB34B689B0728D117
:107DE0002DE9F043B1F8089009F103039BB240F28A
:107DF000FD32934283B020D83B4A15783DB957896C
:107E000014893C441C44A4B2B4F5806F17D3147D8C
:107E10003CB9D78B948B3C441C44A4B2B4F5806F1E
:107E20005BD3072003B0BDE8F08302207047052034
:107E3000704703207047042070470920F2E7A846E6
:107E4000AC464FEA8C05654402EB85053B4406468B
:107E50000C4626486B8101A900F0DEF91C2207467A
:107E6000002109F02FF857B300250323A7F8148049
:107E70003B70BD7563683B6101211D4800F0F2FA5B
:107E8000F86023883B816388BB800423A7F80690B1
:107E9000BB753368BB6101A97D81144800F0E8F926
:107EA0007560FA68134B32601B89B572338101210A
:107EB000114800F0CBFA044658B12846B2E76B8966
:107EC000C9F57F4909F1FD099944A5F80A900820F0
:107ED000A8E7FFF753FA2046A4E74FF00108C4468D
:107EE000AFE700BFC82A0020EC2A0020142B002096
:107EF000E42A0020D02A0020242B0020184B1B78D5
:107F000023B34FF6FF7398421ED070B582B001A91B
:107F10000446144800F080F91C220546002108F0B0
:107F2000D1FFADB105230126EC8001A92B702E7184
:107F30000C4800F09DF931460B4800F087FA0446E2
:107F400048B1002002B070BD042070470220704785
:107F5000082002B070BDFFF711FA204602B070BDD4
:107F6000C82A0020142B0020242B00202DE9F043E8
:107F7000344C2478002C60D03AB333B39F88012F5F
:107F80005ED8314C07EB870C013704EB8C0CBFB289
:107F90004FF6FF7E4FF000089CF8004074B91C6853
:107FA000DCF8045005F58056002C43D06588033575
:107FB00004EB8504B4420BD3C3F80080022F9F80EA
:107FC0000CF1140C3CD00227E6E70520BDE8F08355
:107FD00025680135F0D06588033504EB8505AE4290
:107FE000EAD3B4F80490F14515D0B4F80090B9F193
:107FF000000F10D01C60A5888542D1D125888D4204
:10800000CED1A16811601968104B51601B89138192
:108010000020BDE8F083AE42CED92C6801342C4656
:10802000CAD0B5F8029009F1030905EB8905AE4203
:10803000D7D2C1E705F10804BCE70220BDE8F08310
:108040000A20C3E7C82A0020EC2A0020D02A0020FA
:10805000334B1B78002B5CD051B34AB32DE9F04170
:108060009588012D5AD82F4F05EB850307EB830721
:1080700001353B78ADB24FF6FF7C4FF0000E43B1B7
:10808000022D958007F1140748D03B780225002B7C
:10809000F6D113687C6804F58056002B3BD05C88D1
:1080A000033403EB8403B34204D3C2F800E0E7E7F0
:1080B000052070471C680134F7D05C88033403EB5B
:1080C0008404A642F1D3B3F80480E04512D0B3F89B
:1080D0000080B8F1000F0DD013601C888442D9D104
:1080E0009B680B601268104B4A601B890B81002053
:1080F000BDE8F081A642D8D9236801332346D4D005
:10810000B4F8028008F1030804EB8804A642DAD22E
:10811000CBE70220704704F10803C4E70A20E7E731
:10812000C82A0020EC2A0020D02A0020334B1B78DC
:10813000002B5CD051B34AB32DE9F0419588012D55
:108140005AD82F4F05EB850307EB830701353B78A2
:10815000ADB24FF6FF7C4FF0000E43B1022D95807B
:1081600007F1140748D03B780225002BF6D113689D
:108170007C6804F58056002B3BD05C88033403EB0D
:108180008403B34204D3C2F800E0E7E70520704758
:108190001C680134F7D05C88033403EB8404A642E6
:1081A000F1D3B3F80480E04512D0B3F80080B8F101
:1081B000000F0DD013609C888442D9D19B680B605E
:1081C0001268104B4A601B890B810020BDE8F081CA
:1081D000A642D8D9236801332346D4D0B4F802800C
:1081E00008F1030804EB8804A642DAD2CBE70220A8
:1081F000704704F10803C4E70A20E7E7C82A002013
:10820000EC2A0020D02A002020B119B103680B60AD
:10821000002070470520704730B482B050E8013F1D
:108220009DB2C48925448489A54228BF2D1B048999
:10823000A54202BFBFF32F8F002207E0C5EA030566
:1082400040E80154002CE9D14FF001028DF80320E1
:108250000193019B9DF803200B602AB10B880068F5
:10826000184402B030BC704702F0FF031846F8E72C
:108270000A884B889A4201D00020704750E8012FAD
:10828000C2EA024240E80123002BF7D101207047E7
:1082900030B482B050E8023F1FFAA3F5C488A5426B
:1082A00002BFBFF32F8F00220DE0C48925448489CB
:1082B000A54228BF2D1BC3EA054540E80254002C07
:1082C000E8D14FF001028DF803200193019B9DF846
:1082D00003200B602AB14B880068184402B030BC00
:1082E000704702F0FF031846F8E700BF0A884B8882
:1082F0009A4201D00020704750E8022FC2EA224281
:1083000040E80223002BF7D10120704701F01F0243
:108310004B09012100EB8300914000F07FB800BFC2
:1083200010B5012301F01F04490900EB810003FA95
:1083300004F100F067F8E04000F0010010BD00BF5C
:1083400001F01F0201234909934000EB8100D9434A
:1083500000F070B84B0901F01F0150F82300C8402D
:1083600000F00100704700BF2DE9F84F01F1FF391F
:108370004FEA591300F104090F46064609EB830939
:10838000044600254FF0010823686FEA030B9BFAAF
:10839000ABFBBBFA8BFBBBF1200F20D0AB445F459E
:1083A0000CD81CE02368DB4393FAA3F3B3FA83F3FE
:1083B000202B05EB030B12D05F4510D90BF01F0AE1
:1083C0004FEA5B1008FA0AF106EB800000F01AF899
:1083D00020FA0AF0C307E5D45846BDE8F88F043404
:1083E0004C4505F12005CFD1BB465846BDE8F88F76
:1083F00050E8002F0B4640E8003C9CF0000FF7D1FE
:108400001046704750E8002F42EA010340E8003C64
:108410009CF0000FF6D11046704700BF50E8003FB7
:1084200043EA010240E8002C9CF0000FF6D1104610
:10843000704700BF50E8003F03EA010240E8002C0B
:108440009CF0000FF6D11046704700BF50E8002F97
:1084500002EB010340E8003C9CF0000FF6D110460F
:10846000704700BF50E8003F03EB010240E8002CDA
:108470009CF0000FF6D11046704700BF50E8003F57
:10848000A3EB010240E8002C9CF0000FF6D110464F
:10849000704700BF012350E8002F42EA030C40E878
:1084A00000C191F0000FF6D160467047002350E8FC
:1084B00000CF0CEA030240E8002191F0000FF6D152
:1084C00060467047F0B583B002AB002503F8015D4C
:1084D00004461846FEF72AFED4E900311A688A429B
:1084E00010D9511E19602168A3680F6812F8015C49
:1084F0000A79268AE068DB1BDBB29A4206FB050597
:1085000038BF0B719DF80700FEF736FE284603B012
:10851000F0BD00BF30B583B002AB002203F8012DDF
:10852000054618460C46FEF701FE2A681368591CDA
:108530001160E9682A8A641AB4FBF2F41C709DF891
:108540000700FEF719FE03B030BD00BF826842B1DC
:1085500010B5044643690168006998470023A36089
:1085600010BD70470EB400B582B0039929B102AABC
:1085700004AB42F8043D00F0A9F802B05DF804EB4A
:1085800003B070472DE9F04F924683B051450F4636
:1085900005461E46DDE90CB2C0F092800B464FF056
:1085A0000108B3FBFAF39A4508F10108F9D9B0457F
:1085B00038BFB04612F00109A96802D1BBF1000F23
:1085C00054D1012402E0013E0AFB04F4012EFAD842
:1085D000B7FBF4F08245F7D93B4E02E0A968B7FB40
:1085E000F4F0335C2A680A2B04FB107702EB010ECF
:1085F00001F1010029D0A8608EF80030D5E90131E1
:10860000994202D32846FFF7A1FFB4FBFAF4002CED
:10861000E4D1B9F1000F15D0BBF1000F12D0C34562
:1086200010D92024AB682A68591CA960D454D5E914
:1086300001329A420BF1FF3B14D2BBF1000F01D083
:10864000C345EFD103B0BDE8F08FA8604FF00D0037
:108650005054D5E9011088421DD2296801EB000E63
:108660000130C8E72846FFF771FFE6E7930722D4F9
:108670002024C345A5D92B684A1CAA605C54D5E9BF
:10868000013199420BF1FF3B10D2BBF1000F98D0A2
:10869000C345F0D195E728460193FFF757FFAA6835
:1086A0002968019B501C01EB020EA4E72846FFF746
:1086B0004DFFA968E9E7002E0CBF30242024D8E73D
:1086C0004FF0010873E700BF6C200300002900F0A1
:1086D000B9822DE9F04F054687B091460C460E78D9
:1086E000DFF8C8A64FF00D0B13E0AB6828680A2E20
:1086F00003F1010200EB030100F04B82AA600E704F
:10870000D5E901329A4280F01B812678002E00F0D4
:108710001E810134002E00F01A81252EE5D123465A
:10872000002713F8012B2D2A00F0E380302A00F0F7
:10873000E4802B2A00F0D4802A2A00F00D81A2F1D7
:108740003006F1B2092903D97DE2A1F130060346D2
:10875000184606EB860110F8012BA2F13004092C13
:1087600002EB4101F1D92E2A00F002814FF00008FE
:10877000013301E013F8012B02F0FB0168291C46CC
:10878000F8D0253A532AC0D801A353F822F000BFED
:108790007B8B02000B8702000B8702000B87020015
:1087A0000B8702000B8702000B8702000B87020079
:1087B0000B8702000B8702000B8702000B87020069
:1087C0000B8702000B8702000B8702000B87020059
:1087D0000B8702000B8702000B8702000B87020049
:1087E0000B8702000B8702000B8702000B87020039
:1087F0000B8702000B8702000B8702000B87020029
:108800000B8702000B8702000B8702000B87020018
:108810000B8702000B8702000B8702000B87020008
:108820000B8702000B8702000B8702000B870200F8
:108830000B8702000B8702000B8702000B870200E8
:108840000B8702000B8702000B8702000B870200D8
:108850000B8702000B8702000B8702005F8B020070
:108860000B8702000B8702000B8702000B870200B8
:108870000B8702000B8702000B8702000B870200A8
:108880000B8702000B87020003890200E58A0200C1
:108890000B8702000B8702000B8702000B87020088
:1088A000E58A02000B8702000B8702000B8702009B
:1088B0000B8702000B8702000B8702004D8A020023
:1088C0000B8702000B870200C58902000B8702009C
:1088D000A98902000B8702000B8702005F8B020050
:1088E00047F004071C46234613F8012B2D2A7FF47A
:1088F0001DAF47F001071C46F5E747F002071C468D
:10890000F1E7D9F800301A1DC9F800201E78AB68CD
:108910000A2E0CD12A68591CA96002F803B0D5E9C7
:108920000123934203D32846FFF710FEAB682A6861
:10893000591CA960D654D5E901329A42FFF4E5AE3C
:108940002846FFF703FE2678002E7FF4E2AE2B7B4D
:1089500023BB07B0BDE8F08FD9F80020111DC9F87E
:108960000010166862782E2A04F102007FF4FEAE31
:108970005A78A2F13003092B00F2BD814FF00008B4
:1089800008EB880802EB480810F8012FA2F1300329
:10899000092BA8F13008F3D90346E9E6284607B0C9
:1089A000BDE8F04FFFF7D2BDD9F800301A1DC9F865
:1089B000002019680197434600960A222846FFF7CF
:1089C000E1FDA2E6D9F800301A1DC9F80020D3F85D
:1089D0000080FB0700F1E880B8F1000F00F0A181F2
:1089E000404608F077FA0746BE4215D9A6B12021C5
:1089F00000E08EB1AA682B68501CA8609954D5E994
:108A000001329A4206F1FF3604D328460391FFF75C
:108A10009DFD0399BE42ECD108F1FF3818F8016FB3
:108A2000002E3FF472AEAB6828680A2E03F10102F3
:108A300000EB030100F09081AA600E70D5E90132CD
:108A40009A42EBD32846FFF781FDE7E7D9F80020EB
:108A5000131DC9F80030AB6829681768581C30220C
:108A6000A860CA54D5E90123934280F0E6802A68C1
:108A7000581C7821A860D154D5E90123934280F095
:108A8000D7800F2F03D93A4612090F2AFCD84FF08E
:108A900080560DE0AA6081F80080D5E901329A4243
:108AA00002D32846FFF752FD36093FF42EAEAB68DD
:108AB000B7FBF6F21AF802802868B8F10A0F06FB35
:108AC000127700EB030103F10102E3D1AA6000F881
:108AD00003B0D5E901329A4280F049812B68991898
:108AE0000132D7E7D9F800301A1DC9F800201968FB
:108AF00081EAE173A3EBE173092B40F30E81AA48ED
:108B00000122A0FB03C3DB08092B02F10102F8DC00
:108B10004245134638BF4346039307F00203002E35
:108B200040F09580002B00F0B780B8F1000F00F006
:108B3000F680F80740F1B0800029C0F2FF807A0784
:108B400000F1C88007F00303022B00F0A780CDE9F5
:108B5000006743460A222846FFF714FDD5E5D9F8F9
:108B600000301A1DC9F80020196801974346009685
:108B700010222846FFF706FDC7E5AB682A68581C97
:108B80002521A860D154D5E901329A42FFF4BDAD48
:108B9000D6E6AA6000F803B0D5E901329A423FD286
:108BA000296811440132A9E54146A1EB080311F8F7
:108BB000017BD7B1AB68D5F800C00A2F03F10102E1
:108BC0000CEB030000F0AF80AA600770D5E901321A
:108BD0009A42EAD328460391FFF7B8FC0399A1EB28
:108BE000080311F8017B002FE4D19E427FF68DAD82
:108BF000202702E0002E3FF488ADA9682A68481CAF
:108C0000A8605754D5E90121914206F1FF3604D3FB
:108C100028460393FFF79AFC039BB342EAD174E51D
:108C20002846FFF793FCAB6829685A1C194465E590
:108C30002846FFF78BFCAB6823E72846FFF786FC46
:108C4000AB6814E770471846002623468BE50029D9
:108C500020DB7A071ED41BB1B8F1000F3FF46CAFD4
:108C6000F8073FF569AFBEB1039BB342BFF464AFF1
:108C70002023AA68501CA86028688354D5E9010203
:108C8000824206F1FF3640D236B1039AB242F0D1A9
:108C9000164651E7013EDEE700264DE7B8F1000F2A
:108CA0007FF455AF002E6AD0039BB342BFF44FAFA1
:108CB0003023AA68501CA86028688354D5E90102B3
:108CC000824206F1FF3618D2002E58D0039AB242E3
:108CD000EFD13CE7AA68531CAB602B682B2098545B
:108CE000D5E901329A42FFF42DAF28460491FFF7EF
:108CF0002DFC049926E7034638E52846CDE9041300
:108D0000FFF724FCDDE90413DEE72846CDE9041370
:108D1000FFF71CFCDDE90413B6E70122F8E646463E
:108D20000AE7474660E6AA600CF803B0D5E90132CD
:108D30009A4226D22B689818013245E7AA68531C3C
:108D4000AB602B682D209854D5E901329A42C1F1CD
:108D50000001FFF4F7AEC8E7AA6000F803B0D5E958
:108D600001329A4217D229681144013264E628463A
:108D7000FFF7ECFBA9682B684A1C19448AE6002619
:108D8000E5E628460391FFF7E1FBA8682B68039905
:108D9000421C184418E72846FFF7D8FBAB6829683F
:108DA0005A1C194448E600BFCDCCCCCC6C20030043
:108DB0002DE9F04182B0002854D0002A64D0D0F8C8
:108DC00000C0BCF1000F69D01C46002B33D04768AF
:108DD000D7F80480B3FBF8F708FB1737002F3CD116
:108DE0008F0723D112F0030F53D1C768B94211D2B4
:108DF0003248334C334B344A3449001BC0081024EA
:108E0000000440F001000094FDF7DEFE204602B0B1
:108E1000BDE8F0814E1E05693444AC42E8D8DCF868
:108E20000C40A44602B0BDE8F04160472348244C02
:108E3000244B274AE0E72148214C224B254A23496D
:108E4000001BC0080924000440F001000094FDF755
:108E5000BBFE204602B0BDE8F0811848184C194B03
:108E60001D4AECE71548164C164B1C4A1749001BC7
:108E7000C0080E24000440F001000094FDF7A4FE99
:108E8000204602B0BDE8F0810C480D4C0D4B144A51
:108E9000ECE70A480A4C0B4B124AADE7084C07486E
:108EA000084B114A0949001BC0080824000440F07F
:108EB00001000094FDF788FE2046A8E72437030050
:108EC000D43603007C200300202203002421030069
:108ED000E421030060210300B82103001C210300EA
:108EE000B0210300FC210300A4210300F0B583B0EE
:108EF000002843D0D0F800C0BCF1000F4ED03AB3E8
:108F00004768D7F800E00EF1FF370F4231D1C7684C
:108F1000B94210D229482A4C2A4B2B4A2B49001B14
:108F2000C0081024000440F001000094FDF74CFE3E
:108F3000204603B0F0BD4D1E04690EFB0255A5424C
:108F4000E8D8DCF81040A44603B0BDE8F040604724
:108F50001B4C1A481B4B1E4A1C49001BC008092405
:108F6000000440F001000094FDF72EFE204603B0FF
:108F7000F0BD1248124C134B164ACFE7104C0F4865
:108F8000104B154A1149001BC0080E24000440F084
:108F900001000094FDF718FE2046CAE7084C074878
:108FA000084B0E4A0949001BC0080824000440F081
:108FB00001000094FDF708FE2046BAE724370300BD
:108FC000D436030090200300CC20030024210300AA
:108FD00060210300A42003001C210300A42103003E
:108FE00029DF704728DF7047034B187A0122B0FA57
:108FF00080F05A74400970474C2B002030B55E4C0D
:10900000237A87B0002B3AD05C4B1B680222227275
:109010001A79002A3ED0012A0CD1D3E90302104468
:10902000FFF7E0FF002849D0112803D10123237264
:1090300007B030BD19688A68C2B100226846009244
:10904000C0E902220325026101959A6805921A7906
:10905000002A4BD0012A07D102228DF80020DA68BD
:10906000120302925B6904938B689847002344497A
:10907000444823726360FFF739F907B030BD4049B7
:109080004048FFF705F93D4A034610600028BDD16E
:109090006060F2E7D3E90525521BB2F5805F28BF77
:1090A0004FF48052D3E903109208012A38BF0122FD
:1090B00029442844FFF794FF0028B5D1227C002AD8
:1090C000DBD1227A002AD8D0022A0AD1E0601A79AC
:1090D000DAB1012A05D1D3E9042101328A421A61A9
:1090E0001FD0637C73B105F0B9FCC6E701228DF88F
:1090F00000201A690292DA6803925B6904938B6814
:109100009847B3E7FFF77AFFB7E7D3E90512881A64
:10911000B0F5805F94BF121802F5805291429A61B7
:10912000DFD10022227219688868A8B168460092CF
:10913000C0E90122C0E903229A6805921A7982B136
:10914000012A07D102228DF80020DA681203029268
:109150005B6904938B68984709490A48FFF7C6F88A
:10916000BFE701228DF800201A690292DA680392A3
:109170005B690493EEE700BF4C2B0020642B0020BA
:10918000602B00203C2B002000F0FD03012B00D0C1
:10919000704730B5604CA0F10100B0FA80F0237A3E
:1091A0004009002287B020746274002B3AD05B4BD8
:1091B0001B68022222721A79002A3ED0012A0CD1A1
:1091C000D3E903021044FFF70DFF002849D011280E
:1091D00003D10123237207B030BD19688A68C2B178
:1091E000002268460092C0E902220325026101952F
:1091F0009A6805921A79002A4BD0012A07D10222D7
:109200008DF80020DA68120302925B6904938B6880
:10921000984700234249434823726360FFF766F88A
:1092200007B030BD3E493F48FFF732F83B4A03469E
:1092300010600028BDD16060F2E7D3E90525521B1C
:10924000B2F5805F28BF4FF48052D3E90310920833
:10925000012A38BF012229442844FFF7C1FE002813
:10926000B5D1227C002ADBD1227A002AD8D0022A6A
:109270000AD1E0601A79CAB1012A05D1D3E90421E3
:1092800001328A421A611DD0637C63B105F0E6FBAE
:10929000C6E701228DF800201A690292DA6803926B
:1092A0005B690493B3E7FFF7A9FEB9E7D3E90512B9
:1092B000881AB0F5805F94BF121802F5805291426F
:1092C0009A61E1D10022227219688868A8B16846C3
:1092D0000092C0E90122C0E903229A6805921A7936
:1092E00082B1012A07D102228DF80020DA68120328
:1092F00002925B6904938B68984709490948FEF715
:10930000F5FFC1E701228DF800201A690292DA68A0
:1093100003925B690493EEE74C2B0020642B002042
:10932000602B00203C2B0020831E012B00D97047AE
:1093300030B58E4C237A87B0002B31D0022B2BD145
:1093400003286BD1E3680133082B79D9884B0022BD
:109350001B68E26022720D2519688A68C2B100227A
:1093600068460092C0E90222026101959A6805925E
:109370001A79002A00F0B980012A07D102228DF85B
:109380000020DA68120302925B6904938B689847A5
:1093900078497948FEF7AAFF637C1BB105F05EFBB4
:1093A00007B030BD237A002B5BD0714B1B680222C3
:1093B00022721A79002A5FD0012A0BD1D3E9030265
:1093C0001044FFF70FFE002869D0112802D10123B5
:1093D0002372E5E719688A68C2B1002268460092E4
:1093E000C0E902220325026101959A6805921A7963
:1093F000002A70D0012A07D102228DF80020DA68F5
:10940000120302925B6904938B68984700235949C1
:10941000594823726360FEF769FFC1E7544B00228D
:109420001B68E2601A796AB1012AB5D1D3E9042137
:1094300001328A421A6111D0637C002BAED1B4E7AD
:10944000E360F9E7D3E90512881AB0F5805F94BFAD
:10945000121802F5805291429A61EDD100252572D1
:109460007AE744494448FEF713FF414A0346106037
:1094700000289CD1606093E7D3E90525521BB2F523
:10948000805FD3E9031028BF4FF480529208012A6D
:1094900038BF012229442844FFF7A2FD93E7227C2C
:1094A000002A7FF47DAF227A002A3FF479AF022AA6
:1094B0000AD1E0601A7912B3012A05D1D3E9042157
:1094C00001328A421A6126D0637C002B7FF466AF9A
:1094D000FFF794FD64E701228DF800201A690292DB
:1094E000DA6803925B6904938EE701228DF800200D
:1094F0001A690292DA6803925B69049346E7D3E93A
:109500000512881AB0F5805F94BF121802F58052D8
:1095100091429A61D8D10022227219688868A8B154
:1095200068460092C0E90122C0E903229A680592C8
:109530001A7982B1012A07D102228DF80020DA6857
:10954000120302925B6904938B68984709490A48A1
:10955000FEF7CCFEB8E701228DF800201A690292CE
:10956000DA6803925B690493EEE700BF4C2B00209E
:10957000642B0020602B00203C2B00202DE9F041C3
:10958000058ACE1C043D2E440746B6FBF5F6FEF7D1
:1095900099FF78B3F6B24FF48073013E0446C5805C
:1095A0000760838027D08046002509E06379AE42BA
:1095B00003F101036371C8F80000076080461AD008
:1095C0003846FEF77FFF01350028EFD16679721E1D
:1095D00014D02346013082421B68FBD11F684EB174
:1095E000002523682146013538461C46FEF792FFC8
:1095F000AE42F6D100242046BDE8F0812768EFE7AF
:1096000004300121FEF72EBFF8B5012104460430D5
:10961000FEF734FFC0B200B1F8BD6679721E12D0F9
:109620002346013082421B68FBD11F68002EF3D015
:10963000002523682146013538461C46FEF76AFF9F
:10964000AE42F6D1F8BD2768F2E700BF2DE9F84336
:10965000C788467907FB06F6043E02EB030C044676
:10966000664503F1040015468846B0FBF7F238BFA3
:10967000F51A07FB120012B1013A2468FCD13E1A18
:10968000AE4228BF2E469DB14FF000090430AD1BFD
:109690002044324608EB090107F009FCAF42B1440F
:1096A00024683E464FF0000028BF2E46002DEDD125
:1096B000BDE8F8832DE9F843C7884679154607FBCE
:1096C00006F6043E05EB030C1A1D66450446884663
:1096D000B2FBF7F038BFF51A07FB102110B10138C3
:1096E0002468FCD17E1AAE4228BF2E469DB14FF0B1
:1096F000000904312144AD1B324608EB090007F094
:10970000D6FBAF42B14424683E464FF0000128BF6B
:109710002E46002DEDD1BDE8F88300BF01600B6837
:1097200043604A68934204BF00234360704700BF10
:10973000436843B1026891680B44436052689342A6
:1097400004BF00234360704730B4184DA5F59472F0
:10975000AB1ADB1003EBD3735B1002EBC30152F8BF
:109760003330984228BF0C4605D311E052F833300D
:1097700098420CD221468B1ADB1003EBD3735B109B
:109780008A4202EBC304F1D3094830BC70470D464E
:10979000984204D904F10802AA42D9D3F4E76068D8
:1097A000034B002808BF1846EFE700BFA0230300C3
:1097B0006422030010B44FF080414FF0805200202B
:1097C000C1F80C015E4BC1F81001C1F83805D2F8A0
:1097D0000414C3F82015D2F80814C3F82415D2F8DD
:1097E0000C14C3F82815D2F81014C3F82C15D2F8AD
:1097F0001414C3F83015D2F81814C3F83415D2F87D
:109800001C14C3F84015D2F82014C3F84415D2F83C
:109810002414C3F84815D2F82814C3F84C15D2F80C
:109820002C14C3F85015D2F83014C3F85415D2F8DC
:109830003414C3F86015D2F83814C3F86415D2F89C
:109840003C04C3F86805D2F840043E49C3F86C05EF
:109850000968D2F84424C3F87025082924D04FF0B1
:109860008043D3F80024D20744BF6FF00102C3F84D
:109870000024354AD2F8883043F47003C2F88830A7
:10988000BFF34F8FBFF36F8F4FF01023D3F8002239
:10989000002A23DBD3F80432002B1FDB2B4B2C4A8E
:1098A0001A605DF8044B70472A4B1B68002BD6D119
:1098B00029482A4A2A4C04602A492B4BFB20C2F82B
:1098C00018050A681B68294822F00F0203F00F03ED
:1098D00013434FF400720B600260C0E7244B012277
:1098E000C3F80425D3F80024002AFBD04FF010233E
:1098F00012221F49C3F80022D1F80034002BFBD0FC
:109900004FF0102212211A4BC2F80412D3F800248F
:10991000002AFBD000221649C3F80425D1F80034F0
:10992000002BFBD0BFF34F8F0749124BCA6802F4DC
:10993000E0621343CB60BFF34F8F00BFFDE700BF72
:1099400000C000403001001000ED00E004230020C2
:109950000090D003340100108C56004000F000400D
:1099600048810300E40E0040580200104096024077
:1099700000E001400400FA0530B585B00478456880
:109980008DF80040D0E90240064A074B039053F897
:10999000213001958DF8084052F82110684698470B
:1099A00005B030BD682B0020702B002030B585B08D
:1099B000047845688DF80040D0E90240064A074B1C
:1099C000039053F8213001958DF8084052F821108A
:1099D0006846984705B030BD682B0020702B0020EA
:1099E0002DE9F043DFF8748006784B7F08F80630E5
:1099F0000D46074696460FCD89B06C460FC495E8D4
:109A00000F003D78DFF85890DFF858C018F805507F
:109A100049F826E084E80F004CF82600049665B16A
:109A2000BEF1000F0B4A694607F1040008BF00228F
:109A300000F0BEFE09B0BDE8F083BEF1000F064A9B
:109A4000694607F10C0008BF002200F04DFC09B088
:109A5000BDE8F08379990200AD99020054B000206E
:109A6000702B0020682B0020054A13792BB90121A7
:109A7000106053711846117170478520704700BF00
:109A8000782B0020074B1A68D20704D4C02101228A
:109A900083F800131A604FF080430122C3F81825A1
:109AA000704700BF00E100E010B4094B094A0021F3
:109AB000196083B01B680193019C4FF08041022024
:109AC0000123C1F80403136003B05DF8044B704731
:109AD0000401004008000040044B01221A604FF0CE
:109AE0008042D2F81834DB03FBD470470C000040EE
:109AF00010B5154B1A6882B07AB10021134A19606B
:109B00001B68507900934FF080410123009CC1F8FD
:109B1000083310B91168537188470D4B1A6882B128
:109B200000221A601B6801934FF080420221074B0C
:109B30000198C2F808131B68012002B0BDE810406C
:109B4000184702B010BD00BF00010040782B002074
:109B5000040100402DE9F047002388B0CDE902332D
:109B6000CE4A1668012E00F03B821E46CC4B1A6886
:109B7000012A00F02782CB4B1A68012A00F01482D8
:109B8000C94B1A68012A00F00182C84B1A68012AE1
:109B900000F0EE81C64B1A68012A00F0DB81C54B4C
:109BA0001A68012A00F0C881C34B1A68012A00F024
:109BB000B581C24B1A68012A0FD100221A601B68B6
:109BC00001934FF0A042019BD2F81025BC4B0292AA
:109BD000D3F81035039346F0004616F0FF0F1AD065
:109BE000B84F00240125A30003F180432E4203F562
:109BF000C0434FEA45050BD0D3F8100557F8242091
:109C0000D3F81015C0F30520C1F3014102B190470C
:109C10000134082CE7D1002E02DB08B0BDE8F08744
:109C2000A84CA74F4FF0FF33CDE9063394F96030CD
:109C30000DF1100800225D1CC8F8042004924FF0BA
:109C4000010600F0F4805FFA83FC2CF0C00008AB42
:109C50004FEAD00903EB090E0CF007031EF8082C9D
:109C600006FA03F312EA030521D022184FEA9C11E9
:109C700092F9302054F82220002A00F0298103298B
:109C800000F028811F2800F2F98005464FF0A04C13
:109C90000CEB850C1EF8185CDCF800E71D40CEF3D9
:109CA000014E40F0DF80BEF1030F00F0BF8194F958
:109CB0006130581C32D0DBB223F0C00008AA4FEA52
:109CC000D00E02EB0E0C03F007011CF8082C06FA6C
:109CD00001F912EA090F21D02218990992F93020CE
:109CE00054F82220002A00F0FB80032900F0FB80BA
:109CF0001F2800F2E98003464FF0A04E0EEB8303CD
:109D00001CF818ECD3F800C71EEA090FCCF3014C7D
:109D100040F0B880BCF1030F00F0AE8194F96230DE
:109D2000591C30D0DBB223F0C00008AA4FEAD00E95
:109D300002EB0E0C03F007011CF8082C06FA01F9DF
:109D400012EA090F1FD02218990992F9302054F80D
:109D50002220002A00F0D880032900F0D8801F2894
:109D60007CD803464FF0A04E0EEB83031CF818EC92
:109D7000D3F800C71EEA090FCCF3014C64D1BCF143
:109D8000030F00F0658194F963305A1C34D0DBB2C4
:109D900023F0C00008AA4FEAD00E02EB0E0C03F02D
:109DA00007021CF8081C06FA02F2114224D004EB48
:109DB0000009990999F9309054F82990B9F1000FE8
:109DC00000F09880032900F098801F288BBFBE46C2
:109DD0004FF0A04E03F01F0303460EEB83031CF865
:109DE00018ECD3F800C71EEA020FCCF3014C20D1C7
:109DF000BCF1030F00F00181002D3FF40EAF4FF0D6
:109E0000A0430299D3F81035D7F81025994203D111
:109E1000039991423FF401AFDDE90401CDE902323B
:109E200094F960305D1CCDE906017FF40CAF00258C
:109E30003DE7BCF1020FDFD1032900F03481B9F115
:109E4000000F40F0F180D7E7BCF1020F9BD103294E
:109E500000F02681002A96D0904794E703F01F0374
:109E6000BE4681E7BEF1020FE1D1032900F0218156
:109E70000025002A3FF41BAF904718E70CF01F05A0
:109E8000BC4605E7BCF1020F7FF448AF032900F0A0
:109E90000D81002A3FF442AF90473FE70061004048
:109EA00004610040086100400C6100401061004006
:109EB00014610040186100401C6100407C6100405A
:109EC00000030050802B002003F01F03BE4615E75F
:109ED0000329ACD118F809501D4308F80950D1E600
:109EE00003297FF41BAF18F80EA04AEA090A08F804
:109EF0000EA0FDE603297FF47FAF18F80EA04AEA12
:109F0000020A08F80EA060E703297FF43CAF18F8B6
:109F10000EA04AEA090A08F80EA020E7664AD2F81D
:109F2000042317067FF545AE00221A601B680093D4
:109F3000009B46F080063CE65F4AD2F804235206B6
:109F40007FF532AE00221A601B680093009B46F03A
:109F5000400629E6584AD2F8042391067FF51FAE41
:109F600000221A601B680093009B46F0200616E64C
:109F7000514AD2F80423D0067FF50CAE00221A60B5
:109F80001B680093009B46F0100603E64A4AD2F88D
:109F9000042314077FF5F9AD00221A601B680093B3
:109FA000009B46F00806F0E5434AD2F80423550723
:109FB0007FF5E6AD00221A601B680093009B46F017
:109FC0000406DDE53C4AD2F8042397077FF5D3ADBC
:109FD00000221A601B680093009B46F00206CAE547
:109FE0003549D1F8041311F0010104D0136013684E
:109FF0000093009BBAE50E46B8E503297FF41FAF36
:10A000004FF4003CD3F8002722F44032C3F8002775
:10A01000D3F80027013542EA0C02EDB2C3F800275D
:10A02000B9F1000F3FF4EBAEC847E5E603297FF432
:10A0300020AF4FF40035DCF8003723F44033CCF880
:10A040000037DCF800372B43CCF80037012510E748
:10A0500003297FF4FFAE4FF4003ED3F800C72CF481
:10A06000403CC3F800C7D3F800C701354EEA0C0CDA
:10A07000EDB2C3F800C7EDE603297FF40AAF4FF451
:10A08000003ED3F800C72CF4403CC3F800C7D3F817
:10A0900000C701354EEA0C0CEDB2C3F800C7F8E674
:10A0A0004FF4403ED9E74FF4403CABE74FF4403E1D
:10A0B000E7E74FF44035BEE700600040014B1B6806
:10A0C000184700BFEC2B0020104B984201D0002015
:10A0D000704730B583B002A8002300F8013D0D465B
:10A0E000FDF724F80A4B1C7934B19DF80700FDF701
:10A0F00043F8112003B030BD01229DF807001D6018
:10A100001A71FDF739F82046F4E700BF002000403F
:10A11000EC2B0020034B984203D1034B00221A6022
:10A120001A71704700200040EC2B002030B56C4ABB
:10A13000D2F8043399058BB066D5D2F82431002BC0
:10A1400062D00023C2F82431D2F8243103934FF4B3
:10A150000171644B0398C2F8081393F8291009B9E8
:10A16000012151605E4902228DF81820D1F8802427
:10A17000C1F880249869D96809920022CDE90710B6
:10A18000C3E90622D3E9001406A8A047544AD2F82E
:10A190001C31BBB1534B186A5969884269D3504886
:10A1A0000022C0F81C21D0F81C010190019849B18F
:10A1B00098688DF8182008915A610790D3E9001229
:10A1C00006A89047464AD2F84431DBB10021454BFE
:10A1D000C2F84411D2F8440193F829100090009875
:10A1E00009B1012111609A6962B10022586AD968E7
:10A1F0009A610122CDE907108DF8182006A8D3E94D
:10A20000001290470BB030BD354AD2F804335B07DB
:10A21000BCD5D2F80831002BB8D0324B996900294F
:10A220003CD00021C2F80811D2F808110491049919
:10A23000D868596AD2F8182542545A6A9969013285
:10A240005A625A6A8A42A1D1DA691968002A2ED064
:10A25000D8685D6A1C699A61079000220120DC6061
:10A26000DA615A628DF8180008955B6806A898476D
:10A270008CE793F8280000F0FF0400288FD1C2F883
:10A280001C41D2F81C11029102999C68186A196A43
:10A29000205C01311962C2F81C0593E7C2F808116D
:10A2A000D2F8080105900598D2F81825C9E793F867
:10A2B000292012B90A4A01205060094A4FF401705E
:10A2C000C2F80803586ADA6808900024012007924F
:10A2D0008DF818005A689C6106A8904756E700BFA1
:10A2E00000200040F42B00202DE9F041714F067949
:10A2F0002C2505FB067582B095F82A30002B40F01E
:10A300009A800D4604466C4900689046FFF7DCFED3
:10A31000002840F08C802B68591C19D01F2B4FF05F
:10A3200001028ABF65494FF0A04103F01F0302FA02
:10A3300003F3C1F808352B681F2B86BF03F01F03FA
:10A340005E4A4FF0A04203F5E073032142F8231068
:10A350006B685A1C0BD01F2B86BF03F01F03574A94
:10A360004FF0A04203F5E073002142F82310236868
:10A37000AA69C3F82425297D6B7D22680B43C2F8A6
:10A380006C35D5E900122368C3F81425C3F80C1501
:10A390002B7D012B53D02C2303FB06F3FA18C2F8B4
:10A3A00004802A69FA50B8F1000F2DD022682B7F63
:10A3B000434D0021C2F81C11D2F81C2100922268E2
:10A3C000DDF800C0C2F84411D2F8441122680191AE
:10A3D0000199C2F804532168090B4AB25B01002AB3
:10A3E000DBB261DB02F1604202F5614282F80033C8
:10A3F0002368344D1B0B5AB2520903F01F0301218D
:10A4000001FA03F345F822302C23246803FB06737A
:10A41000002204250121C4F8005583F82A10C3E95D
:10A42000062283F829205A6102B0BDE8F08111208C
:10A4300002B0BDE8F081082002B0BDE8F081AB6851
:10A44000591C0BD01F2B86BF03F01F031B4A4FF074
:10A45000A04203F5E073002142F82310EB685A1C78
:10A460001BD01F2B4FF001028ABF14494FF0A041AF
:10A4700003F01F0302FA03F3C1F80835EB681F2B42
:10A4800088BF03F01F0303F5E0738CBF0B4A4FF046
:10A49000A042032142F82310EB682268A968C2F8A1
:10A4A0000835C2F8101576E7074A01F00F010A4493
:10A4B00013769DE7F42B00202DA10200000300502D
:10A4C0008000020000E100E0FCEC00E0F8B53A4F4B
:10A4D000047902682C2303FB047300215B68C2F833
:10A4E000001583B10368354AC3F808230368344D67
:10A4F0001B0B5AB25209203203F01F03012101FA4B
:10A5000003F345F8223003684FF0FF3CD3F80C65A5
:10A51000D3F81455D3F80825D3F81015C3F814C58B
:10A52000C3F80CC503686645C3F808C5C3F810C571
:10A530000CD01F2E86BF06F01F06224B4FF0A04303
:10A5400006F5E0764FF0020C43F826C06E1C0BD0E7
:10A550001F2D86BF05F01F051A4B4FF0A04305F5D0
:10A56000E075022643F825604D1C0BD01F2986BFDD
:10A5700001F01F01134B4FF0A04301F5E0710225DC
:10A5800043F82150531C0BD01F2A86BF02F01F0234
:10A590000C494FF0A04102F5E072022341F822304D
:10A5A0000068FFF7B7FD2C2303FB0474002384F835
:10A5B0002A306360F8BD00BFF42B00208402020043
:10A5C00000E100E000030050F0B5314E05792C2386
:10A5D00003FB056385B05C69002C53D11C62996054
:10A5E00083F828405A610268C2F81C41D2F81C1155
:10A5F000026802910121029F91600268D3F808C0AD
:10A60000C2F81C41D2F81C1101910199D3F820E045
:10A61000196A5F681CF80EE001311962C2F81CE586
:10A6200017B1204605B0F0BD1A6A5C690168944212
:10A6300003D819E093F828203ABBD1F81C21002A4E
:10A64000F8D0C1F81C71D1F81C210392039AD3F8F9
:10A6500020E01A6A1CF80EE001321A62C1F81CE50B
:10A660001A6AA242E9D30168D1F81C31002BFBD051
:10A670000123CB6000202C2303FB056500236B61C5
:10A6800005B0F0BD112005B0F0BD0F20F3E700BF0D
:10A69000F42B0020F0B5444BD3F8242189B0002AD4
:10A6A00052D00021C3F82411D3F8242102920222AF
:10A6B0008DF81020029AD3F880043C4AC3F8800435
:10A6C0000790D3F83C05D3680690C2E906110593BC
:10A6D0001168536804A89847334BD3F84421BAB1A2
:10A6E0000021324AC3F84411D3F8444190690194DF
:10A6F000019C68B1D3F83C35D06806930123C2E9C8
:10A70000061105908DF8103004A8D2E9001398477F
:10A71000254BD3F82021AAB10021C3F82011D3F88A
:10A720002001224A00900098506958B1D3F84C0596
:10A73000936806908DF810105161059304A8D2E932
:10A740000013984709B0F0BDD3F810110029C3D009
:10A75000C3F81021D3F810111448039103998169AB
:10A76000D3F83C458C42B7D1C569C768D0E900161B
:10A770008DB1D3F800C285612CF02005C261C3F809
:10A7800000520369C3600122CDE905748DF81020E1
:10A7900004A8B047A0E701238561CDE905748DF8D1
:10A7A000103004A8B04797E700200040202C00207C
:10A7B0002DE9F04307797A4E4FEAC70808EB070303
:10A7C00006EB830385B093F82030002B40F0A8807F
:10A7D0000D460446734900689146FFF775FC002852
:10A7E00040F09A802B68591C19D01F2B4FF00102A2
:10A7F0008ABF6D494FF0A04103F01F0302FA03F333
:10A80000C1F808352B681F2B86BF03F01F03664A6B
:10A810004FF0A04203F5E073032142F823106B6868
:10A820005A1C0BD01F2B86BF03F01F035E4A4FF04C
:10A83000A04203F5E073002142F823102368AA69BF
:10A84000C3F82425297D6A7D23680A43C3F86C2553
:10A85000D5E900312268C2F80C35C2F814152B7DF9
:10A86000012B61D008EB07029200B318C3F80490E3
:10A870002B69B350B9F1000F3DD021682B7F4B4DB0
:10A880000022C1F81021D1F8101100912168DDF8E3
:10A8900000C0C1F82021D1F8201101912168DDF814
:10A8A00004C0C1F82421D1F8241102912168DDF8F7
:10A8B00008C0C1F84421D1F84411226803910399DA
:10A8C000C2F804532168090B4AB25B01002ADBB2CB
:10A8D0005FDB02F1604202F5614282F800332368D7
:10A8E000334D1B0B5AB2520903F01F03012101FA29
:10A8F00003F345F822304744226806EB870600231D
:10A9000001240821C2F8001586F82040C6E9063364
:10A91000736105B0BDE8F083112005B0BDE8F08398
:10A92000082005B0BDE8F083AB68591C0BD01F2B85
:10A9300086BF03F01F031C4A4FF0A04203F5E073EB
:10A94000002142F82310EB685A1C1BD01F2B4FF03C
:10A9500001028ABF14494FF0A04103F01F0302FA1D
:10A9600003F3C1F80835EB681F2B88BF03F01F0302
:10A9700003F5E0738CBF0C4A4FF0A042032142F86C
:10A980002310EB682268A968C2F80835C2F81015D0
:10A9900068E7084A01F00F010A4413769FE700BFF9
:10A9A000202C002095A60200000300501003020096
:10A9B00000E100E0FCEC00E0F8B507793A4C0268F1
:10A9C000FE00F31904EB830300215B68C2F8001555
:10A9D00083B10368354AC3F808230368344D1B0B61
:10A9E0005AB25209203203F01F03012101FA03F386
:10A9F00045F8223003684FF0FF3ED3F80CC5D3F87A
:10AA00001455D3F80825D3F81015C3F80CE5C3F88E
:10AA100014E50368F445C3F808E5C3F810E50DD064
:10AA2000BCF11F0F86BF0CF01F0C224B4FF0A04350
:10AA30000CF5E07C4FF0020E43F82CE06B1C0CD0C0
:10AA40001F2D86BF05F01F051A4B4FF0A04305F5DB
:10AA5000E0754FF0020C43F825C04D1C0BD01F29A8
:10AA600086BF01F01F01134B4FF0A04301F5E071C9
:10AA7000022543F82150531C0BD01F2A86BF02F039
:10AA80001F020C494FF0A04102F5E072022341F889
:10AA900022303E4404EB86040068FFF73BFB0023B2
:10AAA00084F820306360F8BD202C002010030200E1
:10AAB00000E100E00003005001F06043B3F1005FEB
:10AAC0002CD1F0B40579244EEF007C1906EB8404F8
:10AAD00082B0636923BB6261A1600268C2F8203161
:10AAE000D2F820C10268CDF804C0DDF804C0C2F875
:10AAF0005831D2F8582100920268DDF800C0D4F82D
:10AB000014C0C2F84415C2F848C50268012191601A
:10AB100062684AB1184602B0F0BC70471020704716
:10AB2000112002B0F0BC7047036800E08AB9D3F886
:10AB30002011D3F858210029F8D0002A14BF0F2083
:10AB400000207B1906EB830300225A6102B0F0BC9F
:10AB500070470F20F5E700BF202C002070B9012AB4
:10AB600008D0012911D00BD3022907D1094B0020AD
:10AB70005A707047012907D00246F2E70720704754
:10AB8000044B00209A7070470E22024B00201A706E
:10AB9000704700BF442C002010B50388102B07D04D
:10ABA000112B04D1254B18680138186030B110BD45
:10ABB000224C216881B10131216010BD01220221A6
:10ABC000FFF7CCFF38B3072825D01D4B1B68002B9F
:10ABD000EDD0BDE81040184701220846FFF7BEFF40
:10ABE00038B1072805D0164B1B6803B19847216878
:10ABF000E1E7072202210120FFF7B0FF08B1072893
:10AC0000F1D1042202210020FFF7A8FF0028EED096
:10AC10000728E8D1EBE7072202210120FFF79EFF7A
:10AC200008B10728D1D1002108460A22FFF796FF74
:10AC30000028BCD00728C8D110BD00BF4C2C002074
:10AC4000482C00202DE9F84F4400DFF85CB12618AD
:10AC50000BEBC6068146F76A012F8A46904667D0FD
:10AC60003DD3022F30D100F1010909EB4909756A82
:10AC70004FEAC9090027B36A346AAB4203F1FF32D5
:10AC80009CBF1B1903F1FF33A4EB05048CBF531BBE
:10AC90005B1B0BEB0902444528BF44469C425068AD
:10ACA00028BF1C4628445146224606F000F9336A64
:10ACB00025449D422744A8EB0408A24408D07562AD
:10ACC000B8F1000FD7D100E000273846BDE8F88F73
:10ACD00000231D467362B8F1000FCCD1F5E7B36ACB
:10ACE000756AAB429CBF326A9B18013B5B1B98455F
:10ACF000EBD8044400F101090BEBC40409EB49094A
:10AD00000BEBC90B266ADBF80400761BB045284420
:10AD100043D33246A8EB060506F0C9F80AEB060154
:10AD2000DBF804002A4606F0C2F847466562CCE725
:10AD3000D6E90825B76AAF4298BFBF18461C013F45
:10AD400006EB46067F1B0BEBC606474528BF47466A
:10AD50007068A2EB05084745284412D3A144424637
:10AD6000A7EB08050BEBC90B06F0A1F80AEB0801ED
:10AD700070682A4606F09BF8CBF824503846BDE8A8
:10AD8000F88FA1440BEBC90B3A463D4406F08FF80F
:10AD9000CBF824503846BDE8F88F4246454406F0CB
:10ADA00086F84746656290E758B00020F0B5028803
:10ADB000112A83B0034649D036D9122A08D0502A26
:10ADC00004D16C4DC188EA89914251D003B0F0BDE5
:10ADD000694C828821889142F8D1E1896589B1F571
:10ADE000FA7F24BF6FF4F9700E18588938BF002617
:10ADF00085424FD8A58985424CD39B89B34249D31C
:10AE000001F2F311994245D35A4B5B694FF48071BB
:10AE10002181002BDAD00121ADF806208DF8041035
:10AE200001A8984703B0F0BD102ACFD1C27B012AF8
:10AE3000CCD1514C21884FF6FF7291423CD04D4B02
:10AE40009B69002BC2D004209847BFE74A4C8288F8
:10AE500023889A42BAD1606805F0A6FD18B1454B27
:10AE60009B6903B198474FF6FF73238003B0F0BD91
:10AE7000028A022AAAD1404C86882788B742A5D1E7
:10AE8000123000F0B5F9002856D1606805F08CFD4D
:10AE900070B99BE7374D267A6068D5E90131002EFD
:10AEA00008BF19460023637205F01CFD00288DD0F1
:10AEB000AB69002BB5D189E7304D8288228003CD64
:10AEC000C4F80E10E689C4F80A00B6F5FA7F28BF68
:10AED0006FF4F9754FF00001588AB4F80AC0217276
:10AEE00028BF7119234D8445EF8919D8B4F80CC0D7
:10AEF000844515D39B8A8B4212D306F2F3169E42E9
:10AF00000ED301216172002F7FF460AF6B69002BBB
:10AF10003FF45CAF8DF80410ADF8062001A880E77F
:10AF200000236372002F7FF451AF6068696805F0F9
:10AF3000D9FC0028BCD149E7637A63B9D5E901316E
:10AF4000267A60683A46002E08BF194605F0CAFC0A
:10AF50000028ADD13AE76B6900222272002B3FF442
:10AF600035AF0122ADF806608DF8042001A898479E
:10AF70002CE700BF502C00206C2C0020802C0020DF
:10AF80002DE9F0470388B0F80490112B98B059D000
:10AF90001A2B804647D0102B02D018B0BDE8F0879E
:10AFA000394A936818A8DB4340F8603D5168FDF7C3
:10AFB00041FA009B0193019B63B300273C46214665
:10AFC00001A8FDF7C7F928B118AB03EB4703013718
:10AFD00023F8284C0134142CF1D10D970DAE0FCE6F
:10AFE00002AC0FC40FCE0FC496E8070084E8070038
:10AFF00087B10DF10A0A254E0AEB47073AF8025FBE
:10B00000234C204629460434FDF79AF9A642F8D18C
:10B01000BA45F3D1B9F1130F1BD90420FBF7D4FFC4
:10B0200018B0BDE8F087047A1A482409012C494673
:10B0300020D9FDF76BF9022C494617481ED0FDF7C1
:10B0400065F9AAE749461548FDF77AF918B0BDE851
:10B05000F08749461148FDF759F949460C48FDF774
:10B0600055F998F80F30012B97D049460C48FDF759
:10B070004DF992E7FDF764F907484946FDF760F995
:10B0800018B0BDE8F08700BF882C0020002D0020FC
:10B090008C2C0020982C00209C2C0020902C002030
:10B0A000942C0020132801D9002070470146014844
:10B0B000FDF750B98C2C0020132801D900207047CF
:10B0C00010B5014604460748FDF744F908B90020C9
:10B0D00010BD21460448FDF73DF9002814BF0220A9
:10B0E000012010BD8C2C0020942C0020132801D9A5
:10B0F0000020704710B5014604460648FDF72AF9BE
:10B1000008B9002010BD21460348BDE81040FDF7F6
:10B1100021B900BF8C2C0020982C002070B50C4C5D
:10B12000054620460E46FDF715F908B1132D01D945
:10B13000002070BD2946201DFDF70CF90028F7D02E
:10B14000B01D04EB80002946BDE87040FDF702B950
:10B15000882C0020F8B50F4C0546204617460E46B1
:10B16000FDF7F8F808B1132D00D9F8BD2946201DC8
:10B17000FDF7F0F80028F8D0B01D04EB8000294658
:10B180001FB9BDE8F840FDF7DBB8BDE8F840FDF7B2
:10B19000BDB800BF882C0020F0B5144C054683B024
:10B1A0000F46204629461646FDF7D4F818B9002563
:10B1B000284603B0F0BD043504EB8504A368019371
:10B1C000002FF4D0019B002BF1D000252C46214606
:10B1D00001A8FDF7BFF8314610B1A0B2B84701355C
:10B1E0000134142CF3D1284603B0F0BD882C002084
:10B1F000007800F001007047A0DF7047A1DF7047C2
:10B20000ADDF7047B3DF704730B583B0044604222A
:10B210000021684605F056FE0C4B02AA1B6842F856
:10B22000043D42F6A625012369462046ADF80050AC
:10B230008DF80230FFF7E0FF28B905491A4620468D
:10B240000978FFF787FF03B030BD00BFB0270300C8
:10B25000042D002070B5012186B005463A48FDF75F
:10B26000C7F8BFF35F8F08B106B070BD044628462B
:10B2700000F050FD112806465FD012D986283CD038
:10B2800043F20203984214D1304B224628461978E3
:10B29000FFF760FFBFF35F8F2B4B00221A6006B0F1
:10B2A00070BD30B9294B024619782846FFF752FF86
:10B2B000DAE73046FEF748FA254C264B2649E41AD1
:10B2C000E408240402462B4644F00100FBF7FAFB95
:10B2D000002407232846CDE900440296ADF8025029
:10B2E000CDE9034405948DF8003000F0BDFFADF8C2
:10B2F0000400684602F0B0F9C6E7164B1448174937
:10B300000094C01AC008000406232A4640F0020038
:10B310008DF80030ADF80250CDE90144CDE9034489
:10B320000594FBF74FFBBDF8020000F09DFFADF860
:10B330000400684602F090F9A6E7044B2846197805
:10B340000122FFF707FFA5E7002D0020082D0020B0
:10B350004C370300D4360300F4270300BC27030056
:10B3600070B54FF6FF728CB000249042CDE90044D6
:10B37000CDE90244CDE90444ADF8020001D10CB09E
:10B3800070BD054600F030FD0B28064644D00FD9AD
:10B3900011280BD043F20203984218D122462B4BBE
:10B3A00028461978FFF7D6FE0CB070BD0122F6E7EB
:10B3B00068B90E23BDF802008DF8003000F054FF8C
:10B3C000ADF80400684602F047F93246E7E7304638
:10B3D000FEF7BAF91E4C1F4B1F49E41AE408240477
:10B3E00002462B4644F00100FBF76CFB00240723C8
:10B3F0002846CDE9064408968DF81830ADF81A5065
:10B40000CDE909440B9400F02FFFADF81C0006A80D
:10B4100002F022F92246C2E70E4B0D480F49C01A2E
:10B42000C00800040F232A4640F002008DF80030C7
:10B43000FBF7C8FABDF8020000F016FFADF80400F3
:10B44000684602F009F92246A9E700BF072D00204F
:10B450004C370300D436030068290300E8280300B2
:10B460002DE9F04F5B4E89B031780446FFF756FE68
:10B4700010B109B0BDE8F08F0546204600F020FD70
:10B480000828074651D017D800287BD006281DD1A0
:10B49000204600F0E9FE00F041FD00274E4B3A4601
:10B4A00019782046FFF756FE2A4631782046FFF7E6
:10B4B00051FE09B0BDE8F08F43F2020398422DD04F
:10B4C00043F2014398422BD0112827D03846FEF78B
:10B4D0003BF9424B424A4349A3EB020C4FEADC0CD6
:10B4E0004FEA0C4C024623464CF00100FBF7EAFA07
:10B4F000002307222046CDE902330497CDE9053326
:10B5000007938DF80820ADF80A4000F0ADFEADF8C5
:10B510000C0002A802F0A0F80127BFE70127BDE751
:10B520002046FFF71DFF0127B8E701A8FFF76AFED5
:10B53000BDF80430012BABD92F4601230DF10609CC
:10B540004FF0020842F6021B42F6052A07E05A4570
:10B550002ED00133BDF804209BB29A4298D902AA9A
:10B5600019462046CDE90289FFF74AFE00288FD10F
:10B57000BDF80620002FEAD1A2EB0A07B7FA87F739
:10B580007F09E6E710232046CDE90255CDE90455B1
:10B59000CDE906558DF80830ADF80A4000F064FE9C
:10B5A0000125ADF80C0002A802F056F82F4675E709
:10B5B000013399B202AA0DF1020320460393FFF76B
:10B5C0001FFE00287FF464AFBDF80230002B3FF46B
:10B5D0005FAF63E70A2D0020092D00204C370300E0
:10B5E000D4360300BC29030070B54FF6FF728CB04F
:10B5F00000249042CDE90044CDE90244CDE9044461
:10B60000ADF8020001D10CB070BD054600F0ECFBB6
:10B610000B28064644D00FD911280BD043F2020361
:10B62000984218D122462B4B28461978FFF792FDF5
:10B630000CB070BD0122F6E768B90E23BDF8020018
:10B640008DF8003000F010FEADF80400684602F0FE
:10B6500003F83246E7E73046FEF776F81E4C1F4BFC
:10B660001F49E41AE408240402462B4644F0010072
:10B67000FBF728FA002407232846CDE9064408965C
:10B680008DF81830ADF81A50CDE909440B9400F04C
:10B69000EBFDADF81C0006A801F0DEFF2246C2E774
:10B6A0000E4B0D480F49C01AC00800040F232A464C
:10B6B00040F002008DF80030FBF784F9BDF802007D
:10B6C00000F0D2FDADF80400684601F0C5FF224647
:10B6D000A9E700BF072D00204C370300D436030034
:10B6E00068290300E82803002DE9F04104788CB0B4
:10B6F00014B10CB0BDE8F081468800944FF6FF739A
:10B700009E420546ADF80260CDE90144CDE903440F
:10B71000059426D106AF304600F0BCFB28B1494B5A
:10B72000304619780122FFF715FD6C88204600F09D
:10B730009BFD3A460023092100F01CFF052826D076
:10B74000414B424918780022FFF726FD02460028A7
:10B75000CFD13F4B3F491878FFF71EFD0CB0BDE835
:10B76000F081304600F040FB0B28804650D015D9C0
:10B7700011284AD043F2020398421FD1224606AF55
:10B78000354B30461978FFF7E5FC6E88C3E7304B40
:10B79000204619780122FFF7DDFCD1E770B90E23AE
:10B7A000BDF802008DF8003000F05EFDADF8040039
:10B7B000684601F051FF06AF4246E1E74046FDF71B
:10B7C000C3FF264C264B2749E41AE408240402460A
:10B7D00006AF44F001003346FBF774F90024072359
:10B7E00030460694CDF820808DF818307C60ADF896
:10B7F0001A60C7E903447C6100F036FDADF81C0017
:10B80000384601F029FF2246BAE7012206AFB7E722
:10B81000134B12481449C01AC00800040F233246C3
:10B8200040F002008DF80030FBF7CCF8BDF80200C4
:10B8300000F01AFDADF80400684601F00DFF06AFF8
:10B8400022469DE7092D0020082D002055B2020058
:10B85000052D002009B20200072D00204C370300FF
:10B86000D436030068290300E8280300F0B5037804
:10B87000082B83B00ED0304C207830490022FFF7DF
:10B880008BFC024620B92E4B2E491878FFF784FC1A
:10B8900003B0F0BD457A0446002DECD1067A072EA0
:10B8A00022D0082E3ED0012EE5D16A46314680884E
:10B8B00001F0B0F905460028DDD1019B1B78002B73
:10B8C000D9D0A08800F09EFD4FF6FF739842D2D0E9
:10B8D0001D4F194C39783246FFF73CFC2A46387820
:10B8E0001A49FFF759FCC7E78088134C00F08AFD1E
:10B8F0004FF6FF7398420646BED001222178FFF72B
:10B9000029FC304600F0B0FC2B466A46092100F0C5
:10B9100031FE0528B0D10A4B304619780122FFF7D5
:10B9200019FCA9E70A4B1A68012AA4D1BFF35F8F5B
:10B93000014C1D60A0E700BF082D002055B2020099
:10B94000052D002009B20200092D002061B402007B
:10B95000002D002070B503888588353B86B00446ED
:10B960001F2B28D8DFE813F05E00B900270027005E
:10B97000270027002700270027002700270027008F
:10B98000270027002700270027002700270027007F
:10B990002700270027002700270027002700200076
:10B9A0002700EA0027003500037B012B03D1827AB0
:10B9B000012A00F0D3808F4C8F4B904918780022D9
:10B9C000FFF7EAFB20788E490022FFF7E5FB06B07F
:10B9D00070BD002611232846CDE90066CDE9026638
:10B9E0008DF80030ADF80250CDE9046600F03CFC63
:10B9F000ADF8040000F092FA824B7E4C1978324682
:10BA00002846FFF7A7FB324628462178FFF7A2FB1E
:10BA1000BDF8020000F028FCADF80400684601F013
:10BA20001BFEC9E7784E28463178FFF777FB0028E0
:10BA3000C1D0002231782846FFF78CFBE288B2F5AE
:10BA4000857F1ED0002A40F0A4806289012A09D097
:10BA50006E486F4B6F49C01AC008000440F00200E6
:10BA6000FAF7B0FFA389012B00F0B480684A674859
:10BA70006949801AC00800041A4640F00200FAF72B
:10BA8000A1FF664B002401201978ADF800000923BE
:10BA900028462246CDF80240ADF806408DF8023027
:10BAA000FFF758FB5E4B2846019300F0DDFB0022B8
:10BAB000694600F0DBFD00283FF47DAFFDF744FE52
:10BAC000534A524B57494B4C9B1ADB081B04024606
:10BAD00043F00200FAF776FF6EE7534E28463178BE
