:020000022000DC
:1060000000000420B5620200DD620200DF620200CF
:10601000E1620200E3620200E562020000000000AB
:10602000000000000000000000000000ADB602000B
:10603000E962020000000000CDB60200ED6202003D
:1060400045A20200EF62020011A8020009D8020076
:10605000EF620200EF620200A9A20200EF620200FA
:10606000EF620200EF620200EF620200EF620200E4
:10607000EF620200EF620200EF620200EF620200D4
:10608000EF620200D9B70200EF620200EF62020085
:10609000EF620200EF620200D1B00200EF62020084
:1060A000EF620200EF620200EF620200EF620200A4
:1060B000EF620200EF62020000000000000000003A
:1060C000EF620200EF620200EF620200EF62020084
:1060D000EF620200EF620200EF620200EF62020074
:1060E000EF620200EF620200EF62020000000000B7
:1060F00000000000EF62020000000000EF620200FA
:10610000000000000000000000000000000000008F
:10611000000000000000000000000000000000007F
:10612000000000000000000000000000000000006F
:10613000000000000000000000000000000000005F
:10614000000000000000000000000000000000004F
:10615000000000000000000000000000000000003F
:10616000000000000000000000000000000000002F
:10617000000000000000000000000000000000001F
:10618000000000000000000000000000000000000F
:1061900000000000000000000000000000000000FF
:1061A00000000000000000000000000000000000EF
:1061B00000000000000000000000000000000000DF
:1061C00000000000000000000000000000000000CF
:1061D00000000000000000000000000000000000BF
:1061E00000000000000000000000000000000000AF
:1061F000000000000000000000000000000000009F
:1062000010B5054C237833B9044B13B10448AFF3F0
:1062100000800123237010BD002500200000000035
:10622000D47F030008B5034B1BB103490348AFF308
:10623000008008BD0000000004250020D47F03007A
:10624000154B002B08BF134B9D46A3F5803A002148
:106250008B460F461348144A121A0EF0ECFC0F4BF3
:10626000002B00D098470E4B002B00D09847002001
:10627000002104000D000D48002802D00C48AFF3A7
:1062800000800EF061FC200029000EF03FFB0EF0B4
:1062900047FC00BF000008000000042000000000D0
:1062A00000000000002500204CB900200000000084
:1062B000000000000649074A074B9B1A03DD043B18
:1062C000C858D050FBDC03F097FEFFF7B9FF000081
:1062D00084820300E022002000250020FEE7FEE784
:1062E000FEE7FEE7FEE7FEE7FEE7FEE7FEE7FEE786
:1062F000704700BF00B583B0044B0093044A4023AD
:1063000000F036F803B05DF804FB00BF156302002F
:106310002025002002B32DE9F843114B114E884689
:10632000144643F0010903270025224608EB050126
:10633000002004F0BFFC03461D444FF47A40E41AE9
:1063400023B9337833B1C847013F06D001233370F6
:10635000002CEAD1BDE8F88370473770BDE8F883B8
:10636000605C03001C250020704700BF04F056BD90
:10637000F0B595B0002415460F4608461E4603F0BA
:1063800045FD384623460895082205A91A9D099619
:106390000D950A948DF82C400C9403F091FD9DF816
:1063A00014308DF81140DDE9061003F00302012AD4
:1063B000CDE9020127D0022A04D0384603F02AFD95
:1063C00015B0F0BDBDF81650C3F3C2038DF8103000
:1063D000AD090826082D2C4628BF0824334622463E
:1063E0000EA9384603F06CFD2D1B214608AB02AA0E
:1063F0000EA8264400F0CAFD002DEBD1384603F06C
:1064000009FD15B0F0BDBDF81460059DC6F38316F7
:10641000C3F3C204B2000EA9384608238DF8104019
:10642000C5F3952503F04CFD08AB324628460EA96E
:10643000009302AB00F004FD384603F0EBFC15B00E
:10644000F0BD00BF08B5FFF791FF0421034800F03D
:10645000ADFC034B01225A7108BD00BF3C81030013
:10646000E0220020F0B5324C85B004F5836002F0E4
:106470001DFB04F2144002F019FBD4E9013703EAD2
:106480000702D01C04EB800114F8200010F0040077
:1064900044D003F1020C0E7806F00306012E654687
:1064A00035D0022E02F1030621D004EB860100282C
:1064B000F1D104EB82020133D26801923B4004EB3C
:1064C000830302F00302012ADE6829D0022A23D1C5
:1064D000BDF806309B090333360C05EB93051548D0
:1064E00002F0F0FA00B16560304605B0F0BD4B88AF
:1064F0000CEB931307EA0302D11C03F1020C14F80E
:106500002100654604EB810100F00400CFE70B8811
:10651000C3F383136344EDE70026E0E79D1CC8E75F
:10652000BDF80430C3F38313360C1D44D7E700BF16
:1065300030260020442A00200B4B0C4810B50022C6
:10654000FF21C3F818249960C3E90022C3F814247A
:1065500083F8202403F016FC044610B9044803F025
:10656000E3FC204610BD00BF3026002068800300F9
:10657000845C030021B9124B03EBC0000068704734
:10658000104A0F49521AD20815D030B40E4D2B883C
:10659000834212D0002303E035F82340844205D023
:1065A00001339A42F8D1002030BC704701EBC300A0
:1065B000006830BC7047104670470846F8E700BFD7
:1065C0007C8003003C81030000250020094B013939
:1065D00003EBC00003290BD8DFE801F00208060432
:1065E0000220704740797047007970470420704757
:1065F000002070477C8003002DE9F04383B002AB9C
:10660000002203F8012DDFF8DC9007461846884683
:10661000D9F8084000F01CFED9E90132D9F8006031
:10662000134401339B1B012B58D809F21C4501214F
:10663000284602F017FAFFF715FF0146284602F038
:1066400011FAD9E90132D9F80010134401335B1A69
:10665000012BECD90A400332052302319DF80700D3
:1066600049F82230C9F8001000F018FE00211C483B
:1066700002F0BEF980F31000731C234009EB830382
:1066800000043440033440EA1740D86019F824303D
:1066900067F3C50309F8243039F824306FF3891300
:1066A00029F8243059F8242068F39F221346012149
:1066B00061F301036FF3820349F8242009F82430C1
:1066C00099F820341BB906E000F00EF818B1D9E9AA
:1066D00000329A42F8D103B0BDE8F0833146B9E701
:1066E0004C2A0020302600202DE9F047934C00234F
:1066F00084B0C4F81834BFF34F8FD4E9015605EACB
:106700000602D31C04EB830114F82330580719D573
:1067100027680B7803F00303012B43D0022B03D12E
:106720004B88023505EB931506EA0502D4F81804E8
:10673000D31C04EB830128B9AF4239D914F82330B4
:106740005B07E6D404EB82026B1CD26801923340F3
:1067500004EB830302F00302DB680293022A05F1D3
:10676000020700F08D80012A26D0D4F810543DB1E4
:106770002B6828469B689847EB681D68002DF7D169
:106780006F48704B7049C01AC008000440F0020006
:10679000FFF732FFD4E90030C01A18BF012004B05F
:1067A000BDE8F0870B880235C3F383131D44BBE7B4
:1067B000676004B0BDE8F087BDF804206348C2F309
:1067C0008313062B28BF062363F389120233990033
:1067D000ADF8042003F0D8FA80460028C5D003F0B5
:1067E00015FB0023082201A9404603F035FBBDF844
:1067F000043013F4707F00F09F806FF0010AAAEB61
:10680000050A082506EA070103312B46042204EB9A
:106810008101404603F020FBBDF8043007F1010977
:106820000AEB0902C3F3831393424F4605F10405B3
:10683000E8D8D4F81834002B68D1D4F8105465B1D6
:10684000EB685A7928464146002A5BD02B681B68C2
:106850009847EB681D68002DF2D1404603F0DAFA44
:1068600004A8002300F80D3D00F0F2FCD4F8183421
:106870000BB9C4F804909DF8030000F00FFD89E700
:10688000BDF8063031484FEA93194D46502D28BFC8
:10689000502565F38F1305F10801ADF8063003F0BC
:1068A00073FA804600283FF460AF26EA070A0AF12F
:1068B000010A03F0ABFA4FEA8A0A0023082201A971
:1068C000404603F0C9FA55452BD9EBB2BAF1000F97
:1068D00020D006EA0701A3EB0A03033104EB810190
:1068E000DDB252460823404603F0B6FA2A460AF1C2
:1068F00008031749404603F0AFFA09F1030907EB13
:10690000990996E71D68002D9AD1A6E7404603F045
:1069100081FA3FE72A4608230D49404603F09CFAD6
:10692000EBE706EA0701033104EB81012A4608235D
:10693000404603F091FAE0E7B9467AE730260020B6
:10694000AC8003007C800300905C0300688003003F
:106950003C2600202DE9F04782B002AB002403F86A
:10696000014DDFF8ECA00746184691468846DAF854
:10697000084000F06DFCDAE90132DAF800601344F7
:1069800001339B1B022B5ED80AF21C4501212846CD
:1069900002F068F8FFF766FD0146284602F062F84B
:1069A000DAE90132DAF80010134401335B1A022BE2
:1069B000ECD90A400332033145239DF807004AF819
:1069C0002230CAF8001000F069FCB31C23400AEB27
:1069D000830300211D48C3F80C9002F009F880F3EE
:1069E0001000731C23400AEB83030004344003347B
:1069F00040EA1740D8601AF8243067F3C5030AF854
:106A000024303AF82430012161F389132AF8243024
:106A10005AF8242068F39F22134661F301036FF3B1
:106A200082034AF824200AF824309AF820341BB94B
:106A300006E0FFF759FE18B1DAE900329A42F8D1C0
:106A400002B0BDE8F0873146B3E700BF4C2A002012
:106A5000302600202DE9F04F83B002AD002405F868
:106A6000014D3B4C8046284693469A468946A56888
:106A700000F0EEFBD4E90132276813440133DB1B3D
:106A8000032B63D804F21C460121304601F0EAFFD3
:106A9000FFF7E8FC0146304601F0E4FFD4E901329B
:106AA0002168134401335B1A032BEDD90A400332EA
:106AB000852344F8223004319DF80700216000F05E
:106AC000EDFBBA1CFB1C2A402B4004EB820204EBBA
:106AD000830300211F48C2F80CB0C3F80CA001F0DA
:106AE00087FF80F310007B1C2B4004EB8303000422
:106AF0003D40033540EA1840D86014F8253068F36B
:106B0000C50304F8253034F82530022262F38913D6
:106B100024F8253054F8252069F39F2213460121DB
:106B200061F301036FF3820344F8252004F8253054
:106B300094F820341BB906E0FFF7D6FD18B1D4E96C
:106B400000329A42F8D103B0BDE8F08F3946ADE784
:106B5000302600204C2A00202DE9F04F83B002AEF1
:106B6000002406F8014D3E4C8046304693469A4636
:106B7000A568894600F06CFBD4E90132276813440C
:106B80000133DB1B042B69D804F21C46012130467B
:106B900001F068FFFFF766FC0146304601F062FF36
:106BA000D4E901322168134401335B1A042BEDD977
:106BB0000A400332C52344F8223005319DF807000E
:106BC000216000F06BFBB81CFA1C28402A403B1DDA
:106BD0002B4004EB800004EB820204EB8303C0F83B
:106BE0000CB00021C2F80CA01E480C9ADA6001F02B
:106BF000FFFE80F310007B1C2B4004EB830300049A
:106C00003D40033540EA1840D86014F8253068F359
:106C1000C50304F8253034F82530032262F38913C4
:106C200024F8253054F8252069F39F2213460121CA
:106C300061F301036FF3820344F8252004F8253043
:106C400094F820341BB906E0FFF74EFD18B1D4E9E3
:106C500000329A42F8D103B0BDE8F08F3946A7E779
:106C6000302600204C2A00202DE9F04F87B006AED8
:106C7000002406F8114D454C109F0497CDE90223DE
:106C8000804699463046119B05939246A5688B46EF
:106C900000F0DEFAD4E90132276813440133DB1B2C
:106CA000052B70D804F21C460121304601F0DAFEB3
:106CB000FFF7D8FB0146304601F0D4FED4E901329B
:106CC0002168134401335B1A052BEDD90A400332C6
:106CD00040F2051344F8223006319DF80700216088
:106CE000FE1C00F0DBFAB91C29402E403A1D2A4058
:106CF00004EB810104EB86067B1D2B4004EB820232
:106D0000C1F80CA004EB8303C6F80C90109ED6606B
:106D10000021119A1E48DA6001F06AFE80F310002B
:106D20007B1C2B4004EB830300043D40033540EA09
:106D30001840D86014F8253068F3C50304F82530EE
:106D400034F82530042262F3891324F8253054F8EE
:106D500025206BF39F221346012161F301036FF39A
:106D6000820344F8252004F8253094F820341BB918
:106D700006E0FFF7B9FC18B1D4E900329A42F8D125
:106D800007B0BDE8F08F3946A0E700BF30260020ED
:106D90004C2A0020044BD3E900239A4201D0FFF78C
:106DA000A3BC0020704700BF3026002030B4184D2F
:106DB000D5F8104400215CB1E3681A798A4204D105
:106DC00016E0DB681A798A4212D01B68002BF8D1D2
:106DD000C3681971D5F8103493B1DA68C3681268C2
:106DE0001A60D5F81034DB68186030BC084670476C
:106DF00001310A29DFD14FF0FF31084630BC70471E
:106E0000C5F81004C2681360084630BC704700BF64
:106E10003026002038B5094BD3F81044012583F8FB
:106E200020544CB1E3685D71236820465B68984745
:106E3000E3681C68002CF5D138BD00BF3026002067
:106E40002DE9F04784B01D460C9C002394F80C807B
:106E50002373EB8881460E461746002B40D1297AD2
:106E600005290ED06B7AA88873BB404B53F821A03C
:106E70000021FFF77FFB524603463D49204601F0C3
:106E800099FE062F09D8DFE807F0046A4249525DEF
:106E900033004946204601F08DFE2B7A052B05D0A4
:106EA0006B7A5BB93349204601F084FE204601F03D
:106EB00075FE84F80C8004B0BDE8F0872E4A2F4997
:106EC000204601F077FEEDE7FFF780FB2C4B2B49C6
:106ED00053F82020204601F06DFE297AA888C4E7E7
:106EE000254A00922749284A204601F063FEB6E76A
:106EF000D6E90410D6E900230390D6E902070291EF
:106F0000CDE900074946204601F054FEC5E7494651
:106F1000D6E90023204601F04DFEBEE7B168D6E970
:106F2000002320460091494601F044FEB5E7D6E92A
:106F30000201D6E90023019100904946204601F064
:106F400039FEAAE7D6E90371B068D6E900230291B9
:106F5000CDE900074946204601F02CFE9DE7326846
:106F60004946204601F026FE97E700BF185D030062
:106F7000085D0300145D0300005D03000475030059
:106F8000A85C0300E85C0300E05C0300082900D96A
:106F900070472DE9F04F1D46904600232A7B2B7346
:106FA00085B0B8F80630039207460E46002B7BD119
:106FB00098F80810052911D098F80930B8F804009D
:106FC000002B63D13C4B53F821400021FFF7D2FA4C
:106FD000224603463949284601F0ECFDDFF8FCB0B3
:106FE000DFF8FC90002405E03A5D013401F0E2FD99
:106FF000082C09D0A64249462846F5D859460134FE
:1070000001F0D8FD082CF5D12D49DFF8D8B0DFF814
:10701000D890284601F0CEFD00240CE017F804A01B
:10702000BAF17E0F23D92E2249462846013401F0B9
:10703000C1FD082C08D0A642F0D859462846013494
:1070400001F0B8FD082CF6D198F80830052B02D0D5
:1070500098F80930A3B91B49284601F0ABFD284632
:1070600001F09CFD039B2B7305B0BDE8F08F0DF084
:107070008FFD50445246437813F0970FD3D0D3E797
:10708000114A1249284601F095FDE4E7FFF79EFA00
:107090000F4B0E4953F82020284601F08BFD98F83D
:1070A0000810B8F804008DE7074A009209490A4A17
:1070B000284601F07FFD7BE7185D0300085D0300B3
:1070C000D85C0300145D0300005D03000475030039
:1070D000A85C0300E85C0300E05C0300D45C0300F0
:1070E000CC5C0300105D0300DC5C030000B585B0E0
:1070F00000230390194601AA44F20100CDE90133AF
:1071000000F004F805B05DF804FB00BF10B572B6DE
:10711000FFF780FEFFF73EFE0028FBD1104B114C1D
:107120001149E41AE408240444F00100FFF764FA6A
:107130000E4B1B68DB0700D500BE44F002000C4973
:10714000FFF75AFABFF34F8F0A490B4BCA6802F494
:10715000E0621343CB60BFF34F8F00BFFDE700BF7A
:107160007C800300AC800300845D0300F0ED00E050
:10717000905D030000ED00E00400FA052DE9F04702
:107180002D4F3B888B4282B03CD3054602A84FF07E
:10719000000800F8018D16460C4600F059F8274B00
:1071A000274A284819781378B0F800C09DF80700DE
:1071B000DBB2634538BF0133C9B238BF5FFA83F829
:1071C000414523D092F800801378DFF88090DBB23D
:1071D0009C4586BF0133DBB200235FFA88F8137049
:1071E00000F05CF8D9F800300FFA88F24FEAC20AD2
:1071F00043F83260534405B174B90020988002B05E
:10720000BDE8F087092002B0BDE8F08700F046F83D
:10721000042002B0BDE8F0870B4B38881B68294674
:1072200008FB003022460DF0E2FCD9F800309A4409
:107230000020AAF80440E2E7F82A0020FC2A0020F7
:10724000EC2A0020FA2A0020F02A0020F42A00204C
:1072500070B4EFF3108472B60D4B9A68AAB90D4959
:107260000D4E01259D60D1F8805035401D60C1F85C
:107270008060D1F884505D604FF0FF33C1F88430F6
:10728000027004B962B670BC704701230370F8E75E
:10729000B4B8002000E100E0FC06FFBD094B9A688D
:1072A0007AB170B910B4EFF3108172B6064A1C6857
:1072B00014605C685460986001B962B65DF8044B74
:1072C00070477047B4B8002000E100E0F0B44368B4
:1072D0001BB1384AD468A34246D20023364F0B80F4
:1072E0007A684FF0010C02F580544FF6FF760832B1
:1072F00094420ED8BCF1020FA1F800C007F11407A8
:1073000054D07A6802F58054083294424FF0020C4F
:10731000F0D913680133EDD05388033302EB8303B4
:107320009C42E7D39588B5420AD0158845B1956847
:1073300003689D4211D05388033302EB8302D7E7E1
:107340009C42D7D91A6801321A46D3D05D880335DA
:1073500003EB85039C42E5D2CCE7184B42601B89C6
:1073600003810120F0BC704712699342B5D813F035
:107370000305B2D1114A048912899442ADD104683F
:107380009A689442A9D10C484268934203D902F505
:107390008052934207D38269934207D902F5805203
:1073A000934203D201250D800120DBE70020F0BCD1
:1073B000704700BFEC240020402B0020242B00202D
:1073C000F0B5334C334DB4F802C062684FEA8C0616
:1073D00006EB0C0305EB830383B0596801F580507D
:1073E000002A52D05388033302EB8302904213D811
:1073F000664405EB8605EB68002B3DD0264B2748FD
:10740000196802229A80052500230122257003B005
:10741000BDE8F04002F0C0B813680133E8D05388EB
:10742000033302EB83038342E2D84FF6FF7E978853
:10743000774514D0178897B162605388164D174866
:10744000AE882968033300259BB200959B0001EBB1
:1074500086010325257002F001F803B0F0BD9842C3
:10746000C6D91A6801321A46C2D05F88033703EBC7
:1074700087039842DBD2BBE7084804250122257028
:1074800003B0BDE8F04002F087B801F10802ADE7B3
:10749000242B0020402B0020082C0020EC2400206E
:1074A0002DE9F04FAC4E89B004464FF6FF773568B2
:1074B000002D00F0D9802A78531E052B67D8DFE80D
:1074C00003F05931311D1D03002C40F0C380DFF85B
:1074D000B0C29CF80C209CF80030002A00F05281C9
:1074E000013B8CF80C40062B51D8DFE813F0E70382
:1074F000F8020302D8015000FB02C802002C40F041
:10750000A9802B79012B00F04A81C0F0DE800DF1BB
:107510000C08022B0394C8E90244C8F810403ED17D
:1075200020463DE0B5F81490AB7D002C00F0A38020
:10753000022BEA8840F2C4804FEA8904DFF83882DF
:1075400004EB090108EB8101D31C0A8913440B8168
:10755000EA884C4408EB84040DF10C086389033B72
:107560009B1A00226381C8F808200392C8E903220D
:10757000012015E0002C40F097802B79032B00F2BE
:10758000DF80DFE813F080013D0155016001002339
:107590000DF10C08C8E90333C8F8083003930F2035
:1075A00004902B78023B042B0AD8DFE803F0472F26
:1075B0002303430004238DF80C30EB88ADF818301A
:1075C000664C04F1100554F8043B404603B198475B
:1075D000A542F8D1624963480024346001F086F97D
:1075E0000121614801F04AFA00287FF460AF09B038
:1075F000BDE8F08F03238DF80C30EB88ADF8183020
:107600002B89ADF81A30EB680593D9E702238DF882
:107610000C302B89ADF81830AB88ADF81A30EB6818
:107620000593AB7DA3F10603B3FA83F35B098DF8F1
:107630001C30C5E705238DF80C30C1E701238DF818
:107640000C302B89ADF81830AB88ADF81A30EB68E8
:107650000593B5E70DF10C080023C8F80830039333
:10766000C8E9033301209BE73D493E4801F010F98A
:10767000054630601FE74FEA8904DFF8FC8004EB21
:10768000090108EB8101B1F808A0496801EB8A0AF9
:10769000062B00F2B682DFE813F0CC019301A501BE
:1076A000B80141016C0186010DF10C082F4A00233D
:1076B00053600393C8E90233C8F8103001206FE724
:1076C000DFF8B4804FEA890443E702232B71CDE948
:1076D00004440DF10C08EB68039340460DF10A01D8
:1076E000FFF7F4FD002800F0C1810499204A8B883F
:1076F000EB800B882B811F4800940423BDF80A40BF
:1077000001F0ACFE002840F0DE821B4B04EB840449
:1077100003EB84040123237469E701239A001A44CC
:1077200008EB8203002059680090082308F8220023
:10773000124A104801F092FE00283FF458AF356815
:107740000A4A0DF10C08002353600393C8E9023381
:10775000C8F810300E2023E73C2B00200C2B002013
:10776000342B0020F42B0020042C00201C2B0020A4
:10777000A05D0300EC240020402B0020A45D03004A
:10778000242B0020072B00F28382DFE813F0FA019C
:10779000810281029D01E60178017801C001BF4BA1
:1077A0001B78002B00F05381DFF8F4E2BEF8049060
:1077B000B9F1010F15D8DFF80C8309EB890208EB4A
:1077C0008202043212F8043C002B00F0088209F116
:1077D000010399B201299946AEF8043002F114026E
:1077E000F0D90DF10C0808220021AD480DF023FA64
:1077F0000020C8F808000390C8E903003568CFE608
:10780000DFF8C08298F80030022B00F0688298F808
:107810001430022B81D0A14B0DF10C080020012265
:107820001A7003905860C8E90200C8F81000B7E663
:107830009C4A9D481168002302242B7194800122E8
:1078400001F0AAFE78E7974C984A21689648DFF83D
:1078500074824FF0000985F804900823CDF8009059
:1078600001F0FCFD924B25685B88A18803EB830344
:1078700008EB830208F823905368236002235560C5
:107880001181A38058E7874B8A4A196886480123EB
:107890002B7100230093082301F0E0FD4CE7BCF8B6
:1078A0000230DFF8208203EB830308EB8308D8F86B
:1078B0000C30002B00F0DC817A4B7B4819680222E7
:1078C0009A8005228CF800200023012201F064FE3A
:1078D00000283FF48CAE0DF10C08002341F61D5238
:1078E0003568C8F808300393C8E90333904208BFED
:1078F000184655E6DCF804206A48538884880168F5
:10790000694801EB84010333002400949BB20324F3
:107910009B008CF8004001F0A1FDD9E7664BAA69F5
:1079200066491A604FF0000B1846C3F804B0FFF721
:10793000CDFC002800F0CA810223AB750423514618
:10794000CDF800B0EA18584801F088FD00283FF44F
:107950004EAEAB7DEA88022B4FF00E0026D84C4489
:1079600008EB8408B8F80A30033B9B1AA8F80A30E1
:10797000B1E7524B504AB3F800A051684A48504A08
:1079800000234FF0060C85F816C00093042301F085
:1079900065FD0028DDD10AEB8A0A08EB8A0801237D
:1079A00088F8103023E6EA8841F61D5004EB0901FF
:1079B00008EB8101D31C0A8913440B81EA88CEE7C6
:1079C000032A0CBF052306230022AB750AF104012C
:1079D0000092042305F10802334801F03FFD00281E
:1079E000B7D104E62B693048002B14BF03230123D1
:1079F0000022AB750AF108010092042305F10C0284
:107A000001F02CFD0028A4D1F1E5EB882A69264875
:107A10004FF0010C85F816C04FF0000C0AF10C0174
:107A20009B00CDF800C001F019FD00283FF4DFAD48
:107A30008FE702230022AB75042300925146EA1817
:107A4000194801F00BFD00283FF4D1AD81E70DF19D
:107A50000C080822214612480DF0EDF80394C8E9FD
:107A60000244C8F810403568022099E50A20002336
:107A7000C8E90033C8E90233C8F8103090E5094B73
:107A80000C4A1968084800230093CCF804300723F7
:107A90008CF80030082301F0E1FC19E71C2B0020D2
:107AA000182C0020082C0020EC240020A45D0300EA
:107AB000242B0020AC5D0300002B0020142C0020A0
:107AC000A05D0300402B0020884ADCF80410938856
:107AD000498803330B44022193808CF80010FFF790
:107AE0006FFCF5E6BCF80220DFF810829300134427
:107AF00008EB830806200023D8F804107C4A009382
:107B00008CF8000008237B4801F0A8FCE0E6012384
:107B10008CF800309CF80A304BB1DFF8E081D8F8DF
:107B20000C3000228CF80A20002B00F0AB809CF86F
:107B30000B30002B43D0DFF8C481D8F8203000226E
:107B40008CF80B20002B3AD198F82430BBB30123DA
:107B5000ACF80230FFF734FCBAE6BCF80220DFF8DC
:107B60009C81624C9300991808EB810120684D6854
:107B7000B4F804E0486002202560A1F808E0A08085
:107B8000B5E7DFF87881BCF8081098F8142098F869
:107B90000030B2FA82F252090131B3FA83F35B0981
:107BA0008CF80B20ACF80810002201218CF80A3068
:107BB000ACF802208CF80C208CF80010ACE70DF12A
:107BC0000C080020C8F808008CF80000ACF802008F
:107BD000CCF804000390C8E903003568E0E41368BA
:107BE000DEF8001003F5805C03F1080A002968D074
:107BF0004B88033301EB83018C4505D8CEF8004058
:107C0000E5E5EA880F20D1E60B680133F6D04B8812
:107C1000033301EB83039C45F0D38888B8421AD024
:107C2000B1F800B0BBF1000F15D0EB88CEF8001012
:107C30008342DBD1002300932F4A2E48042301F016
:107C40000DFC00284DD109EB890908EB89080123B7
:107C500088F81030CBE49C45D0D919680131194619
:107C6000CCD05888033003EB80039C45D5D2C5E7C0
:107C700004228CF80020D8F804101E48012201F0DC
:107C80008BFC25E698F81020002A3FF450AF5FE700
:107C9000013B062B3FF67BAC01A252F823F000BF5C
:107CA000BD7C0200DF7A0200F57802009F780200B6
:107CB0008F750200E57A02007F7A02009CF80A3094
:107CC0002AE7514698E735680E20D0E60DF10C08FA
:107CD0000390C8E90200C8F810000A2060E40023FD
:107CE0001CE535680E200DF10C08C0E6082C0020BC
:107CF000A45D0300EC240020A05D0300402B0020C5
:107D00004068FFF7CDBB00BF38B5084B1A68042A9E
:107D10000AD01D68064C02460121184644F8252069
:107D200000F0A0FE002038BD0C2038BD102C002033
:107D30000C2B00202DE9F04FAB4C8BB022780023A8
:107D4000CDE90533CDE90733099372B1A74C04F1AE
:107D5000100554F8043B05A803B19847A542F8D193
:107D6000002528460BB0BDE8F08F201D02F0FF066D
:107D700000F090FE07460028F2D140F6F8731B6829
:107D80005D1C00F0FA804FF0805211695269DFF8F3
:107D900084829749C8F810304046A3F5405300222A
:107DA000C8F80C3001F02CFB05460028D9D11C2363
:107DB0008C2290499048DFF860A200F0F3FCD8F8DC
:107DC0000C90DFF85882029609F5405348464FF070
:107DD000030B2A469946002800F09D8003688749D6
:107DE0008B4240F09880436885498B4200F01881AF
:107DF00001318B4240F08F80029B63B102EB820C19
:107E000008EB8C0102260132DAF8003008F82C6009
:107E100092B24B600E818168CAF800004FF0020CEC
:107E20000131AAF804C000F5805300F108062DD0F6
:107E30004189033106EB81008342C0F0B580604682
:107E40004FF6FF7E0192B6F804C0F4450FD0B6F8A5
:107E500000C0BCF1000F0AD06A4AD6F808C0126808
:107E6000944504D9674AC2F800C0718803310844B8
:107E700080B2AAF804007188033106EB8106B34290
:107E800000F286800228019A40F0318104210F43DC
:107E9000994518469FD1BBF1010F40F28B80FFB28C
:107EA000022F00F08780062F00F08E80002F00F058
:107EB000818004A9504800F0AFFC1C220446002138
:107EC0000CF0B9FE002C00F010810123013F23705B
:107ED0000A2F09D8DFE807F0160816081C081C0846
:107EE000190619000223237104A9434800F0C0FCBD
:107EF0000121454800F0AAFD00287FF431AFFFF7CB
:107F0000CFFA2EE700232371EEE703232371EBE77B
:107F100001232371E8E700F58053014601E08B421D
:107F200014D00E68013601F10401F8D002EB820191
:107F300008EB81060BF1FF3B01324FF0030C1FFAF7
:107F40008BFB92B208F821C07060A1E7DAF800104C
:107F500091B32E4E02EB820108EB810C7280022657
:107F600002F1010E08F821601FFA8EF2CCF804002D
:107F7000ACF8086047F001078AE7254B4FF08052C4
:107F80001B6811695269581C08BF02FB01F3FEE629
:107F9000316801313FF476AF7188033106EB810C13
:107FA0006345BFF450AF019A4FF48061AAF8041002
:107FB00008216CE70B25D4E60221AAF80410012160
:107FC000CAF800000291D5E7084D01220023227073
:107FD00005F11006636055F8043B05A803B1984706
:107FE000AE42F8D1BCE600BF1C2B00200C2B0020B9
:107FF000C05F0300682B0020F42B0020DEC0ADDE44
:10800000FE011EF1382B0020042C0020242B002020
:1080100014100010EC240020082C0020402B00201D
:1080200093000393134408EB830C002108F82310FA
:108030004FF00203ACF80830CCF804008668013633
:1080400000F5805300F1080140D0408900F1030E93
:1080500001EB8E0E73452FD302260192E646B1F84E
:1080600004C04FF6FF72944537D0B1F800C0BCF1A0
:10807000000F32D01F4AD1F808C01268944505D9C4
:108080001C4ABEF80860C2F800C04888064403369F
:10809000B6B2AEF808604888033001EB80018B422D
:1080A00019D90868013016D0488800F1030C01EB9B
:1080B0008C0C6345D3D2019A0399114408EB8101DA
:1080C0004FF480604FF001060E740881013292B2C5
:1080D00047F00207DCE6019AF8E74FF001028EF85C
:1080E00010204888BEF80860D0E7082539E6082146
:1080F000CDE600BF382B002008B301B370B582B0C5
:108100000C460DF106010546FFF7E0F8A0B1BDF8F9
:1081100006000C4B6E6800EB800003EB8000012131
:108120000C3000F09FFC26606B6801220C330020AD
:108130006360AA7202B070BD0A2002B070BD052053
:10814000704700BF402B0020E8B110B582B00DF1A0
:1081500006010446FFF7BAF890B1BDF806300C4AA4
:1081600003EB830302EB8303DA6872B1A27A62B194
:10817000DA680021013A0846DA60A17202B010BD47
:108180000A2002B010BD05207047062002B010BDC5
:10819000402B0020484B1B78002B32D0002934D0D4
:1081A0000A884FF6FF739A4229D04B883BB34B683D
:1081B0009B072CD12DE9F043B1F8088008F10303A7
:1081C0009BB240F2FD32934283B01CD83B4A1778F1
:1081D0003FB95689148934441C44A4B2B4F5806F65
:1081E00017D3147D3CB9D68B948B34441C44A4B271
:1081F000B4F5806F5DD3072003B0BDE8F0830420A1
:108200007047022070470920F6E7052070470320D9
:108210007047BC464FEA8C09E14402EB89093344BC
:108220000C46054601A92648A9F80A3000F0F4FAE0
:108230001C22064600210CF0FEFC5EB302234FF028
:108240000009B782337086F81690636833610121A4
:108250001C4800F007FCF060238833816388B380FA
:1082600001A9A6F80A90A6F80680154800F000FBC0
:1082700045B1C5F80490F268134B2A601B8985F854
:108280000A902B810121114800F0E0FB044660B107
:108290000020B1E7B9F80A30C8F57F4808F1FD08B9
:1082A0009844A9F80A800820A6E7FFF7F9F82046C5
:1082B000A2E70127BC46ADE71C2B0020402B002085
:1082C000F42B0020382B0020242B0020042C00202D
:1082D000002836D0484B1B78002B30D0002930D0F6
:1082E0000A884FF6FF739A422FD04B886BB34B68C6
:1082F0009B0728D12DE9F043B1F8089009F1030359
:108300009BB240F2FD32934283B020D83B4A1578AD
:108310003DB9578914893C441C44A4B2B4F5806F1C
:1083200017D3147D3CB9D78B948B3C441C44A4B226
:10833000B4F5806F5BD3072003B0BDE8F083022063
:1083400070470520704703207047042070470920BC
:10835000F2E7A846AC464FEA8C05654402EB85057A
:108360003B4406460C4626486B8101A900F054FAAE
:108370001C22074600210CF05EFC57B300250323A6
:10838000A7F814803B70BD7563683B6101211D48EF
:1083900000F068FBF86023883B816388BB8004237E
:1083A000A7F80690BB753368BB6101A97D811448AD
:1083B00000F05EFA7560FA68134B32601B89B57283
:1083C00033810121114800F041FB044658B1284691
:1083D000B2E76B89C9F57F4909F1FD099944A5F810
:1083E0000A900820A8E7FFF75BF82046A4E74FF0C3
:1083F0000108C446AFE700BF1C2B0020402B002023
:10840000F42B0020382B0020242B0020042C0020EB
:10841000184B1B7823B34FF6FF7398421ED070B5EC
:1084200082B001A90446144800F0F6F91C22054662
:1084300000210CF000FCADB105230126EC8001A960
:108440002B702E710C4800F013FA31460B4800F0E7
:10845000FDFA044648B1002002B070BD0420704708
:1084600002207047082002B070BDFFF719F82046BF
:1084700002B070BD1C2B0020F42B0020042C002027
:10848000194B1B78EBB110B582B001A9174800F069
:10849000C3F91C22044600210CF0CDFB0CB30623CB
:1084A000237001A9114800F0E3F9114B1A7852B971
:1084B0000121104800F0CAFA044668B1002002B059
:1084C00010BD02207047012201210A481A7300F0F2
:1084D000BDFA04460028F1D1FEF7E2FF204602B0C3
:1084E00010BD082002B010BD1C2B0020F42B002072
:1084F000242B0020042C00202DE9F043344C247858
:10850000002C60D03AB333B39F88012F5ED8314C32
:1085100007EB870C013704EB8C0CBFB24FF6FF7EE4
:108520004FF000089CF8004074B91C68DCF8045057
:1085300005F58056002C43D06588033504EB85048F
:10854000B4420BD3C3F80080022F9F800CF1140CAF
:108550003CD00227E6E70520BDE8F0832568013519
:10856000F0D06588033504EB8505AE42EAD3B4F854
:108570000490F14515D0B4F80090B9F1000F10D077
:108580001C60A5888542D1D125888D42CED1A168B5
:1085900011601968104B51601B8913810020BDE8E0
:1085A000F083AE42CED92C6801342C46CAD0B5F83F
:1085B000029009F1030905EB8905AE42D7D2C1E764
:1085C00005F10804BCE70220BDE8F0830A20C3E7F8
:1085D0001C2B0020402B0020242B0020334B1B7829
:1085E000002B5CD051B34AB32DE9F0419588012DA1
:1085F0005AD82F4F05EB850307EB830701353B78EE
:10860000ADB24FF6FF7C4FF0000E43B1022D9580C6
:1086100007F1140748D03B780225002BF6D11368E8
:108620007C6804F58056002B3BD05C88033403EB58
:108630008403B34204D3C2F800E0E7E705207047A3
:108640001C680134F7D05C88033403EB8404A64231
:10865000F1D3B3F80480E04512D0B3F80080B8F14C
:10866000000F0DD013601C888442D9D19B680B6029
:108670001268104B4A601B890B810020BDE8F08115
:10868000A642D8D9236801332346D4D0B4F8028057
:1086900008F1030804EB8804A642DAD2CBE70220F3
:1086A000704704F10803C4E70A20E7E71C2B002009
:1086B000402B0020242B0020334B1B78002B5CD058
:1086C00051B34AB32DE9F0419588012D5AD82F4F67
:1086D00005EB850307EB830701353B78ADB24FF619
:1086E000FF7C4FF0000E43B1022D958007F1140777
:1086F00048D03B780225002BF6D113687C6804F53E
:108700008056002B3BD05C88033403EB8403B342D8
:1087100004D3C2F800E0E7E7052070471C68013485
:10872000F7D05C88033403EB8404A642F1D3B3F89A
:108730000480E04512D0B3F80080B8F1000F0DD0EE
:1087400013609C888442D9D19B680B601268104BDF
:108750004A601B890B810020BDE8F081A642D8D970
:10876000236801332346D4D0B4F8028008F103080B
:1087700004EB8804A642DAD2CBE70220704704F16A
:108780000803C4E70A20E7E71C2B0020402B002049
:10879000242B002020B119B103680B600020704722
:1087A0000520704799B110B4B2FBF3F403FB142415
:1087B000A4B244B9C0E9001484608281C381204618
:1087C0005DF8044B704709205DF8044B70470E209C
:1087D000704700BF82B050E8022FC188B2EB324F21
:1087E0004FF0000317BF92B241EA014142EA014152
:1087F00004E04268B2EB324F08BF012340E80212A6
:10880000002AE8D18DF807309DF80730002B0CBF07
:108810001120002002B0704730B482B050E8013F10
:108820009DB2C48925448489A54228BF2D1B048993
:10883000A54202BFBFF32F8F002207E0C5EA030560
:1088400040E80154002CE9D14FF001028DF80320DB
:108850000193019B9DF803200B602AB10B880068EF
:10886000184402B030BC704702F0FF031846F8E726
:108870000A884B889A4201D00020704750E8012FA7
:10888000C2EA024240E80123002BF7D101207047E1
:1088900030B482B050E8023F1FFAA3F5C488A54265
:1088A00002BFBFF32F8F00220DE0C48925448489C5
:1088B000A54228BF2D1BC3EA054540E80254002C01
:1088C000E8D14FF001028DF803200193019B9DF840
:1088D00003200B602AB14B880068184402B030BCFA
:1088E000704702F0FF031846F8E700BF0A884B887C
:1088F0009A4201D00020704750E8022FC2EA22427B
:1089000040E80223002BF7D10120704701F01F023D
:108910004B09012100EB8300914000F07FB800BFBC
:1089200010B5012301F01F04490900EB810003FA8F
:1089300004F100F067F8E04000F0010010BD00BF56
:1089400001F01F0201234909934000EB8100D94344
:1089500000F070B84B0901F01F0150F82300C84027
:1089600000F00100704700BF2DE9F84F01F1FF3919
:108970004FEA591300F104090F46064609EB830933
:10898000044600254FF0010823686FEA030B9BFAA9
:10899000ABFBBBFA8BFBBBF1200F20D0AB445F4598
:1089A0000CD81CE02368DB4393FAA3F3B3FA83F3F8
:1089B000202B05EB030B12D05F4510D90BF01F0ADB
:1089C0004FEA5B1008FA0AF106EB800000F01AF893
:1089D00020FA0AF0C307E5D45846BDE8F88F0434FE
:1089E0004C4505F12005CFD1BB465846BDE8F88F70
:1089F00050E8002F0B4640E8003C9CF0000FF7D1F8
:108A00001046704750E8002F42EA010340E8003C5E
:108A10009CF0000FF6D11046704700BF50E8003FB1
:108A200043EA010240E8002C9CF0000FF6D110460A
:108A3000704700BF50E8003F03EA010240E8002C05
:108A40009CF0000FF6D11046704700BF50E8002F91
:108A500002EB010340E8003C9CF0000FF6D1104609
:108A6000704700BF50E8003F03EB010240E8002CD4
:108A70009CF0000FF6D11046704700BF50E8003F51
:108A8000A3EB010240E8002C9CF0000FF6D1104649
:108A9000704700BF012350E800CF4CEA030240E8D2
:108AA000002191F0000FF6D160467047012350E895
:108AB000002F42EA030C40E800C191F0000FF6D10C
:108AC00060467047002350E800CF0CEA030240E8FC
:108AD000002191F0000FF6D160467047B8B130B474
:108AE000D0E90112521A0468D2B2531E2160DBB2DF
:108AF00042B101680A685C1E551C0D601370E3B238
:108B0000FF2BF6D103680020187130BC70470E208F
:108B1000704700BFF0B583B002AB002503F8015DDC
:108B200004461846FEF794FBD4E900311A688A42DD
:108B300010D9511E19602168A3680F6812F8015CF2
:108B40000A79268AE068DB1BDBB29A4206FB050540
:108B500038BF0B719DF80700FEF7A0FB284603B055
:108B6000F0BD00BF30B583B002AB002203F8012D89
:108B7000054618460C46FEF76BFB2A681368591C1D
:108B80001160E9682A8A641AB4FBF2F41C709DF83B
:108B90000700FEF783FB03B030BD00BF826842B11F
:108BA00010B5044643690168006998470023A36033
:108BB00010BD70470EB400B582B0039929B102AA66
:108BC00004AB42F8043D00F0A9F802B05DF804EBF4
:108BD00003B070472DE9F04F924683B051450F46E0
:108BE00005461E46DDE90CB2C0F092800B464FF000
:108BF0000108B3FBFAF39A4508F10108F9D9B04529
:108C000038BFB04612F00109A96802D1BBF1000FCC
:108C100054D1012402E0013E0AFB04F4012EFAD8EB
:108C2000B7FBF4F08245F7D93B4E02E0A968B7FBE9
:108C3000F4F0335C2A680A2B04FB107702EB010E78
:108C400001F1010029D0A8608EF80030D5E901318A
:108C5000994202D32846FFF7A1FFB4FBFAF4002C97
:108C6000E4D1B9F1000F15D0BBF1000F12D0C3450C
:108C700010D92024AB682A68591CA960D454D5E9BE
:108C800001329A420BF1FF3B14D2BBF1000F01D02D
:108C9000C345EFD103B0BDE8F08FA8604FF00D00E1
:108CA0005054D5E9011088421DD2296801EB000E0D
:108CB0000130C8E72846FFF771FFE6E7930722D4A3
:108CC0002024C345A5D92B684A1CAA605C54D5E969
:108CD000013199420BF1FF3B10D2BBF1000F98D04C
:108CE000C345F0D195E728460193FFF757FFAA68DF
:108CF0002968019B501C01EB020EA4E72846FFF7F0
:108D00004DFFA968E9E7002E0CBF30242024D8E7E6
:108D10004FF0010873E700BFB45D0300002900F0C5
:108D2000B9822DE9F04F054687B091460C460E7882
:108D3000DFF8C8A64FF00D0B13E0AB6828680A2EC9
:108D400003F1010200EB030100F04B82AA600E70F8
:108D5000D5E901329A4280F01B812678002E00F07E
:108D60001E810134002E00F01A81252EE5D1234604
:108D7000002713F8012B2D2A00F0E380302A00F0A1
:108D8000E4802B2A00F0D4802A2A00F00D81A2F181
:108D90003006F1B2092903D97DE2A1F1300603467C
:108DA000184606EB860110F8012BA2F13004092CBD
:108DB00002EB4101F1D92E2A00F002814FF00008A8
:108DC000013301E013F8012B02F0FB0168291C4676
:108DD000F8D0253A532AC0D801A353F822F000BF97
:108DE000CB9102005B8D02005B8D02005B8D020067
:108DF0005B8D02005B8D02005B8D02005B8D0200CB
:108E00005B8D02005B8D02005B8D02005B8D0200BA
:108E10005B8D02005B8D02005B8D02005B8D0200AA
:108E20005B8D02005B8D02005B8D02005B8D02009A
:108E30005B8D02005B8D02005B8D02005B8D02008A
:108E40005B8D02005B8D02005B8D02005B8D02007A
:108E50005B8D02005B8D02005B8D02005B8D02006A
:108E60005B8D02005B8D02005B8D02005B8D02005A
:108E70005B8D02005B8D02005B8D02005B8D02004A
:108E80005B8D02005B8D02005B8D02005B8D02003A
:108E90005B8D02005B8D02005B8D02005B8D02002A
:108EA0005B8D02005B8D02005B8D0200AF910200C2
:108EB0005B8D02005B8D02005B8D02005B8D02000A
:108EC0005B8D02005B8D02005B8D02005B8D0200FA
:108ED0005B8D02005B8D0200538F02003591020012
:108EE0005B8D02005B8D02005B8D02005B8D0200DA
:108EF000359102005B8D02005B8D02005B8D0200EC
:108F00005B8D02005B8D02005B8D02009D90020074
:108F10005B8D02005B8D0200159002005B8D0200EC
:108F2000F98F02005B8D02005B8D0200AF910200A1
:108F300047F004071C46234613F8012B2D2A7FF423
:108F40001DAF47F001071C46F5E747F002071C4636
:108F5000F1E7D9F800301A1DC9F800201E78AB6877
:108F60000A2E0CD12A68591CA96002F803B0D5E971
:108F70000123934203D32846FFF710FEAB682A680B
:108F8000591CA960D654D5E901329A42FFF4E5AEE6
:108F90002846FFF703FE2678002E7FF4E2AE2B7BF7
:108FA00023BB07B0BDE8F08FD9F80020111DC9F828
:108FB0000010166862782E2A04F102007FF4FEAEDB
:108FC0005A78A2F13003092B00F2BD814FF000085E
:108FD00008EB880802EB480810F8012FA2F13003D3
:108FE000092BA8F13008F3D90346E9E6284607B073
:108FF000BDE8F04FFFF7D2BDD9F800301A1DC9F80F
:10900000002019680197434600960A222846FFF778
:10901000E1FDA2E6D9F800301A1DC9F80020D3F806
:109020000080FB0700F1E880B8F1000F00F0A1819B
:1090300040460BF010FE0746BE4215D9A6B12021CE
:1090400000E08EB1AA682B68501CA8609954D5E93D
:1090500001329A4206F1FF3604D328460391FFF706
:109060009DFD0399BE42ECD108F1FF3818F8016F5D
:10907000002E3FF472AEAB6828680A2E03F101029D
:1090800000EB030100F09081AA600E70D5E9013277
:109090009A42EBD32846FFF781FDE7E7D9F8002095
:1090A000131DC9F80030AB6829681768581C3022B6
:1090B000A860CA54D5E90123934280F0E6802A686B
:1090C000581C7821A860D154D5E90123934280F03F
:1090D000D7800F2F03D93A4612090F2AFCD84FF038
:1090E00080560DE0AA6081F80080D5E901329A42ED
:1090F00002D32846FFF752FD36093FF42EAEAB6887
:10910000B7FBF6F21AF802802868B8F10A0F06FBDE
:10911000127700EB030103F10102E3D1AA6000F82A
:1091200003B0D5E901329A4280F049812B68991841
:109130000132D7E7D9F800301A1DC9F800201968A4
:1091400081EAE173A3EBE173092B40F30E81AA4896
:109150000122A0FB03C3DB08092B02F10102F8DCAA
:109160004245134638BF4346039307F00203002EDF
:1091700040F09580002B00F0B780B8F1000F00F0B0
:10918000F680F80740F1B0800029C0F2FF807A072E
:1091900000F1C88007F00303022B00F0A780CDE99F
:1091A000006743460A222846FFF714FDD5E5D9F8A3
:1091B00000301A1DC9F8002019680197434600962F
:1091C00010222846FFF706FDC7E5AB682A68581C41
:1091D0002521A860D154D5E901329A42FFF4BDADF2
:1091E000D6E6AA6000F803B0D5E901329A423FD230
:1091F000296811440132A9E54146A1EB080311F8A1
:10920000017BD7B1AB68D5F800C00A2F03F101028A
:109210000CEB030000F0AF80AA600770D5E90132C3
:109220009A42EAD328460391FFF7B8FC0399A1EBD1
:10923000080311F8017B002FE4D19E427FF68DAD2B
:10924000202702E0002E3FF488ADA9682A68481C58
:10925000A8605754D5E90121914206F1FF3604D3A5
:1092600028460393FFF79AFC039BB342EAD174E5C7
:109270002846FFF793FCAB6829685A1C194465E53A
:109280002846FFF78BFCAB6823E72846FFF786FCF0
:10929000AB6814E770471846002623468BE5002983
:1092A00020DB7A071ED41BB1B8F1000F3FF46CAF7E
:1092B000F8073FF569AFBEB1039BB342BFF464AF9B
:1092C0002023AA68501CA86028688354D5E90102AD
:1092D000824206F1FF3640D236B1039AB242F0D153
:1092E000164651E7013EDEE700264DE7B8F1000FD4
:1092F0007FF455AF002E6AD0039BB342BFF44FAF4B
:109300003023AA68501CA86028688354D5E901025C
:10931000824206F1FF3618D2002E58D0039AB2428C
:10932000EFD13CE7AA68531CAB602B682B20985404
:10933000D5E901329A42FFF42DAF28460491FFF798
:109340002DFC049926E7034638E52846CDE90413A9
:10935000FFF724FCDDE90413DEE72846CDE904131A
:10936000FFF71CFCDDE90413B6E70122F8E64646E8
:109370000AE7474660E6AA600CF803B0D5E9013277
:109380009A4226D22B689818013245E7AA68531CE6
:10939000AB602B682D209854D5E901329A42C1F177
:1093A0000001FFF4F7AEC8E7AA6000F803B0D5E902
:1093B00001329A4217D229681144013264E62846E4
:1093C000FFF7ECFBA9682B684A1C19448AE60026C3
:1093D000E5E628460391FFF7E1FBA8682B680399AF
:1093E000421C184418E72846FFF7D8FBAB682968E9
:1093F0005A1C194448E600BFCDCCCCCCB45D030068
:1094000010B582B038B1B9B101600B68114602B035
:10941000BDE8104018470B480B4C0C4B0C4A0D494B
:10942000001BC0080E24000440F001000094FDF76A
:1094300093FB0E2002B010BD0248034C034B064ABA
:10944000EDE700BFCC8003007C800300C45D030017
:10945000785E0300805E0300AC5E03002DE9F041FE
:1094600082B0002854D0002A64D0D0F800C0BCF1EB
:10947000000F69D01C46002B33D04768D7F8048012
:10948000B3FBF8F708FB1737002F3CD18F0723D128
:1094900012F0030F53D1C768B94211D23248334C8E
:1094A000334B344A3449001BC0081024000440F0F8
:1094B00001000094FDF750FB204602B0BDE8F081AA
:1094C0004E1E05693444AC42E8D8DCF80C40A44692
:1094D00002B0BDE8F04160472348244C244B274AA2
:1094E000E0E72148214C224B254A2349001BC008B4
:1094F0000924000440F001000094FDF72DFB2046F4
:1095000002B0BDE8F0811848184C194B1D4AECE731
:109510001548164C164B1C4A1749001BC0080E2450
:10952000000440F001000094FDF716FB204602B055
:10953000BDE8F0810C480D4C0D4B144AECE70A488D
:109540000A4C0B4B124AADE7084C0748084B114A2E
:109550000949001BC0080824000440F001000094E1
:10956000FDF7FAFA2046A8E7CC8003007C800300D0
:10957000D85D03007C5F0300805E0300405F030052
:10958000BC5E0300145F0300785E03000C5F030001
:10959000585F0300005F0300F0B583B0002843D09C
:1095A000D0F800C0BCF1000F4ED03AB34768D7F8EE
:1095B00000E00EF1FF370F4231D1C768B94210D237
:1095C00029482A4C2A4B2B4A2B49001BC00810243F
:1095D000000440F001000094FDF7BEFA204603B0FD
:1095E000F0BD4D1E04690EFB0255A542E8D8DCF81B
:1095F0001040A44603B0BDE8F04060471B4C1A4839
:109600001B4B1E4A1C49001BC0080924000440F0E3
:1096100001000094FDF7A0FA204603B0F0BD124807
:10962000124C134B164ACFE7104C0F48104B154AFB
:109630001149001BC0080E24000440F001000094F2
:10964000FDF78AFA2046CAE7084C0748084B0E4A3D
:109650000949001BC0080824000440F001000094E0
:10966000FDF77AFA2046BAE7CC8003007C8003003D
:10967000EC5D0300285E0300805E0300BC5E030017
:10968000005E0300785E0300005F030029DF70477F
:1096900028DF70470846704700207047024B187A51
:1096A000003018BF01207047BC2C0020034B187AF3
:1096B0000122B0FA80F05A7440097047BC2C002097
:1096C00008B510461A460BF092FA002008BD00BFFC
:1096D00008B51422002104480BF0ADFA0348FFF747
:1096E00079F8002008BD00BFBC2C0020AC2C002065
:1096F00010B5094C094B43602046FFF7CBF940B940
:1097000001F0E0FC1C2320748C2205490548FFF77A
:1097100049F8002010BD00BFBC2C0020B45F03003E
:10972000202C0020AC2C002030B55E4C237A87B072
:10973000002B3AD05C4B1B68022222721A79002A55
:109740003ED0012A0CD1D3E903021044FFF7A0FF59
:10975000002849D0112803D10123237207B030BD5E
:1097600019688A68C2B1002268460092C0E90222E4
:109770000325026101959A6805921A79002A4BD057
:10978000012A07D102228DF80020DA681203029222
:109790005B6904938B6898470023444944482372CB
:1097A0006360FFF7A3F807B030BD40494048FFF7BA
:1097B0006FF83D4A034610600028BDD16060F2E7B3
:1097C000D3E90525521BB2F5805F28BF4FF48052C4
:1097D000D3E903109208012A38BF01222944284402
:1097E000FFF754FF0028B5D1227C002ADBD1227A72
:1097F000002AD8D0022A0AD1E0601A79DAB1012A07
:1098000005D1D3E9042101328A421A611FD0637C59
:1098100073B101F047FCC6E701228DF800201A69F8
:109820000292DA6803925B6904938B689847B3E706
:10983000FFF77AFFB7E7D3E90512881AB0F5805F22
:1098400094BF121802F5805291429A61DFD1002232
:10985000227219688868A8B168460092C0E901229E
:10986000C0E903229A6805921A7982B1012A07D1C8
:1098700002228DF80020DA68120302925B690493D9
:109880008B68984709490A48FFF730F8BFE701227B
:109890008DF800201A690292DA6803925B690493DA
:1098A000EEE700BFBC2C0020D42C0020D02C0020E0
:1098B000AC2C00202DE9F04782B08246894617483B
:1098C00001A990461F46FEF7A7FF10B304460021EA
:1098D0001C220D46124E0BF0AEF90A9BC4F800A0F4
:1098E000A360C4E90389676101A925710B48FEF7EC
:1098F000BFFF301DFFF7CEF838B9747C34B9FFF7DD
:1099000013FF204602B0BDE8F087284602B0BDE84C
:10991000F087042002B0BDE8F08700BFAC2C002027
:10992000BC2C00202DE9F04383B081460D4616483B
:1099300001A917469846FEF76FFF08B304461C229C
:1099400000210BF078F9114EC4F8009001232D0B83
:10995000C4E90285676101A923710B48FEF788FFFE
:10996000301DFFF797F838B9747C34B9FFF7DCFE87
:10997000204603B0BDE8F083002003B0BDE8F083CB
:10998000042003B0BDE8F083AC2C0020BC2C0020E8
:1099900000F0FD03012B00D0704730B5604CA0F102
:1099A0000100B0FA80F0237A4009002287B02074C9
:1099B0006274002B3AD05B4B1B68022222721A7928
:1099C000002A3ED0012A0CD1D3E903021044FFF74C
:1099D0005FFE002849D0112803D10123237207B06C
:1099E00030BD19688A68C2B1002268460092C0E999
:1099F00002220325026101959A6805921A79002ACC
:109A00004BD0012A07D102228DF80020DA68120318
:109A100002925B6904938B6898470023424943484C
:109A200023726360FEF762FF07B030BD3E493F48D6
:109A3000FEF72EFF3B4A034610600028BDD1606050
:109A4000F2E7D3E90525521BB2F5805F28BF4FF43A
:109A50008052D3E903109208012A38BF0122294419
:109A60002844FFF713FE0028B5D1227C002ADBD161
:109A7000227A002AD8D0022A0AD1E0601A79CAB123
:109A8000012A05D1D3E9042101328A421A611DD08D
:109A9000637C63B101F006FBC6E701228DF800206C
:109AA0001A690292DA6803925B690493B3E7FFF7DD
:109AB0003BFEB9E7D3E90512881AB0F5805F94BF81
:109AC000121802F5805291429A61E1D1002222726D
:109AD00019688868A8B168460092C0E90122C0E907
:109AE00003229A6805921A7982B1012A07D10222CB
:109AF0008DF80020DA68120302925B6904938B6888
:109B0000984709490948FEF7F1FEC1E701228DF89F
:109B100000201A690292DA6803925B690493EEE707
:109B2000BC2C0020D42C0020D02C0020AC2C0020F9
:109B3000831E012B00D9704730B58E4C237A87B035
:109B4000002B31D0022B2BD103286BD1E3680133DA
:109B5000082B79D9884B00221B68E26022720D2500
:109B600019688A68C2B1002268460092C0E90222E0
:109B7000026101959A6805921A79002A00F0B9806D
:109B8000012A07D102228DF80020DA68120302921E
:109B90005B6904938B68984778497948FEF7A6FE7D
:109BA000637C1BB101F07EFA07B030BD237A002B35
:109BB0005BD0714B1B68022222721A79002A5FD097
:109BC000012A0BD1D3E903021044FFF761FD0028FD
:109BD00069D0112802D101232372E5E719688A6848
:109BE000C2B1002268460092C0E902220325026148
:109BF00001959A6805921A79002A70D0012A07D136
:109C000002228DF80020DA68120302925B69049345
:109C10008B68984700235949594823726360FEF7BF
:109C200065FEC1E7544B00221B68E2601A796AB1F5
:109C3000012AB5D1D3E9042101328A421A6111D037
:109C4000637C002BAED1B4E7E360F9E7D3E90512FA
:109C5000881AB0F5805F94BF121802F580529142C5
:109C60009A61EDD1002525727AE744494448FEF710
:109C70000FFE414A0346106000289CD1606093E7C4
:109C8000D3E90525521BB2F5805FD3E9031028BF45
:109C90004FF480529208012A38BF012229442844F7
:109CA000FFF7F4FC93E7227C002A7FF47DAF227A51
:109CB000002A3FF479AF022A0AD1E0601A7912B380
:109CC000012A05D1D3E9042101328A421A6126D042
:109CD000637C002B7FF466AFFFF726FD64E701226B
:109CE0008DF800201A690292DA6803925B69049386
:109CF0008EE701228DF800201A690292DA68039239
:109D00005B69049346E7D3E90512881AB0F5805FD2
:109D100094BF121802F5805291429A61D8D1002264
:109D2000227219688868A8B168460092C0E90122C9
:109D3000C0E903229A6805921A7982B1012A07D1F3
:109D400002228DF80020DA68120302925B69049304
:109D50008B68984709490A48FEF7C8FDB8E7012211
:109D60008DF800201A690292DA6803925B69049305
:109D7000EEE700BFBC2C0020D42C0020D02C00200B
:109D8000AC2C0020FEF7AABE2DE9F041058ACE1CBE
:109D9000043D2E440746B6FBF5F6FEF7BBFE78B34E
:109DA000F6B24FF48073013E0446C580076083809D
:109DB00027D08046002509E06379AE4203F1010314
:109DC0006371C8F80000076080461AD03846FEF775
:109DD000A1FE01350028EFD16679721E14D023460A
:109DE000013082421B68FBD11F684EB100252368F9
:109DF0002146013538461C46FEF7B4FEAE42F6D188
:109E000000242046BDE8F0812768EFE704300121F7
:109E1000FEF728BEF8B5012104460430FEF72EFEF9
:109E2000C0B200B1F8BD6679721E12D0234601306F
:109E300082421B68FBD11F68002EF3D000252368E7
:109E40002146013538461C46FEF78CFEAE42F6D15F
:109E5000F8BD2768F2E700BF2DE9F843C7884679C7
:109E600007FB06F6043E02EB030C0446664503F1CD
:109E7000040015468846B0FBF7F238BFF51A07FB19
:109E8000120012B1013A2468FCD13E1AAE4228BF3A
:109E90002E469DB14FF000090430AD1B20443246E0
:109EA00008EB09010AF0A3FEAF42B14424683E4624
:109EB0004FF0000028BF2E46002DEDD1BDE8F883FD
:109EC0002DE9F843C7884679154607FB06F6043E98
:109ED00005EB030C1A1D664504468846B2FBF7F0F5
:109EE00038BFF51A07FB102110B101382468FCD1E6
:109EF0007E1AAE4228BF2E469DB14FF000090431B4
:109F00002144AD1B324608EB09000AF070FEAF4257
:109F1000B14424683E464FF0000128BF2E46002D74
:109F2000EDD1BDE8F88300BF8268002393608268AA
:109F30001361826853618268D3608268536082686B
:109F40001360704701600B6843604A68934204BF26
:109F500000234360704700BF436843B102689168C3
:109F60000B4443605268934204BF00234360704730
:109F700030B4184DA5F59472AB1ADB1003EBD37314
:109F80005B1002EBC30152F83330984228BF0C46F5
:109F900005D311E052F8333098420CD221468B1A87
:109FA000DB1003EBD3735B108A4202EBC304F1D3E3
:109FB000094830BC70470D46984204D904F10802A4
:109FC000AA42D9D3F4E76068034B002808BF1846BB
:109FD000EFE700BF28610300EC5F03000A7B10B4C9
:109FE000D1E90043002A0ABF234600220122027160
:109FF00003605DF8044B704710B44FF080414FF0A0
:10A0000080520020C1F80C015E4BC1F81001C1F86C
:10A010003805D2F80414C3F82015D2F80814C3F890
:10A020002415D2F80C14C3F82815D2F81014C3F86C
:10A030002C15D2F81414C3F83015D2F81814C3F83C
:10A040003415D2F81C14C3F84015D2F82014C3F804
:10A050004415D2F82414C3F84815D2F82814C3F8CC
:10A060004C15D2F82C14C3F85015D2F83014C3F89C
:10A070005415D2F83414C3F86015D2F83814C3F864
:10A080006415D2F83C04C3F86805D2F840043E4990
:10A09000C3F86C050968D2F84424C3F87025082970
:10A0A00024D04FF08043D3F80024D20744BF6FF090
:10A0B0000102C3F80024354AD2F8883043F4700313
:10A0C000C2F88830BFF34F8FBFF36F8F4FF010236C
:10A0D000D3F80022002A23DBD3F80432002B1FDB45
:10A0E0002B4B2C4A1A605DF8044B70472A4B1B68B7
:10A0F000002BD6D129482A4A2A4C04602A492B4BE6
:10A10000FB20C2F818050A681B68294822F00F02D4
:10A1100003F00F0313434FF400720B600260C0E7BB
:10A12000244B0122C3F80425D3F80024002AFBD0D5
:10A130004FF0102312221F49C3F80022D1F8003437
:10A14000002BFBD04FF0102212211A4BC2F8041240
:10A15000D3F80024002AFBD000221649C3F80425B6
:10A16000D1F80034002BFBD0BFF34F8F0749124BBF
:10A17000CA6802F4E0621343CB60BFF34F8F00BFA5
:10A18000FDE700BF00C000403001001000ED00E01E
:10A19000E82200200090D003340100108C560040CB
:10A1A00000F0004048810300E40E00405802001017
:10A1B0004096024000E001400400FA05054A137988
:10A1C0002BB9012110605371184611717047852019
:10A1D000704700BFD82C0020074B1A68D20704D460
:10A1E000C021012283F800131A604FF0804301223E
:10A1F000C3F81825704700BF00E100E010B4094B18
:10A20000094A0021196083B01B680193019C4FF03B
:10A21000804102200123C1F80403136003B05DF8FC
:10A22000044B70470401004008000040044B012229
:10A230001A604FF08042D2F81834DB03FBD4704729
:10A240000C00004010B5154B1A6882B07AB100219D
:10A25000134A19601B68507900934FF08041012325
:10A26000009CC1F8083310B91168537188470D4B31
:10A270001A6882B100221A601B6801934FF0804275
:10A280000221074B0198C2F808131B68012002B095
:10A29000BDE81040184702B010BD00BF00010040EB
:10A2A000D82C0020040100402DE9F047002388B09D
:10A2B000CDE90233CE4A1668012E00F03B821E46DD
:10A2C000CC4B1A68012A00F02782CB4B1A68012A6E
:10A2D00000F01482C94B1A68012A00F00182C84BB1
:10A2E0001A68012A00F0EE81C64B1A68012A00F0B4
:10A2F000DB81C54B1A68012A00F0C881C34B1A687C
:10A30000012A00F0B581C24B1A68012A0FD1002240
:10A310001A601B6801934FF0A042019BD2F81025F0
:10A32000BC4B0292D3F81035039346F0004616F06A
:10A33000FF0F1AD0B84F00240125A30003F180437A
:10A340002E4203F5C0434FEA45050BD0D3F8100564
:10A3500057F82420D3F81015C0F30520C1F30141AC
:10A3600002B190470134082CE7D1002E02DB08B07F
:10A37000BDE8F087A84CA74F4FF0FF33CDE9063377
:10A3800094F960300DF1100800225D1CC8F804201B
:10A3900004924FF0010600F0F4805FFA83FC2CF089
:10A3A000C00008AB4FEAD00903EB090E0CF007031D
:10A3B0001EF8082C06FA03F312EA030521D022182E
:10A3C0004FEA9C1192F9302054F82220002A00F024
:10A3D0002981032900F028811F2800F2F980054611
:10A3E0004FF0A04C0CEB850C1EF8185CDCF800E775
:10A3F0001D40CEF3014E40F0DF80BEF1030F00F0B0
:10A40000BF8194F96130581C32D0DBB223F0C00018
:10A4100008AA4FEAD00E02EB0E0C03F007011CF85D
:10A42000082C06FA01F912EA090F21D0221899091D
:10A4300092F9302054F82220002A00F0FB800329F2
:10A4400000F0FB801F2800F2E98003464FF0A04E89
:10A450000EEB83031CF818ECD3F800C71EEA090FB3
:10A46000CCF3014C40F0B880BCF1030F00F0AE819A
:10A4700094F96230591C30D0DBB223F0C00008AA36
:10A480004FEAD00E02EB0E0C03F007011CF8082C6B
:10A4900006FA01F912EA090F1FD02218990992F958
:10A4A000302054F82220002A00F0D880032900F040
:10A4B000D8801F287CD803464FF0A04E0EEB8303B4
:10A4C0001CF818ECD3F800C71EEA090FCCF3014CB6
:10A4D00064D1BCF1030F00F0658194F963305A1C1C
:10A4E00034D0DBB223F0C00008AA4FEAD00E02EB52
:10A4F0000E0C03F007021CF8081C06FA02F21142C7
:10A5000024D004EB0009990999F9309054F8299066
:10A51000B9F1000F00F09880032900F098801F28FF
:10A520008BBFBE464FF0A04E03F01F0303460EEB59
:10A5300083031CF818ECD3F800C71EEA020FCCF313
:10A54000014C20D1BCF1030F00F00181002D3FF43C
:10A550000EAF4FF0A0430299D3F81035D7F810256D
:10A56000994203D1039991423FF401AFDDE904011F
:10A57000CDE9023294F960305D1CCDE906017FF42B
:10A580000CAF00253DE7BCF1020FDFD1032900F03D
:10A590003481B9F1000F40F0F180D7E7BCF1020F30
:10A5A0009BD1032900F02681002A96D0904794E79A
:10A5B00003F01F03BE4681E7BEF1020FE1D103297C
:10A5C00000F021810025002A3FF41BAF904718E7D7
:10A5D0000CF01F05BC4605E7BCF1020F7FF448AF45
:10A5E000032900F00D81002A3FF442AF90473FE776
:10A5F0000061004004610040086100400C610040BF
:10A600001061004014610040186100401C6100406E
:10A610007C61004000030050E02C002003F01F0389
:10A62000BE4615E70329ACD118F809501D4308F8B8
:10A630000950D1E603297FF41BAF18F80EA04AEAAF
:10A64000090A08F80EA0FDE603297FF47FAF18F889
:10A650000EA04AEA020A08F80EA060E703297FF478
:10A660003CAF18F80EA04AEA090A08F80EA020E745
:10A67000664AD2F8042317067FF545AE00221A6019
:10A680001B680093009B46F080063CE65F4AD2F8C8
:10A69000042352067FF532AE00221A601B68009335
:10A6A000009B46F0400629E6584AD2F8042391065A
:10A6B0007FF51FAE00221A601B680093009B46F0D6
:10A6C000200616E6514AD2F80423D0067FF50CAED8
:10A6D00000221A601B680093009B46F0100603E6F8
:10A6E0004A4AD2F8042314077FF5F9AD00221A6014
:10A6F0001B680093009B46F00806F0E5434AD2F839
:10A70000042355077FF5E6AD00221A601B6800930D
:10A71000009B46F00406DDE53C4AD2F80423970787
:10A720007FF5D3AD00221A601B680093009B46F0B2
:10A730000206CAE53549D1F8041311F0010104D02D
:10A74000136013680093009BBAE50E46B8E5032931
:10A750007FF41FAF4FF4003CD3F8002722F44032BF
:10A76000C3F80027D3F80027013542EA0C02EDB206
:10A77000C3F80027B9F1000F3FF4EBAEC847E5E698
:10A7800003297FF420AF4FF40035DCF8003723F4C1
:10A790004033CCF80037DCF800372B43CCF80037D7
:10A7A000012510E703297FF4FFAE4FF4003ED3F8F4
:10A7B00000C72CF4403CC3F800C7D3F800C70135EC
:10A7C0004EEA0C0CEDB2C3F800C7EDE603297FF4A6
:10A7D0000AAF4FF4003ED3F800C72CF4403CC3F856
:10A7E00000C7D3F800C701354EEA0C0CEDB2C3F830
:10A7F00000C7F8E64FF4403ED9E74FF4403CABE7E2
:10A800004FF4403EE7E74FF44035BEE700600040BC
:10A81000014B1B68184700BF4C2D0020104B98427D
:10A8200001D00020704730B583B002A8002300F8A3
:10A83000013D0D46FCF70CFD0A4B1C7934B19DF827
:10A840000700FCF72BFD112003B030BD01229DF85D
:10A8500007001D601A71FCF721FD2046F4E700BFD8
:10A86000002000404C2D0020B84B1A6812F0010265
:10A8700001D11046704730B5B54D2B7883B00446F2
:10A8800063B1B44B1B780020287023B300F0BAFDED
:10A89000012000F0B7FD032000F0B4FD172C00F2FA
:10A8A0005381DFE814F0BC00E100E100FE00D100BC
:10A8B0000E01F4001D0129001B0029001B00680087
:10A8C0006F006F006F006F006F009300A6003100F3
:10A8D00049006200620000F0A9FDDFE7012318468D
:10A8E0002B7000F0D3FD00224FF400719A4803B0A2
:10A8F000BDE8304002F030BD012318462B7000F057
:10A90000C5FD00226621F1E7924B1B78002B00F079
:10A910000381002000F076FD012000F073FD03208C
:10A9200000F070FD012000F059FD8C4B14221A70CC
:10A930000022104603B030BD864B1B78002B00F080
:10A94000EE80002000F05EFD012000F05BFD0320A2
:10A9500000F058FD002000F041FD012000F03EFD18
:10A960007E4B15221A700022E3E700F077FD7B4B47
:10A9700000221C70DDE700F071FD784B0C221A708C
:10A980000022D6E7764802F049FD0246D4F11100D4
:10A9900000F0AE80002A40F0AB8001280DD04FF4CB
:10A9A000483101FB00F16F4B6D4801F5FA71A3FBD3
:10A9B0000131890902F0D0FC02460220019200F028
:10A9C0000DFD644B019A01211970B2E7614B1B78B0
:10A9D000002B00F09E80002000F014FD012000F00C
:10A9E00011FD032000F00EFD5C4B12221A700022B4
:10A9F0009FE7584B1B78002B00F08380002000F06D
:10AA000001FD012000F0FEFC032000F0FBFC002013
:10AA100000F0E4FC514B13221A70002289E74D4BE1
:10AA20001B78002B7ED0002000F0ECFC012000F011
:10AA3000E9FC032000F0E6FC474802F0EFFC474B3E
:10AA400000210246197074E7002000F0B3FC0028D2
:10AA50005AD0002000F0D6FC4FF480513F4B3E48C6
:10AA6000042400221C7042E7002000F0A3FC002810
:10AA70005FD0002000F0C6FC022C40F2337118BFFA
:10AA80004FF48051354B34481C7000222FE70020D2
:10AA900000F0FCFC314B30480624002266211C707B
:10AAA00025E7002000F086FC00283ED0002000F0C2
:10AAB000A9FC40F23331294B2748032400221C70A3
:10AAC00015E7002000F076FC00283AD0002000F0C6
:10AAD00099FC224B204805240022CD211C7006E75A
:10AAE000002000F07BFC1D4B07221A70002220E79B
:10AAF0000220019200F086FC164B019A0021197089
:10AB000017E700F093FC82E700F068FC4FF4CD718A
:10AB1000A4E700F08BFC67E700F088FC02E700F098
:10AB200085FC17E700F082FC86E700F057FCCD219A
:10AB3000C1E700F053FC022C14BF4FF4CD71CD21BE
:10AB4000A0E700F04BFCC4E70022F2E69C2D0020B9
:10AB5000A02D0020542D0020782D0020A12D0020B4
:10AB6000582D0020D34D621070B9012A08D0012958
:10AB700011D00BD3022907D1094B00205A7070471E
:10AB8000012907D00246F2E707207047044B002056
:10AB90009A7070470E22024B00201A70704700BF57
:10ABA000982D0020C8B908B500F08AFC1F2886BF80
:10ABB0000B4B00F01F004FF0A04303EB800300207D
:10ABC000D3F8002722F44032C3F80027D3F8002737
:10ABD00042F44032C3F8002708BD0620704700BF8A
:10ABE0000003005010B50388102B07D0112B04D19F
:10ABF000254B18680138186030B110BD224C21680F
:10AC000081B10131216010BD01220221FFF7ACFFAB
:10AC100038B3072825D01D4B1B68002BEDD0BDE8AD
:10AC20001040184701220846FFF79EFF38B1072859
:10AC300005D0164B1B6803B198472168E1E707224E
:10AC400002210120FFF790FF08B10728F1D104226B
:10AC500002210020FFF788FF0028EED00728E8D166
:10AC6000EBE7072202210120FFF77EFF08B107284A
:10AC7000D1D1002108460A22FFF776FF0028BCD078
:10AC80000728C8D110BD00BFA82D0020A42D00208A
:10AC900008B50020FFF786FF10B1062800D008BDD8
:10ACA0000120FFF77FFF0028F9D0062808BF002009
:10ACB00008BD00BF2DE9F84F4400DFF85CB126184D
:10ACC0000BEBC6068146F76A012F8A46904667D08D
:10ACD0003DD3022F30D100F1010909EB4909756A12
:10ACE0004FEAC9090027B36A346AAB4203F1FF3265
:10ACF0009CBF1B1903F1FF33A4EB05048CBF531B4E
:10AD00005B1B0BEB0902444528BF44469C4250683C
:10AD100028BF1C4628445146224609F068FF336A82
:10AD200025449D422744A8EB0408A24408D075623C
:10AD3000B8F1000FD7D100E000273846BDE8F88F02
:10AD400000231D467362B8F1000FCCD1F5E7B36A5A
:10AD5000756AAB429CBF326A9B18013B5B1B9845EE
:10AD6000EBD8044400F101090BEBC40409EB4909D9
:10AD70000BEBC90B266ADBF80400761BB0452844B0
:10AD800043D33246A8EB060509F031FF0AEB060172
:10AD9000DBF804002A4609F02AFF47466562CCE743
:10ADA000D6E90825B76AAF4298BFBF18461C013FD5
:10ADB00006EB46067F1B0BEBC606474528BF4746FA
:10ADC0007068A2EB05084745284412D3A1444246C7
:10ADD000A7EB08050BEBC90B09F009FF0AEB08010B
:10ADE00070682A4609F003FFCBF824503846BDE8C6
:10ADF000F88FA1440BEBC90B3A463D4409F0F7FE2E
:10AE0000CBF824503846BDE8F88F4246454409F057
:10AE1000EEFE4746656290E7C0B8002038B5114C99
:10AE2000114B1248E36110254FF40073104A114989
:10AE30002362E06400232565E01D0225A3626362AE
:10AE4000E362A3656365E365A261A264C4E9045596
:10AE500009F0F9FE2046084909F0F5FE2023A37108
:10AE600038BD00BFC0B80020BC2D0020AC2D002094
:10AE700038650300446503004865030010DF704730
:10AE800011DF704700B583B068460849FFF75AF8EC
:10AE9000019B43B1D3E9002090476846FFF75CF877
:10AEA000019B002BF6D103B05DF804FB6065030045
:10AEB00070B53B4D2B7884B0002B63D1394E3A49A5
:10AEC000012302A83370FFF73DF8039B002B4FD1FD
:10AED000364902A8FFF736F8039B4BB1D3E90021AE
:10AEE0000020904702A8FFF737F8039B002BF5D10D
:10AEF0002F4A002312688DF8083002A80192FCF74F
:10AF0000A7F92C4901A8FFF7B9FFB0FA80F304466E
:10AF10005B099DF808002B70FCF7C0F9002C2ED1BE
:10AF2000254B26491C70347091F81623EC235209E6
:10AF30001341DB072FD5224B9A683ABB4FF48003AD
:10AF40000B601A4902A8FEF7FDFF039BBBB1D3E9D2
:10AF500000210120904702A8FEF7FEFF039B002B73
:10AF6000F5D10CE002A8FEF7F7FF039B002BAFD052
:10AF7000D3E90021002090470028F3D10446204661
:10AF800004B070BD0824204604B070BD1A6842F4B5
:10AF900080021A60D5E742F20200FCF7A7F8D0E77A
:10AFA000BD2F0020BC2F0020546503006C650300FA
:10AFB000506503000D710200BE2F002000E100E08B
:10AFC000B4B80020F0B5314D2B7883B0002B54D0AD
:10AFD0002F4E3049012368463370FEF7B3FF019BC3
:10AFE000002B40D12C496846FEF7ACFF019B4BB1CA
:10AFF000D3E90021022090476846FEF7ADFF019B90
:10B00000002BF5D1002768468DF80070FCF720F979
:10B01000FFF736FF04469DF800002F70FCF73EF95D
:10B0200044BB1E4B34709A685ABB1D4B4FF48002D0
:10B03000C3F8802018496846FEF784FF019BCBB116
:10B04000D3E90021032090476846FEF785FF019B66
:10B05000002BF5D1204603B0F0BD6846FEF77CFF1B
:10B06000019B002BBED0D3E900210120904700288E
:10B07000F3D10446204603B0F0BD0824204603B0B7
:10B08000F0BD1A6822F480021A60D3E7BD2F0020B9
:10B09000BC2F0020546503006C650300B4B8002089
:10B0A00000E100E0054B1B7833B1054B1B780BB971
:10B0B000FFF7FEBEFFF786BF08207047BC2F0020B9
:10B0C000BD2F0020014B1878704700BFBD2F002016
:10B0D000002108B50846044AFCF750F800B908BD3D
:10B0E000BDE80840FCF702B885AE020060DF70479B
:10B0F00069DF704761DF7047134B1B781BB330B5B6
:10B10000124D91B034240DF1020103A8ADF80240B4
:10B11000FFF7F0FF88B9294601A8FEF713FF029B4D
:10B12000002BF0D0D3E9002103A8904701A8FEF737
:10B1300013FF029B002BF5D1E5E7052801D0FBF7B3
:10B14000D5FF11B030BD7047BF2F0020B867030096
:10B15000002900F0A68070B5534B0B6084B00C46FC
:10B1600005460C22002101A809F065FD01260623F1
:10B1700001A922688DF8045020208DF80660ADF8F2
:10B180000830FFF7B5FF00287DD10C22002101A86F
:10B1900009F051FD012100238DF8051022688DF87A
:10B1A000063001A940208DF80730FFF7A1FF0028E5
:10B1B0005BD10C22002101A809F03DFD002322688B
:10B1C0008DF8043001A90120FFF792FF00283ED13D
:10B1D0000C22002101A809F02EFD4FF4B063226873
:10B1E000019301A9A120FFF783FF10BB0C220021CE
:10B1F00001A809F020FD9DF8043022686FF30003D8
:10B2000001A9A0208DF80430FFF772FF08B904B03F
:10B2100070BDFEF7ADFE254A254B26499B1ADB087B
:10B220001B04024643F00100FBF794FB002004B02E
:10B2300070BDFEF79DFE1D4A1D4B1F499B1ADB0882
:10B240001B04024643F00100FBF784FBCEE7FEF748
:10B250008FFE164A164B19499B1ADB081B0402463F
:10B2600043F00100FBF776FBB2E7FEF781FE0F4AE1
:10B270000F4B13499B1ADB081B04024643F00100E5
:10B28000FBF768FB95E7FEF773FE084A084B0D498C
:10B290009B1ADB081B04024643EA0600FBF75AFB35
:10B2A00073E70E20704700BFE02200207C8003007F
:10B2B000DC800300B46603006066030014660300CC
:10B2C000C865030080650300F8B506460768FFF708
:10B2D0000DFF3368BB42054605D825BB1A4B01223A
:10B2E0001A702846F8BD194B194C1A49E41AE4089B
:10B2F000240444F002042046FBF77EF93A46204637
:10B3000033681549FBF7A6FB4FF080533268D3F83A
:10B310000C3112499B0203F1005320469A1AFBF7A5
:10B3200019FB002DDAD02846FEF722FE074A084B0B
:10B330000B499B1ADB081B04024643F00100FBF794
:10B3400009FB2846F8BD00BFBF2F00207C8003000A
:10B35000DC80030008670300386703006C670300A4
:10B36000986703004BDF704710B5114C84B001A8FB
:10B37000FFF7F8FFA8B9214602A8FEF7E3FD039BFB
:10B38000002BF4D0D3E900210198904702A8FEF7E2
:10B39000E3FD039B002BF5D101A8FFF7E3FF002895
:10B3A000E9D0052801D0FBF7A1FE04B010BD00BF15
:10B3B000D0670300074B1B5C1F2B8ABF064A4FF068
:10B3C000A04203F01F03D2F80405D840C04300F0A8
:10B3D00001007047E867030000030050074B1B5C47
:10B3E0001F2B86BF03F01F0305494FF0A041012228
:10B3F00002FA03F3C1F80C35704700BFE867030099
:10B4000000030050074B1B5C1F2B86BF03F01F037C
:10B4100005494FF0A041012202FA03F3C1F80835B3
:10B42000704700BFE86703000003005030B44FF0DE
:10B43000A043094940254FF480744FF400704FF445
:10B440008052C3F80855C3F80845C1F80805C3F889
:10B45000082530BC704700BF0003005030B44FF0E7
:10B46000A043094940254FF480744FF400704FF415
:10B470008052C3F80C55C3F80C45C1F80C05C3F84D
:10B480000C2530BC704700BF000300500A4B195C0C
:10B490001F298ABF09484FF0A04001F01F01D0F8D2
:10B4A000043501228A4022EA03011340C0F808153E
:10B4B000C0F80C35704700BFE86703000003005078
:10B4C00026207047C30706D4830742BF2E4B0C22A9
:10B4D000C3F81827704770B44FF08043D3F8403654
:10B4E000DA0722D44FF0A0432749032240264FF425
:10B4F00080754FF40074C3F81827C3F82027C1F8EB
:10B500002427C3F83027C3F808654FF48052C3F8E6
:10B510000855C1F808458107C3F8082503D51A4B1B
:10B520000C22C3F8182770BC70474FF01023D3F8D3
:10B53000043303F00703072BD4D1144B0122C3F8C3
:10B540000425D3F80024002AFBD04FF0102100205E
:10B55000D1F804230D4C22F0070242F00402C1F896
:10B560000423C3F80405D4F80034002BFBD0BFF348
:10B570004F8F0749074BCA6802F4E0621343CB6060
:10B58000BFF34F8F00BFFDE70003005000E0014014
:10B5900000ED00E00400FA0538B5430704461CBF7F
:10B5A00020F00704083401F081F80E4A136873B1E3
:10B5B0000D4A156847F6F6712C448C420CD8A5420A
:10B5C0000AD21D44146001F01DF9284638BD074B0E
:10B5D00023F007031360EBE7002501F013F9284679
:10B5E00038BD00BFC02F0020C4AF0020CC2F0020EA
:10B5F000704700BF00F108034FF0FF310022816067
:10B6000002604360C0E90333704700BF0023036159
:10B61000704700BF43684B609A688A609A685160BF
:10B6200099600861036801330360704730B40D68A6
:10B630006B1C11D000F1080200E01A4653681C6828
:10B64000AC42FAD94B6099608A6051600861036826
:10B650000133036030BC704702695368F2E700BFF2
:10B66000D0E9012103699160D0E9011251605A6863
:10B67000824204BF82685A60002202611A68013A5D
:10B680001A601868704700BF0748006880F3088890
:10B6900062B661B6BFF34F8FBFF36F8F4FF4F07098
:10B6A00080F3118800DF00BF00600200064B1968BC
:10B6B0000868B0E8F04F80F30988BFF36F8F4FF050
:10B6C000000080F311887047CCAF0020EFF30980B1
:10B6D000BFF36F8F144B1A681EF0100F08BF20EDD8
:10B6E000108A20E9F04F10604DF8043D4FF0400003
:10B6F00080F31188BFF34F8FBFF36F8F01F0DCF938
:10B700004FF0000080F3118808BC19680868B0E8A1
:10B71000F04F1EF0100F08BFB0EC108A80F30988BC
:10B72000BFF36F8F704700BFCCAF0020402383F37F
:10B730001188FEE730B46FF002034FF08075074CBC
:10B7400040F8081C40F8202C40F8045C40F80C4CF1
:10B7500040F8243C30BC4438704700BF2DB702008D
:10B760000F4C08B5E02384F8223000F075F80D4B3B
:10B770000D4A00211960D4F8883043F47003C4F8EE
:10B780008830536843F040435360236943F010030B
:10B790002361FFF779FF402383F31188FEE700BFA1
:10B7A00000ED00E0C8AF002030EF00E0402383F35D
:10B7B0001188024A1368013313607047C8AF002034
:10B7C000034A1368013B13600BB983F31188704778
:10B7D000C8AF002041DF704770B51B4B00251D60CE
:10B7E00082B01B680193019BEFF31186402383F322
:10B7F0001188164A164BD2F804451D601B68009349
:10B80000009B00F05BFF241A24F07F44012C0DD82C
:10B8100044B100F067FF054625B10E4B4FF0805252
:10B820005A6040BF86F3118802B070BD01F0C0FAC3
:10B830000228EED1013C00F055FF013C631C45EAB3
:10B840000005F8D1E8E700BF4011014000100140B9
:10B850000011014000ED00E038B5002001F0B6FE17
:10B860000A4B0B480B4901221F24C3F80845022547
:10B87000C3F80423E02402604FF400301A60C3F8D8
:10B88000445381F81143086038BD00BF00100140E7
:10B890000810014000E100E02DE9F041804684B04D
:10B8A000EFF3108272B6404CA36883B93F4B404817
:10B8B0000121A160D3F8801001402160C3F880000D
:10B8C000D3F8841061604FF0FF31C3F8841002B9DF
:10B8D00062B6384DD5F8047501F050FA00283BD017
:10B8E000354E364A464528BF4646BB190121C5F8A4
:10B8F000081323F07F430021C5F840351160136819
:10B9000001934FF48033019AC5F80433BFF34F8F8E
:10B91000B8F1000F34D1274B2848294A4FF4803121
:10B92000C3F80813002101600068039003981160B8
:10B930001268029201220299C3F80423D3F8040585
:10B940001A4BC01B20F07F40B0424FF4003228BF9A
:10B950003046C3F8802180B9A3685BB1EFF3108251
:10B9600072B6124B21681960616859600023A360A8
:10B9700002B962B604B0BDE8F08100F0ABFEEBE7BF
:10B98000FFF7A0FB40B9094B20BFD3F80011D3F853
:10B9900004210A43F8D0BEE7FFF71CFF0028BAD005
:10B9A000FBF7A4FBB7E700BFB4B8002000E100E05C
:10B9B000FC06FFBD00100140FDFFFF0040110140EB
:10B9C0000011014070B506460D4651B100FB01F073
:10B9D0004830FFF7E1FD044658B300F14803036027
:10B9E00005E04820FFF7D8FD044610B32460C4E901
:10B9F0000F65FFF7DBFED4E90F132268A26001FB9D
:10BA000003F1CB1A134400200A44FF21A063E36032
:10BA100084F84410626084F8451004F11000FFF7C8
:10BA2000E9FD04F12400FFF7E5FDFFF7C9FE20461C
:10BA300070BD0024204670BD2DE9F04F044685B04E
:10BA40001D4601928846FFF7B1FEA26BE36BA84F3B
:10BA50004FF000099A424E46C0F08B80022D00F054
:10BA600006810198002800F03081B9F1000F00F044
:10BA70009580FFF7A5FE00F019FEFFF797FE94F8FA
:10BA80004430FF2B08BF84F8446094F84530FF2B06
:10BA900008BF84F84560FFF793FE01A902A801F0F2
:10BAA0002FF9002840F01881FFF780FEA26BE36BAE
:10BAB0009A4277D0FFF784FEFFF778FE94F845307E
:10BAC0004FFA83FABAF1000F1ADD636AC3B104F1C9
:10BAD000240907E00AF1FF33DBB24FFA83FA7BB1A6
