:020000022000DC
:1060000000000420B5620200DD620200BD890200CA
:10601000E1620200E3620200E562020000000000AB
:1060200000000000000000000000000029A602009F
:10603000E96202000000000049A60200ED620200D1
:10604000E9C80200EF620200B5CE0200A94B0300CE
:10605000EF620200EF6202004DC90200EF6202002F
:10606000EF620200EF620200EF620200EF620200E4
:10607000EF620200EF620200EF620200EF620200D4
:10608000EF62020055A70200EF620200EF62020019
:10609000EF620200EF620200BD4A0300EF620200FD
:1060A000EF620200EF620200EF620200EF620200A4
:1060B000EF620200EF62020000000000000000003A
:1060C000EF620200EF620200EF620200EF62020084
:1060D000EF620200EF620200EF620200EF62020074
:1060E000EF620200EF620200EF62020000000000B7
:1060F00000000000EF62020000000000EF620200FA
:10610000000000000000000000000000000000008F
:10611000000000000000000000000000000000007F
:10612000000000000000000000000000000000006F
:10613000000000000000000000000000000000005F
:10614000000000000000000000000000000000004F
:10615000000000000000000000000000000000003F
:10616000000000000000000000000000000000002F
:10617000000000000000000000000000000000001F
:10618000000000000000000000000000000000000F
:1061900000000000000000000000000000000000FF
:1061A00000000000000000000000000000000000EF
:1061B00000000000000000000000000000000000DF
:1061C00000000000000000000000000000000000CF
:1061D00000000000000000000000000000000000BF
:1061E00000000000000000000000000000000000AF
:1061F000000000000000000000000000000000009F
:1062000010B5054C237833B9044B13B10448AFF3F0
:1062100000800123237010BD142500200000000021
:10622000EC90030008B5034B1BB103490348AFF3DF
:10623000008008BD0000000018250020EC9003003D
:10624000154B002B08BF134B9D46A3F5803A002148
:106250008B460F461348144A121A0FF0D0FA0F4B10
:10626000002B00D098470E4B002B00D09847002001
:10627000002104000D000D48002802D00C48AFF3A7
:1062800000800FF045FA200029000FF007F90FF009
:106290002BFA00BF000008000000042000000000EE
:1062A00000000000142500209CB900200000000020
:1062B000000000000649074A074B9B1A03DD043B18
:1062C000C858D050FBDC04F043F8FFF7B9FF0000DA
:1062D000AC930300E022002014250020FEE7FEE737
:1062E000FEE7FEE7FEE7FEE7FEE7FEE7FEE7FEE786
:1062F000704700BF00B583B0044B0093044A4023AD
:1063000000F036F803B05DF804FB00BF156302002F
:106310003425002002B32DE9F843114B114E884675
:10632000144643F0010903270025224608EB050126
:10633000002007F035FD03461D444FF47A40E41A6F
:1063400023B9337833B1C847013F06D001233370F6
:10635000002CEAD1BDE8F88370473770BDE8F883B8
:106360003068030030250020704700BF07F0CCBD27
:10637000F0B595B0002415460F4608461E4603F0BA
:10638000FFFE384623460895082205A91A9D09965E
:106390000D950A948DF82C400C9403F04BFF9DF85A
:1063A00014308DF81140DDE9061003F00302012AD4
:1063B000CDE9020127D0022A04D0384603F0E4FEDA
:1063C00015B0F0BDBDF81650C3F3C2038DF8103000
:1063D000AD090826082D2C4628BF0824334622463E
:1063E0000EA9384603F026FF2D1B214608AB02AA52
:1063F0000EA8264400F068FE002DEBD1384603F0CD
:10640000C3FE15B0F0BDBDF81460059DC6F383163C
:10641000C3F3C204B2000EA9384608238DF8104019
:10642000C5F3952503F006FF08AB324628460EA9B2
:10643000009302AB00F0A2FD384603F0A5FE15B0B4
:10644000F0BD00BF014B01221A707047B825002033
:10645000704700BF00B583B0044B0093044A40234B
:10646000FFF786FF03B05DF804FB00BF7564020010
:106470007825002038B50E480E4D03780E4CEB5CA5
:106480000025D2B2257053B90C3006F099FF58B9E7
:106490000A4B1B7813B12378002BFCD038BD043095
:1064A00007F006FA0028F3D000F0BEFEF0E700BFC8
:1064B000E02200201CB90020B8250020742500200F
:1064C00070B51348134A0378D35C88B0DBB90C303D
:1064D00006F0F8FE104D0FCD6C460FC495E80F0086
:1064E00008AD062645F8206D84E80F0029460022F5
:1064F000074806F071F908B100F096FE074B00223C
:106500001A7008B070BD043007F052F9E2E700BF1E
:10651000E02200201CB900204468030074250020FC
:1065200070B50D4D0FCD88B06C460FC495E80F00C7
:1065300008AD062645F8206D84E80F002946074A75
:10654000074806F049F908B100F06EFE054B01223C
:106550001A7008B070BD00BF4468030045640200B3
:10656000E02200207425002038B50A4DFFF7FEFE1A
:106570000421284600F0B8FC074B01245C71FFF7AA
:10658000CFFF05F11000042100F0AEFC034B5C715D
:1065900038BD00BF4C920300F4220020FC220020F2
:1065A000F0B5324C85B004F5836002F039FC04F29A
:1065B000144002F035FCD4E9013703EA0702D01C8D
:1065C00004EB800114F8200010F0040044D003F123
:1065D000020C0E7806F00306012E654635D0022E19
:1065E00002F1030621D004EB86010028F1D104EB6F
:1065F00082020133D26801923B4004EB830302F034
:106600000302012ADE6829D0022A23D1BDF8063010
:106610009B090333360C05EB9305154802F00CFC7F
:1066200000B16560304605B0F0BD4B880CEB9313AC
:1066300007EA0302D11C03F1020C14F8210065469D
:1066400004EB810100F00400CFE70B88C3F3831350
:106650006344EDE70026E0E79D1CC8E7BDF8043081
:10666000C3F38313360C1D44D7E700BF8C260020EC
:10667000A02A00200B4B0C4810B50022FF21C3F8C4
:1066800018249960C3E90022C3F8142483F8202455
:1066900003F032FD044610B9044803F0FFFD204624
:1066A00010BD00BF8C260020709103009468030089
:1066B00021B9124B03EBC00000687047104A0F4924
:1066C000521AD20815D030B40E4D2B88834212D006
:1066D000002303E035F82340844205D001339A4279
:1066E000F8D1002030BC704701EBC300006830BC1B
:1066F0007047104670470846F8E700BF84910300D2
:106700004C92030014250020094B013903EBC00013
:1067100003290BD8DFE801F00208060402207047C5
:106720004079704700797047042070470020704717
:10673000849103002DE9F04383B002AB002203F8FB
:10674000012DDFF8DC90074618468846D9F8084046
:1067500000F08AFED9E90132D9F800601344013310
:106760009B1B012B58D809F21C450121284602F039
:1067700033FBFFF715FF0146284602F02DFBD9E950
:106780000132D9F80010134401335B1A012BECD904
:106790000A400332052302319DF8070049F82230F0
:1067A000C9F8001000F086FE00211C4802F0DAFA59
:1067B00080F31000731C234009EB83030004344072
:1067C000033440EA1740D86019F8243067F3C50352
:1067D00009F8243039F824306FF3891329F824306C
:1067E00059F8242068F39F221346012161F3010325
:1067F0006FF3820349F8242009F8243099F82034F3
:106800001BB906E000F00EF818B1D9E900329A423F
:10681000F8D103B0BDE8F0833146B9E7A82A0020DB
:106820008C2600202DE9F047934C002384B0C4F857
:106830001834BFF34F8FD4E9015605EA0602D31C82
:1068400004EB830114F82330580719D527680B7817
:1068500003F00303012B43D0022B03D14B880235F5
:1068600005EB931506EA0502D4F81804D31C04EBD3
:10687000830128B9AF4239D914F823305B07E6D435
:1068800004EB82026B1CD2680192334004EB830359
:1068900002F00302DB680293022A05F1020700F00E
:1068A0008D80012A26D0D4F810543DB12B6828469B
:1068B0009B689847EB681D68002DF7D16F48704BB7
:1068C0007049C01AC008000440F00200FFF732FF10
:1068D000D4E90030C01A18BF012004B0BDE8F08729
:1068E0000B880235C3F383131D44BBE7676004B014
:1068F000BDE8F087BDF804206348C2F38313062B7C
:1069000028BF062363F3891202339900ADF80420EF
:1069100003F0F4FB80460028C5D003F031FC0023CF
:10692000082201A9404603F051FCBDF8043013F4DD
:10693000707F00F09F806FF0010AAAEB050A08251E
:1069400006EA070103312B46042204EB810140468D
:1069500003F03CFCBDF8043007F101090AEB090221
:10696000C3F3831393424F4605F10405E8D8D4F8E6
:106970001834002B68D1D4F8105465B1EB685A79FB
:1069800028464146002A5BD02B681B689847EB6875
:106990001D68002DF2D1404603F0F6FB04A8002349
:1069A00000F80D3D00F060FDD4F818340BB9C4F8C0
:1069B00004909DF8030000F07DFD89E7BDF80630E6
:1069C00031484FEA93194D46502D28BF502565F3A5
:1069D0008F1305F10801ADF8063003F08FFB8046F8
:1069E00000283FF460AF26EA070A0AF1010A03F023
:1069F000C7FB4FEA8A0A0023082201A9404603F098
:106A0000E5FB55452BD9EBB2BAF1000F20D006EAD1
:106A10000701A3EB0A03033104EB8101DDB2524607
:106A20000823404603F0D2FB2A460AF1080317491F
:106A3000404603F0CBFB09F1030907EB990996E700
:106A40001D68002D9AD1A6E7404603F09DFB3FE765
:106A50002A4608230D49404603F0B8FBEBE706EA57
:106A60000701033104EB81012A460823404603F065
:106A7000ADFBE0E7B9467AE78C260020B49103002D
:106A800084910300A0680300709103009826002001
:106A90002DE9F04782B002AB002403F8014DDFF886
:106AA000ECA00746184691468846DAF8084000F000
:106AB000DBFCDAE90132DAF80060134401339B1B96
:106AC000022B5ED80AF21C450121284602F084F907
:106AD000FFF766FD0146284602F07EF9DAE9013249
:106AE000DAF80010134401335B1A022BECD90A4088
:106AF0000332033145239DF807004AF82230CAF8D3
:106B0000001000F0D7FCB31C23400AEB83030021E4
:106B10001D48C3F80C9002F025F980F31000731C97
:106B200023400AEB830300043440033440EA174057
:106B3000D8601AF8243067F3C5030AF824303AF80D
:106B40002430012161F389132AF824305AF82420D3
:106B500068F39F22134661F301036FF382034AF83F
:106B600024200AF824309AF820341BB906E0FFF7F5
:106B700059FE18B1DAE900329A42F8D102B0BDE804
:106B8000F0873146B3E700BFA82A00208C260020FA
:106B90002DE9F04F83B002AD002405F8014D3B4CC8
:106BA0008046284693469A468946A56800F05CFCD4
:106BB000D4E90132276813440133DB1B032B63D86C
:106BC00004F21C460121304602F006F9FFF7E8FC0A
:106BD0000146304602F000F9D4E90132216813443D
:106BE00001335B1A032BEDD90A400332852344F8A5
:106BF000223004319DF80700216000F05BFCBA1CD4
:106C0000FB1C2A402B4004EB820204EB830300218F
:106C10001F48C2F80CB0C3F80CA002F0A3F880F330
:106C200010007B1C2B4004EB830300043D40033524
:106C300040EA1840D86014F8253068F3C50304F81A
:106C4000253034F82530022262F3891324F82530E8
:106C500054F8252069F39F221346012161F30103B3
:106C60006FF3820344F8252004F8253094F820348B
:106C70001BB906E0FFF7D6FD18B1D4E900329A42FD
:106C8000F8D103B0BDE8F08F3946ADE78C2600207F
:106C9000A82A00202DE9F04F83B002AE002406F8A8
:106CA000014D3E4C8046304693469A46A56889463B
:106CB00000F0DAFBD4E90132276813440133DB1B0F
:106CC000042B69D804F21C460121304602F084F8F6
:106CD000FFF766FC0146304602F07EF8D4E9013247
:106CE0002168134401335B1A042BEDD90A400332A7
:106CF000C52344F8223005319DF80700216000F0DB
:106D0000D9FBB81CFA1C28402A403B1D2B4004EB41
:106D1000800004EB820204EB8303C0F80CB0002176
:106D2000C2F80CA01E480C9ADA6002F01BF880F33F
:106D300010007B1C2B4004EB830300043D40033513
:106D400040EA1840D86014F8253068F3C50304F809
:106D5000253034F82530032262F3891324F82530D6
:106D600054F8252069F39F221346012161F30103A2
:106D70006FF3820344F8252004F8253094F820347A
:106D80001BB906E0FFF74EFD18B1D4E900329A4274
:106D9000F8D103B0BDE8F08F3946A7E78C26002074
:106DA000A82A00202DE9F04F87B006AE002406F88F
:106DB000114D454C109F0497CDE90223804699461A
:106DC0003046119B05939246A5688B4600F04CFB1C
:106DD000D4E90132276813440133DB1B052B70D83B
:106DE00004F21C460121304601F0F6FFFFF7D8FB04
:106DF0000146304601F0F0FFD4E901322168134426
:106E000001335B1A052BEDD90A40033240F205131A
:106E100044F8223006319DF807002160FE1C00F086
:106E200049FBB91C29402E403A1D2A4004EB810140
:106E300004EB86067B1D2B4004EB8202C1F80CA0FC
:106E400004EB8303C6F80C90109ED6600021119AC3
:106E50001E48DA6001F086FF80F310007B1C2B4097
:106E600004EB830300043D40033540EA1840D8603A
:106E700014F8253068F3C50304F8253034F82530BC
:106E8000042262F3891324F8253054F825206BF38B
:106E90009F221346012161F301036FF3820344F83B
:106EA000252004F8253094F820341BB906E0FFF7BC
:106EB000B9FC18B1D4E900329A42F8D107B0BDE864
:106EC000F08F3946A0E700BF8C260020A82A0020BA
:106ED000044BD3E900239A4201D0FFF7A3BC002062
:106EE000704700BF8C26002030B4184DD5F81044F0
:106EF00000215CB1E3681A798A4204D116E0DB68AC
:106F00001A798A4212D01B68002BF8D1C368197114
:106F1000D5F8103493B1DA68C36812681A60D5F8EE
:106F20001034DB68186030BC0846704701310A290C
:106F3000DFD14FF0FF31084630BC7047C5F8100470
:106F4000C2681360084630BC704700BF8C26002022
:106F500038B5094BD3F81044012583F820544CB1BF
:106F6000E3685D71236820465B689847E3681C68A6
:106F7000002CF5D138BD00BF8C2600202DE9F0474C
:106F800084B01D460C9C002394F80C802373EB887E
:106F900081460E461746002B40D1297A05290ED08E
:106FA0006B7AA88873BB404B53F821A00021FFF7F0
:106FB0007FFB524603463D49204601F0B5FF062FB0
:106FC00009D8DFE807F0046A4249525D33004946B8
:106FD000204601F0A9FF2B7A052B05D06B7A5BB90F
:106FE0003349204601F0A0FF204601F091FF84F8CC
:106FF0000C8004B0BDE8F0872E4A2F49204601F0EE
:1070000093FFEDE7FFF780FB2C4B2B4953F8202033
:10701000204601F089FF297AA888C4E7254A009212
:107020002749284A204601F07FFFB6E7D6E9041039
:10703000D6E900230390D6E902070291CDE90007C3
:107040004946204601F070FFC5E74946D6E90023CE
:10705000204601F069FFBEE7B168D6E9002320466B
:107060000091494601F060FFB5E7D6E90201D6E993
:107070000023019100904946204601F055FFAAE700
:10708000D6E90371B068D6E900230291CDE9000783
:107090004946204601F048FF9DE7326849462046B0
:1070A00001F042FF97E700BF286903001869030059
:1070B00024690300106903001C850300B8680300FD
:1070C000F8680300F0680300082900D970472DE92B
:1070D000F04F1D46904600232A7B2B7385B0B8F8ED
:1070E0000630039207460E46002B7BD198F8081015
:1070F000052911D098F80930B8F80400002B63D1A5
:107100003C4B53F821400021FFF7D2FA22460346B8
:107110003949284601F008FFDFF8FCB0DFF8FC90A1
:10712000002405E03A5D013401F0FEFE082C09D090
:10713000A64249462846F5D85946013401F0F4FEE6
:10714000082CF5D12D49DFF8D8B0DFF8D8902846C3
:1071500001F0EAFE00240CE017F804A0BAF17E0F5B
:1071600023D92E2249462846013401F0DDFE082CA1
:1071700008D0A642F0D859462846013401F0D4FE82
:10718000082CF6D198F80830052B02D098F8093071
:10719000A3B91B49284601F0C7FE284601F0B8FEF6
:1071A000039B2B7305B0BDE8F08F0EF0D5FA504469
:1071B0005246437813F0970FD3D0D3E7114A1249C0
:1071C000284601F0B1FEE4E7FFF79EFA0F4B0E49A7
:1071D00053F82020284601F0A7FE98F80810B8F8C8
:1071E00004008DE7074A009209490A4A284601F03F
:1071F0009BFE7BE72869030018690300E868030029
:1072000024690300106903001C850300B8680300AB
:10721000F8680300F0680300E4680300DC6803001A
:1072200020690300EC68030000B585B000230390DB
:10723000194601AA44F20100CDE9013300F004F837
:1072400005B05DF804FB00BF10B572B6FFF780FE15
:10725000FFF73EFE0028FBD1104B114C1149E41AF8
:10726000E408240444F00100FFF764FA0E4B1B68A5
:10727000DB0700D500BE44F002000C49FFF75AFAC4
:10728000BFF34F8F0A490B4BCA6802F4E062134305
:10729000CB60BFF34F8F00BFFDE700BF84910300B9
:1072A000B49103008C690300F0ED00E098690300DD
:1072B00000ED00E00400FA0510B505F083F8027B4C
:1072C0004AB1427B8168034682F0010200681A736A
:1072D000BDE81040084710BD70B582B004682AB3FD
:1072E000237B0BB9636813B1082002B070BD15464B
:1072F0000E461022194620460EF081FA002E0CBFD1
:10730000012200220B4B6273A56014BF01220022F0
:1073100000934FF47A712346074804F0CDFF00280C
:10732000606014BF00200E2002B070BD072002B0C4
:1073300070BD00BFB9720200206903002DE9F04161
:10734000456884B0002D54D0077B77BB04460E46B9
:107350002260EFF3058363B30DF11008009748F83E
:10736000047D0A4643460921284604F0F3FF01281C
:1073700003D0042004B0BDE8F08104F063F9009765
:10738000024643462846062104F0E4FF0128F0D1D6
:10739000039B43B1194B4FF080525A6040BFBFF37B
:1073A0004F8FBFF36F8F01232373002004B0BDE81C
:1073B000F081284604F0FAFF07460028F5D14FF087
:1073C000020832460346CDF800800421284604F026
:1073D000C1FF01280646CCD104F02EF9CDF800807B
:1073E00002463B463146284604F0B4FF0128DAD075
:1073F000BFE7082004B0BDE8F08100BF00ED00E069
:10740000416869B310B5044684B0EFF3058363B9EE
:1074100002220846009203211A4604F09BFF01282D
:107420001BD10020207304B010BD04AB002243F830
:10743000042D08460092082104F08CFF01280CD18D
:10744000039B002BEDD0074B4FF080525A6040BF9A
:10745000BFF34F8FBFF36F8FE3E7042004B010BD7D
:107460000820704700ED00E070B4EFF3108472B6AE
:107470000D4B9A68AAB90D490D4E01259D60D1F8B2
:10748000805035401D60C1F88060D1F884505D6047
:107490004FF0FF33C1F88430027004B962B670BC9B
:1074A000704701230370F8E700B9002000E100E015
:1074B000FC06FFBD094B9A687AB170B910B4EFF3BE
:1074C000108172B6064A1C6814605C68546098604B
:1074D00001B962B65DF8044B7047704700B90020EF
:1074E00000E100E0F0B443681BB1384AD468A3421D
:1074F00046D20023364F0B807A684FF0010C02F51C
:1075000080544FF6FF76083294420ED8BCF1020F39
:10751000A1F800C007F1140754D07A6802F580542E
:10752000083294424FF0020CF0D913680133EDD0C9
:107530005388033302EB83039C42E7D39588B5421B
:107540000AD0158845B1956803689D4211D05388CB
:10755000033302EB8302D7E79C42D7D91A68013282
:107560001A46D3D05D88033503EB85039C42E5D2F0
:10757000CCE7184B42601B8903810120F0BC7047A7
:1075800012699342B5D813F00305B2D1114A0489A8
:1075900012899442ADD104689A689442A9D10C48EA
:1075A0004268934203D902F58052934207D382691D
:1075B000934207D902F58052934203D201250D80F0
:1075C0000120DBE70020F0BC704700BF0025002051
:1075D000882B00206C2B0020F0B5334C334DB4F8D1
:1075E00002C062684FEA8C0606EB0C0305EB8303CE
:1075F00083B0596801F58050002A52D05388033374
:1076000002EB8302904213D8664405EB8605EB68D3
:10761000002B3DD0264B2748196802229A80052569
:1076200000230122257003B0BDE8F04002F06EB9DE
:1076300013680133E8D05388033302EB830383429A
:10764000E2D84FF6FF7E9788774514D0178897B118
:1076500062605388164D1748AE88296803330025A9
:107660009BB200959B0001EB86010325257002F07B
:10767000AFF803B0F0BD9842C6D91A6801321A4675
:10768000C2D05F88033703EB87039842DBD2BBE7A6
:10769000084804250122257003B0BDE8F04002F03F
:1076A00035B901F10802ADE76C2B0020882B0020D2
:1076B000502C0020002500202DE9F04FAC4E89B061
:1076C00004464FF6FF773568002D00F0D9802A7800
:1076D000531E052B67D8DFE803F05931311D1D0318
:1076E000002C40F0C380DFF8B0C29CF80C209CF85E
:1076F0000030002A00F05281013B8CF80C40062B30
:1077000051D8DFE813F0E703F8020302D801500074
:10771000FB02C802002C40F0A9802B79012B00F05D
:107720004A81C0F0DE800DF10C08022B0394C8E9F9
:107730000244C8F810403ED120463DE0B5F8149010
:10774000AB7D002C00F0A380022BEA8840F2C480BD
:107750004FEA8904DFF8388204EB090108EB810164
:10776000D31C0A8913440B81EA884C4408EB840437
:107770000DF10C086389033B9B1A00226381C8F852
:1077800008200392C8E90322012015E0002C40F0F4
:1077900097802B79032B00F2DF80DFE813F0800164
:1077A0003D015501600100230DF10C08C8E90333C8
:1077B000C8F8083003930F2004902B78023B042B69
:1077C0000AD8DFE803F0472F2303430004238DF892
:1077D0000C30EB88ADF81830664C04F1100554F805
:1077E000043B404603B19847A542F8D1624963483B
:1077F0000024346001F034FA0121614801F0F8FA04
:1078000000287FF460AF09B0BDE8F08F03238DF846
:107810000C30EB88ADF818302B89ADF81A30EB68D6
:107820000593D9E702238DF80C302B89ADF8183079
:10783000AB88ADF81A30EB680593AB7DA3F1060376
:10784000B3FA83F35B098DF81C30C5E705238DF887
:107850000C30C1E701238DF80C302B89ADF81830BE
:10786000AB88ADF81A30EB680593B5E70DF10C085D
:107870000023C8F808300393C8E9033301209BE7CD
:107880003D493E4801F0BEF9054630601FE74FEA2A
:107890008904DFF8FC8004EB090108EB8101B1F8F1
:1078A00008A0496801EB8A0A062B00F2B682DFE8DD
:1078B00013F0CC019301A501B80141016C018601CF
:1078C0000DF10C082F4A002353600393C8E90233DB
:1078D000C8F8103001206FE7DFF8B4804FEA890460
:1078E00043E702232B71CDE904440DF10C08EB684A
:1078F000039340460DF10A01FFF7F4FD002800F064
:10790000C1810499204A8B88EB800B882B811F480A
:1079100000940423BDF80A4001F05AFF002840F00B
:10792000DE821B4B04EB840403EB840401232374E9
:1079300069E701239A001A4408EB82030020596882
:107940000090082308F82200124A104801F040FF76
:1079500000283FF458AF35680A4A0DF10C0800239F
:1079600053600393C8E90233C8F810300E2023E7B0
:10797000842B0020542B00207C2B00203C2C00204A
:107980004C2C0020642B0020A86903000025002057
:10799000882B0020AC6903006C2B0020072B00F221
:1079A0008382DFE813F0FA01810281029D01E60182
:1079B00078017801C001BF4B1B78002B00F0538188
:1079C000DFF8F4E2BEF80490B9F1010F15D8DFF842
:1079D0000C8309EB890208EB8202043212F8043CA2
:1079E000002B00F0088209F1010399B201299946A0
:1079F000AEF8043002F11402F0D90DF10C0808229F
:107A00000021AD480DF0FBFE0020C8F808000390EF
:107A1000C8E903003568CFE6DFF8C08298F8003087
:107A2000022B00F0688298F81430022B81D0A14B11
:107A30000DF10C08002001221A7003905860C8E96B
:107A40000200C8F81000B7E69C4A9D481168002360
:107A500002242B719480012201F058FF78E7974CA3
:107A6000984A21689648DFF874824FF0000985F83B
:107A700004900823CDF8009001F0AAFE924B2568EF
:107A80005B88A18803EB830308EB830208F823904B
:107A900053682360022355601181A38058E7874B08
:107AA0008A4A1968864801232B7100230093082312
:107AB00001F08EFE4CE7BCF80230DFF8208203EBC9
:107AC000830308EB8308D8F80C30002B00F0DC812E
:107AD0007A4B7B48196802229A8005228CF8002094
:107AE0000023012201F012FF00283FF48CAE0DF1BB
:107AF0000C08002341F61D523568C8F8083003937E
:107B0000C8E90333904208BF184655E6DCF8042064
:107B10006A48538884880168694801EB840103330B
:107B2000002400949BB203249B008CF8004001F0D9
:107B30004FFED9E7664BAA6966491A604FF0000B01
:107B40001846C3F804B0FFF7CDFC002800F0CA8146
:107B50000223AB7504235146CDF800B0EA1858480B
:107B600001F036FE00283FF44EAEAB7DEA88022BD2
:107B70004FF00E0026D84C4408EB8408B8F80A30C1
:107B8000033B9B1AA8F80A30B1E7524B504AB3F8AE
:107B900000A051684A48504A00234FF0060C85F86F
:107BA00016C00093042301F013FE0028DDD10AEB78
:107BB0008A0A08EB8A08012388F8103023E6EA884D
:107BC00041F61D5004EB090108EB8101D31C0A8921
:107BD00013440B81EA88CEE7032A0CBF0523062352
:107BE0000022AB750AF104010092042305F108029A
:107BF000334801F0EDFD0028B7D104E62B69304889
:107C0000002B14BF032301230022AB750AF10801E6
:107C10000092042305F10C0201F0DAFD0028A4D142
:107C2000F1E5EB882A6926484FF0010C85F816C06B
:107C30004FF0000C0AF10C019B00CDF800C001F0E0
:107C4000C7FD00283FF4DFAD8FE702230022AB75AC
:107C5000042300925146EA18194801F0B9FD0028A2
:107C60003FF4D1AD81E70DF10C08082221461248FE
:107C70000DF0C5FD0394C8E90244C8F8104035680A
:107C8000022099E50A200023C8E90033C8E902333D
:107C9000C8F8103090E5094B0C4A196808480023D1
:107CA0000093CCF8043007238CF80030082301F04F
:107CB0008FFD19E7642B0020602C0020502C002041
:107CC00000250020AC6903006C2B0020B469030080
:107CD000482B00205C2C0020A8690300882B002082
:107CE000884ADCF804109388498803330B44022146
:107CF00093808CF80010FFF76FFCF5E6BCF80220CB
:107D0000DFF810829300134408EB83080620002359
:107D1000D8F804107C4A00938CF8000008237B48B4
:107D200001F056FDE0E601238CF800309CF80A30A3
:107D30004BB1DFF8E081D8F80C3000228CF80A2033
:107D4000002B00F0AB809CF80B30002B43D0DFF809
:107D5000C481D8F8203000228CF80B20002B3AD1B7
:107D600098F82430BBB30123ACF80230FFF734FCA1
:107D7000BAE6BCF80220DFF89C81624C93009918A7
:107D800008EB810120684D68B4F804E048600220E7
:107D90002560A1F808E0A080B5E7DFF87881BCF89D
:107DA000081098F8142098F80030B2FA82F25209BC
:107DB0000131B3FA83F35B098CF80B20ACF808109F
:107DC000002201218CF80A30ACF802208CF80C203B
:107DD0008CF80010ACE70DF10C080020C8F8080082
:107DE0008CF80000ACF80200CCF804000390C8E95D
:107DF00003003568E0E41368DEF8001003F5805CEA
:107E000003F1080A002968D04B88033301EB830192
:107E10008C4505D8CEF80040E5E5EA880F20D1E68C
:107E20000B680133F6D04B88033301EB83039C4589
:107E3000F0D38888B8421AD0B1F800B0BBF1000F77
:107E400015D0EB88CEF800108342DBD100230093DD
:107E50002F4A2E48042301F0BBFC00284DD109EB2A
:107E6000890908EB8908012388F81030CBE49C4588
:107E7000D0D9196801311946CCD05888033003EBAA
:107E800080039C45D5D2C5E704228CF80020D8F8A1
:107E900004101E48012201F039FD25E698F8102053
:107EA000002A3FF450AF5FE7013B062B3FF67BAC67
:107EB00001A252F823F000BFD57E0200F77C020039
:107EC0000D7B0200B77A0200A7770200FD7C02005A
:107ED000977C02009CF80A302AE7514698E73568FB
:107EE0000E20D0E60DF10C080390C8E90200C8F896
:107EF00010000A2060E400231CE535680E200DF117
:107F00000C08C0E6502C0020AC69030000250020BE
:107F1000A8690300882B00204068FFF7CDBB00BF95
:107F200038B5084B1A68042A0AD01D68064C024668
:107F30000121184644F8252000F04EFF002038BDEE
:107F40000C2038BD582C0020542B00202DE9F04F78
:107F5000AB4C8BB022780023CDE90533CDE9073354
:107F6000099372B1A74C04F1100554F8043B05A81D
:107F700003B19847A542F8D1002528460BB0BDE8CB
:107F8000F08F201D02F0FF0600F03EFF074600289C
:107F9000F2D140F6F8731B685D1C00F0FA804FF0D8
:107FA000805211695269DFF884829749C8F810300D
:107FB0004046A3F540530022C8F80C3001F0DAFB2C
:107FC00005460028D9D11C238C2290499048DFF81F
:107FD00060A200F0A1FDD8F80C90DFF8588202965C
:107FE00009F5405348464FF0030B2A4699460028AE
:107FF00000F09D80036887498B4240F09880436879
:1080000085498B4200F0188101318B4240F08F800E
:10801000029B63B102EB820C08EB8C010226013259
:10802000DAF8003008F82C6092B24B600E8181685B
:10803000CAF800004FF0020C0131AAF804C000F5A4
:10804000805300F108062DD04189033106EB8100F1
:108050008342C0F0B58060464FF6FF7E0192B6F8CD
:1080600004C0F4450FD0B6F800C0BCF1000F0AD030
:108070006A4AD6F808C01268944504D9674AC2F81B
:1080800000C071880331084480B2AAF804007188E6
:10809000033106EB8106B34200F286800228019A82
:1080A00040F0318104210F43994518469FD1BBF11F
:1080B000010F40F28B80FFB2022F00F08780062F65
:1080C00000F08E80002F00F0818004A9504800F05D
:1080D0005DFD1C22044600210DF091FB002C00F0F8
:1080E00010810123013F23700A2F09D8DFE807F030
:1080F000160816081C081C0819061900022323710B
:1081000004A9434800F06EFD0121454800F058FEE7
:1081100000287FF431AFFFF7CFFA2EE70023237159
:10812000EEE703232371EBE701232371E8E700F572
:108130008053014601E08B4214D00E68013601F1F4
:108140000401F8D002EB820108EB81060BF1FF3B42
:1081500001324FF0030C1FFA8BFB92B208F821C0DA
:108160007060A1E7DAF8001091B32E4E02EB8201A5
:1081700008EB810C7280022602F1010E08F82160E2
:108180001FFA8EF2CCF80400ACF8086047F0010743
:108190008AE7254B4FF080521B6811695269581CC1
:1081A00008BF02FB01F3FEE6316801313FF476AF10
:1081B0007188033106EB810C6345BFF450AF019A1F
:1081C0004FF48061AAF8041008216CE70B25D4E66F
:1081D0000221AAF804100121CAF800000291D5E793
:1081E000084D01220023227005F11006636055F846
:1081F000043B05A803B19847AE42F8D1BCE600BFE6
:10820000642B0020542B002048720300B02B002068
:108210003C2C0020DEC0ADDEFE011EF1802B0020D4
:108220004C2C00206C2B0020141000100025002086
:10823000502C0020882B002093000393134408EB5C
:10824000830C002108F823104FF00203ACF808302B
:10825000CCF804008668013600F5805300F108016F
:1082600040D0408900F1030E01EB8E0E73452FD3F1
:1082700002260192E646B1F804C04FF6FF7294451B
:1082800037D0B1F800C0BCF1000F32D01F4AD1F88E
:1082900008C01268944505D91C4ABEF80860C2F8A7
:1082A00000C0488806440336B6B2AEF80860488875
:1082B000033001EB80018B4219D90868013016D0D8
:1082C000488800F1030C01EB8C0C6345D3D2019A72
:1082D0000399114408EB81014FF480604FF00106CF
:1082E0000E740881013292B247F00207DCE6019A6F
:1082F000F8E74FF001028EF810204888BEF80860B9
:10830000D0E7082539E60821CDE600BF802B002004
:1083100008B301B370B582B00C460DF106010546F5
:10832000FFF7E0F8A0B1BDF806000C4B6E6800EB5B
:10833000800003EB800001210C3000F04DFD266031
:108340006B6801220C3300206360AA7202B070BD1A
:108350000A2002B070BD0520704700BF882B0020A6
:10836000E8B110B582B00DF106010446FFF7BAF886
:1083700090B1BDF806300C4A03EB830302EB830394
:10838000DA6872B1A27A62B1DA680021013A08466D
:10839000DA60A17202B010BD0A2002B010BD052043
:1083A0007047062002B010BD882B0020484B1B7878
:1083B000002B32D0002934D00A884FF6FF739A423E
:1083C00029D04B883BB34B689B072CD12DE9F04358
:1083D000B1F8088008F103039BB240F2FD329342EA
:1083E00083B01CD83B4A17783FB956891489344466
:1083F0001C44A4B2B4F5806F17D3147D3CB9D68B5E
:10840000948B34441C44A4B2B4F5806F5DD3072030
:1084100003B0BDE8F08304207047022070470920B4
:10842000F6E70520704703207047BC464FEA8C09E9
:10843000E14402EB890933440C46054601A926486C
:10844000A9F80A3000F0A2FB1C22064600210DF01C
:10845000D6F95EB302234FF00009B782337086F875
:1084600016906368336101211C4800F0B5FCF06090
:10847000238833816388B38001A9A6F80A90A6F8FF
:108480000680154800F0AEFB45B1C5F80490F268CF
:10849000134B2A601B8985F80A902B810121114812
:1084A00000F08EFC044660B10020B1E7B9F80A3054
:1084B000C8F57F4808F1FD089844A9F80A8008200B
:1084C000A6E7FFF7F9F82046A2E70127BC46ADE78B
:1084D000642B0020882B00203C2C0020802B0020C7
:1084E0006C2B00204C2C0020002836D0484B1B78E9
:1084F000002B30D0002930D00A884FF6FF739A4203
:108500002FD04B886BB34B689B0728D12DE9F043E4
:10851000B1F8089009F103039BB240F2FD32934297
:1085200083B020D83B4A15783DB9578914893C441B
:108530001C44A4B2B4F5806F17D3147D3CB9D78B1B
:10854000948B3C441C44A4B2B4F5806F5BD30720E9
:1085500003B0BDE8F0830220704705207047032078
:108560007047042070470920F2E7A846AC464FEA5E
:108570008C05654402EB85053B4406460C462648BF
:108580006B8101A900F002FB1C22074600210DF0BF
:1085900036F957B300250323A7F814803B70BD7547
:1085A00063683B6101211D4800F016FCF8602388D8
:1085B0003B816388BB800423A7F80690BB753368B2
:1085C000BB6101A97D81144800F00CFB7560FA685D
:1085D000134B32601B89B57233810121114800F0C1
:1085E000EFFB044658B12846B2E76B89C9F57F49CD
:1085F00009F1FD099944A5F80A900820A8E7FFF7BA
:108600005BF82046A4E74FF00108C446AFE700BF7F
:10861000642B0020882B00203C2C0020802B002085
:108620006C2B00204C2C0020184B1B7823B34FF6EA
:10863000FF7398421ED070B582B001A90446144859
:1086400000F0A4FA1C22054600210DF0D8F8ADB1C7
:1086500005230126EC8001A92B702E710C4800F037
:10866000C1FA31460B4800F0ABFB044648B100208C
:1086700002B070BD0420704702207047082002B08D
:1086800070BDFFF719F8204602B070BD642B0020C2
:108690003C2C00204C2C0020194B1B78EBB110B562
:1086A00082B001A9174800F071FA1C22044600218B
:1086B0000DF0A5F80CB30623237001A9114800F0B2
:1086C00091FA114B1A7852B90121104800F078FB49
:1086D000044668B1002002B010BD0220704701229C
:1086E00001210A481A7300F06BFB04460028F1D1FF
:1086F000FEF7E2FF204602B010BD082002B010BD18
:10870000642B00203C2C00206C2B00204C2C0020E3
:108710002DE9F043344C2478002C60D03AB333B3C5
:108720009F88012F5ED8314C07EB870C013704EB93
:108730008C0CBFB24FF6FF7E4FF000089CF8004053
:1087400074B91C68DCF8045005F58056002C43D041
:108750006588033504EB8504B4420BD3C3F800806D
:10876000022F9F800CF1140C3CD00227E6E7052075
:10877000BDE8F08325680135F0D06588033504EB4A
:108780008505AE42EAD3B4F80490F14515D0B4F8AB
:108790000090B9F1000F10D01C60A5888542D1D19E
:1087A00025888D42CED1A16811601968104B5160A7
:1087B0001B8913810020BDE8F083AE42CED92C681E
:1087C00001342C46CAD0B5F8029009F1030905EB33
:1087D0008905AE42D7D2C1E705F10804BCE7022003
:1087E000BDE8F0830A20C3E7642B0020882B00201B
:1087F0006C2B0020334B1B78002B5CD051B34AB359
:108800002DE9F0419588012D5AD82F4F05EB8503AE
:1088100007EB830701353B78ADB24FF6FF7C4FF095
:10882000000E43B1022D958007F1140748D03B7824
:108830000225002BF6D113687C6804F58056002BC6
:108840003BD05C88033403EB8403B34204D3C2F807
:1088500000E0E7E7052070471C680134F7D05C882A
:10886000033403EB8404A642F1D3B3F80480E0455B
:1088700012D0B3F80080B8F1000F0DD013601C883F
:108880008442D9D19B680B601268104B4A601B89E7
:108890000B810020BDE8F081A642D8D923680133BE
:1088A0002346D4D0B4F8028008F1030804EB88040E
:1088B000A642DAD2CBE70220704704F10803C4E7EE
:1088C0000A20E7E7642B0020882B00206C2B002077
:1088D000334B1B78002B5CD051B34AB32DE9F041E8
:1088E0009588012D5AD82F4F05EB850307EB830799
:1088F00001353B78ADB24FF6FF7C4FF0000E43B12F
:10890000022D958007F1140748D03B780225002BF3
:10891000F6D113687C6804F58056002B3BD05C8848
:10892000033403EB8403B34204D3C2F800E0E7E767
:10893000052070471C680134F7D05C88033403EBD2
:108940008404A642F1D3B3F80480E04512D0B3F812
:108950000080B8F1000F0DD013609C888442D9D1FB
:108960009B680B601268104B4A601B890B810020CA
:10897000BDE8F081A642D8D9236801332346D4D07C
:10898000B4F8028008F1030804EB8804A642DAD2A6
:10899000CBE70220704704F10803C4E70A20E7E7A9
:1089A000642B0020882B00206C2B002020B119B1F3
:1089B00003680B6000207047052070471EF0040F0D
:1089C0001CBFEFF309800AE0EFF308800549064A6F
:1089D000884201D8904202D88D464FF00000034BE8
:1089E000184700000000042000E00320158A020060
:1089F000BFF34F8F0549064BCA6802F4E062134388
:108A0000CB60BFF34F8F00BFFDE700BF00ED00E07C
:108A10000400FA052DE9F04782B08146FEF798FA86
:108A2000FEF756FA0028FBD12F4F304A304BBF1AC1
:108A3000FF083F0447F001079D6AB9F1000F4DD0D0
:108A4000D9F818202B493846FEF722F8D9E9021048
:108A5000D9E90023CDE9001027493846FEF7A2F9ED
:108A6000D9F81C10D9E90423384600912349FEF7B0
:108A700011F91F4BDB6A99072BD4DFF894A0DFF8BC
:108A800094800024012606FA04F32B4207D05AF8FA
:108A9000243041461A4638460BB1FDF7F9FF013440
:108AA0001A2CF0D12A060DD42B0405D5104B1449ED
:108AB0009A6B3846FDF7ECFF4846FFF799FF02B086
:108AC000BDE8F0870A4B0F495A6B3846FDF7E0FFC7
:108AD000EAE70D493846FDF72DFECEE70B4938464B
:108AE000FDF728FEC5E700BFCC9103008491030089
:108AF00000ED00E0BC690300D46903000C6A0300C8
:108B0000D86A0300B86A0300686A0300346A030085
:108B1000F46A0300AC6A030099B110B4B2FBF3F439
:108B200003FB1424A4B244B9C0E900148460828118
:108B3000C38120465DF8044B704709205DF8044B63
:108B400070470E20704700BF82B050E8022FC188E6
:108B5000B2EB324F4FF0000317BF92B241EA01412E
:108B600042EA014104E04268B2EB324F08BF012300
:108B700040E80212002AE8D18DF807309DF807304E
:108B8000002B0CBF1120002002B0704730B482B01F
:108B900050E8013F9DB2C48925448489A54228BF7D
:108BA0002D1B0489A54202BFBFF32F8F002207E0CF
:108BB000C5EA030540E80154002CE9D14FF0010259
:108BC0008DF803200193019B9DF803200B602AB1CF
:108BD0000B880068184402B030BC704702F0FF03F5
:108BE0001846F8E70A884B889A4201D0002070475F
:108BF00050E8012FC2EA024240E80123002BF7D1DE
:108C00000120704730B482B050E8023F1FFAA3F54C
:108C1000C488A54202BFBFF32F8F00220DE0C48994
:108C200025448489A54228BF2D1BC3EA054540E899
:108C30000254002CE8D14FF001028DF8032001937B
:108C4000019B9DF803200B602AB14B8800681844F3
:108C500002B030BC704702F0FF031846F8E700BFCF
:108C60000A884B889A4201D00020704750E8022FB2
:108C7000C2EA224240E80223002BF7D101207047CC
:108C800001F01F024B09012100EB8300914000F02D
:108C90007FB800BF10B5012301F01F04490900EBA4
:108CA000810003FA04F100F067F8E04000F00100F1
:108CB00010BD00BF01F01F0201234909934000EBE2
:108CC0008100D94300F070B84B0901F01F0150F842
:108CD0002300C84000F00100704700BF2DE9F84FA5
:108CE00001F1FF394FEA591300F104090F46064616
:108CF00009EB8309044600254FF0010823686FEA59
:108D0000030B9BFAABFBBBFA8BFBBBF1200F20D014
:108D1000AB445F450CD81CE02368DB4393FAA3F314
:108D2000B3FA83F3202B05EB030B12D05F4510D968
:108D30000BF01F0A4FEA5B1008FA0AF106EB8000FD
:108D400000F01AF820FA0AF0C307E5D45846BDE847
:108D5000F88F04344C4505F12005CFD1BB46584669
:108D6000BDE8F88F50E8002F0B4640E8003C9CF02F
:108D7000000FF7D11046704750E8002F42EA010378
:108D800040E8003C9CF0000FF6D11046704700BF51
:108D900050E8003F43EA010240E8002C9CF0000F3D
:108DA000F6D11046704700BF50E8003F03EA0102C9
:108DB00040E8002C9CF0000FF6D11046704700BF31
:108DC00050E8002F02EB010340E8003C9CF0000F4C
:108DD000F6D11046704700BF50E8003F03EB010298
:108DE00040E8002C9CF0000FF6D11046704700BF01
:108DF00050E8003FA3EB010240E8002C9CF0000F7C
:108E0000F6D11046704700BF012350E800CF4CEA6E
:108E1000030240E8002191F0000FF6D16046704750
:108E2000012350E8002F42EA030C40E800C191F012
:108E3000000FF6D160467047002350E800CF0CEADF
:108E4000030240E8002191F0000FF6D16046704720
:108E5000B8B130B4D0E90112521A0468D2B2531E2C
:108E60002160DBB242B101680A685C1E551C0D60CE
:108E70001370E3B2FF2BF6D103680020187130BCE9
:108E800070470E20704700BFF0B583B002AB0025DD
:108E900003F8015D04461846FEF7E6FAD4E900310E
:108EA0001A688A4210D9511E19602168A3680F6898
:108EB00012F8015C0A79268AE068DB1BDBB29A4271
:108EC00006FB050538BF0B719DF80700FEF7F2FAA7
:108ED000284603B0F0BD00BF30B583B002AB00221E
:108EE00003F8012D054618460C46FEF7BDFA2A6820
:108EF0001368591C1160E9682A8A641AB4FBF2F4F9
:108F00001C709DF80700FEF7D5FA03B030BD00BF16
:108F1000826842B110B50446436901680069984708
:108F20000023A36010BD70470EB400B582B0039952
:108F300029B102AA04AB42F8043D00F0A9F802B03E
:108F40005DF804EB03B070472DE9F04F924683B013
:108F500051450F4605461E46DDE90CB2C0F0928031
:108F60000B464FF00108B3FBFAF39A4508F10108EC
:108F7000F9D9B04538BFB04612F00109A96802D14D
:108F8000BBF1000F54D1012402E0013E0AFB04F4BE
:108F9000012EFAD8B7FBF4F08245F7D93B4E02E038
:108FA000A968B7FBF4F0335C2A680A2B04FB10773E
:108FB00002EB010E01F1010029D0A8608EF800300B
:108FC000D5E90131994202D32846FFF7A1FFB4FB4E
:108FD000FAF4002CE4D1B9F1000F15D0BBF1000F69
:108FE00012D0C34510D92024AB682A68591CA96047
:108FF000D454D5E901329A420BF1FF3B14D2BBF1B4
:10900000000F01D0C345EFD103B0BDE8F08FA860D9
:109010004FF00D005054D5E9011088421DD2296847
:1090200001EB000E0130C8E72846FFF771FFE6E7C5
:10903000930722D42024C345A5D92B684A1CAA60D3
:109040005C54D5E9013199420BF1FF3B10D2BBF1E1
:10905000000F98D0C345F0D195E728460193FFF75C
:1090600057FFAA682968019B501C01EB020EA4E778
:109070002846FFF74DFFA968E9E7002E0CBF302412
:109080002024D8E74FF0010873E700BF3C700300CD
:10909000002900F0B9822DE9F04F054687B09146CE
:1090A0000C460E78DFF8C8A64FF00D0B13E0AB6846
:1090B00028680A2E03F1010200EB030100F04B8245
:1090C000AA600E70D5E901329A4280F01B812678A1
:1090D000002E00F01E810134002E00F01A81252E92
:1090E000E5D12346002713F8012B2D2A00F0E38059
:1090F000302A00F0E4802B2A00F0D4802A2A00F0E5
:109100000D81A2F13006F1B2092903D97DE2A1F166
:1091100030060346184606EB860110F8012BA2F133
:109120003004092C02EB4101F1D92E2A00F0028112
:109130004FF00008013301E013F8012B02F0FB01AE
:1091400068291C46F8D0253A532AC0D801A353F801
:1091500022F000BF3F950200CF900200CF900200A6
:10916000CF900200CF900200CF900200CF9002007B
:10917000CF900200CF900200CF900200CF9002006B
:10918000CF900200CF900200CF900200CF9002005B
:10919000CF900200CF900200CF900200CF9002004B
:1091A000CF900200CF900200CF900200CF9002003B
:1091B000CF900200CF900200CF900200CF9002002B
:1091C000CF900200CF900200CF900200CF9002001B
:1091D000CF900200CF900200CF900200CF9002000B
:1091E000CF900200CF900200CF900200CF900200FB
:1091F000CF900200CF900200CF900200CF900200EB
:10920000CF900200CF900200CF900200CF900200DA
:10921000CF900200CF900200CF900200CF900200CA
:1092200023950200CF900200CF900200CF90020061
:10923000CF900200CF900200CF900200CF900200AA
:10924000CF900200CF900200CF900200C7920200A0
:10925000A9940200CF900200CF900200CF900200AC
:10926000CF900200A9940200CF900200CF9002009C
:10927000CF900200CF900200CF900200CF9002006A
:1092800011940200CF900200CF9002008993020057
:10929000CF9002006D930200CF900200CF900200A9
:1092A0002395020047F004071C46234613F8012BC0
:1092B0002D2A7FF41DAF47F001071C46F5E747F064
:1092C00002071C46F1E7D9F800301A1DC9F8002042
:1092D0001E78AB680A2E0CD12A68591CA96002F8C6
:1092E00003B0D5E90123934203D32846FFF710FECC
:1092F000AB682A68591CA960D654D5E901329A4254
:10930000FFF4E5AE2846FFF703FE2678002E7FF433
:10931000E2AE2B7B23BB07B0BDE8F08FD9F800206D
:10932000111DC9F80010166862782E2A04F1020097
:109330007FF4FEAE5A78A2F13003092B00F2BD8112
:109340004FF0000808EB880802EB480810F8012FDE
:10935000A2F13003092BA8F13008F3D90346E9E65E
:10936000284607B0BDE8F04FFFF7D2BDD9F800306E
:109370001A1DC9F8002019680197434600960A2271
:109380002846FFF7E1FDA2E6D9F800301A1DC9F81A
:109390000020D3F80080FB0700F1E880B8F1000F4F
:1093A00000F0A18140460CF03AFA0746BE4215D9BA
:1093B000A6B1202100E08EB1AA682B68501CA860DD
:1093C0009954D5E901329A4206F1FF3604D3284672
:1093D0000391FFF79DFD0399BE42ECD108F1FF38E0
:1093E00018F8016F002E3FF472AEAB6828680A2EA1
:1093F00003F1010200EB030100F09081AA600E70FE
:10940000D5E901329A42EBD32846FFF781FDE7E721
:10941000D9F80020131DC9F80030AB682968176817
:10942000581C3022A860CA54D5E90123934280F029
:10943000E6802A68581C7821A860D154D5E9012318
:10944000934280F0D7800F2F03D93A4612090F2A92
:10945000FCD84FF080560DE0AA6081F80080D5E975
:1094600001329A4202D32846FFF752FD36093FF4F3
:109470002EAEAB68B7FBF6F21AF802802868B8F196
:109480000A0F06FB127700EB030103F10102E3D19F
:10949000AA6000F803B0D5E901329A4280F0498110
:1094A0002B6899180132D7E7D9F800301A1DC9F88E
:1094B0000020196881EAE173A3EBE173092B40F303
:1094C0000E81AA480122A0FB03C3DB08092B02F18D
:1094D0000102F8DC4245134638BF4346039307F0C8
:1094E0000203002E40F09580002B00F0B780B8F109
:1094F000000F00F0F680F80740F1B0800029C0F2BC
:10950000FF807A0700F1C88007F00303022B00F008
:10951000A780CDE9006743460A222846FFF714FDDD
:10952000D5E5D9F800301A1DC9F80020196801974F
:109530004346009610222846FFF706FDC7E5AB68B4
:109540002A68581C2521A860D154D5E901329A42D5
:10955000FFF4BDADD6E6AA6000F803B0D5E901324C
:109560009A423FD2296811440132A9E54146A1EB54
:10957000080311F8017BD7B1AB68D5F800C00A2FFA
:1095800003F101020CEB030000F0AF80AA6007704A
:10959000D5E901329A42EAD328460391FFF7B8FC95
:1095A0000399A1EB080311F8017B002FE4D19E423F
:1095B0007FF68DAD202702E0002E3FF488ADA9682C
:1095C0002A68481CA8605754D5E90121914206F148
:1095D000FF3604D328460393FFF79AFC039BB3425C
:1095E000EAD174E52846FFF793FCAB6829685A1C5A
:1095F000194465E52846FFF78BFCAB6823E728464E
:10960000FFF786FCAB6814E7704718460026234630
:109610008BE5002920DB7A071ED41BB1B8F1000FBF
:109620003FF46CAFF8073FF569AFBEB1039BB3429F
:10963000BFF464AF2023AA68501CA8602868835434
:10964000D5E90102824206F1FF3640D236B1039AD3
:10965000B242F0D1164651E7013EDEE700264DE763
:10966000B8F1000F7FF455AF002E6AD0039BB342D0
:10967000BFF44FAF3023AA68501CA86028688354F9
:10968000D5E90102824206F1FF3618D2002E58D0E9
:10969000039AB242EFD13CE7AA68531CAB602B6837
:1096A0002B209854D5E901329A42FFF42DAF284679
:1096B0000491FFF72DFC049926E7034638E5284678
:1096C000CDE90413FFF724FCDDE90413DEE72846A7
:1096D000CDE90413FFF71CFCDDE90413B6E7012212
:1096E000F8E646460AE7474660E6AA600CF803B08B
:1096F000D5E901329A4226D22B689818013245E703
:10970000AA68531CAB602B682D209854D5E9013210
:109710009A42C1F10001FFF4F7AEC8E7AA6000F871
:1097200003B0D5E901329A4217D2296811440132B7
:1097300064E62846FFF7ECFBA9682B684A1C19442D
:109740008AE60026E5E628460391FFF7E1FBA868D4
:109750002B680399421C184418E72846FFF7D8FBEA
:10976000AB6829685A1C194448E600BFCDCCCCCC64
:109770003C70030010B582B038B1B9B101600B681C
:10978000114602B0BDE8104018470B480B4C0C4B7B
:109790000C4A0D49001BC0080E24000440F00100D3
:1097A0000094FDF777FA0E2002B010BD0248034C7A
:1097B000034B064AEDE700BFDC91030084910300F0
:1097C0004C70030000710300087103003471030042
:1097D0002DE9F04182B0002854D0002A64D0D0F89E
:1097E00000C0BCF1000F69D01C46002B33D0476885
:1097F000D7F80480B3FBF8F708FB1737002F3CD1EC
:109800008F0723D112F0030F53D1C768B94211D289
:109810003248334C334B344A3449001BC0081024BF
:10982000000440F001000094FDF734FA204602B035
:10983000BDE8F0814E1E05693444AC42E8D8DCF83E
:109840000C40A44602B0BDE8F04160472348244CD8
:10985000244B274AE0E72148214C224B254A234943
:10986000001BC0080924000440F001000094FDF72B
:1098700011FA204602B0BDE8F0811848184C194B87
:109880001D4AECE71548164C164B1C4A1749001B9D
:10989000C0080E24000440F001000094FDF7FAF91E
:1098A000204602B0BDE8F0810C480D4C0D4B144A27
:1098B000ECE70A480A4C0B4B124AADE7084C074844
:1098C000084B114A0949001BC0080824000440F055
:1098D00001000094FDF7DEF92046A8E7DC910300C3
:1098E0008491030060700300047203000871030098
:1098F000C8710300447103009C71030000710300F0
:1099000094710300E071030088710300F0B583B027
:10991000002843D0D0F800C0BCF1000F4ED03AB3BD
:109920004768D7F800E00EF1FF370F4231D1C76822
:10993000B94210D229482A4C2A4B2B4A2B49001BEA
:10994000C0081024000440F001000094FDF7A2F9C3
:10995000204603B0F0BD4D1E04690EFB0255A54222
:10996000E8D8DCF81040A44603B0BDE8F0406047FA
:109970001B4C1A481B4B1E4A1C49001BC0080924DB
:10998000000440F001000094FDF784F9204603B084
:10999000F0BD1248124C134B164ACFE7104C0F483B
:1099A000104B154A1149001BC0080E24000440F05A
:1099B00001000094FDF76EF92046CAE7084C0748FD
:1099C000084B0E4A0949001BC0080824000440F057
:1099D00001000094FDF75EF92046BAE7DC91030030
:1099E0008491030074700300B070030008710300D9
:1099F0004471030088700300007103008871030044
:109A000029DF704728DF70470846704700207047FD
:109A1000024B187A003018BF01207047042D002037
:109A2000034B187A0122B0FA80F05A74400970474B
:109A3000042D002008B510461A460BF0BCFE00208D
:109A400008BD00BF08B51422002104480BF0D7FE62
:109A50000348FFF779F8002008BD00BF042D00205F
:109A6000F42C002010B5094C094B43602046FFF749
:109A7000CBF940B90AF060FF1C2320748C22054901
:109A80000548FFF749F8002010BD00BF042D002055
:109A90003C720300682C0020F42C002030B55E4C92
:109AA000237A87B0002B3AD05C4B1B6802222272CB
:109AB0001A79002A3ED0012A0CD1D3E903021044BE
:109AC000FFF7A0FF002849D0112803D101232372FA
:109AD00007B030BD19688A68C2B10022684600929A
:109AE000C0E902220325026101959A6805921A795C
:109AF000002A4BD0012A07D102228DF80020DA6813
:109B0000120302925B6904938B68984700234449CF
:109B1000444823726360FFF7A3F807B030BD4049A3
:109B20004048FFF76FF83D4A034610600028BDD15A
:109B30006060F2E7D3E90525521BB2F5805F28BFCC
:109B40004FF48052D3E903109208012A38BF012252
:109B500029442844FFF754FF0028B5D1227C002A6D
:109B6000DBD1227A002AD8D0022A0AD1E0601A7901
:109B7000DAB1012A05D1D3E9042101328A421A61FE
:109B80001FD0637C73B10AF0C7FEC6E701228DF8CF
:109B900000201A690292DA6803925B6904938B6869
:109BA0009847B3E7FFF77AFFB7E7D3E90512881ABA
:109BB000B0F5805F94BF121802F5805291429A610D
:109BC000DFD10022227219688868A8B16846009225
:109BD000C0E90122C0E903229A6805921A7982B18C
:109BE000012A07D102228DF80020DA6812030292BE
:109BF0005B6904938B68984709490A48FFF730F876
:109C0000BFE701228DF800201A690292DA680392F8
:109C10005B690493EEE700BF042D00201C2D00209B
:109C2000182D0020F42C00202DE9F04782B0824648
:109C30008946174801A990461F46FEF7A7FF10B3B3
:109C4000044600211C220D46124E0BF0D8FD0A9B43
:109C5000C4F800A0A360C4E90389676101A9257164
:109C60000B48FEF7BFFF301DFFF7CEF838B9747C04
:109C700034B9FFF713FF204602B0BDE8F08728464D
:109C800002B0BDE8F087042002B0BDE8F08700BF55
:109C9000F42C0020042D00202DE9F04383B08146F0
:109CA0000D46164801A917469846FEF76FFF08B300
:109CB00004461C2200210BF0A2FD114EC4F80090B6
:109CC00001232D0BC4E90285676101A923710B48AB
:109CD000FEF788FF301DFFF797F838B9747C34B968
:109CE000FFF7DCFE204603B0BDE8F083002003B0A0
:109CF000BDE8F083042003B0BDE8F083F42C00201D
:109D0000042D002000F0FD03012B00D0704730B57A
:109D1000604CA0F10100B0FA80F0237A40090022E3
:109D200087B020746274002B3AD05B4B1B68022210
:109D300022721A79002A3ED0012A0CD1D3E90302FB
:109D40001044FFF75FFE002849D0112803D10123FA
:109D5000237207B030BD19688A68C2B10022684614
:109D60000092C0E902220325026101959A680592DA
:109D70001A79002A4BD0012A07D102228DF800203F
:109D8000DA68120302925B6904938B689847002398
:109D90004249434823726360FEF762FF07B030BD5B
:109DA0003E493F48FEF72EFF3B4A0346106000281D
:109DB000BDD16060F2E7D3E90525521BB2F5805FA3
:109DC00028BF4FF48052D3E903109208012A38BF0C
:109DD000012229442844FFF713FE0028B5D1227C34
:109DE000002ADBD1227A002AD8D0022A0AD1E060E8
:109DF0001A79CAB1012A05D1D3E9042101328A4274
:109E00001A611DD0637C63B10AF086FDC6E70122AA
:109E10008DF800201A690292DA6803925B69049354
:109E2000B3E7FFF73BFEB9E7D3E90512881AB0F5AF
:109E3000805F94BF121802F5805291429A61E1D17D
:109E40000022227219688868A8B168460092C0E9A9
:109E50000122C0E903229A6805921A7982B1012A87
:109E600007D102228DF80020DA68120302925B69A2
:109E700004938B68984709490948FEF7F1FEC1E74A
:109E800001228DF800201A690292DA6803925B6958
:109E90000493EEE7042D00201C2D0020182D002037
:109EA000F42C0020831E012B00D9704730B58E4C56
:109EB000237A87B0002B31D0022B2BD103286BD112
:109EC000E3680133082B79D9884B00221B68E260D4
:109ED00022720D2519688A68C2B100226846009274
:109EE000C0E90222026101959A6805921A79002A56
:109EF00000F0B980012A07D102228DF80020DA682B
:109F0000120302925B6904938B68984778497948F9
:109F1000FEF7A6FE637C1BB10AF0FEFC07B030BD65
:109F2000237A002B5BD0714B1B68022222721A79B4
:109F3000002A5FD0012A0BD1D3E903021044FFF7B6
:109F400061FD002869D0112802D101232372E5E7C1
:109F500019688A68C2B1002268460092C0E90222EC
:109F60000325026101959A6805921A79002A70D03A
:109F7000012A07D102228DF80020DA68120302922A
:109F80005B6904938B6898470023594959482372A9
:109F90006360FEF765FEC1E7544B00221B68E26078
:109FA0001A796AB1012AB5D1D3E9042101328A4272
:109FB0001A6111D0637C002BAED1B4E7E360F9E7FE
:109FC000D3E90512881AB0F5805F94BF121802F524
:109FD000805291429A61EDD1002525727AE7444979
:109FE0004448FEF70FFE414A0346106000289CD10A
:109FF000606093E7D3E90525521BB2F5805FD3E992
:10A00000031028BF4FF480529208012A38BF012262
:10A0100029442844FFF7F4FC93E7227C002A7FF4CC
:10A020007DAF227A002A3FF479AF022A0AD1E0609C
:10A030001A7912B3012A05D1D3E9042101328A42E7
:10A040001A6126D0637C002B7FF466AFFFF726FDF4
:10A0500064E701228DF800201A690292DA680392FF
:10A060005B6904938EE701228DF800201A69029241
:10A07000DA6803925B69049346E7D3E90512881A0C
:10A08000B0F5805F94BF121802F5805291429A6138
:10A09000D8D10022227219688868A8B16846009257
:10A0A000C0E90122C0E903229A6805921A7982B1B7
:10A0B000012A07D102228DF80020DA6812030292E9
:10A0C0005B6904938B68984709490A48FEF7C8FD05
:10A0D000B8E701228DF800201A690292DA6803922B
:10A0E0005B690493EEE700BF042D00201C2D0020C7
:10A0F000182D0020F42C0020FEF7AABE2DE9F04117
:10A10000058ACE1C043D2E440746B6FBF5F6FEF745
:10A11000BBFE78B3F6B24FF48073013E0446C580AF
:10A120000760838027D08046002509E06379AE422E
:10A1300003F101036371C8F80000076080461AD07C
:10A140003846FEF7A1FE01350028EFD16679721E70
:10A1500014D02346013082421B68FBD11F684EB1E8
:10A16000002523682146013538461C46FEF7B4FE1B
:10A17000AE42F6D100242046BDE8F0812768EFE723
:10A1800004300121FEF728BEF8B501210446043051
:10A19000FEF72EFEC0B200B1F8BD6679721E12D075
:10A1A0002346013082421B68FBD11F68002EF3D08A
:10A1B000002523682146013538461C46FEF78CFEF3
:10A1C000AE42F6D1F8BD2768F2E700BF2DE9F843AB
:10A1D000C788467907FB06F6043E02EB030C0446EB
:10A1E000664503F1040015468846B0FBF7F238BF18
:10A1F000F51A07FB120012B1013A2468FCD13E1A8D
:10A20000AE4228BF2E469DB14FF000090430AD1B71
:10A210002044324608EB09010BF0CDFAAF42B144BD
:10A2200024683E464FF0000028BF2E46002DEDD199
:10A23000BDE8F8832DE9F843C7884679154607FB42
:10A2400006F6043E05EB030C1A1D664504468846D7
:10A25000B2FBF7F038BFF51A07FB102110B1013837
:10A260002468FCD17E1AAE4228BF2E469DB14FF025
:10A27000000904312144AD1B324608EB09000BF004
:10A280009AFAAF42B14424683E464FF0000128BF1D
:10A290002E46002DEDD1BDE8F88300BF8268002373
:10A2A000936082681361826853618268D3608268B8
:10A2B000536082681360704701600B6843604A68AE
:10A2C000934204BF00234360704700BF436843B11B
:10A2D000026891680B4443605268934204BF0023B4
:10A2E0004360704730B4184DA5F59472AB1ADB107B
:10A2F00003EBD3735B1002EBC30152F83330984287
:10A3000028BF0C4605D311E052F8333098420CD2E6
:10A3100021468B1ADB1003EBD3735B108A4202EBEE
:10A32000C304F1D3094830BC70470D46984204D9A4
:10A3300004F10802AA42D9D3F4E76068034B00286D
:10A3400008BF1846EFE700BFA4730300687203005C
:10A3500010B44FF080414FF080520020C1F80C0142
:10A360005E4BC1F81001C1F83805D2F80414C3F8E7
:10A370002015D2F80814C3F82415D2F80C14C3F829
:10A380002815D2F81014C3F82C15D2F81414C3F8F9
:10A390003015D2F81814C3F83415D2F81C14C3F8C9
:10A3A0004015D2F82014C3F84415D2F82414C3F889
:10A3B0004815D2F82814C3F84C15D2F82C14C3F859
:10A3C0005015D2F83014C3F85415D2F83414C3F829
:10A3D0006015D2F83814C3F86415D2F83C04C3F8F9
:10A3E0006805D2F840043E49C3F86C050968D2F804
:10A3F0004424C3F87025082924D04FF08043D3F8B3
:10A400000024D20744BF6FF00102C3F80024354A8C
:10A41000D2F8883043F47003C2F88830BFF34F8F0E
:10A42000BFF36F8F4FF01023D3F80022002A23DBF5
:10A43000D3F80432002B1FDB2B4B2C4A1A605DF83B
:10A44000044B70472A4B1B68002BD6D129482A4A57
:10A450002A4C04602A492B4BFB20C2F818050A68D5
:10A460001B68294822F00F0203F00F0313434FF437
:10A4700000720B600260C0E7244B0122C3F8042580
:10A48000D3F80024002AFBD04FF0102312221F49DA
:10A49000C3F80022D1F80034002BFBD04FF010227B
:10A4A00012211A4BC2F80412D3F80024002AFBD060
:10A4B00000221649C3F80425D1F80034002BFBD044
:10A4C000BFF34F8F0749124BCA6802F4E06213438F
:10A4D000CB60BFF34F8F00BFFDE700BF00C000405F
:10A4E0003001001000ED00E0042300200090D003B4
:10A4F000340100108C56004000F0004048810300F9
:10A50000E40E0040580200104096024000E0014076
:10A510000400FA0538B5430704461CBF20F00704C1
:10A52000083401F081F80E4A136873B10D4A1568BA
:10A5300047F6F6712C448C420CD8A5420AD21D4431
:10A54000146001F01DF9284638BD074B23F00703BE
:10A550001360EBE7002501F013F9284638BD00BF72
:10A56000202D002024AD00202C2D0020704700BF9E
:10A5700000F108034FF0FF31002281600260436068
:10A58000C0E90333704700BF00230361704700BF79
:10A5900043684B609A688A609A6851609960086164
:10A5A000036801330360704730B40D686B1C11D031
:10A5B00000F1080200E01A4653681C68AC42FAD960
:10A5C0004B6099608A6051600861036801330360E1
:10A5D00030BC704702695368F2E700BFD0E901213F
:10A5E00003699160D0E9011251605A68824204BF48
:10A5F00082685A60002202611A68013A1A6018687B
:10A60000704700BF0748006880F3088862B661B6EB
:10A61000BFF34F8FBFF36F8F4FF4F07080F311884B
:10A6200000DF00BF00600200064B19680868B0E850
:10A63000F04F80F30988BFF36F8F4FF0000080F375
:10A64000118870472CAD0020EFF30980BFF36F8FA6
:10A65000144B1A681EF0100F08BF20ED108A20E975
:10A66000F04F10604DF8043D4FF0400080F311882A
:10A67000BFF34F8FBFF36F8F01F0DCF94FF0000095
:10A6800080F3118808BC19680868B0E8F04F1EF024
:10A69000100F08BFB0EC108A80F30988BFF36F8FEA
:10A6A000704700BF2CAD0020402383F31188FEE7E4
:10A6B00030B46FF002034FF08075074C40F8081C6F
:10A6C00040F8202C40F8045C40F80C4C40F8243C46
:10A6D00030BC4438704700BFA9A602000F4C08B533
:10A6E000E02384F8223000F075F80D4B0D4A00216C
:10A6F0001960D4F8883043F47003C4F88830536884
:10A7000043F040435360236943F010032361FFF794
:10A7100079FF402383F31188FEE700BF00ED00E0DE
:10A7200028AD002030EF00E0402383F31188024A77
:10A73000136801331360704728AD0020034A136883
:10A74000013B13600BB983F31188704728AD0020DB
:10A7500041DF704770B51B4B00251D6082B01B6840
:10A760000193019BEFF31186402383F31188164A6E
:10A77000164BD2F804451D601B680093009B00F047
:10A780005BFF241A24F07F44012C0DD844B100F063
:10A7900067FF054625B10E4B4FF080525A6040BF0F
:10A7A00086F3118802B070BD01F0C0FA0228EED124
:10A7B000013C00F055FF013C631C45EA0005F8D15F
:10A7C000E8E700BF401101400010014000110140C6
:10A7D00000ED00E038B5002001F094FF0A4B0B4873
:10A7E0000B4901221F24C3F808450225C3F804239E
:10A7F000E02402604FF400301A60C3F8445381F83B
:10A800001143086038BD00BF00100140081001402E
:10A8100000E100E02DE9F041804684B0EFF31082C2
:10A8200072B6404CA36883B93F4B40480121A160F8
:10A83000D3F8801001402160C3F88000D3F8841061
:10A8400061604FF0FF31C3F8841002B962B6384D31
:10A85000D5F8047501F050FA00283BD0354E364A41
:10A86000464528BF4646BB190121C5F8081323F009
:10A870007F430021C5F840351160136801934FF400
:10A880008033019AC5F80433BFF34F8FB8F1000F3E
:10A8900034D1274B2848294A4FF48031C3F8081394
:10A8A0000021016000680390039811601268029211
:10A8B00001220299C3F80423D3F804051A4BC01BE4
:10A8C00020F07F40B0424FF4003228BF3046C3F83A
:10A8D000802180B9A3685BB1EFF3108272B6124B8E
:10A8E00021681960616859600023A36002B962B6EB
:10A8F00004B0BDE8F08100F0ABFEEBE70AF01CF815
:10A9000040B9094B20BFD3F80011D3F804210A4302
:10A91000F8D0BEE7FFF71CFF0028BAD0FCF784FC94
:10A92000B7E700BF00B9002000E100E0FC06FFBD72
:10A9300000100140FDFFFF004011014000110140E7
:10A9400070B506460D4651B100FB01F04830FFF7E7
:10A95000E1FD044658B300F14803036005E04820D8
:10A96000FFF7D8FD044610B32460C4E90F65FFF774
:10A97000DBFED4E90F132268A26001FB03F1CB1ABE
:10A98000134400200A44FF21A063E36084F84410CC
:10A99000626084F8451004F11000FFF7E9FD04F14E
:10A9A0002400FFF7E5FDFFF7C9FE204670BD002437
:10A9B000204670BD2DE9F04F044685B01D4601923A
:10A9C0008846FFF7B1FEA26BE36BA84F4FF000097A
:10A9D0009A424E46C0F08B80022D00F0068101980D
:10A9E000002800F03081B9F1000F00F09580FFF7EA
:10A9F000A5FE00F019FEFFF797FE94F84430FF2BF8
:10AA000008BF84F8446094F84530FF2B08BF84F8F1
:10AA10004560FFF793FE01A902A801F02FF9002875
:10AA200040F01881FFF780FEA26BE36B9A4277D06B
:10AA3000FFF784FEFFF778FE94F845304FFA83FA6B
:10AA4000BAF1000F1ADD636AC3B104F1240907E00B
:10AA50000AF1FF33DBB24FFA83FA7BB1636A6BB161
:10AA6000484601F0B1F80028F2D001F03FF90AF1B0
:10AA7000FF33DBB24FFA83FA002BEFD1FF2384F8C8
:10AA80004530FFF75BFEFFF74FFE94F844304FFA76
:10AA900083FABAF1000F1ADD2369C3B104F110097A
:10AAA00007E00AF1FF33DBB24FFA83FA7BB1236987
:10AAB0006BB1484601F088F80028F2D001F016F991
:10AAC0000AF1FF33DBB24FFA83FA002BEFD1FF23F9
:10AAD00084F84430FFF732FE00F052FEFFF724FE08
:10AAE000A26BE36B9A424FF00109BFF475AF226C81
:10AAF000A66B002A40F0FC8025680136002D00F08E
:10AB00001881A663636A002B40F08C80FFF716FE65
:10AB1000012005B0BDE8F08F02A801F0A3F866E7B8
:10AB200004F11009FFF70AFE4846019900F0AEFF54
:10AB3000FFF7FAFD94F845A04FFA8AFABAF1000F30
:10AB40001CDD636AD3B104F1240B08E00AF1FF3A7B
:10AB50005FFA8AF34FFA83FA83B1636A73B1584696
:10AB600001F032F80028F1D00AF1FF3A01F0BEF806
:10AB70005FFA8AF34FFA83FA002BEED1FF2384F8B1
:10AB80004530FFF7DBFDFFF7CFFD94F844304FFA77
:10AB900083FABAF1000F06DC15E00AF1FF33DBB2ED
:10ABA0004FFA83FA7BB123696BB1484601F00CF888
:10ABB0000028F2D001F09AF80AF1FF33DBB24FFA25
:10ABC00083FA002BEFD1FF2384F84430FFF7B6FD62
:10ABD00000F0D6FD002881D14FF080537B6040BF4C
:10ABE000BFF34F8FBFF36F8F78E7226CA66B002AFD
:10ABF00082D04146E0680AF0DEFD236CE2682168FD
:10AC00005B421A448A42E26080F0898062681344A1
:10AC1000E360022D00F083800136A663636A002B97
:10AC20003FF474AF04F1240000F0CEFF00283FF49D
:10AC30006DAF0E4B4FF080525A6040BFBFF34F8F45
:10AC4000BFF36F8F62E70090FFF778FD009805B0C3
:10AC5000BDE8F08FFFF768FD94F845506DB2002D08
:10AC600018DD636AB3B104F1240607E000ED00E0EB
:10AC7000013DEBB25DB26BB1636A5BB1304600F08F
:10AC8000A3FF0028F4D0013D01F030F8EBB25DB233
:10AC9000002BF1D1FF2384F84530FFF74FFDFFF77C
:10ACA00043FD94F844506DB2002D16DD2369A3B125
:10ACB00004F1100605E0013DEBB25DB26BB1236912
:10ACC0005BB1304600F080FF0028F4D0013D01F078
:10ACD0000DF8EBB25DB2002BF1D1FF2384F84430C4
:10ACE000FFF72CFD00F04CFD002005B0BDE8F08F13
:10ACF00041465DBBA0680AF05EFDA368216C6268F6
:10AD00000B44934206F10106A360FFF4FAAEA6637A
:10AD1000636A2268A260002B3FF4F8AE82E7002E3F
:10AD20007FF4EFAE0123A363636A002B3FF4EEAE22
:10AD300078E7606801F00AF8A663636A6560002B33
:10AD40007FF470AF00287FF474AFDFE6E0680AF0AC
:10AD500032FD236CE26821685B421A448A42E26059
:10AD6000BFF457AF52E700BF2DE9F0418C4682B0E7
:10AD700004461746EFF31186402282F31188806B58
:10AD8000E26B904221D3022B05D0002086F311887C
:10AD900002B0BDE8F08194F84550226CD4F83880B8
:10ADA0006DB252BB236808F10108002B4FD06B1C19
:10ADB000C4F8388037D001356DB284F84550012091
:10ADC00086F3118802B0BDE8F08194F84550226CFA
:10ADD000D4F838806DB2002AE4D073B9A0680AF0C4
:10ADE000EAFCA368216C62680B44934208F10108F5
:10ADF000A360DCD32368A360D9E76146E0680193D0
:10AE00000AF0D9FC206CE2682168019B40420244B0
:10AE10008A42E26002D262681044E060022B10D0E5
:10AE200008F10108C3E7636A002BC8D004F12400CD
:10AE300000F0CAFE0028C2D0002FC0D00120386028
:10AE4000A4E7B8F1000F08BF4FF00108AFE7606852
:10AE5000019300F07BFF019B6360A8E72DE9F047B9
:10AE6000044684B088460192FFF75EFCD4F838901F
:10AE7000B9F1000F40F09380019B002B00F00A8194
:10AE800002A800F0EFFEB34F4E4604F12405FFF791
:10AE900055FC00F0C9FBFFF747FC94F84430FF2B4A
:10AEA00008BF84F8446094F84530FF2B08BF84F84D
:10AEB0004560FFF743FC01A902A800F0DFFE00286F
:10AEC00040F08780FFF730FCA36B002B40F0E88058
:10AED000FFF734FC0199284600F0D8FDFFF724FC69
:10AEE00094F845304FFA83F9B9F1000F06DC15E00C
:10AEF00009F1FF33DBB24FFA83F97BB1636A6BB1BF
:10AF0000284600F061FE0028F2D000F0EFFE09F1C3
:10AF1000FF33DBB24FFA83F9002BEFD1FF2384F824
:10AF20004530FFF70BFCFFF7FFFB94F844304FFA76
:10AF300083FABAF1000F1ADD2369C3B104F11009D5
:10AF400007E00AF1FF33DBB24FFA83FA7BB12369E2
:10AF50006BB1484600F038FE0028F2D000F0C6FE83
:10AF60000AF1FF33DBB24FFA83FA002BEFD1FF2354
:10AF700084F84430FFF7E2FB00F002FC00287ED1A9
:10AF80004FF080537B6040BFBFF34F8FBFF36F8F95
:10AF9000FFF7CAFBD4F83890B9F1000F76D0226CD5
:10AFA00052B1E168636811449942E16024BF2168AD
:10AFB000E16040460AF0FFFB09F1FF33A363236918
:10AFC000002B40F0C980FFF7B9FB012004B0BDE8B9
:10AFD000F087FFF7A9FB94F845304FFA83F9B9F1F0
:10AFE000000F06DC15E009F1FF33DBB24FFA83F9FD
:10AFF0007BB1636A6BB1284600F0E6FD0028F2D011
:10B0000000F074FE09F1FF33DBB24FFA83F9002B35
:10B01000EFD1FF2384F84530FFF790FBFFF784FB67
:10B0200094F844304FFA83FABAF1000F1ADD23691D
:10B03000C3B104F1100907E00AF1FF33DBB24FFAA4
:10B0400083FA7BB123696BB1484600F0BDFD00284F
:10B05000F2D000F04BFE0AF1FF33DBB24FFA83FA75
:10B06000002BEFD1FF2384F84430FFF767FB00F09B
:10B0700087FBFFF759FBA36B63B1FFF75FFBFFF79C
:10B0800053FBD4F83890B9F1000F88D1019B002B05
:10B090007FF4FDAEFFF752FB002004B0BDE8F0875F
:10B0A000FFF74CFBFFF740FB94F845304FFA83F96C
:10B0B000B9F1000F06DC15E009F1FF33DBB24FFAFE
:10B0C00083F97BB1636A6BB1284600F07DFD0028EF
:10B0D000F2D000F00BFE09F1FF33DBB24FFA83F937
:10B0E000002BEFD1FF2384F84530FFF727FBFFF754
:10B0F0001BFB94F844304FFA83FABAF1000F1ADDC3
:10B100002369C3B104F1100907E00AF1FF33DBB290
:10B110004FFA83FA7BB123696BB1484600F054FDC6
:10B120000028F2D000F0E2FD0AF1FF33DBB24FFA63
:10B1300083FA002BEFD1FF2384F84430FFF7FEFAA7
:10B1400000F01EFBFFF7F0FAD4F83890B9F1000FC9
:10B150009CD024E700ED00E004F1100000F034FD85
:10B1600000283FF430AF054B4FF080525A6040BF8B
:10B17000BFF34F8FBFF36F8F25E700BF00ED00E0F7
:10B18000074B1A681AB19A6802B17047012210B4CD
:10B1900003EBC20443F8321060605DF8044B704763
:10B1A0000CB9002070B505460C461646FFF7BCFAF0
:10B1B00095F84430FF2B04BF002385F8443095F800
:10B1C0004530FF2B04BF002385F84530FFF7B6FA62
:10B1D000AB6B2BB93246214605F1240000F09EFCF2
:10B1E000FFF7A2FA95F8454064B2002C16DD6B6AB1
:10B1F000A3B105F1240605E0013CE3B25CB26BB1FA
:10B200006B6A5BB1304600F0DFFC0028F4D0013CF3
:10B2100000F06CFDE3B25CB2002BF1D1FF2385F8A6
:10B220004530FFF78BFAFFF77FFA95F8444064B298
:10B23000002C16DD2B69A3B105F1100605E0013CD9
:10B24000E3B25CB26BB12B695BB1304600F0BCFC81
:10B250000028F4D0013C00F049FDE3B25CB2002BC1
:10B26000F1D1FF2385F84430BDE87040FFF766BA9E
:10B270002DE9F84F9600804630460D4699460B9FC3
:10B28000FFF748F9002800F0C38082464820FFF706
:10B2900041F90446002800F092803246C0F830A000
:10B2A000A52150460AF0ABFA2A78236B84F83420A3
:10B2B000043E2A781E4426F0070662B16B7884F8B3
:10B2C00035306B783BB1AB7884F83630AB7813B15E
:10B2D000EB7884F837300A9D022D28BF02254FF005
:10B2E000000B04F1040AE562A563504684F837B008
:10B2F000C4F83CB0FFF748F9C5F1030504F11800A4
:10B30000FFF742F9C4F840B0A561246184F844B065
:10B3100064624A4641463046FFF7CAF9206007B1E9
:10B320003C60FFF701FA3C4A3C4F1368013313605D
:10B330003B68002B3BD0DFF81881E36AD8F8002087
:10B340007AB3374ADFF80CC11668DCF800E03548FC
:10B3500001252E44166005FA03F203EB830342EA4B
:10B360000E0200EB83005146CCF80020FFF710F9E5
:10B37000FFF7E4F9D8F8003083B13A68E36AD26A9B
:10B380009A420BD2284B4FF080525A6040BFBFF315
:10B390004F8FBFF36F8F2846BDE8F88F2846BDE872
:10B3A000F88F3A68D26A9A4298BF3C60C9E73C601D
:10B3B0001368012B0AD0E36ADFF89480C1E7504696
:10B3C000FFF7D4F84FF0FF30BDE8F88F1548174E5F
:10B3D000174DDFF87C80FFF7CBF81648FFF7C8F869
:10B3E0001548FFF7C5F83046FFF7C2F82846FFF7C3
:10B3F000BFF81248FFF7BCF81148FFF7B9F8114839
:10B40000FFF7B6F8104B114A16601D60E36A98E723
:10B410004FF0FF30C3E700BF74AD00202CAD00201B
:10B4200084AD002038AD002000ED00E08CAD0020A0
:10B43000A0AD00204CAD002060AD0020C0AD0020CC
:10B44000ECAD0020D8AD002034AD002030AD0020A0
:10B45000D4AD002088AD00202DE9F843F020FFF79F
:10B4600059F800286CD005464820FFF753F80446E9
:10B47000002800F08580F022A521056328460AF007
:10B48000BEF9206B534B63630025271D00F1EC06CA
:10B49000E5623846C4E90E55FFF776F804F1180066
:10B4A000FFF772F826F0070603232A463046256484
:10B4B000A3614949246184F844506462FFF7F8F8B5
:10B4C000464B20601C60FFF72FF9454A454E136834
:10B4D000013313603368002B4AD0DFF84081E36A00
:10B4E000D8F8002072B3404ADFF834C11568DCF8A0
:10B4F00000E03E480135156001229A4003EB8303CA
:10B5000042EA0E0200EB83003946CCF80020FFF738
:10B510003FF8FFF713F9D8F800306BB13268E36AEF
:10B52000D26A9A4208D2324B4FF080525A6040BFE2
:10B53000BFF34F8FBFF36F8F00F07CFE012807D061
:10B54000BDE8F8833268D26A9A4298BF3460CAE78D
:10B55000402383F31188274B27494FF0FF34002203
:10B560000C60C8F800001A60BDE8F843FFF7B6B8F1
:10B5700034601368012B08D0E36ADFF8A080B2E7DB
:10B580002846BDE8F843FEF7F1BF1848DFF894906D
:10B590001A4DDFF88880FEF7EBFF1948FEF7E8FF49
:10B5A0001848FEF7E5FF4846FEF7E2FF2846FEF79B
:10B5B000DFFF1548FEF7DCFF1448FEF7D9FF1448FB
:10B5C000FEF7D6FF134B144AC2F800901D60E36AE1
:10B5D00089E700BF49444C0035B90200B4AD0020F2
:10B5E00074AD00202CAD002084AD002038AD0020CB
:10B5F00000ED00E000AE0020B8AD0020A0AD0020BE
:10B600004CAD002060AD0020C0AD0020ECAD0020AE
:10B61000D8AD002034AD002030AD0020D4AD0020E6
:10B6200088AD00208CAD0020024A136801331360FE
:10B63000704700BF80AD0020014B1868704700BF05
:10B6400000AE0020014B1868704700BF00AE00201C
:10B65000024A136818441060704700BF00AE002013
:10B660002DE9F04F3B4B1B6883B0002B43D13A4B85
:10B670001F6801371F60002F4BD0384B01931B68A8
:10B68000BB423CD8364EDFF8EC80DFF8ECA0DFF8A8
:10B69000EC90002526E03368DB68DC68636804F121
:10B6A000040B9F42584652D3FEF798FFA36A04F159
:10B6B00018000BB1FEF792FFE06AD8F800200123D2
:10B6C000834000EB8000134359460AEB8000C8F822
:10B6D0000030FEF75DFFD9F80030E26ADB6A9A427B
:10B6E00028BF012533681B68002BD4D1019A4FF085
:10B6F000FF33136004E01B4A136801331360002515
:10B70000194B1B68002B0CBF2846012003B0BDE875
:10B71000F08F134E154B3168154A18683060196068
:10B7200013680133136033681B683BB90B4B0193FB
:10B730001A464FF0FF3313601346A0E73368074AF9
:10B74000DB680192DB685B681360134697E7019A38
:10B750001360D5E780AD002000AE0020B8AD00201A
:10B7600030AD00207CAD002004AE002034AD0020C0
:10B77000BCAD002088AD002038AD00202CAD0020ED
:10B780002DE9F84FFEF7D0FF384B1A68013A1A60DE
:10B790001C68002C5CD1364B1B68002B58D0DFF89E
:10B7A000E8A0DFF8E8B0334FDFF8E490DFF8E4809A
:10B7B000DBF80030012623B3DBF80C30DC68251DF4
:10B7C00004F11800FEF70AFF2846FEF707FFE06ABB
:10B7D0003A6806FA00F300EB80001343294609EBB0
:10B7E00080003B60FEF7D4FED8F80030E26ADB6AE6
:10B7F0009A42DDD3CAF80060DBF800300126002B46
:10B80000DAD13CB11C4B1A6812683ABB1B4B4FF0A3
:10B81000FF321A601A4D2C6844B10126FFF720FF51
:10B8200008B1CAF80060013CF8D12C60DAF80030A9
:10B8300073B1144B4FF080525A6040BFBFF34F8F2B
:10B84000BFF36F8F0124FEF779FF2046BDE8F88F24
:10B850000024FEF773FF2046BDE8F88F1A68074BF7
:10B86000D268D26852681A60D4E700BF80AD002069
:10B8700074AD002088AD002030AD0020B8AD0020B0
:10B880007CAD002000ED00E004AE0020C0AD002043
:10B8900038AD00202CAD002070B548B91D4B4FF0DD
:10B8A00080525A6040BFBFF34F8FBFF36F8F70BDA0
:10B8B000194A1A4913681A4D0133136004460E6879
:10B8C00028680430FEF78AFE40B92B681549D86A0B
:10B8D0000B680122824023EA02030B602B68A41943
:10B8E0005C600FD2104B186829680431FEF75CFECB
:10B8F0000E4B1A68944238BF1C60FFF741FF0028C6
:10B90000CCD070BD0A4B186829680431FEF74CFE94
:10B91000F3E700BF00ED00E080AD002000AE0020A6
:10B920002CAD002088AD002030AD0020B8AD002047
:10B9300034AD00202DE9F84F344C354E354DDFF84D
:10B94000E890DFF8E880DFF8E8B04FF0805A14E0C4
:10B95000FEF7EAFEF368DF68381DFEF73FFE2B684E
:10B96000013B2B602368013B2360FEF7E7FE386B49
:10B97000FEF7FCFD3846FEF7F9FD2368002BE7D102
:10B98000254B1B68012B06D9CBF804A040BFBFF3A1
:10B990004F8FBFF36F8FD9F80030012BD8F80030EC
:10B9A000DB6A04D9002BE8D11B4B1B68E5E7002BB1
:10B9B000E3D1194B1B68012BDFD8184B184A1B68C1
:10B9C00012689B1A012BD8D9164A136801331360E9
:10B9D000D9F80030012BD8F80030DB6A05D90BB953
:10B9E0000D4B1B68FFF7CCFEC7E7002BFAD10A4BC3
:10B9F0001B68012BF6D8094B1868094B1B68C01A45
:10BA00000128EFD9FEF706FFECE700BF78AD002074
:10BA1000ECAD002074AD002038AD0020B8AD0020A2
:10BA200000AE002080AD002088AD00202CAD0020AD
:10BA300000ED00E0104B1B68CBB91049104A0B60B9
:10BA40001368104AB3FA83F3C3F11F0303EB8303B4
:10BA50009B00D018083341684968416013449942FB
:10BA600004BF49684160084BCA681A607047034BBD
:10BA700001221A60704700BF80AD002004AE002094
:10BA800088AD002038AD00202CAD002070B51C4DD5
:10BA90002B680C4603F11801FEF786FD194B1E6852
:10BAA00028680430FEF79AFD40B92B681649D86A19
:10BAB0000B680122824023EA02030B60631C17D04B
:10BAC0002B68A4195C600BD2104B186829680431EC
:10BAD000FEF76AFD0E4B1A68944238BF1C6070BDB9
