:020000022000DC
:1060000000000420B5620200DD620200DF620200CF
:10601000E1620200E3620200E562020000000000AB
:10602000000000000000000000000000E762020025
:10603000E962020000000000EB620200ED62020073
:106040003D8B0200EF620200A9940200EF620200A1
:10605000EF620200EF620200418F0200EF62020075
:10606000EF620200EF620200EF620200EF620200E4
:10607000EF620200EF620200EF620200EF620200D4
:10608000EF62020089720200EF620200EF6202001A
:1060900029730200EF6202002DC10200EF620200CC
:1060A000EF620200EF620200EF620200EF620200A4
:1060B000EF620200EF62020000000000000000003A
:1060C000EF620200EF620200EF620200EF62020084
:1060D000EF620200EF620200EF620200EF62020074
:1060E000EF620200EF620200EF62020000000000B7
:1060F00000000000EF62020000000000EF620200FA
:10610000000000000000000000000000000000008F
:10611000000000000000000000000000000000007F
:10612000000000000000000000000000000000006F
:10613000000000000000000000000000000000005F
:10614000000000000000000000000000000000004F
:10615000000000000000000000000000000000003F
:10616000000000000000000000000000000000002F
:10617000000000000000000000000000000000001F
:10618000000000000000000000000000000000000F
:1061900000000000000000000000000000000000FF
:1061A00000000000000000000000000000000000EF
:1061B00000000000000000000000000000000000DF
:1061C00000000000000000000000000000000000CF
:1061D00000000000000000000000000000000000BF
:1061E00000000000000000000000000000000000AF
:1061F000000000000000000000000000000000009F
:1062000010B5054C237833B9044B13B10448AFF3F0
:1062100000800123237010BD4022002000000000F8
:1062200014D3020008B5034B1BB103490348AFF375
:10623000008008BD000000004422002014D30200AA
:10624000154B002B08BF134B9D46A3F5803A002148
:106250008B460F461348144A121A06F051F90F4B99
:10626000002B00D098470E4B002B00D09847002001
:10627000002104000D000D48002802D00C48AFF3A7
:10628000008006F0DFF82000290003F0CFFF06F0C1
:10629000C5F800BF00000800000004200000000056
:1062A0000000000040220020842F00200000000099
:1062B000000000000649074A074B9B1A03DD043B18
:1062C000C858D050FBDC02F09BF9FFF7B9FF000083
:1062D00014D40200701D002040220020FEE7FEE7DB
:1062E000FEE7FEE7FEE7FEE7FEE7FEE7FEE7FEE786
:1062F000F0B595B0002415460F4608461E4602F03C
:1063000057F8384623460895082205A91A9D09968C
:106310000D950A948DF82C400C9402F0A3F89DF88A
:1063200014308DF81140DDE9061003F00302012A54
:10633000CDE9020127D0022A04D0384602F03CF809
:1063400015B0F0BDBDF81650C3F3C2038DF8103080
:10635000AD090826082D2C4628BF082433462246BE
:106360000EA9384602F07EF82D1B214608AB02AA82
:106370000EA8264400F03EFD002DEBD1384602F079
:106380001BF815B0F0BDBDF81460059DC6F383166B
:10639000C3F3C204B2000EA9384608238DF810409A
:1063A000C5F3952502F05EF808AB324628460EA9E3
:1063B000009302AB00F078FC384601F0FDFF15B009
:1063C000F0BD00BF014B01221A707047A0220020CF
:1063D000704700BF00B583B0044B0093044A4023CC
:1063E000FFF786FF03B05DF804FB00BFF563020012
:1063F0006022002038B50E480E4D03780E4CEB5C41
:106400000025D2B2257053B90C3003F0D3FA58B935
:106410000A4B1B7813B12378002BFCD038BD043015
:1064200003F040FD0028F3D000F0E6FEF0E700BFE7
:10643000701D0020802F0020A02200205C22002060
:1064400070B51348134A0378D35C88B0DBB90C30BD
:1064500003F032FA104D0FCD6C460FC495E80F00D3
:1064600008AD062645F8206D84E80F002946002275
:10647000074802F0F3FA08B100F0BEFE074B002215
:106480001A7008B070BD043003F08CFCE2E700BF66
:10649000701D0020802F00206CC502005C220020AF
:1064A00070B50D4D0FCD88B06C460FC495E80F0048
:1064B00008AD062645F8206D84E80F002946074AF6
:1064C000074802F0CBFA08B100F096FE054B012216
:1064D0001A7008B070BD00BF6CC50200C563020031
:1064E000701D00205C22002008B5FFF7D9FF0421B1
:1064F000034800F08FFB034B01225A7108BD00BF17
:10650000FCD30200841D0020F0B5324C85B004F5A8
:10651000836001F05FFA04F2144001F05BFAD4E901
:10652000013703EA0702D01C04EB800114F82000B5
:1065300010F0040044D003F1020C0E7806F00306BC
:10654000012E654635D0022E02F1030621D004EB60
:1065500086010028F1D104EB82020133D268019256
:106560003B4004EB830302F00302012ADE6829D0DA
:10657000022A23D1BDF806309B090333360C05EB04
:106580009305154801F032FA00B16560304605B058
:10659000F0BD4B880CEB931307EA0302D11C03F107
:1065A000020C14F82100654604EB810100F00400A0
:1065B000CFE70B88C3F383136344EDE70026E0E7DE
:1065C0009D1CC8E7BDF80430C3F38313360C1D448B
:1065D000D7E700BF74230020882700200B4B0C480E
:1065E00010B50022FF21C3F818249960C3E90022E6
:1065F000C3F8142483F8202401F096FE044610B951
:10660000044801F0A3FF204610BD00BF7423002002
:10661000D0D30200ACC5020021B9124B03EBC0007D
:1066200000687047104A0F49521AD20815D030B48A
:106630000E4D2B88834212D0002303E035F823400F
:10664000844205D001339A42F8D1002030BC704713
:1066500001EBC300006830BC704710467047084625
:10666000F8E700BF58D30200D0D302003C2200203C
:10667000094B013903EBC00003290BD8DFE801F017
:10668000020806040220704740797047007970477D
:10669000042070470020704758D302002DE9F043D2
:1066A00083B002AB002203F8012DDFF8DC9007462F
:1066B00018468846D9F8084001F0F6F8D9E90132C1
:1066C000D9F80060134401339B1B012B58D809F201
:1066D0001C450121284601F065F9FFF715FF014629
:1066E000284601F05FF9D9E90132D9F800101344C6
:1066F00001335B1A012BECD90A4003320523023126
:106700009DF8070049F82230C9F8001001F0F2F8AE
:1067100000211C4801F024F980F31000731C234071
:1067200009EB830300043440033440EA1740D86087
:1067300019F8243067F3C50309F8243039F82430F8
:106740006FF3891329F8243059F8242068F39F2225
:106750001346012161F301036FF3820349F82420FA
:1067600009F8243099F820341BB906E000F00EF83F
:1067700018B1D9E900329A42F8D103B0BDE8F083EC
:106780003146B9E790270020742300202DE9F04717
:10679000934C002384B0C4F81834BFF34F8FD4E96E
:1067A000015605EA0602D31C04EB830114F82330DA
:1067B000580719D527680B7803F00303012B43D042
:1067C000022B03D14B88023505EB931506EA05022F
:1067D000D4F81804D31C04EB830128B9AF4239D98B
:1067E00014F823305B07E6D404EB82026B1CD268FA
:1067F0000192334004EB830302F00302DB6802934F
:10680000022A05F1020700F08D80012A26D0D4F873
:1068100010543DB12B6828469B689847EB681D686B
:10682000002DF7D16F48704B7049C01AC0080004A2
:1068300040F00200FFF732FFD4E90030C01A18BF61
:10684000012004B0BDE8F0870B880235C3F3831341
:106850001D44BBE7676004B0BDE8F087BDF80420C5
:106860006348C2F38313062B28BF062363F3891200
:1068700002339900ADF8042001F058FD804600284D
:10688000C5D001F095FD0023082201A9404601F082
:10689000B5FDBDF8043013F4707F00F09F806FF0F9
:1068A000010AAAEB050A082506EA070103312B466F
:1068B000042204EB8101404601F0A0FDBDF8043044
:1068C00007F101090AEB0902C3F3831393424F4610
:1068D00005F10405E8D8D4F81834002B68D1D4F8B1
:1068E000105465B1EB685A7928464146002A5BD0BE
:1068F0002B681B689847EB681D68002DF2D1404655
:1069000001F05AFD04A8002300F80D3D00F0CCFF73
:10691000D4F818340BB9C4F804909DF8030000F0C3
:10692000E9FF89E7BDF8063031484FEA93194D4633
:10693000502D28BF502565F38F1305F10801ADF8E0
:10694000063001F0F3FC804600283FF460AF26EAF1
:10695000070A0AF1010A01F02BFD4FEA8A0A002317
:10696000082201A9404601F049FD55452BD9EBB25B
:10697000BAF1000F20D006EA0701A3EB0A030331A6
:1069800004EB8101DDB252460823404601F036FD9A
:106990002A460AF108031749404601F02FFD09F184
:1069A000030907EB990996E71D68002D9AD1A6E720
:1069B000404601F001FD3FE72A4608230D494046C5
:1069C00001F01CFDEBE706EA0701033104EB81014E
:1069D0002A460823404601F011FDE0E7B9467AE770
:1069E0007423002080D3020058D30200B8C50200EF
:1069F000D0D30200802300202DE9F04782B002AB03
:106A0000002403F8014DDFF8ECA007461846914634
:106A10008846DAF8084000F047FFDAE90132DAF890
:106A20000060134401339B1B022B5ED80AF21C4505
:106A30000121284600F0B6FFFFF766FD0146284613
:106A400000F0B0FFDAE90132DAF800101344013344
:106A50005B1A022BECD90A400332033145239DF81F
:106A600007004AF82230CAF8001000F043FFB31CB8
:106A700023400AEB830300211D48C3F80C9000F06B
:106A80006FFF80F31000731C23400AEB83030004A4
:106A90003440033440EA1740D8601AF8243067F3D2
:106AA000C5030AF824303AF82430012161F3891330
:106AB0002AF824305AF8242068F39F22134661F301
:106AC00001036FF382034AF824200AF824309AF86D
:106AD00020341BB906E0FFF759FE18B1DAE900329D
:106AE0009A42F8D102B0BDE8F0873146B3E700BF63
:106AF00090270020742300202DE9F04F83B002ADD1
:106B0000002405F8014D3B4C8046284693469A46A2
:106B10008946A56800F0C8FED4E90132276813440D
:106B20000133DB1B032B63D804F21C4601213046E2
:106B300000F038FFFFF7E8FC0146304600F032FF76
:106B4000D4E901322168134401335B1A032BEDD9D8
:106B50000A400332852344F8223004319DF80700AF
:106B6000216000F0C7FEBA1CFB1C2A402B4004EB3E
:106B7000820204EB830300211F48C2F80CB0C3F863
:106B80000CA000F0EDFE80F310007B1C2B4004EB0A
:106B9000830300043D40033540EA1840D86014F8F0
:106BA000253068F3C50304F8253034F82530022277
:106BB00062F3891324F8253054F8252069F39F22C5
:106BC0001346012161F301036FF3820344F825208A
:106BD00004F8253094F820341BB906E0FFF7D6FD01
:106BE00018B1D4E900329A42F8D103B0BDE8F08F71
:106BF0003946ADE77423002090270020044BD3E9E9
:106C000000239A4201D0FFF7C1BD0020704700BFAA
:106C10007423002030B4184DD5F8104400215CB125
:106C2000E3681A798A4204D116E0DB681A798A424D
:106C300012D01B68002BF8D1C3681971D5F8103435
:106C400093B1DA68C36812681A60D5F81034DB684B
:106C5000186030BC0846704701310A29DFD14FF077
:106C6000FF31084630BC7047C5F81004C268136095
:106C7000084630BC704700BF7423002038B5094B6C
:106C8000D3F81044012583F820544CB1E3685D71BA
:106C9000236820465B689847E3681C68002CF5D1A0
:106CA00038BD00BF742300202DE9F04784B01D4695
:106CB0000C9C002394F80C802373EB8881460E46CD
:106CC0001746002B40D1297A05290ED06B7AA88867
:106CD00073BB404B53F821A00021FFF79DFC5246A7
:106CE00003463D49204600F0F9FE062F09D8DFE8AB
:106CF00007F0046A4249525D33004946204600F0DD
:106D0000EDFE2B7A052B05D06B7A5BB93349204613
:106D100000F0E4FE204600F0D5FE84F80C8004B0BC
:106D2000BDE8F0872E4A2F49204600F0D7FEEDE758
:106D3000FFF79EFC2C4B2B4953F82020204600F0F7
:106D4000CDFE297AA888C4E7254A00922749284A17
:106D5000204600F0C3FEB6E7D6E90410D6E90023CA
:106D60000390D6E902070291CDE900074946204683
:106D700000F0B4FEC5E74946D6E90023204600F0FE
:106D8000ADFEBEE7B168D6E9002320460091494632
:106D900000F0A4FEB5E7D6E90201D6E9002301918F
:106DA00000904946204600F099FEAAE7D6E9037113
:106DB000B068D6E900230291CDE900074946204694
:106DC00000F08CFE9DE732684946204600F086FEC2
:106DD00097E700BF44C6020034C6020040C6020066
:106DE00028C6020030C60200D0C5020010C602004C
:106DF00008C60200082900D970472DE9F04F1D464A
:106E0000904600232A7B2B7385B0B8F80630039296
:106E100007460E46002B7BD198F80810052911D0A3
:106E200098F80930B8F80400002B63D13C4B53F8B4
:106E300021400021FFF7F0FB22460346394928464E
:106E400000F04CFEDFF8FCB0DFF8FC90002405E019
:106E50003A5D013400F042FE082C09D0A6424946B2
:106E60002846F5D85946013400F038FE082CF5D1F3
:106E70002D49DFF8D8B0DFF8D890284600F02EFE74
:106E800000240CE017F804A0BAF17E0F23D92E22BB
:106E900049462846013400F021FE082C08D0A642BD
:106EA000F0D859462846013400F018FE082CF6D1D7
:106EB00098F80830052B02D098F80930A3B91B497F
:106EC000284600F00BFE284600F0FCFD039B2B73C8
:106ED00005B0BDE8F08F05F0D9FA5044524643782A
:106EE00013F0970FD3D0D3E7114A1249284600F088
:106EF000F5FDE4E7FFF7BCFB0F4B0E4953F82020EC
:106F0000284600F0EBFD98F80810B8F804008DE76B
:106F1000074A009209490A4A284600F0DFFD7BE74C
:106F200044C6020034C6020000C6020040C6020089
:106F300028C6020030C60200D0C5020010C60200FA
:106F400008C60200FCC50200F4C502003CC60200EF
:106F500004C60200434B1978002900F081802DE916
:106F6000F04F002487B001258E4603E00134E4B2DF
:106F7000744560D23C4B27B21E6816F837C0ACF19E
:106F8000200205FA02F9394ACCF12003D2E90001C6
:106F900025FA03F349EA030905FA0CF800EA0802A6
:106FA00001EA0903134306EBC70BDFD021EA09030B
:106FB0002E4920EA08026046C1E9002301F0B0FF33
:106FC00016F837C0ACF1200205FA02F201920199DD
:106FD000CCF12003C6B225FA03F3ACF12002194329
:106FE00006FA02F30393224B0191D3E90023CDE982
:106FF000042305FA0CF30093CCF12001039B26FA3D
:1070000001F10B43039306FA0CF30293DDE90467E5
:10701000DDE9002316401F4032463B46DDE90267AA
:10702000BB4208BFB24209D00E4B013493F800E0D6
:10703000E4B274459ED307B0BDE8F08F9BF8011011
:10704000DBF80430A1F10101B1FA81F14909091A13
:10705000B1FA81F14909002BE6D060469847E3E791
:10706000704700BF302800206828002060280020DA
:10707000582800202DE9F84F0646244800F0DAFB96
:10708000D8B9234F0123A6F1200103FA01FBC6F171
:107090002002D7E9000123FA02F24BEA020B03FABD
:1070A00006FA00EA0A0201EA0B03134307D020EABA
:1070B0000A0421EA0B05C7E90045BDE8F88F304610
:1070C00001F02EFF134ED6E90089C8B148EA0A0341
:1070D00049EA0B049846A146D7E900234BEA030589
:1070E0000D4B0A4819684AEA02044B464246C6E973
:1070F0000023C7E900450022BDE8F84F00F044BB7B
:1071000028EA0A0829EA0B09E6E700BF3828002028
:10711000602800205828002034280020042A36D96E
:107120002DE9F04182B00E460546144601F082FD7D
:10713000002836D01D491E4A1E4B0D601E481F49AF
:107140001C60167000230022741EC0E90023C1E9F0
:107150000023E4B2EEB105EBC404194F083D4FF033
:107160000008032601E0AC4213D0A37820788DF804
:1071700006803A4601A98DF804608DF8053001F0CB
:1071800063FD083C0028EED002B0BDE8F081072086
:1071900070470C4A0C48002100F0E4FA02B0BDE848
:1071A000F08101F0FDFC0028C4D0EDE76828002044
:1071B0003028002034280020582800206028002093
:1071C00075700200556F0200B0C6020070B5084D20
:1071D0002B785BB1074E00243368012113F834008B
:1071E00001F022FE2B780134A342F5D8002070BDB7
:1071F000302800206828002000B585B000230390C7
:10720000194601AA44F20100CDE9013300F004F867
:1072100005B05DF804FB00BF10B572B6FFF72EFD98
:10722000FFF7ECFC0028FBD1104B114C1149E41A7C
:10723000E408240444F00100FFF730FA0E4B1B6809
:10724000DB0700D500BE44F002000C49FFF726FA28
:10725000BFF34F8F0A490B4BCA6802F4E062134335
:10726000CB60BFF34F8F00BFFDE700BF58D30200D4
:1072700080D30200B4C60200F0ED00E0C0C60200F8
:1072800000ED00E00400FA05F8B5204A204B002488
:10729000C2F84041C2F84441C2F84841C2F84C41EA
:1072A000C2F80041C2F804411B6833B31949D2F84F
:1072B00004550A68AD1A1A6825F07F45AA42274688
:1072C0000DD8197CDE69AD1A144419B11F74D3E9C5
:1072D000052090471EB133461A68AA42F1D90E49DB
:1072E0000E4A0B7812789A4208D00D490D4A41F89F
:1072F00023404FF48013C2F80031F8BD531CDBB2B9
:10730000022B08BF00230B70EFE700BF0010014005
:107310008C2900208829002085290020842900202C
:107320007C29002000E100E02DE9F04F8C4A8D49D6
:1073300013780978DFF85082994285B0D8F800A018
:1073400000F07B810133DBB2022B08BF00238648AB
:107350001370864A076852F823107B1823F07F4386
:1073600000240360534626462046A446ABB11A6863
:107370008A4200F26581DC68C3F800C0891A1044B3
:10738000DA6934B13D1825F07F45C3E90154DE6167
:107390001E4613460124002BE9D1002C40F07C81CD
:1073A00001230093724B734FDFF8E09143F0010328
:1073B000019355464FF0000B46B3D6E901C1344660
:1073C000F669694B6C481A68ACEB020323F07F4303
:1073D000834248D80B44236000220121C4E90122E2
:1073E000E2612174002D5DD02A689A424DD2284670
:1073F00003E00A689A424FD20846C1699B1A0029E5
:10740000F7D12360E161C461002ED6D17878397854
:10741000884264D00B4603EB43034C1CBA7807EB5D
:10742000C303E1B28A421A79397004BF002139706E
:10743000022A9C6844D0032A38D0012AE8D1227C51
:10744000002AE5D1D3F80CC0C4F804C01969A160C2
:107450005869E06099F800009B69A3610028B0D0EA
:1074600062609446ADE7A2EB0C0222F07F428A42B2
:1074700002D28B1A2360AFE700230122C4E9003354
:10748000A360E36122746DB12A68C8F80040D31A82
:107490002B60E56125468FE7D21A0A602360E1611F
:1074A000C461B1E7C8F80040254685E7002DAFD09C
:1074B00000232B74ED69002DFBD1C8F80050A5E71F
:1074C0004DB1AC422B4603D1E4E094422FD0134699
:1074D000DA69002AF9D10023237488429AD1BBF1DA
:1074E000000F01D1554553D0002D56D1234E244ACB
:1074F0001F4C4FF480334FF400310127C2F8801045
:107500003C43C6F848334FF43C60C6F80833776014
:10751000A047154BB7604FF43C601D60A047194B66
:107520001D70002389F8003005B0BDE8F08FA3423C
:1075300000F09180E0692168D861002800F0868021
:107540002A4603680B440360AA424FF000033978CF
:10755000787823741CBF15464FF0010BBDE700BFC0
:107560008429002085290020882900207C290020EA
:10757000D0C602006C280020FEFF7F0000100140F2
:1075800000E100E0792900208C29002078290020E2
:10759000009B002BC5D0002DA8D0434B434A1C684C
:1075A000D2F80465424FD5F800A03978331B23F098
:1075B0007F43DD1CB9B93F493F4B4FF48030C2F8DF
:1075C00044034FF00108C2F804034FF40030C1F83F
:1075D000800143F001030860C2F800804FF43C6072
:1075E000984787F80080AA452CBF04EB0A0363196B
:1075F0002E4923F07F43C1F84035D1F80425921B72
:107600009B1B22F07F4223F07F4303329A4288D9AA
:10761000294BD1F80425C1F8402543F001034FF46C
:107620003C609847234B4FF40032C3F800210023FD
:1076300089F8003005B0BDE8F08F00260096B1E66D
:1076400074BB521A1A6001230093ABE60023397809
:107650007878237441E71946EA69C8F8002092B99E
:10766000CDE90231114BDFF840C001209860019B49
:1076700089F80000CCF800204FF43C609847DDE921
:107680000231D8F80020C8690968D86100287FF461
:1076900058AF59E72946DFE7C8F800309A467FE639
:1076A000C8F800309A46CCE7882900200010014035
:1076B0007929002000E100E0D0C602002DE9F8435E
:1076C0001F4D204E204FDFF898804FF480334FF449
:1076D00000324FF001090024C6F8802047EA09076C
:1076E000C5F848334FF43C60C5F80833C5F804903A
:1076F000B847C5F808904FF43C60C8F80040B84758
:10770000124A134B13491C601470134B134A0C702C
:107710000B2114701C8099704FF48012C023C6F89E
:10772000802186F814333260C5F8084586F8113395
:10773000D5F80435C8F800302046BDE8F88300BF0E
:107740000010014000E100E0D0C6020079290020CD
:107750008C290020842900206C2800208529002005
:1077600088290020074B9B784BB132B128B10368C0
:10777000187C20B959745A61704707207047082057
:10778000704700BF6C2800202DE9F047264CA378F5
:1077900082B0002B3CD000283AD004293CD9436960
:1077A000002B35D0814602A899F811300026012B14
:1077B00000F8016D0CBF8846B04617468A4600F0B7
:1077C00073F86378A17822789DF807005D1CEDB20C
:1077D000A94208BF3546AA4222D003EB430304EB7B
:1077E000C3030121114AC3F808901971D2F8042586
:1077F0006570C3E9032AC3E9058700F07BF80C4BE9
:107800004FF480123046C3F8002102B0BDE8F08783
:10781000082002B0BDE8F087072002B0BDE8F0877D
:1078200000F068F80420F0E76C2800200010014008
:1078300000E100E0F0B51A4CA37883B043B338B34D
:1078400043692BB3064602A8002500F8015D357494
:1078500000F02AF86278A77821789DF80700531C79
:10786000DBB29F4208BF2B46994214D002EB420282
:1078700004EBC202022196601171637000F03AF8C5
:10788000084B4FF480122846C3F8002103B0F0BD26
:10789000082003B0F0BD00F02DF80420F9E700BF88
:1078A0006C28002000E100E070B4EFF3108472B6A1
:1078B0000D4B9A68AAB90D490D4E01259D60D1F86E
:1078C000805035401D60C1F88060D1F884505D6003
:1078D0004FF0FF33C1F88430027004B962B670BC57
:1078E000704701230370F8E7742F002000E100E0E7
:1078F000FC06FFBD094B9A687AB170B910B4EFF37A
:10790000108172B6064A1C6814605C685460986006
:1079100001B962B65DF8044B70477047742F0020C0
:1079200000E100E001F01F024B09012100EB8300A0
:10793000914000F01FB800BF01F01F020123490968
:10794000934000EB8100D94300F020B84B0901F0CF
:107950001F0150F82300C84000F00100704700BF2D
:1079600050E8002F0B4640E8003C9CF0000FF7D198
:107970001046704750E8003F43EA010240E8002CFF
:107980009CF0000FF6D11046704700BF50E8003F52
:1079900003EA010240E8002C9CF0000FF6D11046EB
:1079A000704700BF50E8003F03EB010240E8002CA5
:1079B0009CF0000FF6D11046704700BF50E8003F22
:1079C000A3EB010240E8002C9CF0000FF6D110461A
:1079D000704700BF012350E8002F42EA030C40E843
:1079E00000C191F0000FF6D160467047002350E8C7
:1079F00000CF0CEA030240E8002191F0000FF6D11D
:107A000060467047B8B130B4D0E90112521A046828
:107A1000D2B2531E2160DBB242B101680A685C1E1B
:107A2000551C0D601370E3B2FF2BF6D103680020E4
:107A3000187130BC70470E20704700BFF0B583B09E
:107A400002AB002503F8015D04461846FFF72CFF42
:107A5000D4E900311A688A4210D9511E1960216890
:107A6000A3680F6812F8015C0A79268AE068DB1BBC
:107A7000DBB29A4206FB050538BF0B719DF8070083
:107A8000FFF738FF284603B0F0BD00BF30B583B024
:107A900002AB002203F8012D054618460C46FFF7FD
:107AA00003FF2A681368591C1160E9682A8A641A5E
:107AB000B4FBF2F41C709DF80700FFF71BFF03B046
:107AC00030BD00BF826842B110B504464369016809
:107AD000006998470023A36010BD70470EB400B53D
:107AE00082B0039929B102AA04AB42F8043D00F028
:107AF000A9F802B05DF804EB03B070472DE9F04F30
:107B0000924683B051450F4605461E46DDE90CB24C
:107B1000C0F092800B464FF00108B3FBFAF39A4590
:107B200008F10108F9D9B04538BFB04612F0010993
:107B3000A96802D1BBF1000F54D1012402E0013E3B
:107B40000AFB04F4012EFAD8B7FBF4F08245F7D90A
:107B50003B4E02E0A968B7FBF4F0335C2A680A2BBD
:107B600004FB107702EB010E01F1010029D0A8609F
:107B70008EF80030D5E90131994202D32846FFF74B
:107B8000A1FFB4FBFAF4002CE4D1B9F1000F15D039
:107B9000BBF1000F12D0C34510D92024AB682A686E
:107BA000591CA960D454D5E901329A420BF1FF3B2C
:107BB00014D2BBF1000F01D0C345EFD103B0BDE833
:107BC000F08FA8604FF00D005054D5E901108842A5
:107BD0001DD2296801EB000E0130C8E72846FFF7E7
:107BE00071FFE6E7930722D42024C345A5D92B686B
:107BF0004A1CAA605C54D5E9013199420BF1FF3B64
:107C000010D2BBF1000F98D0C345F0D195E72846BC
:107C10000193FFF757FFAA682968019B501C01EBED
:107C2000020EA4E72846FFF74DFFA968E9E7002EFA
:107C30000CBF30242024D8E74FF0010873E700BFC1
:107C4000D8C60200002900F0B9822DE9F04F0546A0
:107C500087B091460C460E78DFF8C8A64FF00D0BA2
:107C600013E0AB6828680A2E03F1010200EB030160
:107C700000F04B82AA600E70D5E901329A4280F082
:107C80001B812678002E00F01E810134002E00F0AA
:107C90001A81252EE5D12346002713F8012B2D2A22
:107CA00000F0E380302A00F0E4802B2A00F0D4803A
:107CB0002A2A00F00D81A2F13006F1B2092903D978
:107CC0007DE2A1F130060346184606EB860110F866
:107CD000012BA2F13004092C02EB4101F1D92E2A2B
:107CE00000F002814FF00008013301E013F8012B8E
:107CF00002F0FB0168291C46F8D0253A532AC0D867
:107D000001A353F822F000BFF3800200837C02003D
:107D1000837C0200837C0200837C0200837C02005F
:107D2000837C0200837C0200837C0200837C02004F
:107D3000837C0200837C0200837C0200837C02003F
:107D4000837C0200837C0200837C0200837C02002F
:107D5000837C0200837C0200837C0200837C02001F
:107D6000837C0200837C0200837C0200837C02000F
:107D7000837C0200837C0200837C0200837C0200FF
:107D8000837C0200837C0200837C0200837C0200EF
:107D9000837C0200837C0200837C0200837C0200DF
:107DA000837C0200837C0200837C0200837C0200CF
:107DB000837C0200837C0200837C0200837C0200BF
:107DC000837C0200837C0200837C0200837C0200AF
:107DD000837C0200D7800200837C0200837C020047
:107DE000837C0200837C0200837C0200837C02008F
:107DF000837C0200837C0200837C0200837C02007F
:107E00007B7E02005D800200837C0200837C020096
:107E1000837C0200837C02005D800200837C020080
:107E2000837C0200837C0200837C0200837C02004E
:107E3000837C0200C57F0200837C0200837C0200F9
:107E40003D7F0200837C0200217F0200837C0200D0
:107E5000837C0200D780020047F004071C462346BB
:107E600013F8012B2D2A7FF41DAF47F001071C46A4
:107E7000F5E747F002071C46F1E7D9F800301A1D74
:107E8000C9F800201E78AB680A2E0CD12A68591C4C
:107E9000A96002F803B0D5E90123934203D3284631
:107EA000FFF710FEAB682A68591CA960D654D5E9C3
:107EB00001329A42FFF4E5AE2846FFF703FE26782A
:107EC000002E7FF4E2AE2B7B23BB07B0BDE8F08F22
:107ED000D9F80020111DC9F80010166862782E2A02
:107EE00004F102007FF4FEAE5A78A2F13003092BB0
:107EF00000F2BD814FF0000808EB880802EB48084B
:107F000010F8012FA2F13003092BA8F13008F3D9A2
:107F10000346E9E6284607B0BDE8F04FFFF7D2BDBB
:107F2000D9F800301A1DC9F8002019680197434696
:107F300000960A222846FFF7E1FDA2E6D9F80030B4
:107F40001A1DC9F80020D3F80080FB0700F1E88073
:107F5000B8F1000F00F0A181404604F0E3FA0746B3
:107F6000BE4215D9A6B1202100E08EB1AA682B68C7
:107F7000501CA8609954D5E901329A4206F1FF36A7
:107F800004D328460391FFF79DFD0399BE42ECD12F
:107F900008F1FF3818F8016F002E3FF472AEAB689D
:107FA00028680A2E03F1010200EB030100F0908122
:107FB000AA600E70D5E901329A42EBD32846FFF74A
:107FC00081FDE7E7D9F80020131DC9F80030AB6840
:107FD00029681768581C3022A860CA54D5E90123C3
:107FE000934280F0E6802A68581C7821A860D1541A
:107FF000D5E90123934280F0D7800F2F03D93A4669
:1080000012090F2AFCD84FF080560DE0AA6081F8C3
:108010000080D5E901329A4202D32846FFF752FD8B
:1080200036093FF42EAEAB68B7FBF6F21AF80280C1
:108030002868B8F10A0F06FB127700EB030103F181
:108040000102E3D1AA6000F803B0D5E901329A42F7
:1080500080F049812B6899180132D7E7D9F80030B0
:108060001A1DC9F80020196881EAE173A3EBE173D6
:10807000092B40F30E81AA480122A0FB03C3DB08B1
:10808000092B02F10102F8DC4245134638BF434692
:10809000039307F00203002E40F09580002B00F0C0
:1080A000B780B8F1000F00F0F680F80740F1B0801B
:1080B0000029C0F2FF807A0700F1C88007F00303AF
:1080C000022B00F0A780CDE9006743460A2228462C
:1080D000FFF714FDD5E5D9F800301A1DC9F80020C6
:1080E000196801974346009610222846FFF706FDBF
:1080F000C7E5AB682A68581C2521A860D154D5E98A
:1081000001329A42FFF4BDADD6E6AA6000F803B092
:10811000D5E901329A423FD2296811440132A9E5DA
:108120004146A1EB080311F8017BD7B1AB68D5F844
:1081300000C00A2F03F101020CEB030000F0AF8036
:10814000AA600770D5E901329A42EAD32846039122
:10815000FFF7B8FC0399A1EB080311F8017B002F8E
:10816000E4D19E427FF68DAD202702E0002E3FF441
:1081700088ADA9682A68481CA8605754D5E9012130
:10818000914206F1FF3604D328460393FFF79AFC89
:10819000039BB342EAD174E52846FFF793FCAB6832
:1081A00029685A1C194465E52846FFF78BFCAB6823
:1081B00023E72846FFF786FCAB6814E770471846AC
:1081C000002623468BE5002920DB7A071ED41BB14D
:1081D000B8F1000F3FF46CAFF8073FF569AFBEB1DF
:1081E000039BB342BFF464AF2023AA68501CA8606D
:1081F00028688354D5E90102824206F1FF3640D255
:1082000036B1039AB242F0D1164651E7013EDEE79D
:1082100000264DE7B8F1000F7FF455AF002E6AD06D
:10822000039BB342BFF44FAF3023AA68501CA86031
:1082300028688354D5E90102824206F1FF3618D23C
:10824000002E58D0039AB242EFD13CE7AA68531CE3
:10825000AB602B682B209854D5E901329A42FFF489
:108260002DAF28460491FFF72DFC049926E703461D
:1082700038E52846CDE90413FFF724FCDDE90413B3
:10828000DEE72846CDE90413FFF71CFCDDE9041303
:10829000B6E70122F8E646460AE7474660E6AA60E6
:1082A0000CF803B0D5E901329A4226D22B6898180F
:1082B000013245E7AA68531CAB602B682D20985407
:1082C000D5E901329A42C1F10001FFF4F7AEC8E7E7
:1082D000AA6000F803B0D5E901329A4217D22968A2
:1082E0001144013264E62846FFF7ECFBA9682B68CD
:1082F0004A1C19448AE60026E5E628460391FFF762
:10830000E1FBA8682B680399421C184418E728462B
:10831000FFF7D8FBAB6829685A1C194448E600BF30
:10832000CDCCCCCCD8C60200FFF76CBB2DE9F04118
:10833000058ACE1C043D2E440746B6FBF5F6FFF732
:108340007DFB78B3F6B24FF48073013E0446C580DE
:108350000760838027D08046002509E06379AE421C
:1083600003F101036371C8F80000076080461AD06A
:108370003846FFF763FB01350028EFD16679721E9E
:1083800014D02346013082421B68FBD11F684EB1D6
:10839000002523682146013538461C46FFF776FB49
:1083A000AE42F6D100242046BDE8F0812768EFE711
:1083B00004300121FFF7F6BAF8B501210446043074
:1083C000FFF7FCFAC0B200B1F8BD6679721E12D098
:1083D0002346013082421B68FBD11F68002EF3D078
:1083E000002523682146013538461C46FFF74EFB21
:1083F000AE42F6D1F8BD2768F2E700BF2DE9F84399
:10840000C788467907FB06F6043E02EB030C0446D8
:10841000664503F1040015468846B0FBF7F238BF05
:10842000F51A07FB120012B1013A2468FCD13E1A7A
:10843000AE4228BF2E469DB14FF000090430AD1B5F
:108440002044324608EB090104F04FF8AF42B14432
:1084500024683E464FF0000028BF2E46002DEDD187
:10846000BDE8F8832DE9F843C7884679154607FB30
:1084700006F6043E05EB030C1A1D664504468846C5
:10848000B2FBF7F038BFF51A07FB102110B1013825
:108490002468FCD17E1AAE4228BF2E469DB14FF013
:1084A000000904312144AD1B324608EB090004F0F9
:1084B0001CF8AF42B14424683E464FF0000128BF8B
:1084C0002E46002DEDD1BDE8F88300BF41DF704797
:1084D000064A074B10B5002414701C60BFF35F8F71
:1084E0000449054800F040F8204610BD98290020B6
:1084F0009C290020E8C602009029002000B583B026
:1085000002A8002300F8013DFFF7CEF9F1EE103A82
:1085100023F09F03E1EE103ABFF35F8F0A4B402236
:10852000C3F884219DF80700FFF7E4F903F0F8FD94
:1085300028B920BF40BF20BF03B05DF804FBFFF7A0
:10854000C5FF03B05DF804FB00E100E08268002392
:10855000936082681361826853618268D360826825
:10856000536082681360704701600B6843604A681B
:10857000934204BF00234360704700BF436843B188
:10858000026891680B4443605268934204BF002321
:108590004360704730B4184DA5F59472AB1ADB10E8
:1085A00003EBD3735B1002EBC30152F833309842F4
:1085B00028BF0C4605D311E052F8333098420CD254
:1085C00021468B1ADB1003EBD3735B108A4202EB5C
:1085D000C304F1D3094830BC70470D46984204D912
:1085E00004F10802AA42D9D3F4E76068034B0028DB
:1085F00008BF1846EFE700BF3CC8020000C70200F2
:1086000010B44FF080414FF080520020C1F80C01AF
:108610005E4BC1F81001C1F83805D2F80414C3F854
:108620002015D2F80814C3F82415D2F80C14C3F896
:108630002815D2F81014C3F82C15D2F81414C3F866
:108640003015D2F81814C3F83415D2F81C14C3F836
:108650004015D2F82014C3F84415D2F82414C3F8F6
:108660004815D2F82814C3F84C15D2F82C14C3F8C6
:108670005015D2F83014C3F85415D2F83414C3F896
:108680006015D2F83814C3F86415D2F83C04C3F866
:108690006805D2F840043E49C3F86C050968D2F871
:1086A0004424C3F87025082924D04FF08043D3F820
:1086B0000024D20744BF6FF00102C3F80024354AFA
:1086C000D2F8883043F47003C2F88830BFF34F8F7C
:1086D000BFF36F8F4FF01023D3F80022002A23DB63
:1086E000D3F80432002B1FDB2B4B2C4A1A605DF8A9
:1086F000044B70472A4B1B68002BD6D129482A4AC5
:108700002A4C04602A492B4BFB20C2F818050A6842
:108710001B68294822F00F0203F00F0313434FF4A4
:1087200000720B600260C0E7244B0122C3F80425ED
:10873000D3F80024002AFBD04FF0102312221F4947
:10874000C3F80022D1F80034002BFBD04FF01022E8
:1087500012211A4BC2F80412D3F80024002AFBD0CD
:1087600000221649C3F80425D1F80034002BFBD0B1
:10877000BFF34F8F0749124BCA6802F4E0621343FC
:10878000CB60BFF34F8F00BFFDE700BF00C00040CC
:108790003001001000ED00E08C1D00200090D0039F
:1087A000340100108C56004000F000404881030066
:1087B000E40E0040580200104096024000E00140E4
:1087C0000400FA05074B1B5C1F2B86BF03F01F0339
:1087D00005494FF0A041012202FA03F3C1F80C351C
:1087E000704700BF28CC020000030050074B1B5C01
:1087F0001F2B86BF03F01F0305494FF0A041012244
:1088000002FA03F3C1F80835704700BF28CC020014
:1088100000030050C30706D4830742BF2E4B0C222F
:10882000C3F81827704770B44FF08043D3F8403630
:10883000DA0722D44FF0A0432749032240264FF401
:1088400080754FF40074C3F81827C3F82027C1F8C7
:108850002427C3F83027C3F808654FF48052C3F8C3
:108860000855C1F808458107C3F8082503D51A4BF8
:108870000C22C3F8182770BC70474FF01023D3F8B0
:10888000043303F00703072BD4D1144B0122C3F8A0
:108890000425D3F80024002AFBD04FF0102100203B
:1088A000D1F804230D4C22F0070242F00402C1F873
:1088B0000423C3F80405D4F80034002BFBD0BFF325
:1088C0004F8F0749074BCA6802F4E0621343CB603D
:1088D000BFF34F8F00BFFDE70003005000E00140F1
:1088E00000ED00E00400FA0510B570B101280BD1CD
:1088F0000D4C2369A0703BB1D3E900230120226114
:1089000098472369002BF7D110BD074CA3680122BB
:108910006270002BF8D0D3E900230020A2609847B2
:10892000A368002BF7D1EFE7A029002070B910B59C
:10893000074CA368012262703BB1D3E900230020F9
:10894000A2609847A368002BF7D110BD704700BF05
:10895000A029002030B5012883B01CD015D30328EE
:1089600011D100F0CDF802A800231F4C00F8013D02
:10897000FEF79AFFE368013BE360E56865B39DF8A5
:108980000700FEF7B7FF03B030BD184B0122C3F854
:10899000802003B030BD02A80023134C00F8013D35
:1089A000FEF782FF237853B1E3689DF80700013397
:1089B0000122E360A270FEF79DFF03B030BD0C48BA
:1089C0006360A3602361E36000F08CF803F0A8FB10
:1089D00030B101232370E7E700F0A4F8A570CEE7DB
:1089E00000F08EF8F5E700BFA029002000E100E0CC
:1089F000E988020030B585B0047845688DF80040FC
:108A0000D0E90240064A074B039053F82130019504
:108A10008DF8084052F821106846984705B030BDDF
:108A2000B4290020BC29002030B585B00478456801
:108A30008DF80040D0E90240064A074B039053F8F6
:108A4000213001958DF8084052F82110684698476A
:108A500005B030BDB4290020BC2900202DE9F04329
:108A6000DFF8748006784B7F08F806300D4607461D
:108A700096460FCD89B06C460FC495E80F003D783F
:108A8000DFF85890DFF858C018F8055049F826E08C
:108A900084E80F004CF82600049665B1BEF1000F83
:108AA0000B4A694607F1040008BF002201F076F87E
:108AB00009B0BDE8F083BEF1000F064A694607F130
:108AC0000C0008BF002200F005FE09B0BDE8F083ED
:108AD000F5890200298A0200802F0020BC2900208D
:108AE000B4290020054A13792BB901211060537174
:108AF0001846117170478520704700BFC4290020B7
:108B0000074B1A68D20704D4C021012283F800134E
:108B10001A604FF080430122C3F81825704700BF48
:108B200000E100E0044B01221A604FF08042D2F8CD
:108B30001834DB03FBD470470C00004010B5154B14
:108B40001A6882B07AB10021134A19601B68507903
:108B500000934FF080410123009CC1F8083310B905
:108B60001168537188470D4B1A6882B100221A6050
:108B70001B6801934FF080420221074B0198C2F815
:108B800008131B68012002B0BDE81040184702B06E
:108B900010BD00BF00010040C429002004010040B6
:108BA00030B5204C94F86A5083B0002D36D14FF088
:108BB000FF332946062204F16400C4E90033C4E906
:108BC0000233C4E90433C4E90633C4E90833C4E911
:108BD0000A33C4E90C33C4E90E33C4E91033C4E9E1
:108BE0001233C4E91433C4E91633236603F088FC56
:108BF0000D4A0E4B0E491D60C02082F8060340202E
:108C000010601B68019301984FF000430122284631
:108C100084F86A20C1F8043303B030BD082003B0E3
:108C200030BD00BFCC29002000E100E07C610040A5
:108C300000600040034B93F86A00003018BF012029
:108C4000704700BFCC290020F0B5744B1C1894F974
:108C50003050002D6ADA8E78C6F340069646002E14
:108C60005ED11D6A013500F0C48009240C2553F83B
:108C7000247001375DD004F1010C53F82C700137DA
:108C800000F0C280A71CAF4248D253F8272001321F
:108C900000F0BC8004F1030CAC453FD253F82C70BB
:108CA000013700F0B18004F1040CAC4536D253F822
:108CB0002C70013700F0A88004F1050CAC452DD2D2
:108CC00053F82C70013700F09F8004F1060CAC457E
:108CD00024D253F82C70013700F0968004F1070C71
:108CE000AC451BD253F82C70013700F08D8004F195
:108CF000080CAC4512D253F82C70013700F0848078
:108D000004F1090CAC4509D253F82C7001377BD023
:108D10000A34AC4202D2DC6A013409D00420F0BD2E
:108D20001D68013574D001240825A0E70820F0BD96
:108D30000B241F1865B243F824E087F83050002E4A
:108D40005ED08A7854071AD4D60741D41F284A78AF
:108D500087BF334E00F01F0404464FF0A04604F5D1
:108D6000E074920046F824202E4EC40800F0070C50
:108D7000375D012202FA0CF23A4332558A780C78B8
:108D800012F0020209D1083D2B44104693F86020EE
:108D900042EA841483F86040F0BDAB0003F18043E5
:108DA00003F5C0430202D3F8101521F44F3121F42A
:108DB0004071C3F810152404D3F8101504F440349E
:108DC00002F47C5222430A43C3F810250020F0BD70
:108DD0001F2887BF124A00F01F0404464FF0A0422C
:108DE00002EB8402D2F8004724F00204C2F80047E4
:108DF000BAE7082684F83060C3F820E035463446E8
:108E00001C4484F858009CE7644692E73C4690E78F
:108E100000251A6084F8305093E700BFCC29002069
:108E200000030050302A002070B43A4D2E1883B051
:108E300096F93030072B20DD2B4493F858309B09EE
:108E4000032B45D0012B14BF4FF440314FF40031B8
:108E50001F284DD900F01F002F4B03EB8000D0F8E6
:108E6000002722F44032C0F80027D0F800370B4327
:108E7000C0F8003703B070BC7047DAB2072AF9D8DF
:108E8000980000F1804000F5C04003F14002D0F8A6
:108E90001045920092B244F0010402F18042C0F801
:108EA000104502F5C04200200190019C106000298D
:108EB000E0D096F9302055F82220002ADAD001229D
:108EC000164902FA03F3C1F8043303B070BC7047CB
:108ED0001F2810D9104BD3F8103500F01F00C340E5
:108EE00013F0010F0CBF4FF400314FF44031B3E7E2
:108EF0004FF0A043B1E74FF0A0421346D2F810253F
:108F0000C24012F0010F14BF4FF440314FF4003152
:108F1000A3E700BFCC290020000300500060004000
:108F20001F288ABF054B4FF0A04300F01F00D3F865
:108F3000103523FA00F000F00100704700030050E4
:108F40002DE9F047002388B0CDE90233CE4A1668F8
:108F5000012E00F03B821E46CC4B1A68012A00F01D
:108F60002782CB4B1A68012A00F01482C94B1A6879
:108F7000012A00F00182C84B1A68012A00F0EE8134
:108F8000C64B1A68012A00F0DB81C54B1A68012A1A
:108F900000F0C881C34B1A68012A00F0B581C24BAA
:108FA0001A68012A0FD100221A601B6801934FF042
:108FB000A042019BD2F81025BC4B0292D3F8103589
:108FC000039346F0004616F0FF0F1AD0B84F002466
:108FD0000125A30003F180432E4203F5C0434FEA6D
:108FE00045050BD0D3F8100557F82420D3F81015F9
:108FF000C0F30520C1F3014102B190470134082CB0
:10900000E7D1002E02DB08B0BDE8F087A84CA74FDF
:109010004FF0FF33CDE9063394F960300DF11008BD
:1090200000225D1CC8F8042004924FF0010600F0F5
:10903000F4805FFA83FC2CF0C00008AB4FEAD00943
:1090400003EB090E0CF007031EF8082C06FA03F3D5
:1090500012EA030521D022184FEA9C1192F9302020
:1090600054F82220002A00F02981032900F02881E9
:109070001F2800F2F98005464FF0A04C0CEB850C40
:109080001EF8185CDCF800E71D40CEF3014E40F0FE
:10909000DF80BEF1030F00F0BF8194F96130581CEE
:1090A00032D0DBB223F0C00008AA4FEAD00E02EBA8
:1090B0000E0C03F007011CF8082C06FA01F912EA5D
:1090C000090F21D02218990992F9302054F8222052
:1090D000002A00F0FB80032900F0FB801F2800F22B
:1090E000E98003464FF0A04E0EEB83031CF818EC0A
:1090F000D3F800C71EEA090FCCF3014C40F0B8804A
:10910000BCF1030F00F0AE8194F96230591C30D0ED
:10911000DBB223F0C00008AA4FEAD00E02EB0E0C1F
:1091200003F007011CF8082C06FA01F912EA090FEE
:109130001FD02218990992F9302054F82220002AD1
:1091400000F0D880032900F0D8801F287CD803467F
:109150004FF0A04E0EEB83031CF818ECD3F800C7B9
:109160001EEA090FCCF3014C64D1BCF1030F00F0EF
:10917000658194F963305A1C34D0DBB223F0C0000F
:1091800008AA4FEAD00E02EB0E0C03F007021CF8FF
:10919000081C06FA02F2114224D004EB00099909D6
:1091A00099F9309054F82990B9F1000F00F09880A7
:1091B000032900F098801F288BBFBE464FF0A04EB9
:1091C00003F01F0303460EEB83031CF818ECD3F8DF
:1091D00000C71EEA020FCCF3014C20D1BCF1030FF3
:1091E00000F00181002D3FF40EAF4FF0A043029933
:1091F000D3F81035D7F81025994203D1039991423D
:109200003FF401AFDDE90401CDE9023294F96030A9
:109210005D1CCDE906017FF40CAF00253DE7BCF1F4
:10922000020FDFD1032900F03481B9F1000F40F0C3
:10923000F180D7E7BCF1020F9BD1032900F0268112
:10924000002A96D0904794E703F01F03BE4681E7BB
:10925000BEF1020FE1D1032900F021810025002A8F
:109260003FF41BAF904718E70CF01F05BC4605E71D
:10927000BCF1020F7FF448AF032900F00D81002AF2
:109280003FF442AF90473FE7006100400461004077
:10929000086100400C610040106100401461004012
:1092A000186100401C6100407C61004000030050D8
:1092B000CC29002003F01F03BE4615E70329ACD1DB
:1092C00018F809501D4308F80950D1E603297FF426
:1092D0001BAF18F80EA04AEA090A08F80EA0FDE62E
:1092E00003297FF47FAF18F80EA04AEA020A08F8B3
:1092F0000EA060E703297FF43CAF18F80EA04AEAFD
:10930000090A08F80EA020E7664AD2F804231706D7
:109310007FF545AE00221A601B680093009B46F063
:1093200080063CE65F4AD2F8042352067FF532AE4F
:1093300000221A601B680093009B46F0400629E655
:10934000584AD2F8042391067FF51FAE00221A6016
:109350001B680093009B46F0200616E6514AD2F89F
:109360000423D0067FF50CAE00221A601B68009320
:10937000009B46F0100603E64A4AD2F8042314077D
:109380007FF5F9AD00221A601B680093009B46F040
:109390000806F0E5434AD2F8042355077FF5E6AD09
:1093A00000221A601B680093009B46F00406DDE56E
:1093B0003C4AD2F8042397077FF5D3AD00221A6008
:1093C0001B680093009B46F00206CAE53549D1F8B8
:1093D000041311F0010104D0136013680093009B83
:1093E000BAE50E46B8E503297FF41FAF4FF4003C01
:1093F000D3F8002722F44032C3F80027D3F800271F
:10940000013542EA0C02EDB2C3F80027B9F1000FB2
:109410003FF4EBAEC847E5E603297FF420AF4FF4F5
:109420000035DCF8003723F44033CCF80037DCF8A3
:1094300000372B43CCF80037012510E703297FF4D0
:10944000FFAE4FF4003ED3F800C72CF4403CC3F805
:1094500000C7D3F800C701354EEA0C0CEDB2C3F8D3
:1094600000C7EDE603297FF40AAF4FF4003ED3F8BE
:1094700000C72CF4403CC3F800C7D3F800C701353F
:109480004EEA0C0CEDB2C3F800C7F8E64FF4403ECC
:10949000D9E74FF4403CABE74FF4403EE7E74FF4E9
:1094A0004035BEE700600040014B1B68184700BF15
:1094B000382A0020104B984201D00020704730B568
:1094C00083B002A8002300F8013D0D46FEF7ECF939
:1094D0000A4B1C7934B19DF80700FEF70BFA1120F6
:1094E00003B030BD01229DF807001D601A71FEF720
:1094F00001FA2046F4E700BF00200040382A00208F
:10950000034B984203D1034B00221A601A71704733
:1095100000200040382A002030B56C4AD2F80433CD
:1095200099058BB066D5D2F82431002B62D0002388
:10953000C2F82431D2F8243103934FF40171644B03
:109540000398C2F8081393F8291009B90121516052
:109550005E4902228DF81820D1F88024C1F88024B9
:109560009869D96809920022CDE90710C3E906225B
:10957000D3E9001406A8A047544AD2F81C31BBB165
:10958000534B186A5969884269D350480022C0F881
:109590001C21D0F81C010190019849B198688DF800
:1095A000182008915A610790D3E9001206A8904745
:1095B000464AD2F84431DBB10021454BC2F8441190
:1095C000D2F8440193F829100090009809B10121C4
:1095D00011609A6962B10022586AD9689A610122C1
:1095E000CDE907108DF8182006A8D3E9001290479E
:1095F0000BB030BD354AD2F804335B07BCD5D2F886
:109600000831002BB8D0324B996900293CD0002199
:10961000C2F80811D2F8081104910499D868596A5F
:10962000D2F8182542545A6A996901325A625A6A24
:109630008A42A1D1DA691968002A2ED0D8685D6AF9
:109640001C699A61079000220120DC60DA615A628D
:109650008DF8180008955B6806A898478CE793F882
:10966000280000F0FF0400288FD1C2F81C41D2F876
:109670001C11029102999C68186A196A205C0131D8
:109680001962C2F81C0593E7C2F80811D2F8080164
:1096900005900598D2F81825C9E793F8292012B942
:1096A0000A4A01205060094A4FF40170C2F80803C9
:1096B000586ADA6808900024012007928DF8180093
:1096C0005A689C6106A8904756E700BF00200040FA
:1096D000402A00202DE9F041714F06792C2505FB29
:1096E000067582B095F82A30002B40F09A800D461E
:1096F00004466C4900689046FFF7DCFE002840F005
:109700008C802B68591C19D01F2B4FF001028ABF87
:1097100065494FF0A04103F01F0302FA03F3C1F8BB
:1097200008352B681F2B86BF03F01F035E4A4FF0DE
:10973000A04203F5E073032142F823106B685A1C22
:109740000BD01F2B86BF03F01F03574A4FF0A042D8
:1097500003F5E073002142F823102368AA69C3F8D7
:109760002425297D6B7D22680B43C2F86C35D5E931
:1097700000122368C3F81425C3F80C152B7D012BA8
:1097800053D02C2303FB06F3FA18C2F804802A698D
:10979000FA50B8F1000F2DD022682B7F434D0021E5
:1097A000C2F81C11D2F81C2100922268DDF800C01A
:1097B000C2F84411D2F84411226801910199C2F80B
:1097C00004532168090B4AB25B01002ADBB261DB5A
:1097D00002F1604202F5614282F800332368344DA1
:1097E0001B0B5AB2520903F01F03012101FA03F3C4
:1097F00045F822302C23246803FB0673002204253D
:109800000121C4F8005583F82A10C3E9062283F821
:1098100029205A6102B0BDE8F081112002B0BDE8F4
:10982000F081082002B0BDE8F081AB68591C0BD074
:109830001F2B86BF03F01F031B4A4FF0A04203F506
:10984000E073002142F82310EB685A1C1BD01F2B39
:109850004FF001028ABF14494FF0A04103F01F03EB
:1098600002FA03F3C1F80835EB681F2B88BF03F039
:109870001F0303F5E0738CBF0B4A4FF0A042032196
:1098800042F82310EB682268A968C2F80835C2F8CC
:10989000101576E7074A01F00F010A4413769DE799
:1098A000402A0020199502000003005080000200A9
:1098B00000E100E0FCEC00E0F8B53A4F0479026802
:1098C0002C2303FB047300215B68C2F8001583B1ED
:1098D0000368354AC3F808230368344D1B0B5AB29A
:1098E0005209203203F01F03012101FA03F345F866
:1098F000223003684FF0FF3CD3F80C65D3F81455C1
:10990000D3F80825D3F81015C3F814C5C3F80CC54F
:1099100003686645C3F808C5C3F810C50CD01F2EF0
:1099200086BF06F01F06224B4FF0A04306F5E076F7
:109930004FF0020C43F826C06E1C0BD01F2D86BFC3
:1099400005F01F051A4B4FF0A04305F5E075022600
:1099500043F825604D1C0BD01F2986BF01F01F0165
:10996000134B4FF0A04301F5E071022543F821505D
:10997000531C0BD01F2A86BF02F01F020C494FF068
:10998000A04102F5E072022341F822300068FFF79F
:10999000B7FD2C2303FB0474002384F82A30636092
:1099A000F8BD00BF402A00208402020000E100E070
:1099B00000030050F0B5314E05792C2303FB0563FD
:1099C00085B05C69002C53D11C62996083F82840F3
:1099D0005A610268C2F81C41D2F81C110268029157
:1099E0000121029F91600268D3F808C0C2F81C41AF
:1099F000D2F81C1101910199D3F820E0196A5F682F
:109A00001CF80EE001311962C2F81CE517B12046BE
:109A100005B0F0BD1A6A5C690168944203D819E088
:109A200093F828203ABBD1F81C21002AF8D0C1F8BD
:109A30001C71D1F81C210392039AD3F820E01A6A12
:109A40001CF80EE001321A62C1F81CE51A6AA24243
:109A5000E9D30168D1F81C31002BFBD00123CB6086
:109A600000202C2303FB056500236B6105B0F0BDCE
:109A7000112005B0F0BD0F20F3E700BF402A002001
:109A8000F0B5444BD3F8242189B0002A52D00021EC
:109A9000C3F82411D3F82421029202228DF8102059
:109AA000029AD3F880043C4AC3F880040790D3F8A4
:109AB0003C05D3680690C2E9061105931168536806
:109AC00004A89847334BD3F84421BAB10021324A55
:109AD000C3F84411D3F8444190690194019C68B1E2
:109AE000D3F83C35D06806930123C2E906110590EE
:109AF0008DF8103004A8D2E900139847254BD3F80D
:109B00002021AAB10021C3F82011D3F82001224A54
:109B100000900098506958B1D3F84C0593680690AE
:109B20008DF810105161059304A8D2E900139847ED
:109B300009B0F0BDD3F810110029C3D0C3F810212B
:109B4000D3F810111448039103998169D3F83C4567
:109B50008C42B7D1C569C768D0E900168DB1D3F87A
:109B600000C285612CF02005C261C3F80052036970
:109B7000C3600122CDE905748DF8102004A8B04718
:109B8000A0E701238561CDE905748DF8103004A8A4
:109B9000B04797E7002000406C2A00202DE9F043F1
:109BA00007797A4E4FEAC70808EB070306EB8303F1
:109BB00085B093F82030002B40F0A8800D46044675
:109BC000734900689146FFF775FC002840F09A80C1
:109BD0002B68591C19D01F2B4FF001028ABF6D4909
:109BE0004FF0A04103F01F0302FA03F3C1F8083558
:109BF0002B681F2B86BF03F01F03664A4FF0A0425D
:109C000003F5E073032142F823106B685A1C0BD054
:109C10001F2B86BF03F01F035E4A4FF0A04203F5DF
:109C2000E073002142F823102368AA69C3F82425B1
:109C3000297D6A7D23680A43C3F86C25D5E9003184
:109C40002268C2F80C35C2F814152B7D012B61D0A7
:109C500008EB07029200B318C3F804902B69B350C5
:109C6000B9F1000F3DD021682B7F4B4D0022C1F888
:109C70001021D1F8101100912168DDF800C0C1F861
:109C80002021D1F8201101912168DDF804C0C1F82C
:109C90002421D1F8241102912168DDF808C0C1F80F
:109CA0004421D1F84411226803910399C2F8045366
:109CB0002168090B4AB25B01002ADBB25FDB02F1CB
:109CC000604202F5614282F800332368334D1B0B7A
:109CD0005AB2520903F01F03012101FA03F345F8B8
:109CE00022304744226806EB87060023012408211E
:109CF000C2F8001586F82040C6E90633736105B046
:109D0000BDE8F083112005B0BDE8F083082005B060
:109D1000BDE8F083AB68591C0BD01F2B86BF03F046
:109D20001F031C4A4FF0A04203F5E073002142F8E4
:109D30002310EB685A1C1BD01F2B4FF001028ABF67
:109D400014494FF0A04103F01F0302FA03F3C1F8D6
:109D50000835EB681F2B88BF03F01F0303F5E07382
:109D60008CBF0C4A4FF0A042032142F82310EB684D
:109D70002268A968C2F80835C2F8101568E7084AD1
:109D800001F00F010A4413769FE700BF6C2A002000
:109D9000819A0200000300501003020000E100E07D
:109DA000FCEC00E0F8B507793A4C0268FE00F319C4
:109DB00004EB830300215B68C2F8001583B10368DC
:109DC000354AC3F808230368344D1B0B5AB25209B5
:109DD000203203F01F03012101FA03F345F822307A
:109DE00003684FF0FF3ED3F80CC5D3F81455D3F8F1
:109DF0000825D3F81015C3F80CE5C3F814E503687B
:109E0000F445C3F808E5C3F810E50DD0BCF11F0F09
:109E100086BF0CF01F0C224B4FF0A0430CF5E07CEA
:109E20004FF0020E43F82CE06B1C0CD01F2D86BFA8
:109E300005F01F051A4B4FF0A04305F5E0754FF0F4
:109E4000020C43F825C04D1C0BD01F2986BF01F022
:109E50001F01134B4FF0A04301F5E071022543F8B9
:109E60002150531C0BD01F2A86BF02F01F020C4941
:109E70004FF0A04102F5E072022341F822303E4447
:109E800004EB86040068FFF73BFB002384F82030D6
:109E90006360F8BD6C2A00201003020000E100E0BE
:109EA0000003005001F06043B3F1005F2CD1F0B427
:109EB0000579244EEF007C1906EB840482B06369B7
:109EC00023BB6261A1600268C2F82031D2F820C1D0
:109ED0000268CDF804C0DDF804C0C2F85831D2F8E9
:109EE000582100920268DDF800C0D4F814C0C2F80E
:109EF0004415C2F848C502680121916062684AB100
:109F0000184602B0F0BC704710207047112002B014
:109F1000F0BC7047036800E08AB9D3F82011D3F889
:109F200058210029F8D0002A14BF0F2000207B19E7
:109F300006EB830300225A6102B0F0BC70470F2089
:109F4000F5E700BF6C2A002070B9012A08D001296A
:109F500011D00BD3022907D1094B00205A7070474A
:109F6000012907D00246F2E707207047044B002082
:109F70009A7070470E22024B00201A70704700BF83
:109F8000902A002010B50388102B07D0112B04D184
:109F9000254B18680138186030B110BD224C21687B
:109FA00081B10131216010BD01220221FFF7CCFFF8
:109FB00038B3072825D01D4B1B68002BEDD0BDE81A
:109FC0001040184701220846FFF7BEFF38B10728A6
:109FD00005D0164B1B6803B198472168E1E70722BB
:109FE00002210120FFF7B0FF08B10728F1D10422B8
:109FF00002210020FFF7A8FF0028EED00728E8D1B3
:10A00000EBE7072202210120FFF79EFF08B1072896
:10A01000D1D1002108460A22FFF796FF0028BCD0C4
:10A020000728C8D110BD00BF982A0020942A00201C
:10A0300075DF704776DF70478FDF70470146014854
:10A0400001F098BD9C2A00200378062B01D14068BE
:10A0500000B97047FDF7D0B826280FD110B50F48CA
:10A060000C4601F075FF58B143F20202904214D041
:10A07000082812D0BDE81040FDF7BEB8FDF7BCB807
:10A080000748084B0849C01AC0080004224640F09F
:10A090000300BDE81040FCF7AFBC10BD9C2A0020B7
:10A0A00080D3020058D3020074CC020070B50D7842
:10A0B000012D0C4613D0022D29D11B4B1B480A79C8
:10A0C0001B49C01AC008000440F00300FCF794FCD0
:10A0D00023792846E3B9BDE87040FEF787BB0A1D27
:10A0E00006464988134801F083FF0F4B0F486288EA
:10A0F0001149C01AC008000440F00300FCF77CFCC2
:10A10000FDF764F860B9304601F0D8FE20B970BDA3
:10A11000BDE87040FEF756BBBDE87040FDF76CB877
:10A12000FDF76AF8EFE700BF58D3020080D30200C2
:10A13000C0CC02009C2A00208CCC020010B5038801
:10A140001F2B82B0044657D011D93B2B05D0562B7C
:10A1500003D0212B27D002B010BDA0881321FFF718
:10A1600069FF0028F7D0FDF747F802B010BD102BAB
:10A1700023D0112BEFD1264B26482749C01AC008FF
:10A18000000440F00300FCF789FA244801F0AEFB1C
:10A1900008B1FDF731F80120FEF728FB0020FEF79B
:10A1A00011FB02B010BD02A9002321F8043D8088F4
:10A1B000FFF742FF0028CED0D5E7154B15481849C8
:10A1C000C01AC008000440F00300FCF767FA002240
:10A1D000A188144801F00CFFB0B9A188124800F022
:10A1E000E9FA08B1FDF708F80120FEF7EBFA0020C4
:10A1F000FEF7FCFA02B010BD00F108018088FFF7FD
:10A2000017FF0028A7D0AEE7FCF7F6FFE5E700BF91
:10A2100058D3020080D3020064CC0200C02A002080
:10A2200058CC02009C2A0020981D002000B54FF455
:10A23000004185B00020FCF7D1F908B1FCF7DCFF44
:10A24000FCF752F9FDF73AFA08B1FCF7D5FF012007
:10A25000FEF7E0FA40F2666201213C48FCF75EFF3F
:10A2600008B1FCF7C9FFFEF733F908B1FCF7C4FFEA
:10A2700001F0CCFE08B1FCF7BFFF04AC002344F8AA
:10A28000103D0120214601F099FF08B1FCF7B4FF11
:10A29000204602F04DF808B1FCF7AEFF1022002175
:10A2A000204602F02DF90123294A2A488DF804306E
:10A2B00021468DF80C3001F0B7FA08B1FCF79CFF8D
:10A2C00000220121234801F09BFA08B1FCF794FF1A
:10A2D000214A2048002101F065FA08B1FCF78CFF03
:10A2E00000211E4801F022F908B1FCF785FF1C4847
:10A2F00000F0E0F908B1FCF77FFF1A4B1A48009311
:10A30000214601F055FD08B1FCF776FF174B1848C0
:10A310001849C01AC008000440F00300FCF7BEF959
:10A320000C4801F0E3FA08B1FCF766FF0120FEF7E4
:10A330005DFA0020FEF746FA0020FEF743FAFCF72C
:10A340005DFC0028FBD1FEF7D9F8F8E7901D00204E
:10A3500049A00200C02A0020E8CC0200AC2A00205C
:10A360003DA00200ADA002009C2A002058D30200AC
:10A3700080D30200F8CC02002AB320B370B5437832
:10A38000092B2BD0E9B10024234601E0994218D9CA
:10A39000045D013423449BB2C5181C466D78092D19
:10A3A000F4D199420DD9C45C0233013C9BB2A4B2F2
:10A3B000C61833B12CB11046154602F0B3F8A042CE
:10A3C00003D0002070BD0020704722463146284649
:10A3D00002F07CF8B0FA80F0400970BD0029F0D09E
:10A3E000064616F8024B013CA4B2E3E72DE9F0471C
:10A3F0000388B0F80490112B98B059D01A2B8046DE
:10A4000047D0102B02D018B0BDE8F087394A9368C6
:10A4100018A8DB4340F8603D5168FDF7B7FA009B90
:10A420000193019B63B300273C46214601A8FDF739
:10A430008DFA28B118AB03EB4703013723F8284CFA
:10A440000134142CF1D10D970DAE0FCE02AC0FC418
:10A450000FCE0FC496E8070084E8070087B10DF11E
:10A460000A0A254E0AEB47073AF8025F234C2046BA
:10A4700029460434FDF760FAA642F8D1BA45F3D173
:10A48000B9F1130F1BD90420FCF7B6FE18B0BDE8D4
:10A49000F087047A1A482409012C494620D9FDF78F
:10A4A00041FA022C494617481ED0FDF73BFAAAE7AD
:10A4B00049461548FDF740FA18B0BDE8F08749460F
:10A4C0001148FDF72FFA49460C48FDF72BFA98F88A
:10A4D0000F30012B97D049460C48FDF723FA92E73D
:10A4E000FDF72AFA07484946FDF726FA18B0BDE8F5
:10A4F000F08700BF282B0020A02B00202C2B002051
:10A50000382B00203C2B0020302B0020342B002047
:10A510009BDF70479DDF70479EDF7047F0B5324B81
:10A520001D6890F8C632A1B01DB3C3EB0314C3EB92
:10A5300084035B00C6182D4CB678A778B74240D08C
:10A54000012D16D9A779B74241D0022D11D0A77A93
:10A55000B74210D0032D0CD0A77BB74225D0042DD5
:10A5600007D0A77CB74226D0052D02D0A57DB542E5
:10A5700033D021B0F0BDB4F808C0C75ABC45E9D10A
:10A580001B4B1E68002EF4D015460C467C22002181
:10A5900001A801F0B5FF012301A8ADF8065002940F
:10A5A0008DF80430B04721B0F0BDB4F80CC0C75AE4
:10A5B000BC45D4D1E4E7B4F810C0C75ABC45D3D1E8
:10A5C000DEE7B4F800C0C75ABC45B9D1D8E7B4F843
:10A5D00004C0C75ABC45B8D1D2E7A48AC35A9C422A
:10A5E000CED021B0F0BD00BFA82B0020B02E00209F
:10A5F000A02B00202DE9F04190F8C64290F8C5321A
:10A60000C4EB0415C4EB8504640000EB040E03EBFB
:10A61000C3069EF804C004EB46065D1C0A36654579
:10A6200082B006443AD0634530D2122515FB03446C
:10A6300004440CF1FF383589984505F1010610D026
:10A64000658CAE4217D0013DADF80650ADF8046000
:10A6500000230B70104601A9FFF75EFF02B0BDE8B2
:10A66000F081BEF80860AE4216D00135ADF8045056
:10A67000ADF80660ECE704F11C065D1CEFB2BC45CA
:10A680002B4680F8C55204F11204D4D801230020CF
:10A690000B7002B0BDE8F0810026EEE73389BEF80A
:10A6A00008008342F2D00133ADF80430ADF8060063
:10A6B000CEE700BF68B130B4074C0849084A094DDD
:10A6C00010600023236001240C702B60184630BCFE
:10A6D00070470E2318467047A82B0020A42B00209B
:10A6E000A02B0020AC2E002000283ED02D4B1B7844
:10A6F0002BB370B42C4C2D4B2268002A50D081789B
:10A700009D788D4233D0012A42D99D798D4233D034
:10A71000022A3DD09D7A8D4233D0032A38D09D7BCA
:10A720008D420ED0042A33D09D7C8D4213D0052A51
:10A730002ED09D7D8D4213D0042070BC7047082020
:10A7400070479E890588AE42ECD119490968E9B184
:10A75000002070BC70471E8A0588AE42E7D1F4E73E
:10A760009D8A01888D42E7D1EFE70E2070471E8851
:10A770000588AE42C7D1E8E79E880588AE42C7D1BA
:10A78000E3E71E890588AE42C7D1DEE7052AD3D8A4
:10A79000511C006843F822002160002070BC704703
:10A7A0000121F6E7A42B0020A82B0020B02E0020CA
:10A7B000A02B0020B0B31C4B1B7843B31B4B1B6872
:10A7C0002BB370B590F8C75204464DBB0E464FF4FC
:10A7D0003372294601F094FE154A164B106820602A
:10A7E000A4F8CA6284F8C95284F8C65284F8C552E3
:10A7F0002246304601211D60FFF78AFE112808D04D
:10A8000020B9012384F8C80284F8C73270BD08203B
:10A810007047012384F8C73284F8C832284670BDD7
:10A82000112070BD0E207047A42B0020A82B002003
:10A83000B02E0020AC2E002000B3F9B1644B1B7881
:10A84000E3B12DE9F04F0388113BA7B004460D4654
:10A85000222B1AD8DFE803F08219191919191919CE
:10A860001919191919191919191919191919191958
:10A87000191919191919192E1923130070478288EB
:10A88000B1F8CA329A4200F0AB8195F8C8321BB1D8
:10A890002388303B1F2B70D927B0BDE8F08F838809
:10A8A000B1F8CA62B34200F09D8095F8C822002A30
:10A8B00066D1F1E78388B1F8CA62B342F5D1C388A3
:10A8C00091F8C612002B00F07782DFF81491D9F8C6
:10A8D0000080B8F1000F00F0C085C1EB0113C1EB9F
:10A8E00083035B00EA183B4F9278B878904200F0FF
:10A8F0007483B8F1010F40F2E085B879904200F01E
:10A90000D683B8F1020F18D0B87A904200F0D683FF
:10A91000B8F1030F11D0B87B904200F0D683B8F1A4
:10A92000040F0AD0B87C904200F0D683B8F1050F2E
:10A9300003D0B87D904200F0D68395F8C932013338
:10A94000DBB2434585F8C932C0F02083224B032196
:10A9500000225E80197085F8C72296E78288B1F8D8
:10A96000CA329A4298D100234FF6FF7281F8C7325B
:10A9700081F8C832A1F8CA228EE7A388B5F8CA6266
:10A980009E4289D14FF433720021284601F0B8FD70
:10A99000104B124C186828600023A5F8CA6285F88D
:10A9A000C932304685F8C63285F8C5322A460121BB
:10A9B0002360FFF7ADFD112800F0E28200287FF44C
:10A9C0006BAF012385F8C80285F8C73264E700BF82
:10A9D000A42B0020B02E0020AC2B0020AC2E002099
:10A9E000A82B0020C388002B40F0868191F8C682F6
:10A9F000827AC8EB0813C8EB83035E008F1997F8BF
:10AA000004904A44062A00F3A282D2B23A71414627
:10AA100091454B4680F0B38020464FF0760C0CFBFE
:10AA200008FC09EBC9020CEB420250F80C9F2A44C7
:10AA3000D0F80480C2F80E80C2F80A9000895082D3
:10AA40004FF0000EA2F814E0A2F816E0A2F818E009
:10AA5000A2F81AE03A79581C824240F2178200EBC1
:10AA6000C00220460CEB420250F816AF2A44D0F840
:10AA70000490C2F80E90C2F80AA000895082A2F891
:10AA800014E0A2F816E0A2F818E0A2F81AE03A7969
:10AA9000981C824240F2FA8100EBC00220460CEB87
:10AAA000420250F820AF2A44D0F80490C2F80E9029
:10AAB000C2F80AA000895082A2F814E0A2F816E0B9
:10AAC000A2F818E0A2F81AE03A79D81C904280F077
:10AAD000DD8100EBC00220460CEB420250F82AAFA9
:10AAE0002A44D0F80490C2F80E90C2F80AA0008957
:10AAF0005082A2F814E0A2F816E0A2F818E0A2F83A
:10AB00001AE03A79181D904280F0C08100EBC00233
:10AB100020460CEB420250F834AF2A44D0F804909F
:10AB2000C2F80E90C2F80AA000895082A2F814E080
:10AB3000A2F816E0A2F818E0A2F81AE03A79581D37
:10AB4000904280F0A381A04600EBC00258F83E9FDF
:10AB50000CEB42022A44D8F804C0C2F80EC0C2F876
:10AB60000A90B8F808C0A2F812C0A2F814E0A2F83F
:10AB700016E0A2F818E0A2F81AE03A790633013B91
:10AB800003EBC303762005EB430300FB01F13344E1
:10AB90006F185B8A3E89B34280F0AE80062A00F0CF
:10ABA000AB8085F8C522A088002A40F02C83FB8862
:10ABB000ADF81C3007A9ADF81E60FFF7ABFC00280C
:10ABC0003FF463AE002385F8C7320146A2882846C9
:10ABD000FFF7A4FCAE4BA2885A8003221A7054E6F9
:10ABE000C08891F8C61295F8C57240BB638933B32B
:10ABF000762606FB01F607EBC70306EB43062E4459
:10AC00002246D389A3F52453082B6FD8DFE803F03D
:10AC10006C70696E6E6E6E6E0500B2F80CC0B38A11
:10AC2000A6F81AC02BB1F38A1BB1338B0BB1738B0F
:10AC30002BB963890130984202F10602E1D37623F1
:10AC400003FB015301371B7900269F428DF81B60DF
:10AC500040F0088101238DF81B30DFF83C92B4F8F6
:10AC60000480D9F80060002E00F04284762202FBB6
:10AC700001F2AB18874F9B78B878984200F05C825D
:10AC8000012E40F23C84B879984200F08982022E6D
:10AC900015D0B87A984200F0C182032E0FD0B87B4D
:10ACA000984200F0C982042E09D0B87C984200F086
:10ACB0003583052E03D0B87D984200F06F8395F858
:10ACC000C9320133DBB2B34285F8C932C0F0118218
:10ACD0006F4B03210022A3F80280197085F8C72268
:10ACE000D3E59389B3829DE79389F382B38A99E789
:10ACF00093893383B38A95E7002785F8C572A288C4
:10AD00000DF11B012846FFF775FC0646002840F0B0
:10AD1000C5809DF81B30002B3FF4B7ADDFF878916C
:10AD2000B4F804A0D9F8003095F8C612002B00F052
:10AD3000E983C1EB0112C1EB82025200A818554F02
:10AD4000807897F802C0844500F0AD82012B40F274
:10AD5000DF8397F806C0844500F0E782022B19D004
:10AD600097F80AC0844500F0EF82032B12D097F8C1
:10AD70000EC0844500F01F83042B0BD097F812C03F
:10AD8000844500F05C83052B04D097F816C08445F9
:10AD900000F05D8395F8C9220132D2B29A4285F85B
:10ADA000C922C0F057823A4B03210022A3F802A027
:10ADB000197085F8C72268E5C1EB0113C1EB830365
:10ADC00005EB43030269C3F8062095F8C522808885
:10ADD000002A40F0AE80DA881B89ADF81E3007A942
:10ADE000ADF81C20FFF796FB064600283FF44DAD5A
:10ADF000294A95F8C6321168002285F8C722B4F8AE
:10AE0000048049B3C3EB0312C3EB82035B00EA186F
:10AE1000204F9278B878904200F0A58201291BD982
:10AE2000B879904200F0C082022915D0B87A9042D9
:10AE300000F0EB8203290FD0B87B904200F014831E
:10AE4000042909D0B87C904200F03083052903D052
:10AE5000B97D914200F024830D4B0322A3F80280B8
:10AE60001A7012E585F8C572A2880DF11B012846FB
:10AE7000FFF7C0FB8046002840F0E1809DF81B30C2
:10AE8000002B3FF402AD95F8C612E6E6034676E6DF
:10AE9000AC2B0020B02E0020A82B0020C74B85F83B
:10AEA000C7721968B4F8048095F8C6320029D3D067
:10AEB000C3EB0312C3EB82035B00EA18C04F927826
:10AEC000B878904200F073810129C5D9B8799042D1
:10AED00000F0AB810229BFD0B87A904200F0B38174
:10AEE0000329B9D0B87B904200F027820429B3D05F
:10AEF000B87C904200F030820529ADD0B97D9142F6
:10AF0000AAD1BA8AEB5A9A42A6D1AE4B1F68002F3B
:10AF1000A2D07C22002107A801F0F2FA0123ADF8AB
:10AF20001E8007A808968DF81C30B847B4F8048036
:10AF300092E7013AD2B2762602EBC20206FB01F199
:10AF400001EB42022A44528A013292B244E79E4BFC
:10AF50009E4A9F49A3EB020A4FEADA0A06234FEA08
:10AF60000A4A3B714AF0020AAA5B5046FBF744FDCD
:10AF700098495046FBF792FB95F8C6123A7947E597
:10AF8000012385F8C73285F8C83285E495F8C632C2
:10AF90000133DBB2C3EB0312C3EB82025200A918E8
:10AFA00057F8230085F8C632002385F8C532A8502B
:10AFB0000A460B7130460121FFF7AAFA00283FF438
:10AFC00064AC85F8C732014632462846FFF7A6FA38
:10AFD000814B03225E801A7057E435F803C038882D
:10AFE00084457FF486AC774B1B680493002B3FF4B9
:10AFF000A4ACDFF8E8B1DBF800A0BAF1050F3FF62A
:10B000009CAC754B4FEACA12CDE90132134476224B
:10B0100002FB0151181D5E80039301F066FADDE921
:10B020000336DE67DDE901300AF101020221424503
:10B03000CBF80020195400F0D380A6887DE45F4B44
:10B0400085F8C7621968A68895F8C63249B3C3EB7C
:10B050000312C3EB82035B00EA18594F9278B87869
:10B06000904200F0B08101291BD9B879904200F0DC
:10B07000C581022915D0B87A904200F0FC810329DD
:10B080000FD0B87B904200F0FD81042909D0B87C34
:10B09000904200F0FE81052903D0B97D914200F075
:10B0A00010824D4B03225E801A70FFF7EEBB35F81D
:10B0B00003C0B88884457FF424AC94E735F803C016
:10B0C000388984457FF424AC8DE735F803C0B8890E
:10B0D00084457FF424AC86E735F803C0388A84457C
:10B0E0007FF424AC7FE7EB5ABA8A9A427FF425AC0E
:10B0F00079E795F8C6320133DBB2C3EB0312C3EB39
:10B1000082025200A91857F8230085F8C63200239E
:10B1100085F8C532A8500A460B7140460121FFF759
:10B12000F7F900283FF4B1AB014685F8C732424633
:10B130002846FFF7F3F98FE6B7F800C0A85A844510
:10B140007FF49EAD1F4B1868049000283FF4B7AD04
:10B15000DFF888B0DBF800A0BAF1050F3FF6AFAD1D
:10B160001D4B4FEACA12CDE901321344762202FB8D
:10B170000151181DA3F80280039301F0B6F9DDE92F
:10B180000330D867DDE901300AF101010022B14244
:10B19000CBF800101A5400F03F81B4F804808EE51B
:10B1A000B7F804C0A85A84457FF471ADCAE735F8F2
:10B1B00003C0388884457FF487AEA6E6A82B00201C
:10B1C000B02E0020A02B002088D3020058D302000C
:10B1D00018CD020060CD0200AC2B0020AC2E002068
:10B1E0001E464FF0000AF36F30469847D9F80030FA
:10B1F0000AF1010A9A4506F18006F4D39846002325
:10B20000CBF8003019E7531EDBB203EBC30301EBAD
:10B2100043032B445B8A01339BB2C9E4B7F808C0EF
:10B22000A85A84457FF439AD8CE735F803C0B88857
:10B2300084457FF44FAE68E6B7F80CC0A85A844541
:10B240007FF431AD7EE735F803C0388984457FF45B
:10B2500047AE5AE695F8C6320133DBB2C3EB0312B0
:10B26000C3EB82025200A91857F8230085F8C632B2
:10B27000002385F8C532A8500A460B7150460121BB
:10B28000FFF746F9014600283FF4FFAA85F8C732C8
:10B2900052462846FFF742F99E4B0322A3F802A02C
:10B2A0001A70FFF7F2BA35F802E0B7F800C0E645C9
:10B2B0007FF44CAD984A12680292002A3FF46AADBE
:10B2C000DFF858B2DBF80080B8F1050F3FF662AD49
:10B2D0000593904B01934FEAC8101A181346039038
:10B2E0007622184602FB0151A3F802A00430049311
:10B2F00001F0FBF80498019B84460298CCF87C008E
:10B30000039800211954059B08F101029342CBF8E0
:10B31000002000F0DC80B4F804A03BE5B7F810C0D2
:10B32000A85A84457FF4C5AC0CE735F802E0B7F8BD
:10B3300004C0E6457FF412ADBCE735F803C0B88918
:10B3400084457FF4D3ADE0E535F802E0B7F808C0F6
:10B35000E6457FF40AADADE735F803C0388A844589
:10B360007FF4CAADD1E535F803C0388884457FF451
:10B3700055AD694B1F68002F3FF46EAD7C22002154
:10B3800007A801F0BDF80123ADF81E80089607A8B4
:10B390008DF81C30B847B4F804805DE5AB5ABA8A22
:10B3A0009A427FF48CACCDE635F803C0B88884456A
:10B3B0007FF43AADDDE735F802E0B7F80CC0E645BA
:10B3C0007FF4DAAC76E7B7F800C0E85A84457FF43A
:10B3D0004AAE514B1F68002F3FF463AE7C22002120
:10B3E00007A801F08DF80123ADF81E6007A8CDF87D
:10B3F00020808DF81C30B847A68852E6B7F804C004
:10B40000E85A84457FF435AEE3E735F803C0388960
:10B4100084457FF40FADACE7DDF804809246D8F8A0
:10B420007C3040469847D9F800600AF1010AB245DD
:10B4300008F18008F3D30023CBF80030ADE635F8EF
:10B4400002E0B7F810C0E6457FF49DAC32E7AA5A97
:10B45000B88A90427FF49EAC2CE795F8C93201334C
:10B4600085F8C932FFF772BA35F803C0B889844548
:10B470007FF4E6AC7DE7B7F808C0E85A84457FF46E
:10B48000FEADA6E7B7F80CC0E85A84457FF4FDADE1
:10B490009FE7B7F810C0E85A84457FF4FCAD98E701
:10B4A000BA8AEB5A9A427FF4D7AC62E735F803C008
:10B4B000388A84457FF4CAAC5BE74FF00108FFF798
:10B4C0003CBABA8AEB5A9A427FF4EBAD81E7DDF8D9
:10B4D0000480D8F87C3040469847D9F800300136CF
:10B4E0009E4208F18008F4D30022CBF8002012E736
:10B4F00095F8C932013385F8C932FFF7E9BB012657
:10B50000FFF7DDBB95F8C932013385F8C9324AE44B
:10B5100001233FE4AC2B0020A02B0020AC2E002008
:10B5200090DF7047A5DF7047B5DF704708B90E2080
:10B53000704730B403464FF0171200201B2541F628
:10B540001B3419611A60C3F806201D719872D872F5
:10B550009C8130BC704700BF70B5858884B01DBB2E
:10B560000388232B0C4621D06FD93A2B54D0552B6E
:10B5700000F0B180242B00F09C80A37AA3B1E18875
:10B580000020FFF7CFFF00286DD011280CD0FDF769
:10B5900001F87A4A7A4B7B499B1ADB081B04024666
:10B5A00043F00100FBF728FA04B070BD037A0A7B70
:10B5B0000395934228BF134602A96A462846009580
:10B5C000ADF80830ADF80A30ADF80450FFF7A8FF29
:10B5D0000028D2D0694B6A4EF61AF608FCF7DAFF5B
:10B5E000360446F0010603462A4630466649FBF714
:10B5F00083FABDF80020BDF8023002B91BB16349DF
:10B600003046FBF779FABDF80420002AB5D0304661
:10B610005F49FBF7F1F9B0E74389C98822698B429A
:10B6200028BF0B46172B38BF172323814AB1E17A75
:10B6300039B140F677210291ADF80C3002A92046CD
:10B6400090470023E372A372AEE7102B0FD0112BAB
:10B6500093D14FF0171241F61B338D72CD72C1F8A2
:10B6600006208B81A0E70122A072E2729CE70B7991
:10B670000B73C27B012A52D0022A4DD0C98822897D
:10B680008A425DD3627B9A42BFF477AF00259BB2BA
:10B6900028466A4602A9ADF80830ADF80A3003958D
:10B6A0000095ADF80450FFF73BFF00283FF465AF6D
:10B6B00090E70B69027A4A73002B3FF45EAF4DF6B8
:10B6C0007A21ADF80C5002918DF80C2002A9204689
:10B6D0009847A37A52E7C388C988A572172B38BF49
:10B6E00017238B4228BF0B4628462381FFF71CFFF8
:10B6F000C0B9E37A002B7FF440AF2369002B3FF4FD
:10B700003CAF40F6772122890291ADF80C2002A9C6
:10B7100020469847A37A31E74988E180AFE7098856
:10B72000E180ACE7FCF736FF144A154B19499B1A28
:10B73000DB081B04024643F00100FBF75DF9D8E784
:10B740000020FFF7EFFE18B90123E372237B99E78E
:10B75000112803D10123A372237B93E7FCF71AFF7F
:10B76000064A074B07499B1ADB081B04024643F0B5
:10B770000100FBF741F9237B84E700BF58D30200A7
:10B78000A8D30200ACCE0200C8CD020014CE020045
:10B7900054CE0200E0CE02008ADF70478BDF704794
:10B7A0008CDF704730B32AB311BB70B50446104626
:10B7B000164600F0B7FE0138C0B21F281ED894F814
:10B7C0002050CDB93146204600F0A2FE78B194F861
:10B7D0002000431C84F8203004EB4014304600F075
:10B7E000A1FE31460246204600F07FFE284670BD8D
:10B7F000072070470E207047042070BD0C2070BDDC
:10B8000068B1CB060DD011F0010116BF012380F8FD
:10B81000211080F8213080F82220002070470E206F
:10B8200070470720704700BF58B370B50D46C2631C
:10B8300000212322044600F063FE25B32B7984F80F
:10B8400023302B7B84F82C302B68A3B31E685868F8
:10B850009968C4F83610C4F82E60C4F832009B8989
:10B860006387AB68002B39D01868596804F124034A
:10B8700003C304F140021F232266A4F864300020B1
:10B8800070BD0E20704794F82E30174AA58643F0FD
:10B89000040365F3C403A0265020012184F82E3050
:10B8A0004FF0C87384F823502686608684F82F10E2
:10B8B000C4E90923DDE794F82E20A38642F00402B0
:10B8C00063F3C402A0200123502184F82E20208697
:10B8D000618684F82F30AB68002BC5D1024A4FF047
:10B8E000C873C4E90923C4E70600180010B310B5F3
:10B8F000044686B01422002101A800F001FEFFF7E3
:10B900004DFF94F82E301B070BD404F1600104F1B5
:10B910002E00FFF741FF044630F008000CD106B0BE
:10B9200010BDE36B002BF0D0012201A88DF804209C
:10B930009847EAE70E207047064B07480749C01AA8
:10B94000C008000440F001002246FBF755F82046ED
:10B9500006B010BD58D3020098D3020020CF0200D9
:10B960002DE9F04F0388103B8DB005460C4600F1E1
:10B970000806102B34D8DFE803F09F33333333331A
:10B9800033333333338A334E3333360094F82C60F9
:10B9900094F823200A3504F1240900218DF80810B9
:10B9A000002A00F0D980FFF7F9FE142207A800F062
:10B9B000A7FD33464A4639462846FFF7F1FE0623DF
:10B9C00008908DF81C30E36B18B12BB107A898478D
:10B9D000E36B0BB102A8984741460020FFF7DCFE5D
:10B9E0000DB0BDE8F08F142207A8002100F088FDFB
:10B9F000E26B002AF4D030687168357A08AB03C373
:10BA00002E3405211D700B9407A88DF81C1090474B
:10BA10000DB0BDE8F08F02A81422002100F070FDE7
:10BA200094F82E3004F12E071B07069704F16008E6
:10BA300056D5022302A88DF808300396E36B984789
:10BA400041460020FFF7A8FE94F82330002BC7D012
:10BA500094F82C60FFF7A2FE1422002107A800F042
:10BA60004FFD3346394605F10A0004F12402FFF781
:10BA700097FE062308908DF81C300028B0D0E36BA9
:10BA8000002BADD007A898470DB0BDE8F08F07A8F0
:10BA90001422002100F034FD2B7A012BA0D1E26B9F
:10BAA000002A9DD02E3404210B948DF8203007A855
:10BAB0008DF81C10904793E7142207A8002100F08E
:10BAC0001FFDE36BAA88ADF824202E3407220896C8
:10BAD0008DF81C200B94002B82D007A89847D3E741
